{
  "contractName": "BSMWINE",
  "abi": [
    {
      "inputs": [
        {
          "internalType": "string",
          "name": "_baseURI",
          "type": "string"
        }
      ],
      "stateMutability": "nonpayable",
      "type": "constructor"
    },
    {
      "anonymous": false,
      "inputs": [
        {
          "indexed": true,
          "internalType": "address",
          "name": "account",
          "type": "address"
        },
        {
          "indexed": true,
          "internalType": "address",
          "name": "operator",
          "type": "address"
        },
        {
          "indexed": false,
          "internalType": "bool",
          "name": "approved",
          "type": "bool"
        }
      ],
      "name": "ApprovalForAll",
      "type": "event"
    },
    {
      "anonymous": false,
      "inputs": [
        {
          "indexed": true,
          "internalType": "address",
          "name": "minter",
          "type": "address"
        },
        {
          "indexed": true,
          "internalType": "uint256",
          "name": "tokenId",
          "type": "uint256"
        }
      ],
      "name": "Minted",
      "type": "event"
    },
    {
      "anonymous": false,
      "inputs": [
        {
          "indexed": true,
          "internalType": "address",
          "name": "previousOwner",
          "type": "address"
        },
        {
          "indexed": true,
          "internalType": "address",
          "name": "newOwner",
          "type": "address"
        }
      ],
      "name": "OwnershipTransferred",
      "type": "event"
    },
    {
      "anonymous": false,
      "inputs": [
        {
          "indexed": true,
          "internalType": "address",
          "name": "operator",
          "type": "address"
        },
        {
          "indexed": true,
          "internalType": "address",
          "name": "from",
          "type": "address"
        },
        {
          "indexed": true,
          "internalType": "address",
          "name": "to",
          "type": "address"
        },
        {
          "indexed": false,
          "internalType": "uint256[]",
          "name": "ids",
          "type": "uint256[]"
        },
        {
          "indexed": false,
          "internalType": "uint256[]",
          "name": "values",
          "type": "uint256[]"
        }
      ],
      "name": "TransferBatch",
      "type": "event"
    },
    {
      "anonymous": false,
      "inputs": [
        {
          "indexed": true,
          "internalType": "address",
          "name": "operator",
          "type": "address"
        },
        {
          "indexed": true,
          "internalType": "address",
          "name": "from",
          "type": "address"
        },
        {
          "indexed": true,
          "internalType": "address",
          "name": "to",
          "type": "address"
        },
        {
          "indexed": false,
          "internalType": "uint256",
          "name": "id",
          "type": "uint256"
        },
        {
          "indexed": false,
          "internalType": "uint256",
          "name": "value",
          "type": "uint256"
        }
      ],
      "name": "TransferSingle",
      "type": "event"
    },
    {
      "anonymous": false,
      "inputs": [
        {
          "indexed": false,
          "internalType": "string",
          "name": "value",
          "type": "string"
        },
        {
          "indexed": true,
          "internalType": "uint256",
          "name": "id",
          "type": "uint256"
        }
      ],
      "name": "URI",
      "type": "event"
    },
    {
      "inputs": [
        {
          "internalType": "uint256",
          "name": "",
          "type": "uint256"
        }
      ],
      "name": "_totalSupply",
      "outputs": [
        {
          "internalType": "uint256",
          "name": "",
          "type": "uint256"
        }
      ],
      "stateMutability": "view",
      "type": "function"
    },
    {
      "inputs": [
        {
          "internalType": "address",
          "name": "account",
          "type": "address"
        },
        {
          "internalType": "uint256",
          "name": "id",
          "type": "uint256"
        }
      ],
      "name": "balanceOf",
      "outputs": [
        {
          "internalType": "uint256",
          "name": "",
          "type": "uint256"
        }
      ],
      "stateMutability": "view",
      "type": "function"
    },
    {
      "inputs": [
        {
          "internalType": "address[]",
          "name": "accounts",
          "type": "address[]"
        },
        {
          "internalType": "uint256[]",
          "name": "ids",
          "type": "uint256[]"
        }
      ],
      "name": "balanceOfBatch",
      "outputs": [
        {
          "internalType": "uint256[]",
          "name": "",
          "type": "uint256[]"
        }
      ],
      "stateMutability": "view",
      "type": "function"
    },
    {
      "inputs": [
        {
          "internalType": "address",
          "name": "account",
          "type": "address"
        },
        {
          "internalType": "address",
          "name": "operator",
          "type": "address"
        }
      ],
      "name": "isApprovedForAll",
      "outputs": [
        {
          "internalType": "bool",
          "name": "",
          "type": "bool"
        }
      ],
      "stateMutability": "view",
      "type": "function"
    },
    {
      "inputs": [],
      "name": "mintIsActive",
      "outputs": [
        {
          "internalType": "bool",
          "name": "",
          "type": "bool"
        }
      ],
      "stateMutability": "view",
      "type": "function"
    },
    {
      "inputs": [],
      "name": "mintPrice",
      "outputs": [
        {
          "internalType": "uint256",
          "name": "",
          "type": "uint256"
        }
      ],
      "stateMutability": "view",
      "type": "function"
    },
    {
      "inputs": [],
      "name": "name",
      "outputs": [
        {
          "internalType": "string",
          "name": "",
          "type": "string"
        }
      ],
      "stateMutability": "view",
      "type": "function"
    },
    {
      "inputs": [],
      "name": "owner",
      "outputs": [
        {
          "internalType": "address",
          "name": "",
          "type": "address"
        }
      ],
      "stateMutability": "view",
      "type": "function"
    },
    {
      "inputs": [],
      "name": "renounceOwnership",
      "outputs": [],
      "stateMutability": "nonpayable",
      "type": "function"
    },
    {
      "inputs": [],
      "name": "royaltyPercentage",
      "outputs": [
        {
          "internalType": "uint256",
          "name": "",
          "type": "uint256"
        }
      ],
      "stateMutability": "view",
      "type": "function"
    },
    {
      "inputs": [
        {
          "internalType": "address",
          "name": "from",
          "type": "address"
        },
        {
          "internalType": "address",
          "name": "to",
          "type": "address"
        },
        {
          "internalType": "uint256[]",
          "name": "ids",
          "type": "uint256[]"
        },
        {
          "internalType": "uint256[]",
          "name": "amounts",
          "type": "uint256[]"
        },
        {
          "internalType": "bytes",
          "name": "data",
          "type": "bytes"
        }
      ],
      "name": "safeBatchTransferFrom",
      "outputs": [],
      "stateMutability": "nonpayable",
      "type": "function"
    },
    {
      "inputs": [
        {
          "internalType": "address",
          "name": "operator",
          "type": "address"
        },
        {
          "internalType": "bool",
          "name": "approved",
          "type": "bool"
        }
      ],
      "name": "setApprovalForAll",
      "outputs": [],
      "stateMutability": "nonpayable",
      "type": "function"
    },
    {
      "inputs": [],
      "name": "supplyNFT",
      "outputs": [
        {
          "internalType": "uint256",
          "name": "",
          "type": "uint256"
        }
      ],
      "stateMutability": "view",
      "type": "function"
    },
    {
      "inputs": [
        {
          "internalType": "bytes4",
          "name": "interfaceId",
          "type": "bytes4"
        }
      ],
      "name": "supportsInterface",
      "outputs": [
        {
          "internalType": "bool",
          "name": "",
          "type": "bool"
        }
      ],
      "stateMutability": "view",
      "type": "function"
    },
    {
      "inputs": [],
      "name": "symbol",
      "outputs": [
        {
          "internalType": "string",
          "name": "",
          "type": "string"
        }
      ],
      "stateMutability": "view",
      "type": "function"
    },
    {
      "inputs": [
        {
          "internalType": "address",
          "name": "newOwner",
          "type": "address"
        }
      ],
      "name": "transferOwnership",
      "outputs": [],
      "stateMutability": "nonpayable",
      "type": "function"
    },
    {
      "inputs": [
        {
          "internalType": "uint256",
          "name": "",
          "type": "uint256"
        }
      ],
      "name": "wineries",
      "outputs": [
        {
          "internalType": "address",
          "name": "",
          "type": "address"
        }
      ],
      "stateMutability": "view",
      "type": "function"
    },
    {
      "inputs": [
        {
          "internalType": "uint256",
          "name": "percentage",
          "type": "uint256"
        }
      ],
      "name": "setRoyaltyPercentage",
      "outputs": [],
      "stateMutability": "nonpayable",
      "type": "function"
    },
    {
      "inputs": [
        {
          "internalType": "string",
          "name": "baseURI",
          "type": "string"
        }
      ],
      "name": "setBaseURI",
      "outputs": [],
      "stateMutability": "nonpayable",
      "type": "function"
    },
    {
      "inputs": [
        {
          "internalType": "uint256",
          "name": "_mintPrice",
          "type": "uint256"
        }
      ],
      "name": "setMintPrice",
      "outputs": [],
      "stateMutability": "nonpayable",
      "type": "function"
    },
    {
      "inputs": [],
      "name": "flipMintState",
      "outputs": [],
      "stateMutability": "nonpayable",
      "type": "function"
    },
    {
      "inputs": [],
      "name": "withdraw",
      "outputs": [],
      "stateMutability": "nonpayable",
      "type": "function"
    },
    {
      "inputs": [
        {
          "internalType": "uint256",
          "name": "tokenId",
          "type": "uint256"
        }
      ],
      "name": "mint",
      "outputs": [],
      "stateMutability": "payable",
      "type": "function"
    },
    {
      "inputs": [
        {
          "internalType": "address",
          "name": "from",
          "type": "address"
        },
        {
          "internalType": "address",
          "name": "to",
          "type": "address"
        },
        {
          "internalType": "uint256",
          "name": "tokenId",
          "type": "uint256"
        },
        {
          "internalType": "uint256",
          "name": "amount",
          "type": "uint256"
        },
        {
          "internalType": "bytes",
          "name": "data",
          "type": "bytes"
        }
      ],
      "name": "safeTransferFrom",
      "outputs": [],
      "stateMutability": "nonpayable",
      "type": "function"
    },
    {
      "inputs": [
        {
          "internalType": "uint256",
          "name": "tokenId",
          "type": "uint256"
        }
      ],
      "name": "uri",
      "outputs": [
        {
          "internalType": "string",
          "name": "",
          "type": "string"
        }
      ],
      "stateMutability": "view",
      "type": "function"
    },
    {
      "inputs": [
        {
          "internalType": "uint256",
          "name": "tokenId",
          "type": "uint256"
        }
      ],
      "name": "totalSupply",
      "outputs": [
        {
          "internalType": "uint256",
          "name": "",
          "type": "uint256"
        }
      ],
      "stateMutability": "view",
      "type": "function"
    }
  ],
  "bytecode": "0x608060405260405180602001604052805f81525060039081620000239190620004b5565b506040518060400160405280600981526020017f544f4b454e504c41590000000000000000000000000000000000000000000000815250600690816200006a9190620004b5565b506040518060400160405280600381526020017f544b50000000000000000000000000000000000000000000000000000000000081525060079081620000b19190620004b5565b50662386f26fc100006008555f60095f6101000a81548160ff0219169083151502179055506005600a55600a600b55348015620000ec575f80fd5b506040516200455b3803806200455b8339818101604052810190620001129190620006f1565b8062000124816200015d60201b60201c565b5062000145620001396200017260201b60201c565b6200017960201b60201c565b62000156816200023c60201b60201c565b5062000740565b80600290816200016e9190620004b5565b5050565b5f33905090565b5f60055f9054906101000a900473ffffffffffffffffffffffffffffffffffffffff1690508160055f6101000a81548173ffffffffffffffffffffffffffffffffffffffff021916908373ffffffffffffffffffffffffffffffffffffffff1602179055508173ffffffffffffffffffffffffffffffffffffffff168173ffffffffffffffffffffffffffffffffffffffff167f8be0079c531659141344cd1fd0a4f28419497f9722a3daafe3b4186f6b6457e060405160405180910390a35050565b80600390816200024d9190620004b5565b5050565b5f81519050919050565b7f4e487b71000000000000000000000000000000000000000000000000000000005f52604160045260245ffd5b7f4e487b71000000000000000000000000000000000000000000000000000000005f52602260045260245ffd5b5f6002820490506001821680620002cd57607f821691505b602082108103620002e357620002e262000288565b5b50919050565b5f819050815f5260205f209050919050565b5f6020601f8301049050919050565b5f82821b905092915050565b5f60088302620003477fffffffffffffffffffffffffffffffffffffffffffffffffffffffffffffffff826200030a565b6200035386836200030a565b95508019841693508086168417925050509392505050565b5f819050919050565b5f819050919050565b5f6200039d6200039762000391846200036b565b62000374565b6200036b565b9050919050565b5f819050919050565b620003b8836200037d565b620003d0620003c782620003a4565b84845462000316565b825550505050565b5f90565b620003e6620003d8565b620003f3818484620003ad565b505050565b5b818110156200041a576200040e5f82620003dc565b600181019050620003f9565b5050565b601f82111562000469576200043381620002e9565b6200043e84620002fb565b810160208510156200044e578190505b620004666200045d85620002fb565b830182620003f8565b50505b505050565b5f82821c905092915050565b5f6200048b5f19846008026200046e565b1980831691505092915050565b5f620004a583836200047a565b9150826002028217905092915050565b620004c08262000251565b67ffffffffffffffff811115620004dc57620004db6200025b565b5b620004e88254620002b5565b620004f58282856200041e565b5f60209050601f8311600181146200052b575f841562000516578287015190505b62000522858262000498565b86555062000591565b601f1984166200053b86620002e9565b5f5b8281101562000564578489015182556001820191506020850194506020810190506200053d565b8683101562000584578489015162000580601f8916826200047a565b8355505b6001600288020188555050505b505050505050565b5f604051905090565b5f80fd5b5f80fd5b5f80fd5b5f80fd5b5f601f19601f8301169050919050565b620005cd82620005b2565b810181811067ffffffffffffffff82111715620005ef57620005ee6200025b565b5b80604052505050565b5f6200060362000599565b9050620006118282620005c2565b919050565b5f67ffffffffffffffff8211156200063357620006326200025b565b5b6200063e82620005b2565b9050602081019050919050565b5f5b838110156200066a5780820151818401526020810190506200064d565b5f8484015250505050565b5f6200068b620006858462000616565b620005f8565b905082815260208101848484011115620006aa57620006a9620005ae565b5b620006b78482856200064b565b509392505050565b5f82601f830112620006d657620006d5620005aa565b5b8151620006e884826020860162000675565b91505092915050565b5f60208284031215620007095762000708620005a2565b5b5f82015167ffffffffffffffff811115620007295762000728620005a6565b5b6200073784828501620006bf565b91505092915050565b613e0d806200074e5f395ff3fe60806040526004361061017f575f3560e01c80636817c76c116100d0578063a22cb46511610089578063f242432a11610063578063f242432a1461054b578063f2fde38b14610573578063f4a0a5281461059b578063f4b77a98146105c35761017f565b8063a22cb465146104ab578063bd85b039146104d3578063e985e9c51461050f5761017f565b80636817c76c146103d1578063715018a6146103fb5780638a71bb2d146104115780638da5cb5b1461043b57806395d89b4114610465578063a0712d681461048f5761017f565b8063471a42941161013d57806355f804b31161011757806355f804b31461032f5780635977e82a1461035757806359c74f291461039357806361ba27da146103a95761017f565b8063471a42941461029f5780634c73501a146102c95780634e1273f4146102f35761017f565b8062fdd58e1461018357806301ffc9a7146101bf57806306fdde03146101fb5780630e89341c146102255780632eb2c2d6146102615780633ccfd60b14610289575b5f80fd5b34801561018e575f80fd5b506101a960048036038101906101a4919061240b565b6105ff565b6040516101b69190612458565b60405180910390f35b3480156101ca575f80fd5b506101e560048036038101906101e091906124c6565b6106c2565b6040516101f2919061250b565b60405180910390f35b348015610206575f80fd5b5061020f6107a3565b60405161021c91906125ae565b60405180910390f35b348015610230575f80fd5b5061024b600480360381019061024691906125ce565b61082f565b60405161025891906125ae565b60405180910390f35b34801561026c575f80fd5b50610287600480360381019061028291906127e9565b61084a565b005b348015610294575f80fd5b5061029d6108eb565b005b3480156102aa575f80fd5b506102b361093e565b6040516102c0919061250b565b60405180910390f35b3480156102d4575f80fd5b506102dd610950565b6040516102ea9190612458565b60405180910390f35b3480156102fe575f80fd5b5061031960048036038101906103149190612974565b610956565b6040516103269190612aa1565b60405180910390f35b34801561033a575f80fd5b5061035560048036038101906103509190612b5f565b610a6d565b005b348015610362575f80fd5b5061037d600480360381019061037891906125ce565b610a81565b60405161038a9190612458565b60405180910390f35b34801561039e575f80fd5b506103a7610a96565b005b3480156103b4575f80fd5b506103cf60048036038101906103ca91906125ce565b610ac8565b005b3480156103dc575f80fd5b506103e5610ada565b6040516103f29190612458565b60405180910390f35b348015610406575f80fd5b5061040f610ae0565b005b34801561041c575f80fd5b50610425610af3565b6040516104329190612458565b60405180910390f35b348015610446575f80fd5b5061044f610af9565b60405161045c9190612bb5565b60405180910390f35b348015610470575f80fd5b50610479610b21565b60405161048691906125ae565b60405180910390f35b6104a960048036038101906104a491906125ce565b610bad565b005b3480156104b6575f80fd5b506104d160048036038101906104cc9190612bf8565b610dc6565b005b3480156104de575f80fd5b506104f960048036038101906104f491906125ce565b610ddc565b6040516105069190612458565b60405180910390f35b34801561051a575f80fd5b5061053560048036038101906105309190612c36565b610df6565b604051610542919061250b565b60405180910390f35b348015610556575f80fd5b50610571600480360381019061056c9190612c74565b610e84565b005b34801561057e575f80fd5b5061059960048036038101906105949190612d07565b610f4c565b005b3480156105a6575f80fd5b506105c160048036038101906105bc91906125ce565b610fce565b005b3480156105ce575f80fd5b506105e960048036038101906105e491906125ce565b610fe0565b6040516105f69190612bb5565b60405180910390f35b5f8073ffffffffffffffffffffffffffffffffffffffff168373ffffffffffffffffffffffffffffffffffffffff160361066e576040517f08c379a000000000000000000000000000000000000000000000000000000000815260040161066590612da2565b60405180910390fd5b5f808381526020019081526020015f205f8473ffffffffffffffffffffffffffffffffffffffff1673ffffffffffffffffffffffffffffffffffffffff1681526020019081526020015f2054905092915050565b5f7fd9b67a26000000000000000000000000000000000000000000000000000000007bffffffffffffffffffffffffffffffffffffffffffffffffffffffff1916827bffffffffffffffffffffffffffffffffffffffffffffffffffffffff1916148061078c57507f0e89341c000000000000000000000000000000000000000000000000000000007bffffffffffffffffffffffffffffffffffffffffffffffffffffffff1916827bffffffffffffffffffffffffffffffffffffffffffffffffffffffff1916145b8061079c575061079b82611010565b5b9050919050565b600680546107b090612ded565b80601f01602080910402602001604051908101604052809291908181526020018280546107dc90612ded565b80156108275780601f106107fe57610100808354040283529160200191610827565b820191905f5260205f20905b81548152906001019060200180831161080a57829003601f168201915b505050505081565b606061083a82611079565b610843826110c4565b9050919050565b6108526111a3565b73ffffffffffffffffffffffffffffffffffffffff168573ffffffffffffffffffffffffffffffffffffffff1614806108985750610897856108926111a3565b610df6565b5b6108d7576040517f08c379a00000000000000000000000000000000000000000000000000000000081526004016108ce90612e8d565b60405180910390fd5b6108e485858585856111aa565b5050505050565b6108f36114b8565b5f4790503373ffffffffffffffffffffffffffffffffffffffff166108fc8290811502906040515f60405180830381858888f1935050505015801561093a573d5f803e3d5ffd5b5050565b60095f9054906101000a900460ff1681565b600b5481565b6060815183511461099c576040517f08c379a000000000000000000000000000000000000000000000000000000000815260040161099390612f1b565b60405180910390fd5b5f835167ffffffffffffffff8111156109b8576109b76125fd565b5b6040519080825280602002602001820160405280156109e65781602001602082028036833780820191505090505b5090505f5b8451811015610a6257610a32858281518110610a0a57610a09612f39565b5b6020026020010151858381518110610a2557610a24612f39565b5b60200260200101516105ff565b828281518110610a4557610a44612f39565b5b60200260200101818152505080610a5b90612f93565b90506109eb565b508091505092915050565b610a756114b8565b610a7e81611536565b50565b600d602052805f5260405f205f915090505481565b610a9e6114b8565b60095f9054906101000a900460ff161560095f6101000a81548160ff021916908315150217905550565b610ad06114b8565b80600a8190555050565b60085481565b610ae86114b8565b610af15f611549565b565b600a5481565b5f60055f9054906101000a900473ffffffffffffffffffffffffffffffffffffffff16905090565b60078054610b2e90612ded565b80601f0160208091040260200160405190810160405280929190818152602001828054610b5a90612ded565b8015610ba55780601f10610b7c57610100808354040283529160200191610ba5565b820191905f5260205f20905b815481529060010190602001808311610b8857829003601f168201915b505050505081565b60095f9054906101000a900460ff16610bfb576040517f08c379a0000000000000000000000000000000000000000000000000000000008152600401610bf290613024565b60405180910390fd5b3460085414610c3f576040517f08c379a0000000000000000000000000000000000000000000000000000000008152600401610c369061308c565b60405180910390fd5b610c488161160c565b15610c88576040517f08c379a0000000000000000000000000000000000000000000000000000000008152600401610c7f906130f4565b60405180910390fd5b5f600b5411610ccc576040517f08c379a0000000000000000000000000000000000000000000000000000000008152600401610cc39061315c565b60405180910390fd5b33600c5f8381526020019081526020015f205f6101000a81548173ffffffffffffffffffffffffffffffffffffffff021916908373ffffffffffffffffffffffffffffffffffffffff160217905550610d373382600b5460405180602001604052805f815250611674565b610d6881610d4483611817565b604051602001610d5491906131fe565b6040516020818303038152906040526118e1565b6001600d5f8381526020019081526020015f2081905550803373ffffffffffffffffffffffffffffffffffffffff167f30385c845b448a36257a6a1716e6ad2e1bc2cbe333cde1e69fe849ad6511adfe60405160405180910390a350565b610dd8610dd16111a3565b8383611944565b5050565b5f600d5f8381526020019081526020015f20549050919050565b5f60015f8473ffffffffffffffffffffffffffffffffffffffff1673ffffffffffffffffffffffffffffffffffffffff1681526020019081526020015f205f8373ffffffffffffffffffffffffffffffffffffffff1673ffffffffffffffffffffffffffffffffffffffff1681526020019081526020015f205f9054906101000a900460ff16905092915050565b610e8d83611079565b5f6064600a5484610e9e919061321f565b610ea8919061328d565b90505f8184610eb791906132bd565b9050610ec68787878487611aab565b5f821115610f4357600c5f8681526020019081526020015f205f9054906101000a900473ffffffffffffffffffffffffffffffffffffffff1673ffffffffffffffffffffffffffffffffffffffff166108fc8390811502906040515f60405180830381858888f19350505050158015610f41573d5f803e3d5ffd5b505b50505050505050565b610f546114b8565b5f73ffffffffffffffffffffffffffffffffffffffff168173ffffffffffffffffffffffffffffffffffffffff1603610fc2576040517f08c379a0000000000000000000000000000000000000000000000000000000008152600401610fb990613360565b60405180910390fd5b610fcb81611549565b50565b610fd66114b8565b8060088190555050565b600c602052805f5260405f205f915054906101000a900473ffffffffffffffffffffffffffffffffffffffff1681565b5f7f01ffc9a7000000000000000000000000000000000000000000000000000000007bffffffffffffffffffffffffffffffffffffffffffffffffffffffff1916827bffffffffffffffffffffffffffffffffffffffffffffffffffffffff1916149050919050565b6110828161160c565b6110c1576040517f08c379a00000000000000000000000000000000000000000000000000000000081526004016110b8906133c8565b60405180910390fd5b50565b60605f60045f8481526020019081526020015f2080546110e390612ded565b80601f016020809104026020016040519081016040528092919081815260200182805461110f90612ded565b801561115a5780601f106111315761010080835404028352916020019161115a565b820191905f5260205f20905b81548152906001019060200180831161113d57829003601f168201915b505050505090505f8151116111775761117283611d34565b61119b565b60038160405160200161118b929190613478565b6040516020818303038152906040525b915050919050565b5f33905090565b81518351146111ee576040517f08c379a00000000000000000000000000000000000000000000000000000000081526004016111e59061350b565b60405180910390fd5b5f73ffffffffffffffffffffffffffffffffffffffff168473ffffffffffffffffffffffffffffffffffffffff160361125c576040517f08c379a000000000000000000000000000000000000000000000000000000000815260040161125390613599565b60405180910390fd5b5f6112656111a3565b9050611275818787878787611dc6565b5f5b8451811015611415575f85828151811061129457611293612f39565b5b602002602001015190505f8583815181106112b2576112b1612f39565b5b602002602001015190505f805f8481526020019081526020015f205f8b73ffffffffffffffffffffffffffffffffffffffff1673ffffffffffffffffffffffffffffffffffffffff1681526020019081526020015f205490508181101561134e576040517f08c379a000000000000000000000000000000000000000000000000000000000815260040161134590613627565b60405180910390fd5b8181035f808581526020019081526020015f205f8c73ffffffffffffffffffffffffffffffffffffffff1673ffffffffffffffffffffffffffffffffffffffff1681526020019081526020015f2081905550815f808581526020019081526020015f205f8b73ffffffffffffffffffffffffffffffffffffffff1673ffffffffffffffffffffffffffffffffffffffff1681526020019081526020015f205f8282546113fa9190613645565b925050819055505050508061140e90612f93565b9050611277565b508473ffffffffffffffffffffffffffffffffffffffff168673ffffffffffffffffffffffffffffffffffffffff168273ffffffffffffffffffffffffffffffffffffffff167f4a39dc06d4c0dbc64b70af90fd698a233a518aa5d07e595d983b8c0526c8f7fb878760405161148c929190613678565b60405180910390a46114a2818787878787611dce565b6114b0818787878787611dd6565b505050505050565b6114c06111a3565b73ffffffffffffffffffffffffffffffffffffffff166114de610af9565b73ffffffffffffffffffffffffffffffffffffffff1614611534576040517f08c379a000000000000000000000000000000000000000000000000000000000815260040161152b906136f7565b60405180910390fd5b565b806003908161154591906138a0565b5050565b5f60055f9054906101000a900473ffffffffffffffffffffffffffffffffffffffff1690508160055f6101000a81548173ffffffffffffffffffffffffffffffffffffffff021916908373ffffffffffffffffffffffffffffffffffffffff1602179055508173ffffffffffffffffffffffffffffffffffffffff168173ffffffffffffffffffffffffffffffffffffffff167f8be0079c531659141344cd1fd0a4f28419497f9722a3daafe3b4186f6b6457e060405160405180910390a35050565b5f8073ffffffffffffffffffffffffffffffffffffffff16600c5f8481526020019081526020015f205f9054906101000a900473ffffffffffffffffffffffffffffffffffffffff1673ffffffffffffffffffffffffffffffffffffffff1614159050919050565b5f73ffffffffffffffffffffffffffffffffffffffff168473ffffffffffffffffffffffffffffffffffffffff16036116e2576040517f08c379a00000000000000000000000000000000000000000000000000000000081526004016116d9906139df565b60405180910390fd5b5f6116eb6111a3565b90505f6116f785611fac565b90505f61170385611fac565b9050611713835f89858589611dc6565b845f808881526020019081526020015f205f8973ffffffffffffffffffffffffffffffffffffffff1673ffffffffffffffffffffffffffffffffffffffff1681526020019081526020015f205f82825461176d9190613645565b925050819055508673ffffffffffffffffffffffffffffffffffffffff165f73ffffffffffffffffffffffffffffffffffffffff168473ffffffffffffffffffffffffffffffffffffffff167fc3d58168c5ae7397731d063d5bbf3d657854427343f4c083240f7aacaa2d0f6289896040516117ea9291906139fd565b60405180910390a4611800835f89858589611dce565b61180e835f89898989612024565b50505050505050565b60605f6001611825846121fa565b0190505f8167ffffffffffffffff811115611843576118426125fd565b5b6040519080825280601f01601f1916602001820160405280156118755781602001600182028036833780820191505090505b5090505f82602001820190505b6001156118d6578080600190039150507f3031323334353637383961626364656600000000000000000000000000000000600a86061a8153600a85816118cb576118ca613260565b5b0494505f8503611882575b819350505050919050565b8060045f8481526020019081526020015f2090816118ff91906138a0565b50817f6bb7ff708619ba0610cba295a58592e0451dee2622938c8755667688daf3529b61192b8461082f565b60405161193891906125ae565b60405180910390a25050565b8173ffffffffffffffffffffffffffffffffffffffff168373ffffffffffffffffffffffffffffffffffffffff16036119b2576040517f08c379a00000000000000000000000000000000000000000000000000000000081526004016119a990613a94565b60405180910390fd5b8060015f8573ffffffffffffffffffffffffffffffffffffffff1673ffffffffffffffffffffffffffffffffffffffff1681526020019081526020015f205f8473ffffffffffffffffffffffffffffffffffffffff1673ffffffffffffffffffffffffffffffffffffffff1681526020019081526020015f205f6101000a81548160ff0219169083151502179055508173ffffffffffffffffffffffffffffffffffffffff168373ffffffffffffffffffffffffffffffffffffffff167f17307eab39ab6107e8899845ad3d59bd9653f200f220920489ca2b5937696c3183604051611a9e919061250b565b60405180910390a3505050565b5f73ffffffffffffffffffffffffffffffffffffffff168473ffffffffffffffffffffffffffffffffffffffff1603611b19576040517f08c379a0000000000000000000000000000000000000000000000000000000008152600401611b1090613599565b60405180910390fd5b5f611b226111a3565b90505f611b2e85611fac565b90505f611b3a85611fac565b9050611b4a838989858589611dc6565b5f805f8881526020019081526020015f205f8a73ffffffffffffffffffffffffffffffffffffffff1673ffffffffffffffffffffffffffffffffffffffff1681526020019081526020015f2054905085811015611bdc576040517f08c379a0000000000000000000000000000000000000000000000000000000008152600401611bd390613627565b60405180910390fd5b8581035f808981526020019081526020015f205f8b73ffffffffffffffffffffffffffffffffffffffff1673ffffffffffffffffffffffffffffffffffffffff1681526020019081526020015f2081905550855f808981526020019081526020015f205f8a73ffffffffffffffffffffffffffffffffffffffff1673ffffffffffffffffffffffffffffffffffffffff1681526020019081526020015f205f828254611c889190613645565b925050819055508773ffffffffffffffffffffffffffffffffffffffff168973ffffffffffffffffffffffffffffffffffffffff168573ffffffffffffffffffffffffffffffffffffffff167fc3d58168c5ae7397731d063d5bbf3d657854427343f4c083240f7aacaa2d0f628a8a604051611d059291906139fd565b60405180910390a4611d1b848a8a86868a611dce565b611d29848a8a8a8a8a612024565b505050505050505050565b606060028054611d4390612ded565b80601f0160208091040260200160405190810160405280929190818152602001828054611d6f90612ded565b8015611dba5780601f10611d9157610100808354040283529160200191611dba565b820191905f5260205f20905b815481529060010190602001808311611d9d57829003601f168201915b50505050509050919050565b505050505050565b505050505050565b611df58473ffffffffffffffffffffffffffffffffffffffff1661234b565b15611fa4578373ffffffffffffffffffffffffffffffffffffffff1663bc197c8187878686866040518663ffffffff1660e01b8152600401611e3b959493929190613b04565b6020604051808303815f875af1925050508015611e7657506040513d601f19601f82011682018060405250810190611e739190613b7e565b60015b611f1b57611e82613bb5565b806308c379a003611ede5750611e96613bd4565b80611ea15750611ee0565b806040517f08c379a0000000000000000000000000000000000000000000000000000000008152600401611ed591906125ae565b60405180910390fd5b505b6040517f08c379a0000000000000000000000000000000000000000000000000000000008152600401611f1290613cd3565b60405180910390fd5b63bc197c8160e01b7bffffffffffffffffffffffffffffffffffffffffffffffffffffffff1916817bffffffffffffffffffffffffffffffffffffffffffffffffffffffff191614611fa2576040517f08c379a0000000000000000000000000000000000000000000000000000000008152600401611f9990613d61565b60405180910390fd5b505b505050505050565b60605f600167ffffffffffffffff811115611fca57611fc96125fd565b5b604051908082528060200260200182016040528015611ff85781602001602082028036833780820191505090505b50905082815f8151811061200f5761200e612f39565b5b60200260200101818152505080915050919050565b6120438473ffffffffffffffffffffffffffffffffffffffff1661234b565b156121f2578373ffffffffffffffffffffffffffffffffffffffff1663f23a6e6187878686866040518663ffffffff1660e01b8152600401612089959493929190613d7f565b6020604051808303815f875af19250505080156120c457506040513d601f19601f820116820180604052508101906120c19190613b7e565b60015b612169576120d0613bb5565b806308c379a00361212c57506120e4613bd4565b806120ef575061212e565b806040517f08c379a000000000000000000000000000000000000000000000000000000000815260040161212391906125ae565b60405180910390fd5b505b6040517f08c379a000000000000000000000000000000000000000000000000000000000815260040161216090613cd3565b60405180910390fd5b63f23a6e6160e01b7bffffffffffffffffffffffffffffffffffffffffffffffffffffffff1916817bffffffffffffffffffffffffffffffffffffffffffffffffffffffff1916146121f0576040517f08c379a00000000000000000000000000000000000000000000000000000000081526004016121e790613d61565b60405180910390fd5b505b505050505050565b5f805f90507a184f03e93ff9f4daa797ed6e38ed64bf6a1f0100000000000000008310612256577a184f03e93ff9f4daa797ed6e38ed64bf6a1f010000000000000000838161224c5761224b613260565b5b0492506040810190505b6d04ee2d6d415b85acef81000000008310612293576d04ee2d6d415b85acef8100000000838161228957612288613260565b5b0492506020810190505b662386f26fc1000083106122c257662386f26fc1000083816122b8576122b7613260565b5b0492506010810190505b6305f5e10083106122eb576305f5e10083816122e1576122e0613260565b5b0492506008810190505b612710831061231057612710838161230657612305613260565b5b0492506004810190505b60648310612333576064838161232957612328613260565b5b0492506002810190505b600a8310612342576001810190505b80915050919050565b5f808273ffffffffffffffffffffffffffffffffffffffff163b119050919050565b5f604051905090565b5f80fd5b5f80fd5b5f73ffffffffffffffffffffffffffffffffffffffff82169050919050565b5f6123a78261237e565b9050919050565b6123b78161239d565b81146123c1575f80fd5b50565b5f813590506123d2816123ae565b92915050565b5f819050919050565b6123ea816123d8565b81146123f4575f80fd5b50565b5f81359050612405816123e1565b92915050565b5f806040838503121561242157612420612376565b5b5f61242e858286016123c4565b925050602061243f858286016123f7565b9150509250929050565b612452816123d8565b82525050565b5f60208201905061246b5f830184612449565b92915050565b5f7fffffffff0000000000000000000000000000000000000000000000000000000082169050919050565b6124a581612471565b81146124af575f80fd5b50565b5f813590506124c08161249c565b92915050565b5f602082840312156124db576124da612376565b5b5f6124e8848285016124b2565b91505092915050565b5f8115159050919050565b612505816124f1565b82525050565b5f60208201905061251e5f8301846124fc565b92915050565b5f81519050919050565b5f82825260208201905092915050565b5f5b8381101561255b578082015181840152602081019050612540565b5f8484015250505050565b5f601f19601f8301169050919050565b5f61258082612524565b61258a818561252e565b935061259a81856020860161253e565b6125a381612566565b840191505092915050565b5f6020820190508181035f8301526125c68184612576565b905092915050565b5f602082840312156125e3576125e2612376565b5b5f6125f0848285016123f7565b91505092915050565b5f80fd5b7f4e487b71000000000000000000000000000000000000000000000000000000005f52604160045260245ffd5b61263382612566565b810181811067ffffffffffffffff82111715612652576126516125fd565b5b80604052505050565b5f61266461236d565b9050612670828261262a565b919050565b5f67ffffffffffffffff82111561268f5761268e6125fd565b5b602082029050602081019050919050565b5f80fd5b5f6126b66126b184612675565b61265b565b905080838252602082019050602084028301858111156126d9576126d86126a0565b5b835b8181101561270257806126ee88826123f7565b8452602084019350506020810190506126db565b5050509392505050565b5f82601f8301126127205761271f6125f9565b5b81356127308482602086016126a4565b91505092915050565b5f80fd5b5f67ffffffffffffffff821115612757576127566125fd565b5b61276082612566565b9050602081019050919050565b828183375f83830152505050565b5f61278d6127888461273d565b61265b565b9050828152602081018484840111156127a9576127a8612739565b5b6127b484828561276d565b509392505050565b5f82601f8301126127d0576127cf6125f9565b5b81356127e084826020860161277b565b91505092915050565b5f805f805f60a0868803121561280257612801612376565b5b5f61280f888289016123c4565b9550506020612820888289016123c4565b945050604086013567ffffffffffffffff8111156128415761284061237a565b5b61284d8882890161270c565b935050606086013567ffffffffffffffff81111561286e5761286d61237a565b5b61287a8882890161270c565b925050608086013567ffffffffffffffff81111561289b5761289a61237a565b5b6128a7888289016127bc565b9150509295509295909350565b5f67ffffffffffffffff8211156128ce576128cd6125fd565b5b602082029050602081019050919050565b5f6128f16128ec846128b4565b61265b565b90508083825260208201905060208402830185811115612914576129136126a0565b5b835b8181101561293d578061292988826123c4565b845260208401935050602081019050612916565b5050509392505050565b5f82601f83011261295b5761295a6125f9565b5b813561296b8482602086016128df565b91505092915050565b5f806040838503121561298a57612989612376565b5b5f83013567ffffffffffffffff8111156129a7576129a661237a565b5b6129b385828601612947565b925050602083013567ffffffffffffffff8111156129d4576129d361237a565b5b6129e08582860161270c565b9150509250929050565b5f81519050919050565b5f82825260208201905092915050565b5f819050602082019050919050565b612a1c816123d8565b82525050565b5f612a2d8383612a13565b60208301905092915050565b5f602082019050919050565b5f612a4f826129ea565b612a5981856129f4565b9350612a6483612a04565b805f5b83811015612a94578151612a7b8882612a22565b9750612a8683612a39565b925050600181019050612a67565b5085935050505092915050565b5f6020820190508181035f830152612ab98184612a45565b905092915050565b5f67ffffffffffffffff821115612adb57612ada6125fd565b5b612ae482612566565b9050602081019050919050565b5f612b03612afe84612ac1565b61265b565b905082815260208101848484011115612b1f57612b1e612739565b5b612b2a84828561276d565b509392505050565b5f82601f830112612b4657612b456125f9565b5b8135612b56848260208601612af1565b91505092915050565b5f60208284031215612b7457612b73612376565b5b5f82013567ffffffffffffffff811115612b9157612b9061237a565b5b612b9d84828501612b32565b91505092915050565b612baf8161239d565b82525050565b5f602082019050612bc85f830184612ba6565b92915050565b612bd7816124f1565b8114612be1575f80fd5b50565b5f81359050612bf281612bce565b92915050565b5f8060408385031215612c0e57612c0d612376565b5b5f612c1b858286016123c4565b9250506020612c2c85828601612be4565b9150509250929050565b5f8060408385031215612c4c57612c4b612376565b5b5f612c59858286016123c4565b9250506020612c6a858286016123c4565b9150509250929050565b5f805f805f60a08688031215612c8d57612c8c612376565b5b5f612c9a888289016123c4565b9550506020612cab888289016123c4565b9450506040612cbc888289016123f7565b9350506060612ccd888289016123f7565b925050608086013567ffffffffffffffff811115612cee57612ced61237a565b5b612cfa888289016127bc565b9150509295509295909350565b5f60208284031215612d1c57612d1b612376565b5b5f612d29848285016123c4565b91505092915050565b7f455243313135353a2061646472657373207a65726f206973206e6f74206120765f8201527f616c6964206f776e657200000000000000000000000000000000000000000000602082015250565b5f612d8c602a8361252e565b9150612d9782612d32565b604082019050919050565b5f6020820190508181035f830152612db981612d80565b9050919050565b7f4e487b71000000000000000000000000000000000000000000000000000000005f52602260045260245ffd5b5f6002820490506001821680612e0457607f821691505b602082108103612e1757612e16612dc0565b5b50919050565b7f455243313135353a2063616c6c6572206973206e6f7420746f6b656e206f776e5f8201527f6572206f7220617070726f766564000000000000000000000000000000000000602082015250565b5f612e77602e8361252e565b9150612e8282612e1d565b604082019050919050565b5f6020820190508181035f830152612ea481612e6b565b9050919050565b7f455243313135353a206163636f756e747320616e6420696473206c656e6774685f8201527f206d69736d617463680000000000000000000000000000000000000000000000602082015250565b5f612f0560298361252e565b9150612f1082612eab565b604082019050919050565b5f6020820190508181035f830152612f3281612ef9565b9050919050565b7f4e487b71000000000000000000000000000000000000000000000000000000005f52603260045260245ffd5b7f4e487b71000000000000000000000000000000000000000000000000000000005f52601160045260245ffd5b5f612f9d826123d8565b91507fffffffffffffffffffffffffffffffffffffffffffffffffffffffffffffffff8203612fcf57612fce612f66565b5b600182019050919050565b7f4d696e74206d7573742062652061637469766520746f206d696e7400000000005f82015250565b5f61300e601b8361252e565b915061301982612fda565b602082019050919050565b5f6020820190508181035f83015261303b81613002565b9050919050565b7f56616c75652073656e74206973206e6f7420636f7272656374000000000000005f82015250565b5f61307660198361252e565b915061308182613042565b602082019050919050565b5f6020820190508181035f8301526130a38161306a565b9050919050565b7f47616d6520616c7265616479206d696e746564000000000000000000000000005f82015250565b5f6130de60138361252e565b91506130e9826130aa565b602082019050919050565b5f6020820190508181035f83015261310b816130d2565b9050919050565b7f54686520737570706c79206d75737420626520686967686572207468616e20305f82015250565b5f61314660208361252e565b915061315182613112565b602082019050919050565b5f6020820190508181035f8301526131738161313a565b9050919050565b5f81905092915050565b5f61318e82612524565b613198818561317a565b93506131a881856020860161253e565b80840191505092915050565b7f2e6a736f6e0000000000000000000000000000000000000000000000000000005f82015250565b5f6131e860058361317a565b91506131f3826131b4565b600582019050919050565b5f6132098284613184565b9150613214826131dc565b915081905092915050565b5f613229826123d8565b9150613234836123d8565b9250828202613242816123d8565b9150828204841483151761325957613258612f66565b5b5092915050565b7f4e487b71000000000000000000000000000000000000000000000000000000005f52601260045260245ffd5b5f613297826123d8565b91506132a2836123d8565b9250826132b2576132b1613260565b5b828204905092915050565b5f6132c7826123d8565b91506132d2836123d8565b92508282039050818111156132ea576132e9612f66565b5b92915050565b7f4f776e61626c653a206e6577206f776e657220697320746865207a65726f20615f8201527f6464726573730000000000000000000000000000000000000000000000000000602082015250565b5f61334a60268361252e565b9150613355826132f0565b604082019050919050565b5f6020820190508181035f8301526133778161333e565b9050919050565b7f496e76616c696420746f6b656e204944000000000000000000000000000000005f82015250565b5f6133b260108361252e565b91506133bd8261337e565b602082019050919050565b5f6020820190508181035f8301526133df816133a6565b9050919050565b5f819050815f5260205f209050919050565b5f815461340481612ded565b61340e818661317a565b9450600182165f8114613428576001811461343d5761346f565b60ff198316865281151582028601935061346f565b613446856133e6565b5f5b8381101561346757815481890152600182019150602081019050613448565b838801955050505b50505092915050565b5f61348382856133f8565b915061348f8284613184565b91508190509392505050565b7f455243313135353a2069647320616e6420616d6f756e7473206c656e677468205f8201527f6d69736d61746368000000000000000000000000000000000000000000000000602082015250565b5f6134f560288361252e565b91506135008261349b565b604082019050919050565b5f6020820190508181035f830152613522816134e9565b9050919050565b7f455243313135353a207472616e7366657220746f20746865207a65726f2061645f8201527f6472657373000000000000000000000000000000000000000000000000000000602082015250565b5f61358360258361252e565b915061358e82613529565b604082019050919050565b5f6020820190508181035f8301526135b081613577565b9050919050565b7f455243313135353a20696e73756666696369656e742062616c616e636520666f5f8201527f72207472616e7366657200000000000000000000000000000000000000000000602082015250565b5f613611602a8361252e565b915061361c826135b7565b604082019050919050565b5f6020820190508181035f83015261363e81613605565b9050919050565b5f61364f826123d8565b915061365a836123d8565b925082820190508082111561367257613671612f66565b5b92915050565b5f6040820190508181035f8301526136908185612a45565b905081810360208301526136a48184612a45565b90509392505050565b7f4f776e61626c653a2063616c6c6572206973206e6f7420746865206f776e65725f82015250565b5f6136e160208361252e565b91506136ec826136ad565b602082019050919050565b5f6020820190508181035f83015261370e816136d5565b9050919050565b5f6020601f8301049050919050565b5f82821b905092915050565b5f6008830261375f7fffffffffffffffffffffffffffffffffffffffffffffffffffffffffffffffff82613724565b6137698683613724565b95508019841693508086168417925050509392505050565b5f819050919050565b5f6137a461379f61379a846123d8565b613781565b6123d8565b9050919050565b5f819050919050565b6137bd8361378a565b6137d16137c9826137ab565b848454613730565b825550505050565b5f90565b6137e56137d9565b6137f08184846137b4565b505050565b5b81811015613813576138085f826137dd565b6001810190506137f6565b5050565b601f82111561385857613829816133e6565b61383284613715565b81016020851015613841578190505b61385561384d85613715565b8301826137f5565b50505b505050565b5f82821c905092915050565b5f6138785f198460080261385d565b1980831691505092915050565b5f6138908383613869565b9150826002028217905092915050565b6138a982612524565b67ffffffffffffffff8111156138c2576138c16125fd565b5b6138cc8254612ded565b6138d7828285613817565b5f60209050601f831160018114613908575f84156138f6578287015190505b6139008582613885565b865550613967565b601f198416613916866133e6565b5f5b8281101561393d57848901518255600182019150602085019450602081019050613918565b8683101561395a5784890151613956601f891682613869565b8355505b6001600288020188555050505b505050505050565b7f455243313135353a206d696e7420746f20746865207a65726f206164647265735f8201527f7300000000000000000000000000000000000000000000000000000000000000602082015250565b5f6139c960218361252e565b91506139d48261396f565b604082019050919050565b5f6020820190508181035f8301526139f6816139bd565b9050919050565b5f604082019050613a105f830185612449565b613a1d6020830184612449565b9392505050565b7f455243313135353a2073657474696e6720617070726f76616c207374617475735f8201527f20666f722073656c660000000000000000000000000000000000000000000000602082015250565b5f613a7e60298361252e565b9150613a8982613a24565b604082019050919050565b5f6020820190508181035f830152613aab81613a72565b9050919050565b5f81519050919050565b5f82825260208201905092915050565b5f613ad682613ab2565b613ae08185613abc565b9350613af081856020860161253e565b613af981612566565b840191505092915050565b5f60a082019050613b175f830188612ba6565b613b246020830187612ba6565b8181036040830152613b368186612a45565b90508181036060830152613b4a8185612a45565b90508181036080830152613b5e8184613acc565b90509695505050505050565b5f81519050613b788161249c565b92915050565b5f60208284031215613b9357613b92612376565b5b5f613ba084828501613b6a565b91505092915050565b5f8160e01c9050919050565b5f60033d1115613bd15760045f803e613bce5f51613ba9565b90505b90565b5f60443d10613c6057613be561236d565b60043d036004823e80513d602482011167ffffffffffffffff82111715613c0d575050613c60565b808201805167ffffffffffffffff811115613c2b5750505050613c60565b80602083010160043d038501811115613c48575050505050613c60565b613c578260200185018661262a565b82955050505050505b90565b7f455243313135353a207472616e7366657220746f206e6f6e2d455243313135355f8201527f526563656976657220696d706c656d656e746572000000000000000000000000602082015250565b5f613cbd60348361252e565b9150613cc882613c63565b604082019050919050565b5f6020820190508181035f830152613cea81613cb1565b9050919050565b7f455243313135353a204552433131353552656365697665722072656a656374655f8201527f6420746f6b656e73000000000000000000000000000000000000000000000000602082015250565b5f613d4b60288361252e565b9150613d5682613cf1565b604082019050919050565b5f6020820190508181035f830152613d7881613d3f565b9050919050565b5f60a082019050613d925f830188612ba6565b613d9f6020830187612ba6565b613dac6040830186612449565b613db96060830185612449565b8181036080830152613dcb8184613acc565b9050969550505050505056fea2646970667358221220a5731385d4647c9aa1fbad00402a4032e05688c58dc6f885e08a5a143221677864736f6c63430008140033",
  "immutableReferences": {},
  "source": "// SPDX-License-Identifier: MIT\npragma solidity >=0.8.0 <0.9.0;\n\nimport \"@openzeppelin/contracts/token/ERC1155/ERC1155.sol\";\nimport \"@openzeppelin/contracts/token/ERC1155/extensions/ERC1155URIStorage.sol\";\nimport \"@openzeppelin/contracts/access/Ownable.sol\";\nimport \"@openzeppelin/contracts/utils/Strings.sol\";\n\ncontract BSMWINE is ERC1155, ERC1155URIStorage, Ownable {\n    using Strings for uint256;\n\n    string public name = \"TOKENPLAY\";\n\n    string public symbol = \"TKP\";\n\n    uint256 public mintPrice = 10000000000000000; // 0.01 ETH\n\n    bool public mintIsActive = false;\n\n    uint256 public royaltyPercentage = 5; // % royalties\n\n    uint256 public supplyNFT = 10;\n\n    mapping(uint256 => address) public wineries;\n\n    mapping(uint256 => uint256) public _totalSupply;\n\n    event Minted(address indexed minter, uint256 indexed tokenId);\n\n    constructor (string memory _baseURI /*,uint256 supply*/) ERC1155(_baseURI) {\n        //supplyNFT = supply;\n        _setBaseURI(_baseURI);\n    }\n\n    function setRoyaltyPercentage(uint256 percentage) public onlyOwner {\n        royaltyPercentage = percentage;\n    }    \n\n    function _exists(uint256 tokenId) internal view virtual returns (bool) {\n        return wineries[tokenId] != address(0);\n    }\n\n    function _requireMinted(uint256 tokenId) internal view virtual {\n        require(_exists(tokenId), \"Invalid token ID\");\n    }\n\n    function setBaseURI(string memory baseURI) public onlyOwner {\n        _setBaseURI(baseURI);\n    }\n\n    function setMintPrice(uint256 _mintPrice) public onlyOwner {\n        mintPrice = _mintPrice;\n    }\n\n    function flipMintState() public onlyOwner {\n        mintIsActive = ! mintIsActive;\n    }\n\n    function withdraw() public onlyOwner {\n        uint balance = address(this).balance;\n\n        payable(msg.sender).transfer(balance);\n    }\n\n    function mint(uint256 tokenId) public payable {\n        require(mintIsActive, \"Mint must be active to mint\");\n        require(mintPrice == msg.value, \"Value sent is not correct\");\n        require(!_exists(tokenId), \"Game already minted\");\n        require(supplyNFT > 0, \"The supply must be higher than 0\");\n\n        wineries[tokenId] = msg.sender;\n\n        _mint(msg.sender, tokenId, supplyNFT, \"\");\n        _setURI(tokenId, string(abi.encodePacked(tokenId.toString(), \".json\")));\n\n        _totalSupply[tokenId] = 1;\n\n        emit Minted(msg.sender, tokenId);\n    }\n\n    function safeTransferFrom(address from, address to, uint256 tokenId, uint256 amount, bytes memory data) public override {\n        _requireMinted(tokenId);\n\n        // Calcular el monto de royalties a pagar al propietario original\n        uint256 royaltyAmount = (amount * royaltyPercentage) / 100;\n        uint256 transferAmount = amount - royaltyAmount;\n\n        // Transferir el NFT al nuevo propietario\n        _safeTransferFrom(from, to, tokenId, transferAmount, data);\n\n        // Pagar los royalties al propietario original\n        if (royaltyAmount > 0) {\n            payable(wineries[tokenId]).transfer(royaltyAmount);\n        }\n    }\n\n    function uri(uint256 tokenId) public view virtual override(ERC1155, ERC1155URIStorage) returns (string memory) {\n        _requireMinted(tokenId);\n\n        return super.uri(tokenId);\n    }\n\n    function totalSupply(uint256 tokenId) public view returns (uint256) {\n        return _totalSupply[tokenId];\n    }\n}\n",
  "sourcePath": "C:\\Users\\User\\Desktop\\PC\\2_Master\\BSM_Engineering\\TFM\\DAPP\\dapp\\contracts\\TOKENPLAY.sol",
  "compiler": {
    "name": "solc",
    "version": "0.8.20+commit.a1b79de6.Emscripten.clang"
  },
  "schemaVersion": "3.4.14",
  "updatedAt": "2023-08-08T08:55:22.815Z",
  "devdoc": {
    "events": {
      "ApprovalForAll(address,address,bool)": {
        "details": "Emitted when `account` grants or revokes permission to `operator` to transfer their tokens, according to `approved`."
      },
      "TransferBatch(address,address,address,uint256[],uint256[])": {
        "details": "Equivalent to multiple {TransferSingle} events, where `operator`, `from` and `to` are the same for all transfers."
      },
      "TransferSingle(address,address,address,uint256,uint256)": {
        "details": "Emitted when `value` tokens of token type `id` are transferred from `from` to `to` by `operator`."
      },
      "URI(string,uint256)": {
        "details": "Emitted when the URI for token type `id` changes to `value`, if it is a non-programmatic URI. If an {URI} event was emitted for `id`, the standard https://eips.ethereum.org/EIPS/eip-1155#metadata-extensions[guarantees] that `value` will equal the value returned by {IERC1155MetadataURI-uri}."
      }
    },
    "kind": "dev",
    "methods": {
      "balanceOf(address,uint256)": {
        "details": "See {IERC1155-balanceOf}. Requirements: - `account` cannot be the zero address."
      },
      "balanceOfBatch(address[],uint256[])": {
        "details": "See {IERC1155-balanceOfBatch}. Requirements: - `accounts` and `ids` must have the same length."
      },
      "isApprovedForAll(address,address)": {
        "details": "See {IERC1155-isApprovedForAll}."
      },
      "owner()": {
        "details": "Returns the address of the current owner."
      },
      "renounceOwnership()": {
        "details": "Leaves the contract without owner. It will not be possible to call `onlyOwner` functions. Can only be called by the current owner. NOTE: Renouncing ownership will leave the contract without an owner, thereby disabling any functionality that is only available to the owner."
      },
      "safeBatchTransferFrom(address,address,uint256[],uint256[],bytes)": {
        "details": "See {IERC1155-safeBatchTransferFrom}."
      },
      "setApprovalForAll(address,bool)": {
        "details": "See {IERC1155-setApprovalForAll}."
      },
      "supportsInterface(bytes4)": {
        "details": "See {IERC165-supportsInterface}."
      },
      "transferOwnership(address)": {
        "details": "Transfers ownership of the contract to a new account (`newOwner`). Can only be called by the current owner."
      }
    },
    "version": 1
  },
  "userdoc": {
    "kind": "user",
    "methods": {},
    "version": 1
  }
}