{
  "contractName": "NFTGamesMarketplace",
  "abi": [
    {
      "inputs": [
        {
          "internalType": "address",
          "name": "_nftContract",
          "type": "address"
        }
      ],
      "stateMutability": "nonpayable",
      "type": "constructor"
    },
    {
      "anonymous": false,
      "inputs": [
        {
          "indexed": false,
          "internalType": "uint256",
          "name": "newCommissionPercentage",
          "type": "uint256"
        }
      ],
      "name": "CommissionUpdated",
      "type": "event"
    },
    {
      "anonymous": false,
      "inputs": [
        {
          "indexed": true,
          "internalType": "uint256",
          "name": "saleId",
          "type": "uint256"
        },
        {
          "indexed": true,
          "internalType": "uint256",
          "name": "tokenId",
          "type": "uint256"
        },
        {
          "indexed": true,
          "internalType": "address",
          "name": "buyer",
          "type": "address"
        },
        {
          "indexed": false,
          "internalType": "uint256",
          "name": "purchasePrice",
          "type": "uint256"
        }
      ],
      "name": "GamePurchasedFromMarketplace",
      "type": "event"
    },
    {
      "anonymous": false,
      "inputs": [
        {
          "indexed": true,
          "internalType": "address",
          "name": "previousOwner",
          "type": "address"
        },
        {
          "indexed": true,
          "internalType": "address",
          "name": "newOwner",
          "type": "address"
        }
      ],
      "name": "OwnershipTransferred",
      "type": "event"
    },
    {
      "anonymous": false,
      "inputs": [
        {
          "indexed": false,
          "internalType": "address",
          "name": "account",
          "type": "address"
        }
      ],
      "name": "Paused",
      "type": "event"
    },
    {
      "anonymous": false,
      "inputs": [
        {
          "indexed": true,
          "internalType": "uint256",
          "name": "saleId",
          "type": "uint256"
        },
        {
          "indexed": true,
          "internalType": "address",
          "name": "seller",
          "type": "address"
        }
      ],
      "name": "SaleCanceled",
      "type": "event"
    },
    {
      "anonymous": false,
      "inputs": [
        {
          "indexed": true,
          "internalType": "uint256",
          "name": "saleId",
          "type": "uint256"
        },
        {
          "indexed": true,
          "internalType": "uint256",
          "name": "tokenId",
          "type": "uint256"
        },
        {
          "indexed": true,
          "internalType": "address",
          "name": "seller",
          "type": "address"
        },
        {
          "indexed": false,
          "internalType": "uint256",
          "name": "price",
          "type": "uint256"
        }
      ],
      "name": "SaleCreated",
      "type": "event"
    },
    {
      "anonymous": false,
      "inputs": [
        {
          "indexed": true,
          "internalType": "uint256",
          "name": "saleId",
          "type": "uint256"
        },
        {
          "indexed": false,
          "internalType": "uint256",
          "name": "newPrice",
          "type": "uint256"
        },
        {
          "indexed": true,
          "internalType": "address",
          "name": "seller",
          "type": "address"
        }
      ],
      "name": "SalePriceUpdated",
      "type": "event"
    },
    {
      "anonymous": false,
      "inputs": [
        {
          "indexed": false,
          "internalType": "address",
          "name": "account",
          "type": "address"
        }
      ],
      "name": "Unpaused",
      "type": "event"
    },
    {
      "inputs": [],
      "name": "commissionPercentage",
      "outputs": [
        {
          "internalType": "uint256",
          "name": "",
          "type": "uint256"
        }
      ],
      "stateMutability": "view",
      "type": "function"
    },
    {
      "inputs": [],
      "name": "nextSaleId",
      "outputs": [
        {
          "internalType": "uint256",
          "name": "",
          "type": "uint256"
        }
      ],
      "stateMutability": "view",
      "type": "function"
    },
    {
      "inputs": [
        {
          "internalType": "address",
          "name": "",
          "type": "address"
        },
        {
          "internalType": "address",
          "name": "",
          "type": "address"
        },
        {
          "internalType": "uint256[]",
          "name": "",
          "type": "uint256[]"
        },
        {
          "internalType": "uint256[]",
          "name": "",
          "type": "uint256[]"
        },
        {
          "internalType": "bytes",
          "name": "",
          "type": "bytes"
        }
      ],
      "name": "onERC1155BatchReceived",
      "outputs": [
        {
          "internalType": "bytes4",
          "name": "",
          "type": "bytes4"
        }
      ],
      "stateMutability": "nonpayable",
      "type": "function"
    },
    {
      "inputs": [
        {
          "internalType": "address",
          "name": "",
          "type": "address"
        },
        {
          "internalType": "address",
          "name": "",
          "type": "address"
        },
        {
          "internalType": "uint256",
          "name": "",
          "type": "uint256"
        },
        {
          "internalType": "uint256",
          "name": "",
          "type": "uint256"
        },
        {
          "internalType": "bytes",
          "name": "",
          "type": "bytes"
        }
      ],
      "name": "onERC1155Received",
      "outputs": [
        {
          "internalType": "bytes4",
          "name": "",
          "type": "bytes4"
        }
      ],
      "stateMutability": "nonpayable",
      "type": "function"
    },
    {
      "inputs": [],
      "name": "owner",
      "outputs": [
        {
          "internalType": "address",
          "name": "",
          "type": "address"
        }
      ],
      "stateMutability": "view",
      "type": "function"
    },
    {
      "inputs": [],
      "name": "paused",
      "outputs": [
        {
          "internalType": "bool",
          "name": "",
          "type": "bool"
        }
      ],
      "stateMutability": "view",
      "type": "function"
    },
    {
      "inputs": [],
      "name": "renounceOwnership",
      "outputs": [],
      "stateMutability": "nonpayable",
      "type": "function"
    },
    {
      "inputs": [
        {
          "internalType": "uint256",
          "name": "",
          "type": "uint256"
        }
      ],
      "name": "sales",
      "outputs": [
        {
          "internalType": "uint256",
          "name": "saleId",
          "type": "uint256"
        },
        {
          "internalType": "uint256",
          "name": "tokenId",
          "type": "uint256"
        },
        {
          "internalType": "address",
          "name": "seller",
          "type": "address"
        },
        {
          "internalType": "uint256",
          "name": "price",
          "type": "uint256"
        },
        {
          "internalType": "uint256",
          "name": "arrayPosition",
          "type": "uint256"
        },
        {
          "internalType": "enum NFTGamesMarketplace.SaleStatus",
          "name": "status",
          "type": "uint8"
        }
      ],
      "stateMutability": "view",
      "type": "function"
    },
    {
      "inputs": [
        {
          "internalType": "uint256",
          "name": "",
          "type": "uint256"
        }
      ],
      "name": "salesInfo",
      "outputs": [
        {
          "internalType": "uint256",
          "name": "saleId",
          "type": "uint256"
        },
        {
          "internalType": "uint256",
          "name": "tokenId",
          "type": "uint256"
        },
        {
          "internalType": "address",
          "name": "seller",
          "type": "address"
        },
        {
          "internalType": "uint256",
          "name": "price",
          "type": "uint256"
        },
        {
          "internalType": "uint256",
          "name": "arrayPosition",
          "type": "uint256"
        },
        {
          "internalType": "enum NFTGamesMarketplace.SaleStatus",
          "name": "status",
          "type": "uint8"
        }
      ],
      "stateMutability": "view",
      "type": "function"
    },
    {
      "inputs": [
        {
          "internalType": "bytes4",
          "name": "interfaceId",
          "type": "bytes4"
        }
      ],
      "name": "supportsInterface",
      "outputs": [
        {
          "internalType": "bool",
          "name": "",
          "type": "bool"
        }
      ],
      "stateMutability": "view",
      "type": "function"
    },
    {
      "inputs": [
        {
          "internalType": "address",
          "name": "newOwner",
          "type": "address"
        }
      ],
      "name": "transferOwnership",
      "outputs": [],
      "stateMutability": "nonpayable",
      "type": "function"
    },
    {
      "inputs": [
        {
          "internalType": "uint256",
          "name": "tokenId",
          "type": "uint256"
        },
        {
          "internalType": "uint256",
          "name": "price",
          "type": "uint256"
        }
      ],
      "name": "createSale",
      "outputs": [],
      "stateMutability": "payable",
      "type": "function"
    },
    {
      "inputs": [
        {
          "internalType": "uint256",
          "name": "saleId",
          "type": "uint256"
        }
      ],
      "name": "cancelSale",
      "outputs": [],
      "stateMutability": "payable",
      "type": "function"
    },
    {
      "inputs": [
        {
          "internalType": "uint256",
          "name": "saleId",
          "type": "uint256"
        }
      ],
      "name": "purchaseFromMarketplace",
      "outputs": [],
      "stateMutability": "payable",
      "type": "function"
    },
    {
      "inputs": [],
      "name": "getGamesForSale",
      "outputs": [
        {
          "components": [
            {
              "internalType": "uint256",
              "name": "saleId",
              "type": "uint256"
            },
            {
              "internalType": "uint256",
              "name": "tokenId",
              "type": "uint256"
            },
            {
              "internalType": "address",
              "name": "seller",
              "type": "address"
            },
            {
              "internalType": "uint256",
              "name": "price",
              "type": "uint256"
            },
            {
              "internalType": "uint256",
              "name": "arrayPosition",
              "type": "uint256"
            },
            {
              "internalType": "enum NFTGamesMarketplace.SaleStatus",
              "name": "status",
              "type": "uint8"
            }
          ],
          "internalType": "struct NFTGamesMarketplace.Sale[]",
          "name": "",
          "type": "tuple[]"
        }
      ],
      "stateMutability": "view",
      "type": "function"
    },
    {
      "inputs": [
        {
          "internalType": "uint256",
          "name": "saleId",
          "type": "uint256"
        },
        {
          "internalType": "uint256",
          "name": "newPrice",
          "type": "uint256"
        }
      ],
      "name": "updateSalePrice",
      "outputs": [],
      "stateMutability": "nonpayable",
      "type": "function"
    },
    {
      "inputs": [
        {
          "internalType": "uint256",
          "name": "_commissionPercentage",
          "type": "uint256"
        }
      ],
      "name": "setCommissionPercentage",
      "outputs": [],
      "stateMutability": "nonpayable",
      "type": "function"
    },
    {
      "inputs": [],
      "name": "getCommissionPercentage",
      "outputs": [
        {
          "internalType": "uint256",
          "name": "",
          "type": "uint256"
        }
      ],
      "stateMutability": "view",
      "type": "function"
    }
  ],
  "bytecode": "0x6080604052600060035560056004553480156200001b57600080fd5b506040516200369d3803806200369d833981810160405281019062000041919062000201565b6200006162000055620000cb60201b60201c565b620000d360201b60201c565b600180819055506000600260006101000a81548160ff02191690831515021790555080600260016101000a81548173ffffffffffffffffffffffffffffffffffffffff021916908373ffffffffffffffffffffffffffffffffffffffff1602179055505062000233565b600033905090565b60008060009054906101000a900473ffffffffffffffffffffffffffffffffffffffff169050816000806101000a81548173ffffffffffffffffffffffffffffffffffffffff021916908373ffffffffffffffffffffffffffffffffffffffff1602179055508173ffffffffffffffffffffffffffffffffffffffff168173ffffffffffffffffffffffffffffffffffffffff167f8be0079c531659141344cd1fd0a4f28419497f9722a3daafe3b4186f6b6457e060405160405180910390a35050565b600080fd5b600073ffffffffffffffffffffffffffffffffffffffff82169050919050565b6000620001c9826200019c565b9050919050565b620001db81620001bc565b8114620001e757600080fd5b50565b600081519050620001fb81620001d0565b92915050565b6000602082840312156200021a576200021962000197565b5b60006200022a84828501620001ea565b91505092915050565b61345a80620002436000396000f3fe6080604052600436106101095760003560e01c80638da5cb5b11610095578063bd94b00511610064578063bd94b00514610359578063d575fe6414610375578063deb077b9146103a0578063f23a6e61146103cb578063f2fde38b1461040857610109565b80638da5cb5b14610284578063a5dbd814146102af578063b5f522f7146102da578063bc197c811461031c57610109565b80635c975abb116100dc5780635c975abb146101df5780636019061b1461020a578063715018a614610226578063726da5af1461023d578063814646871461026857610109565b806301ffc9a71461010e578063351c38961461014b57806339b87c8f1461018d5780634896672e146101b6575b600080fd5b34801561011a57600080fd5b50610135600480360381019061013091906121c9565b610431565b6040516101429190612211565b60405180910390f35b34801561015757600080fd5b50610172600480360381019061016d9190612262565b6104ab565b60405161018496959493929190612356565b60405180910390f35b34801561019957600080fd5b506101b460048036038101906101af9190612262565b610514565b005b3480156101c257600080fd5b506101dd60048036038101906101d891906123b7565b6105ae565b005b3480156101eb57600080fd5b506101f461083d565b6040516102019190612211565b60405180910390f35b610224600480360381019061021f91906123b7565b610854565b005b34801561023257600080fd5b5061023b610c2d565b005b34801561024957600080fd5b50610252610c41565b60405161025f919061254e565b60405180910390f35b610282600480360381019061027d9190612262565b610ecc565b005b34801561029057600080fd5b50610299611675565b6040516102a69190612570565b60405180910390f35b3480156102bb57600080fd5b506102c461169e565b6040516102d1919061258b565b60405180910390f35b3480156102e657600080fd5b5061030160048036038101906102fc9190612262565b6116a8565b60405161031396959493929190612356565b60405180910390f35b34801561032857600080fd5b50610343600480360381019061033e91906127e0565b611721565b60405161035091906128be565b60405180910390f35b610373600480360381019061036e9190612262565b611736565b005b34801561038157600080fd5b5061038a611dad565b604051610397919061258b565b60405180910390f35b3480156103ac57600080fd5b506103b5611db3565b6040516103c2919061258b565b60405180910390f35b3480156103d757600080fd5b506103f260048036038101906103ed91906128d9565b611db9565b6040516103ff91906128be565b60405180910390f35b34801561041457600080fd5b5061042f600480360381019061042a9190612970565b611dce565b005b60007f4e2312e0000000000000000000000000000000000000000000000000000000007bffffffffffffffffffffffffffffffffffffffffffffffffffffffff1916827bffffffffffffffffffffffffffffffffffffffffffffffffffffffff191614806104a457506104a382611e51565b5b9050919050565b60056020528060005260406000206000915090508060000154908060010154908060020160009054906101000a900473ffffffffffffffffffffffffffffffffffffffff16908060030154908060040154908060050160009054906101000a900460ff16905086565b61051c611ebb565b6000811015801561052e575060648111155b61056d576040517f08c379a0000000000000000000000000000000000000000000000000000000008152600401610564906129fa565b60405180910390fd5b806004819055507f13f60dd2b588490608c3ff1932a3daeb4087f3d5af04b97e5c2a16b5b4c0302e816040516105a3919061258b565b60405180910390a150565b60008210156105f2576040517f08c379a00000000000000000000000000000000000000000000000000000000081526004016105e990612a66565b60405180910390fd5b60008111610635576040517f08c379a000000000000000000000000000000000000000000000000000000000815260040161062c90612ad2565b60405180910390fd5b60006002811115610649576106486122df565b5b6005600084815260200190815260200160002060050160009054906101000a900460ff16600281111561067f5761067e6122df565b5b146106bf576040517f08c379a00000000000000000000000000000000000000000000000000000000081526004016106b690612b3e565b60405180910390fd5b60006005600084815260200190815260200160002090503373ffffffffffffffffffffffffffffffffffffffff168160020160009054906101000a900473ffffffffffffffffffffffffffffffffffffffff1673ffffffffffffffffffffffffffffffffffffffff1614610768576040517f08c379a000000000000000000000000000000000000000000000000000000000815260040161075f90612baa565b60405180910390fd5b6000600281111561077c5761077b6122df565b5b8160050160009054906101000a900460ff1660028111156107a05761079f6122df565b5b146107e0576040517f08c379a00000000000000000000000000000000000000000000000000000000081526004016107d790612c16565b60405180910390fd5b8181600301819055503373ffffffffffffffffffffffffffffffffffffffff16837f9bbf54fc7ff6f67d3c4b11a11099fa5d5b6def97d72a570633e56032f18b122284604051610830919061258b565b60405180910390a3505050565b6000600260009054906101000a900460ff16905090565b61085c611f39565b610864611f88565b6000600260019054906101000a900473ffffffffffffffffffffffffffffffffffffffff1673ffffffffffffffffffffffffffffffffffffffff1662fdd58e33856040518363ffffffff1660e01b81526004016108c2929190612c36565b602060405180830381865afa1580156108df573d6000803e3d6000fd5b505050506040513d601f19601f820116820180604052508101906109039190612c74565b11610943576040517f08c379a000000000000000000000000000000000000000000000000000000000815260040161093a90612ced565b60405180910390fd5b60008111610986576040517f08c379a000000000000000000000000000000000000000000000000000000000815260040161097d90612ad2565b60405180910390fd5b600260019054906101000a900473ffffffffffffffffffffffffffffffffffffffff1673ffffffffffffffffffffffffffffffffffffffff1663f242432a33308560016040518563ffffffff1660e01b81526004016109e89493929190612d89565b600060405180830381600087803b158015610a0257600080fd5b505af1158015610a16573d6000803e3d6000fd5b5050505060006003549050610a376001600354611fd290919063ffffffff16565b60038190555060006040518060c001604052808381526020018581526020013373ffffffffffffffffffffffffffffffffffffffff168152602001848152602001600680549050815260200160006002811115610a9757610a966122df565b5b81525090506006819080600181540180825580915050600190039060005260206000209060060201600090919091909150600082015181600001556020820151816001015560408201518160020160006101000a81548173ffffffffffffffffffffffffffffffffffffffff021916908373ffffffffffffffffffffffffffffffffffffffff160217905550606082015181600301556080820151816004015560a08201518160050160006101000a81548160ff02191690836002811115610b6257610b616122df565b5b021790555050508060056000848152602001908152602001600020600082015181600001556020820151816001015560408201518160020160006101000a81548173ffffffffffffffffffffffffffffffffffffffff021916908373ffffffffffffffffffffffffffffffffffffffff160217905550606082015181600301556080820151816004015560a08201518160050160006101000a81548160ff02191690836002811115610c1757610c166122df565b5b02179055509050505050610c29611fe8565b5050565b610c35611ebb565b610c3f6000611ff1565b565b60606000805b600680549050811015610cd45760006002811115610c6857610c676122df565b5b60068281548110610c7c57610c7b612de1565b5b906000526020600020906006020160050160009054906101000a900460ff166002811115610cad57610cac6122df565b5b03610cc1578180610cbd90612e3f565b9250505b8080610ccc90612e3f565b915050610c47565b5060008167ffffffffffffffff811115610cf157610cf06125e8565b5b604051908082528060200260200182016040528015610d2a57816020015b610d176120ff565b815260200190600190039081610d0f5790505b5090506000805b600680549050811015610ec25760006002811115610d5257610d516122df565b5b60068281548110610d6657610d65612de1565b5b906000526020600020906006020160050160009054906101000a900460ff166002811115610d9757610d966122df565b5b03610eaf5760068181548110610db057610daf612de1565b5b90600052602060002090600602016040518060c001604052908160008201548152602001600182015481526020016002820160009054906101000a900473ffffffffffffffffffffffffffffffffffffffff1673ffffffffffffffffffffffffffffffffffffffff1673ffffffffffffffffffffffffffffffffffffffff16815260200160038201548152602001600482015481526020016005820160009054906101000a900460ff166002811115610e6c57610e6b6122df565b5b6002811115610e7e57610e7d6122df565b5b81525050838381518110610e9557610e94612de1565b5b60200260200101819052508180610eab90612e3f565b9250505b8080610eba90612e3f565b915050610d31565b5081935050505090565b610ed4611f88565b6000811015610f18576040517f08c379a0000000000000000000000000000000000000000000000000000000008152600401610f0f90612a66565b60405180910390fd5b6000600560008381526020019081526020016000209050600280811115610f4257610f416122df565b5b8160050160009054906101000a900460ff166002811115610f6657610f656122df565b5b03610fa6576040517f08c379a0000000000000000000000000000000000000000000000000000000008152600401610f9d90612ef9565b60405180910390fd5b60016002811115610fba57610fb96122df565b5b8160050160009054906101000a900460ff166002811115610fde57610fdd6122df565b5b0361101e576040517f08c379a000000000000000000000000000000000000000000000000000000000815260040161101590612f65565b60405180910390fd5b8060030154341015611065576040517f08c379a000000000000000000000000000000000000000000000000000000000815260040161105c90612fd1565b60405180910390fd5b6006805490508160040154106110b0576040517f08c379a00000000000000000000000000000000000000000000000000000000081526004016110a790613063565b60405180910390fd5b600060068260040154815481106110ca576110c9612de1565b5b90600052602060002090600602016040518060c001604052908160008201548152602001600182015481526020016002820160009054906101000a900473ffffffffffffffffffffffffffffffffffffffff1673ffffffffffffffffffffffffffffffffffffffff1673ffffffffffffffffffffffffffffffffffffffff16815260200160038201548152602001600482015481526020016005820160009054906101000a900460ff166002811115611186576111856122df565b5b6002811115611198576111976122df565b5b81525050905080600001518260000154146111e8576040517f08c379a00000000000000000000000000000000000000000000000000000000081526004016111df906130f5565b60405180910390fd5b60018260050160006101000a81548160ff021916908360028111156112105761120f6122df565b5b021790555060016006805490506112279190613115565b82600401541015611391576000600660016006805490506112489190613115565b8154811061125957611258612de1565b5b906000526020600020906006020190508260040154816004018190555082600401546005600083600001548152602001908152602001600020600401819055508060068460040154815481106112b2576112b1612de1565b5b906000526020600020906006020160008201548160000155600182015481600101556002820160009054906101000a900473ffffffffffffffffffffffffffffffffffffffff168160020160006101000a81548173ffffffffffffffffffffffffffffffffffffffff021916908373ffffffffffffffffffffffffffffffffffffffff16021790555060038201548160030155600482015481600401556005820160009054906101000a900460ff168160050160006101000a81548160ff02191690836002811115611387576113866122df565b5b0217905550905050505b60068054806113a3576113a2613149565b5b600190038181906000526020600020906006020160008082016000905560018201600090556002820160006101000a81549073ffffffffffffffffffffffffffffffffffffffff0219169055600382016000905560048201600090556005820160006101000a81549060ff021916905550509055600260019054906101000a900473ffffffffffffffffffffffffffffffffffffffff1673ffffffffffffffffffffffffffffffffffffffff1663f242432a3033856001015460016040518563ffffffff1660e01b815260040161147d9493929190612d89565b600060405180830381600087803b15801561149757600080fd5b505af11580156114ab573d6000803e3d6000fd5b5050505060006114dd60646114cf60045486600301546120b590919063ffffffff16565b6120cb90919063ffffffff16565b905060006114f88285600301546120e190919063ffffffff16565b90508360020160009054906101000a900473ffffffffffffffffffffffffffffffffffffffff1673ffffffffffffffffffffffffffffffffffffffff166108fc829081150290604051600060405180830381858888f19350505050158015611564573d6000803e3d6000fd5b5061156d611675565b73ffffffffffffffffffffffffffffffffffffffff166108fc839081150290604051600060405180830381858888f193505050501580156115b2573d6000803e3d6000fd5b508360030154341115611616573373ffffffffffffffffffffffffffffffffffffffff166108fc8560030154346115e99190613115565b9081150290604051600060405180830381858888f19350505050158015611614573d6000803e3d6000fd5b505b3373ffffffffffffffffffffffffffffffffffffffff168460010154867f8e6b318531fe50ff45fb53965093ee54fd104eb3bb5ed61a979969e5b36bcee08760030154604051611666919061258b565b60405180910390a45050505050565b60008060009054906101000a900473ffffffffffffffffffffffffffffffffffffffff16905090565b6000600454905090565b600681815481106116b857600080fd5b90600052602060002090600602016000915090508060000154908060010154908060020160009054906101000a900473ffffffffffffffffffffffffffffffffffffffff16908060030154908060040154908060050160009054906101000a900460ff16905086565b600063bc197c8160e01b905095945050505050565b61173e611f88565b6000811015611782576040517f08c379a000000000000000000000000000000000000000000000000000000000815260040161177990612a66565b60405180910390fd5b60006005600083815260200190815260200160002090503373ffffffffffffffffffffffffffffffffffffffff168160020160009054906101000a900473ffffffffffffffffffffffffffffffffffffffff1673ffffffffffffffffffffffffffffffffffffffff161461182b576040517f08c379a000000000000000000000000000000000000000000000000000000000815260040161182290612baa565b60405180910390fd5b60028081111561183e5761183d6122df565b5b8160050160009054906101000a900460ff166002811115611862576118616122df565b5b036118a2576040517f08c379a000000000000000000000000000000000000000000000000000000000815260040161189990612ef9565b60405180910390fd5b600160028111156118b6576118b56122df565b5b8160050160009054906101000a900460ff1660028111156118da576118d96122df565b5b0361191a576040517f08c379a000000000000000000000000000000000000000000000000000000000815260040161191190612f65565b60405180910390fd5b600680549050816004015410611965576040517f08c379a000000000000000000000000000000000000000000000000000000000815260040161195c90613063565b60405180910390fd5b6000600682600401548154811061197f5761197e612de1565b5b90600052602060002090600602016040518060c001604052908160008201548152602001600182015481526020016002820160009054906101000a900473ffffffffffffffffffffffffffffffffffffffff1673ffffffffffffffffffffffffffffffffffffffff1673ffffffffffffffffffffffffffffffffffffffff16815260200160038201548152602001600482015481526020016005820160009054906101000a900460ff166002811115611a3b57611a3a6122df565b5b6002811115611a4d57611a4c6122df565b5b8152505090508060000151826000015414611a9d576040517f08c379a0000000000000000000000000000000000000000000000000000000008152600401611a94906130f5565b60405180910390fd5b60028260050160006101000a81548160ff02191690836002811115611ac557611ac46122df565b5b02179055506001600680549050611adc9190613115565b82600401541015611c4657600060066001600680549050611afd9190613115565b81548110611b0e57611b0d612de1565b5b90600052602060002090600602019050826004015481600401819055508260040154600560008360000154815260200190815260200160002060040181905550806006846004015481548110611b6757611b66612de1565b5b906000526020600020906006020160008201548160000155600182015481600101556002820160009054906101000a900473ffffffffffffffffffffffffffffffffffffffff168160020160006101000a81548173ffffffffffffffffffffffffffffffffffffffff021916908373ffffffffffffffffffffffffffffffffffffffff16021790555060038201548160030155600482015481600401556005820160009054906101000a900460ff168160050160006101000a81548160ff02191690836002811115611c3c57611c3b6122df565b5b0217905550905050505b6006805480611c5857611c57613149565b5b600190038181906000526020600020906006020160008082016000905560018201600090556002820160006101000a81549073ffffffffffffffffffffffffffffffffffffffff0219169055600382016000905560048201600090556005820160006101000a81549060ff021916905550509055600260019054906101000a900473ffffffffffffffffffffffffffffffffffffffff1673ffffffffffffffffffffffffffffffffffffffff1663f242432a3033856001015460016040518563ffffffff1660e01b8152600401611d329493929190612d89565b600060405180830381600087803b158015611d4c57600080fd5b505af1158015611d60573d6000803e3d6000fd5b505050503373ffffffffffffffffffffffffffffffffffffffff16837fc17a2000b952093a1b49de547dc3416f2a96f6d78da5b597d5ee0272b6be70e960405160405180910390a3505050565b60045481565b60035481565b600063f23a6e6160e01b905095945050505050565b611dd6611ebb565b600073ffffffffffffffffffffffffffffffffffffffff168173ffffffffffffffffffffffffffffffffffffffff1603611e45576040517f08c379a0000000000000000000000000000000000000000000000000000000008152600401611e3c906131ea565b60405180910390fd5b611e4e81611ff1565b50565b60007f01ffc9a7000000000000000000000000000000000000000000000000000000007bffffffffffffffffffffffffffffffffffffffffffffffffffffffff1916827bffffffffffffffffffffffffffffffffffffffffffffffffffffffff1916149050919050565b611ec36120f7565b73ffffffffffffffffffffffffffffffffffffffff16611ee1611675565b73ffffffffffffffffffffffffffffffffffffffff1614611f37576040517f08c379a0000000000000000000000000000000000000000000000000000000008152600401611f2e90613256565b60405180910390fd5b565b600260015403611f7e576040517f08c379a0000000000000000000000000000000000000000000000000000000008152600401611f75906132c2565b60405180910390fd5b6002600181905550565b611f9061083d565b15611fd0576040517f08c379a0000000000000000000000000000000000000000000000000000000008152600401611fc79061332e565b60405180910390fd5b565b60008183611fe0919061334e565b905092915050565b60018081905550565b60008060009054906101000a900473ffffffffffffffffffffffffffffffffffffffff169050816000806101000a81548173ffffffffffffffffffffffffffffffffffffffff021916908373ffffffffffffffffffffffffffffffffffffffff1602179055508173ffffffffffffffffffffffffffffffffffffffff168173ffffffffffffffffffffffffffffffffffffffff167f8be0079c531659141344cd1fd0a4f28419497f9722a3daafe3b4186f6b6457e060405160405180910390a35050565b600081836120c39190613382565b905092915050565b600081836120d991906133f3565b905092915050565b600081836120ef9190613115565b905092915050565b600033905090565b6040518060c001604052806000815260200160008152602001600073ffffffffffffffffffffffffffffffffffffffff168152602001600081526020016000815260200160006002811115612157576121566122df565b5b81525090565b6000604051905090565b600080fd5b600080fd5b60007fffffffff0000000000000000000000000000000000000000000000000000000082169050919050565b6121a681612171565b81146121b157600080fd5b50565b6000813590506121c38161219d565b92915050565b6000602082840312156121df576121de612167565b5b60006121ed848285016121b4565b91505092915050565b60008115159050919050565b61220b816121f6565b82525050565b60006020820190506122266000830184612202565b92915050565b6000819050919050565b61223f8161222c565b811461224a57600080fd5b50565b60008135905061225c81612236565b92915050565b60006020828403121561227857612277612167565b5b60006122868482850161224d565b91505092915050565b6122988161222c565b82525050565b600073ffffffffffffffffffffffffffffffffffffffff82169050919050565b60006122c98261229e565b9050919050565b6122d9816122be565b82525050565b7f4e487b7100000000000000000000000000000000000000000000000000000000600052602160045260246000fd5b6003811061231f5761231e6122df565b5b50565b60008190506123308261230e565b919050565b600061234082612322565b9050919050565b61235081612335565b82525050565b600060c08201905061236b600083018961228f565b612378602083018861228f565b61238560408301876122d0565b612392606083018661228f565b61239f608083018561228f565b6123ac60a0830184612347565b979650505050505050565b600080604083850312156123ce576123cd612167565b5b60006123dc8582860161224d565b92505060206123ed8582860161224d565b9150509250929050565b600081519050919050565b600082825260208201905092915050565b6000819050602082019050919050565b61242c8161222c565b82525050565b61243b816122be565b82525050565b61244a81612335565b82525050565b60c0820160008201516124666000850182612423565b5060208201516124796020850182612423565b50604082015161248c6040850182612432565b50606082015161249f6060850182612423565b5060808201516124b26080850182612423565b5060a08201516124c560a0850182612441565b50505050565b60006124d78383612450565b60c08301905092915050565b6000602082019050919050565b60006124fb826123f7565b6125058185612402565b935061251083612413565b8060005b8381101561254157815161252888826124cb565b9750612533836124e3565b925050600181019050612514565b5085935050505092915050565b6000602082019050818103600083015261256881846124f0565b905092915050565b600060208201905061258560008301846122d0565b92915050565b60006020820190506125a0600083018461228f565b92915050565b6125af816122be565b81146125ba57600080fd5b50565b6000813590506125cc816125a6565b92915050565b600080fd5b6000601f19601f8301169050919050565b7f4e487b7100000000000000000000000000000000000000000000000000000000600052604160045260246000fd5b612620826125d7565b810181811067ffffffffffffffff8211171561263f5761263e6125e8565b5b80604052505050565b600061265261215d565b905061265e8282612617565b919050565b600067ffffffffffffffff82111561267e5761267d6125e8565b5b602082029050602081019050919050565b600080fd5b60006126a76126a284612663565b612648565b905080838252602082019050602084028301858111156126ca576126c961268f565b5b835b818110156126f357806126df888261224d565b8452602084019350506020810190506126cc565b5050509392505050565b600082601f830112612712576127116125d2565b5b8135612722848260208601612694565b91505092915050565b600080fd5b600067ffffffffffffffff82111561274b5761274a6125e8565b5b612754826125d7565b9050602081019050919050565b82818337600083830152505050565b600061278361277e84612730565b612648565b90508281526020810184848401111561279f5761279e61272b565b5b6127aa848285612761565b509392505050565b600082601f8301126127c7576127c66125d2565b5b81356127d7848260208601612770565b91505092915050565b600080600080600060a086880312156127fc576127fb612167565b5b600061280a888289016125bd565b955050602061281b888289016125bd565b945050604086013567ffffffffffffffff81111561283c5761283b61216c565b5b612848888289016126fd565b935050606086013567ffffffffffffffff8111156128695761286861216c565b5b612875888289016126fd565b925050608086013567ffffffffffffffff8111156128965761289561216c565b5b6128a2888289016127b2565b9150509295509295909350565b6128b881612171565b82525050565b60006020820190506128d360008301846128af565b92915050565b600080600080600060a086880312156128f5576128f4612167565b5b6000612903888289016125bd565b9550506020612914888289016125bd565b94505060406129258882890161224d565b93505060606129368882890161224d565b925050608086013567ffffffffffffffff8111156129575761295661216c565b5b612963888289016127b2565b9150509295509295909350565b60006020828403121561298657612985612167565b5b6000612994848285016125bd565b91505092915050565b600082825260208201905092915050565b7f496e76616c696420636f6d6d697373696f6e2070657263656e74616765000000600082015250565b60006129e4601d8361299d565b91506129ef826129ae565b602082019050919050565b60006020820190508181036000830152612a13816129d7565b9050919050565b7f496e76616c69642073616c652069640000000000000000000000000000000000600082015250565b6000612a50600f8361299d565b9150612a5b82612a1a565b602082019050919050565b60006020820190508181036000830152612a7f81612a43565b9050919050565b7f546865207072696365206d75737420626520706f736974697665000000000000600082015250565b6000612abc601a8361299d565b9150612ac782612a86565b602082019050919050565b60006020820190508181036000830152612aeb81612aaf565b9050919050565b7f4d757374206265206c6973746564000000000000000000000000000000000000600082015250565b6000612b28600e8361299d565b9150612b3382612af2565b602082019050919050565b60006020820190508181036000830152612b5781612b1b565b9050919050565b7f596f7520617265206e6f74207468652073656c6c657200000000000000000000600082015250565b6000612b9460168361299d565b9150612b9f82612b5e565b602082019050919050565b60006020820190508181036000830152612bc381612b87565b9050919050565b7f5468652073616c65206973206e6f742061637469766500000000000000000000600082015250565b6000612c0060168361299d565b9150612c0b82612bca565b602082019050919050565b60006020820190508181036000830152612c2f81612bf3565b9050919050565b6000604082019050612c4b60008301856122d0565b612c58602083018461228f565b9392505050565b600081519050612c6e81612236565b92915050565b600060208284031215612c8a57612c89612167565b5b6000612c9884828501612c5f565b91505092915050565b7f596f7520646f6e2774206f776e2074686973204e465400000000000000000000600082015250565b6000612cd760168361299d565b9150612ce282612ca1565b602082019050919050565b60006020820190508181036000830152612d0681612cca565b9050919050565b6000819050919050565b6000819050919050565b6000612d3c612d37612d3284612d0d565b612d17565b61222c565b9050919050565b612d4c81612d21565b82525050565b600082825260208201905092915050565b50565b6000612d73600083612d52565b9150612d7e82612d63565b600082019050919050565b600060a082019050612d9e60008301876122d0565b612dab60208301866122d0565b612db8604083018561228f565b612dc56060830184612d43565b8181036080830152612dd681612d66565b905095945050505050565b7f4e487b7100000000000000000000000000000000000000000000000000000000600052603260045260246000fd5b7f4e487b7100000000000000000000000000000000000000000000000000000000600052601160045260246000fd5b6000612e4a8261222c565b91507fffffffffffffffffffffffffffffffffffffffffffffffffffffffffffffffff8203612e7c57612e7b612e10565b5b600182019050919050565b7f5468652073616c652068617320616c7265616479206265656e2063616e63656c60008201527f6564000000000000000000000000000000000000000000000000000000000000602082015250565b6000612ee360228361299d565b9150612eee82612e87565b604082019050919050565b60006020820190508181036000830152612f1281612ed6565b9050919050565b7f5468652073616c6520686173206265656e20736f6c6400000000000000000000600082015250565b6000612f4f60168361299d565b9150612f5a82612f19565b602082019050919050565b60006020820190508181036000830152612f7e81612f42565b9050919050565b7f496e73756666696369656e742066756e64730000000000000000000000000000600082015250565b6000612fbb60128361299d565b9150612fc682612f85565b602082019050919050565b60006020820190508181036000830152612fea81612fae565b9050919050565b7f537472616e6765206572726f722c20636f6e7461637420776974682061646d6960008201527f6e6973747261746f727320283129000000000000000000000000000000000000602082015250565b600061304d602e8361299d565b915061305882612ff1565b604082019050919050565b6000602082019050818103600083015261307c81613040565b9050919050565b7f537472616e6765206572726f722c20636f6e7461637420776974682061646d6960008201527f6e6973747261746f727320283229000000000000000000000000000000000000602082015250565b60006130df602e8361299d565b91506130ea82613083565b604082019050919050565b6000602082019050818103600083015261310e816130d2565b9050919050565b60006131208261222c565b915061312b8361222c565b925082820390508181111561314357613142612e10565b5b92915050565b7f4e487b7100000000000000000000000000000000000000000000000000000000600052603160045260246000fd5b7f4f776e61626c653a206e6577206f776e657220697320746865207a65726f206160008201527f6464726573730000000000000000000000000000000000000000000000000000602082015250565b60006131d460268361299d565b91506131df82613178565b604082019050919050565b60006020820190508181036000830152613203816131c7565b9050919050565b7f4f776e61626c653a2063616c6c6572206973206e6f7420746865206f776e6572600082015250565b600061324060208361299d565b915061324b8261320a565b602082019050919050565b6000602082019050818103600083015261326f81613233565b9050919050565b7f5265656e7472616e637947756172643a207265656e7472616e742063616c6c00600082015250565b60006132ac601f8361299d565b91506132b782613276565b602082019050919050565b600060208201905081810360008301526132db8161329f565b9050919050565b7f5061757361626c653a2070617573656400000000000000000000000000000000600082015250565b600061331860108361299d565b9150613323826132e2565b602082019050919050565b600060208201905081810360008301526133478161330b565b9050919050565b60006133598261222c565b91506133648361222c565b925082820190508082111561337c5761337b612e10565b5b92915050565b600061338d8261222c565b91506133988361222c565b92508282026133a68161222c565b915082820484148315176133bd576133bc612e10565b5b5092915050565b7f4e487b7100000000000000000000000000000000000000000000000000000000600052601260045260246000fd5b60006133fe8261222c565b91506134098361222c565b925082613419576134186133c4565b5b82820490509291505056fea264697066735822122006905013507f2324eb654989f44259200377e119d254020ef327cb1d2d5c355864736f6c63430008130033",
  "immutableReferences": {},
  "source": "// SPDX-License-Identifier: MIT\r\npragma solidity >=0.8.0 <0.9.0;\r\n\r\nimport \"@openzeppelin/contracts/token/ERC1155/ERC1155.sol\";\r\nimport \"@openzeppelin/contracts/token/ERC1155/extensions/ERC1155URIStorage.sol\";\r\nimport \"@openzeppelin/contracts/token/ERC1155/utils/ERC1155Holder.sol\";\r\nimport \"@openzeppelin/contracts/access/Ownable.sol\";\r\nimport \"@openzeppelin/contracts/utils/structs/EnumerableSet.sol\";\r\nimport \"@openzeppelin/contracts/utils/math/SafeMath.sol\";\r\nimport \"@openzeppelin/contracts/security/ReentrancyGuard.sol\";\r\nimport \"@openzeppelin/contracts/security/Pausable.sol\";\r\nimport \"./TOKENPLAY.sol\";\r\n\r\ncontract NFTGamesMarketplace is Ownable, ERC1155Holder, ReentrancyGuard, Pausable {\r\n    using SafeMath for uint256;\r\n    using EnumerableSet for EnumerableSet.UintSet;\r\n\r\n    TOKENPLAY private nftContract; // Referencia al contrato original\r\n\r\n    constructor(address _nftContract) {\r\n        nftContract = TOKENPLAY(_nftContract);\r\n    }\r\n\r\n    // Contador autoincremental, cada nmero ser una venta\r\n    uint256 public nextSaleId = 0;\r\n    // % royalties\r\n    uint256 public commissionPercentage = 5;\r\n\r\n    // Enum para el estado de la venta\r\n    enum SaleStatus { Listed, Sold, Canceled }\r\n\r\n    // Estructura para poner a la venta un juego\r\n    struct Sale {\r\n        uint256 saleId;\r\n        uint256 tokenId;\r\n        address seller;\r\n        uint256 price;\r\n        uint256 arrayPosition;\r\n        SaleStatus status;\r\n    }\r\n\r\n    mapping(uint256 => Sale) public salesInfo;\r\n    Sale[] public sales;\r\n\r\n    // EVENTOS\r\n    // Publicacin de la venta de un juego\r\n    event SaleCreated(uint256 indexed saleId, uint256 indexed tokenId, address indexed seller, uint256 price);\r\n    // Cancelacin de una publicacin\r\n    event SaleCanceled(uint256 indexed saleId, address indexed seller);\r\n    // Cuando alguien compra un juego en el mercado\r\n    event GamePurchasedFromMarketplace(uint256 indexed saleId, uint256 indexed tokenId, address indexed buyer, uint256 purchasePrice);\r\n    // Modificar precio de venta\r\n    event SalePriceUpdated(uint256 indexed saleId, uint256 newPrice, address indexed seller);\r\n    // Modificar % royalty\r\n    event CommissionUpdated(uint256 newCommissionPercentage);\r\n\r\n    // Crear una venta de juego\r\n    function createSale(uint256 tokenId, uint256 price) external payable nonReentrant whenNotPaused {\r\n        require(nftContract.balanceOf(msg.sender, tokenId) > 0, \"You don't own this NFT\");\r\n        require(price > 0, \"The price must be positive\");\r\n\r\n        nftContract.safeTransferFrom(msg.sender, address(this), tokenId, 1, \"\");\r\n\r\n        uint256 saleId = nextSaleId;\r\n        nextSaleId = nextSaleId.add(1);\r\n\r\n        Sale memory sale = Sale({saleId: saleId, tokenId: tokenId, seller: msg.sender, price: price, arrayPosition: sales.length, status: SaleStatus.Listed});\r\n        sales.push(sale);\r\n        salesInfo[saleId] = sale;\r\n    }\r\n\r\n    function cancelSale(uint256 saleId) payable external whenNotPaused {\r\n        require(saleId >= 0, \"Invalid sale id\");\r\n\r\n        Sale storage saleMapping = salesInfo[saleId];\r\n        require(saleMapping.seller == msg.sender, \"You are not the seller\");\r\n        require(saleMapping.status != SaleStatus.Canceled, \"The sale has already been canceled\");\r\n        require(saleMapping.status != SaleStatus.Sold, \"The sale has been sold\");\r\n        require(saleMapping.arrayPosition < sales.length, \"Strange error, contact with administrators (1)\");\r\n\r\n        Sale memory saleArray = sales[saleMapping.arrayPosition];\r\n        require(saleMapping.saleId == saleArray.saleId, \"Strange error, contact with administrators (2)\");\r\n\r\n        saleMapping.status = SaleStatus.Canceled;\r\n        // Reorganizar el array moviendo el ltimo elemento al lugar del elemento eliminado\r\n        if (saleMapping.arrayPosition < sales.length - 1) {\r\n            Sale storage lastSale = sales[sales.length - 1];\r\n\r\n            // Actualizamos posiciones\r\n            lastSale.arrayPosition = saleMapping.arrayPosition;\r\n            salesInfo[lastSale.saleId].arrayPosition = saleMapping.arrayPosition;\r\n\r\n            // Guardamos elemento en la nueva posicin del array\r\n            sales[saleMapping.arrayPosition] = lastSale;\r\n        }\r\n        sales.pop();\r\n\r\n        nftContract.safeTransferFrom(address(this), msg.sender, saleMapping.tokenId, 1, \"\");\r\n        emit SaleCanceled(saleId, msg.sender);\r\n    }\r\n\r\n    function purchaseFromMarketplace(uint256 saleId) external payable whenNotPaused {\r\n        require(saleId >= 0, \"Invalid sale id\");\r\n\r\n        Sale storage saleMapping = salesInfo[saleId];\r\n        require(saleMapping.status != SaleStatus.Canceled, \"The sale has already been canceled\");\r\n        require(saleMapping.status != SaleStatus.Sold, \"The sale has been sold\");\r\n        require(msg.value >= saleMapping.price, \"Insufficient funds\");\r\n        require(saleMapping.arrayPosition < sales.length, \"Strange error, contact with administrators (1)\");\r\n\r\n        Sale memory saleArray = sales[saleMapping.arrayPosition];\r\n        require(saleMapping.saleId == saleArray.saleId, \"Strange error, contact with administrators (2)\");\r\n\r\n        // Reorganizar el array moviendo el ltimo elemento al lugar del elemento eliminado\r\n        saleMapping.status = SaleStatus.Sold;\r\n        if (saleMapping.arrayPosition < sales.length - 1) {\r\n            Sale storage lastSale = sales[sales.length - 1];\r\n\r\n            // Actualizamos posiciones\r\n            lastSale.arrayPosition = saleMapping.arrayPosition;\r\n            salesInfo[lastSale.saleId].arrayPosition = saleMapping.arrayPosition;\r\n\r\n            // Guardamos elemento en la nueva posicin del array\r\n            sales[saleMapping.arrayPosition] = lastSale;\r\n        }\r\n        sales.pop();\r\n\r\n        nftContract.safeTransferFrom(address(this), msg.sender, saleMapping.tokenId, 1, \"\");\r\n\r\n        // Deduccin de la comisin y transferencia al propietario del contrato\r\n        uint256 commissionAmount = saleMapping.price.mul(commissionPercentage).div(100);\r\n        uint256 sellerAmount = saleMapping.price.sub(commissionAmount);\r\n\r\n        payable(saleMapping.seller).transfer(sellerAmount);\r\n        payable(owner()).transfer(commissionAmount);\r\n\r\n        // Si el usuario ha pagado de mas, le devolvemos el dinero\r\n        if (msg.value > saleMapping.price) {\r\n            payable(msg.sender).transfer(msg.value - saleMapping.price);\r\n        }\r\n        emit GamePurchasedFromMarketplace(saleId, saleMapping.tokenId, msg.sender, saleMapping.price);\r\n    }\r\n\r\n    // Funcin para obtener los juegos en venta\r\n    function getGamesForSale() external view returns (Sale[] memory) {\r\n        uint256 activeSalesCount = 0;\r\n\r\n        // Contar la cantidad de ventas activas\r\n        for (uint256 i = 0; i < sales.length; i++) {\r\n            if (sales[i].status == SaleStatus.Listed) {\r\n                activeSalesCount++;\r\n            }\r\n        }\r\n\r\n        // Crear un array para almacenar las ventas activas\r\n        Sale[] memory activeSales = new Sale[](activeSalesCount);\r\n\r\n        // Llenar el array con las ventas activas\r\n        uint256 activeIndex = 0;\r\n        for (uint256 i = 0; i < sales.length; i++) {\r\n            if (sales[i].status == SaleStatus.Listed) {\r\n                activeSales[activeIndex] = sales[i];\r\n                activeIndex++;\r\n            }\r\n        }\r\n\r\n        return activeSales;\r\n    }\r\n\r\n    // Funcin para actualizar el precio de venta\r\n    function updateSalePrice(uint256 saleId, uint256 newPrice) external {\r\n        require(saleId >= 0, \"Invalid sale id\");\r\n        require(newPrice > 0, \"The price must be positive\");\r\n        require(salesInfo[saleId].status == SaleStatus.Listed, \"Must be listed\");\r\n\r\n        Sale storage saleMapping = salesInfo[saleId];\r\n        require(saleMapping.seller == msg.sender, \"You are not the seller\");\r\n        require(saleMapping.status == SaleStatus.Listed, \"The sale is not active\");\r\n\r\n        saleMapping.price = newPrice;\r\n\r\n        emit SalePriceUpdated(saleId, newPrice, msg.sender);\r\n    }\r\n\r\n    function setCommissionPercentage(uint256 _commissionPercentage) external onlyOwner {\r\n        require(_commissionPercentage >= 0 && _commissionPercentage <= 100, \"Invalid commission percentage\");\r\n        commissionPercentage = _commissionPercentage;\r\n        emit CommissionUpdated(_commissionPercentage);\r\n    }\r\n\r\n    function getCommissionPercentage() external view returns (uint256) {\r\n        return commissionPercentage;\r\n    }\r\n}\r\n",
  "sourcePath": "D:\\Projects\\Web\\Master\\tokenplay.pages.dev\\contracts\\NFTGamesMarketplace.sol",
  "compiler": {
    "name": "solc",
    "version": "0.8.19+commit.7dd6d404.Emscripten.clang"
  },
  "schemaVersion": "3.4.15",
  "updatedAt": "2023-08-28T18:22:50.922Z",
  "devdoc": {
    "events": {
      "Paused(address)": {
        "details": "Emitted when the pause is triggered by `account`."
      },
      "Unpaused(address)": {
        "details": "Emitted when the pause is lifted by `account`."
      }
    },
    "kind": "dev",
    "methods": {
      "owner()": {
        "details": "Returns the address of the current owner."
      },
      "paused()": {
        "details": "Returns true if the contract is paused, and false otherwise."
      },
      "renounceOwnership()": {
        "details": "Leaves the contract without owner. It will not be possible to call `onlyOwner` functions. Can only be called by the current owner. NOTE: Renouncing ownership will leave the contract without an owner, thereby disabling any functionality that is only available to the owner."
      },
      "supportsInterface(bytes4)": {
        "details": "See {IERC165-supportsInterface}."
      },
      "transferOwnership(address)": {
        "details": "Transfers ownership of the contract to a new account (`newOwner`). Can only be called by the current owner."
      }
    },
    "version": 1
  },
  "userdoc": {
    "kind": "user",
    "methods": {},
    "version": 1
  }
}