{
  "contractName": "NFTGamesMarketplace",
  "abi": [
    {
      "inputs": [
        {
          "internalType": "address",
          "name": "_nftContract",
          "type": "address"
        }
      ],
      "stateMutability": "nonpayable",
      "type": "constructor"
    },
    {
      "anonymous": false,
      "inputs": [
        {
          "indexed": true,
          "internalType": "address",
          "name": "previousOwner",
          "type": "address"
        },
        {
          "indexed": true,
          "internalType": "address",
          "name": "newOwner",
          "type": "address"
        }
      ],
      "name": "OwnershipTransferred",
      "type": "event"
    },
    {
      "inputs": [],
      "name": "nextSaleId",
      "outputs": [
        {
          "internalType": "uint256",
          "name": "",
          "type": "uint256"
        }
      ],
      "stateMutability": "view",
      "type": "function"
    },
    {
      "inputs": [
        {
          "internalType": "address",
          "name": "",
          "type": "address"
        },
        {
          "internalType": "address",
          "name": "",
          "type": "address"
        },
        {
          "internalType": "uint256[]",
          "name": "",
          "type": "uint256[]"
        },
        {
          "internalType": "uint256[]",
          "name": "",
          "type": "uint256[]"
        },
        {
          "internalType": "bytes",
          "name": "",
          "type": "bytes"
        }
      ],
      "name": "onERC1155BatchReceived",
      "outputs": [
        {
          "internalType": "bytes4",
          "name": "",
          "type": "bytes4"
        }
      ],
      "stateMutability": "nonpayable",
      "type": "function"
    },
    {
      "inputs": [
        {
          "internalType": "address",
          "name": "",
          "type": "address"
        },
        {
          "internalType": "address",
          "name": "",
          "type": "address"
        },
        {
          "internalType": "uint256",
          "name": "",
          "type": "uint256"
        },
        {
          "internalType": "uint256",
          "name": "",
          "type": "uint256"
        },
        {
          "internalType": "bytes",
          "name": "",
          "type": "bytes"
        }
      ],
      "name": "onERC1155Received",
      "outputs": [
        {
          "internalType": "bytes4",
          "name": "",
          "type": "bytes4"
        }
      ],
      "stateMutability": "nonpayable",
      "type": "function"
    },
    {
      "inputs": [],
      "name": "owner",
      "outputs": [
        {
          "internalType": "address",
          "name": "",
          "type": "address"
        }
      ],
      "stateMutability": "view",
      "type": "function"
    },
    {
      "inputs": [],
      "name": "renounceOwnership",
      "outputs": [],
      "stateMutability": "nonpayable",
      "type": "function"
    },
    {
      "inputs": [
        {
          "internalType": "uint256",
          "name": "",
          "type": "uint256"
        }
      ],
      "name": "sales",
      "outputs": [
        {
          "internalType": "uint256",
          "name": "saleId",
          "type": "uint256"
        },
        {
          "internalType": "uint256",
          "name": "tokenId",
          "type": "uint256"
        },
        {
          "internalType": "address",
          "name": "seller",
          "type": "address"
        },
        {
          "internalType": "uint256",
          "name": "price",
          "type": "uint256"
        },
        {
          "internalType": "uint256",
          "name": "arrayPosition",
          "type": "uint256"
        },
        {
          "internalType": "bool",
          "name": "canceled",
          "type": "bool"
        },
        {
          "internalType": "bool",
          "name": "selled",
          "type": "bool"
        }
      ],
      "stateMutability": "view",
      "type": "function"
    },
    {
      "inputs": [
        {
          "internalType": "uint256",
          "name": "",
          "type": "uint256"
        }
      ],
      "name": "salesInfo",
      "outputs": [
        {
          "internalType": "uint256",
          "name": "saleId",
          "type": "uint256"
        },
        {
          "internalType": "uint256",
          "name": "tokenId",
          "type": "uint256"
        },
        {
          "internalType": "address",
          "name": "seller",
          "type": "address"
        },
        {
          "internalType": "uint256",
          "name": "price",
          "type": "uint256"
        },
        {
          "internalType": "uint256",
          "name": "arrayPosition",
          "type": "uint256"
        },
        {
          "internalType": "bool",
          "name": "canceled",
          "type": "bool"
        },
        {
          "internalType": "bool",
          "name": "selled",
          "type": "bool"
        }
      ],
      "stateMutability": "view",
      "type": "function"
    },
    {
      "inputs": [
        {
          "internalType": "bytes4",
          "name": "interfaceId",
          "type": "bytes4"
        }
      ],
      "name": "supportsInterface",
      "outputs": [
        {
          "internalType": "bool",
          "name": "",
          "type": "bool"
        }
      ],
      "stateMutability": "view",
      "type": "function"
    },
    {
      "inputs": [
        {
          "internalType": "address",
          "name": "newOwner",
          "type": "address"
        }
      ],
      "name": "transferOwnership",
      "outputs": [],
      "stateMutability": "nonpayable",
      "type": "function"
    },
    {
      "inputs": [
        {
          "internalType": "uint256",
          "name": "tokenId",
          "type": "uint256"
        },
        {
          "internalType": "uint256",
          "name": "price",
          "type": "uint256"
        }
      ],
      "name": "createSale",
      "outputs": [],
      "stateMutability": "payable",
      "type": "function"
    },
    {
      "inputs": [
        {
          "internalType": "uint256",
          "name": "saleId",
          "type": "uint256"
        }
      ],
      "name": "cancelSale",
      "outputs": [],
      "stateMutability": "payable",
      "type": "function"
    },
    {
      "inputs": [
        {
          "internalType": "uint256",
          "name": "saleId",
          "type": "uint256"
        }
      ],
      "name": "purchaseFromMarketplace",
      "outputs": [],
      "stateMutability": "payable",
      "type": "function"
    },
    {
      "inputs": [],
      "name": "getGamesForSale",
      "outputs": [
        {
          "components": [
            {
              "internalType": "uint256",
              "name": "saleId",
              "type": "uint256"
            },
            {
              "internalType": "uint256",
              "name": "tokenId",
              "type": "uint256"
            },
            {
              "internalType": "address",
              "name": "seller",
              "type": "address"
            },
            {
              "internalType": "uint256",
              "name": "price",
              "type": "uint256"
            },
            {
              "internalType": "uint256",
              "name": "arrayPosition",
              "type": "uint256"
            },
            {
              "internalType": "bool",
              "name": "canceled",
              "type": "bool"
            },
            {
              "internalType": "bool",
              "name": "selled",
              "type": "bool"
            }
          ],
          "internalType": "struct NFTGamesMarketplace.Sale[]",
          "name": "",
          "type": "tuple[]"
        }
      ],
      "stateMutability": "view",
      "type": "function"
    }
  ],
  "bytecode": "0x608060405260006002553480156200001657600080fd5b5060405162002d6b38038062002d6b83398181016040528101906200003c9190620001da565b6200005c62000050620000a460201b60201c565b620000ac60201b60201c565b80600160006101000a81548173ffffffffffffffffffffffffffffffffffffffff021916908373ffffffffffffffffffffffffffffffffffffffff160217905550506200020c565b600033905090565b60008060009054906101000a900473ffffffffffffffffffffffffffffffffffffffff169050816000806101000a81548173ffffffffffffffffffffffffffffffffffffffff021916908373ffffffffffffffffffffffffffffffffffffffff1602179055508173ffffffffffffffffffffffffffffffffffffffff168173ffffffffffffffffffffffffffffffffffffffff167f8be0079c531659141344cd1fd0a4f28419497f9722a3daafe3b4186f6b6457e060405160405180910390a35050565b600080fd5b600073ffffffffffffffffffffffffffffffffffffffff82169050919050565b6000620001a28262000175565b9050919050565b620001b48162000195565b8114620001c057600080fd5b50565b600081519050620001d481620001a9565b92915050565b600060208284031215620001f357620001f262000170565b5b60006200020384828501620001c3565b91505092915050565b612b4f806200021c6000396000f3fe6080604052600436106100c25760003560e01c80638da5cb5b1161007f578063bd94b00511610059578063bd94b0051461026c578063deb077b914610288578063f23a6e61146102b3578063f2fde38b146102f0576100c2565b80638da5cb5b146101c1578063b5f522f7146101ec578063bc197c811461022f576100c2565b806301ffc9a7146100c7578063351c3896146101045780636019061b14610147578063715018a614610163578063726da5af1461017a57806381464687146101a5575b600080fd5b3480156100d357600080fd5b506100ee60048036038101906100e99190611afa565b610319565b6040516100fb9190611b42565b60405180910390f35b34801561011057600080fd5b5061012b60048036038101906101269190611b93565b610393565b60405161013e9796959493929190611c10565b60405180910390f35b610161600480360381019061015c9190611c7f565b61040f565b005b34801561016f57600080fd5b506101786107a6565b005b34801561018657600080fd5b5061018f6107ba565b60405161019c9190611e29565b60405180910390f35b6101bf60048036038101906101ba9190611b93565b610a6e565b005b3480156101cd57600080fd5b506101d66110fd565b6040516101e39190611e4b565b60405180910390f35b3480156101f857600080fd5b50610213600480360381019061020e9190611b93565b611126565b6040516102269796959493929190611c10565b60405180910390f35b34801561023b57600080fd5b50610256600480360381019061025191906120a0565b6111b2565b604051610263919061217e565b60405180910390f35b61028660048036038101906102819190611b93565b6111c7565b005b34801561029457600080fd5b5061029d6117cf565b6040516102aa9190612199565b60405180910390f35b3480156102bf57600080fd5b506102da60048036038101906102d591906121b4565b6117d5565b6040516102e7919061217e565b60405180910390f35b3480156102fc57600080fd5b506103176004803603810190610312919061224b565b6117ea565b005b60007f4e2312e0000000000000000000000000000000000000000000000000000000007bffffffffffffffffffffffffffffffffffffffffffffffffffffffff1916827bffffffffffffffffffffffffffffffffffffffffffffffffffffffff1916148061038c575061038b8261186d565b5b9050919050565b60036020528060005260406000206000915090508060000154908060010154908060020160009054906101000a900473ffffffffffffffffffffffffffffffffffffffff16908060030154908060040154908060050160009054906101000a900460ff16908060050160019054906101000a900460ff16905087565b6000600160009054906101000a900473ffffffffffffffffffffffffffffffffffffffff1673ffffffffffffffffffffffffffffffffffffffff1662fdd58e33856040518363ffffffff1660e01b815260040161046d929190612278565b602060405180830381865afa15801561048a573d6000803e3d6000fd5b505050506040513d601f19601f820116820180604052508101906104ae91906122b6565b116104ee576040517f08c379a00000000000000000000000000000000000000000000000000000000081526004016104e590612340565b60405180910390fd5b600160009054906101000a900473ffffffffffffffffffffffffffffffffffffffff1673ffffffffffffffffffffffffffffffffffffffff1663f242432a33308560016040518563ffffffff1660e01b815260040161055094939291906123dc565b600060405180830381600087803b15801561056a57600080fd5b505af115801561057e573d6000803e3d6000fd5b505050506000600254905061059f60016002546118d790919063ffffffff16565b60028190555060006040518060e001604052808381526020018581526020013373ffffffffffffffffffffffffffffffffffffffff16815260200184815260200160048054905081526020016000151581526020016000151581525090506004819080600181540180825580915050600190039060005260206000209060060201600090919091909150600082015181600001556020820151816001015560408201518160020160006101000a81548173ffffffffffffffffffffffffffffffffffffffff021916908373ffffffffffffffffffffffffffffffffffffffff160217905550606082015181600301556080820151816004015560a08201518160050160006101000a81548160ff02191690831515021790555060c08201518160050160016101000a81548160ff02191690831515021790555050508060036000848152602001908152602001600020600082015181600001556020820151816001015560408201518160020160006101000a81548173ffffffffffffffffffffffffffffffffffffffff021916908373ffffffffffffffffffffffffffffffffffffffff160217905550606082015181600301556080820151816004015560a08201518160050160006101000a81548160ff02191690831515021790555060c08201518160050160016101000a81548160ff02191690831515021790555090505050505050565b6107ae6118ed565b6107b8600061196b565b565b60606000805b60048054905081101561086457600481815481106107e1576107e0612434565b5b906000526020600020906006020160050160009054906101000a900460ff1615801561083d57506004818154811061081c5761081b612434565b5b906000526020600020906006020160050160019054906101000a900460ff16155b1561085157818061084d90612492565b9250505b808061085c90612492565b9150506107c0565b5060008167ffffffffffffffff81111561088157610880611ea8565b5b6040519080825280602002602001820160405280156108ba57816020015b6108a7611a37565b81526020019060019003908161089f5790505b5090506000805b600480549050811015610a6457600481815481106108e2576108e1612434565b5b906000526020600020906006020160050160009054906101000a900460ff1615801561093e57506004818154811061091d5761091c612434565b5b906000526020600020906006020160050160019054906101000a900460ff16155b15610a51576004818154811061095757610956612434565b5b90600052602060002090600602016040518060e001604052908160008201548152602001600182015481526020016002820160009054906101000a900473ffffffffffffffffffffffffffffffffffffffff1673ffffffffffffffffffffffffffffffffffffffff1673ffffffffffffffffffffffffffffffffffffffff16815260200160038201548152602001600482015481526020016005820160009054906101000a900460ff161515151581526020016005820160019054906101000a900460ff161515151581525050838381518110610a3757610a36612434565b5b60200260200101819052508180610a4d90612492565b9250505b8080610a5c90612492565b9150506108c1565b5081935050505090565b6000811015610ab2576040517f08c379a0000000000000000000000000000000000000000000000000000000008152600401610aa990612526565b60405180910390fd5b6000600360008381526020019081526020016000209050600015158160050160009054906101000a900460ff16151514610b21576040517f08c379a0000000000000000000000000000000000000000000000000000000008152600401610b1890612592565b60405180910390fd5b600015158160050160019054906101000a900460ff16151514610b79576040517f08c379a0000000000000000000000000000000000000000000000000000000008152600401610b70906125fe565b60405180910390fd5b8060030154341015610bc0576040517f08c379a0000000000000000000000000000000000000000000000000000000008152600401610bb79061266a565b60405180910390fd5b600480549050816004015410610c0b576040517f08c379a0000000000000000000000000000000000000000000000000000000008152600401610c02906126fc565b60405180910390fd5b60006004826004015481548110610c2557610c24612434565b5b90600052602060002090600602016040518060e001604052908160008201548152602001600182015481526020016002820160009054906101000a900473ffffffffffffffffffffffffffffffffffffffff1673ffffffffffffffffffffffffffffffffffffffff1673ffffffffffffffffffffffffffffffffffffffff16815260200160038201548152602001600482015481526020016005820160009054906101000a900460ff161515151581526020016005820160019054906101000a900460ff16151515158152505090508060000151826000015414610d3e576040517f08c379a0000000000000000000000000000000000000000000000000000000008152600401610d359061278e565b60405180910390fd5b60018260050160016101000a81548160ff0219169083151502179055506001600480549050610d6d91906127ae565b82600401541015610ef457600060046001600480549050610d8e91906127ae565b81548110610d9f57610d9e612434565b5b90600052602060002090600602019050826004015481600401819055508260040154600360008360000154815260200190815260200160002060040181905550806004846004015481548110610df857610df7612434565b5b906000526020600020906006020160008201548160000155600182015481600101556002820160009054906101000a900473ffffffffffffffffffffffffffffffffffffffff168160020160006101000a81548173ffffffffffffffffffffffffffffffffffffffff021916908373ffffffffffffffffffffffffffffffffffffffff16021790555060038201548160030155600482015481600401556005820160009054906101000a900460ff168160050160006101000a81548160ff0219169083151502179055506005820160019054906101000a900460ff168160050160016101000a81548160ff021916908315150217905550905050505b6004805480610f0657610f056127e2565b5b600190038181906000526020600020906006020160008082016000905560018201600090556002820160006101000a81549073ffffffffffffffffffffffffffffffffffffffff0219169055600382016000905560048201600090556005820160006101000a81549060ff02191690556005820160016101000a81549060ff021916905550509055600160009054906101000a900473ffffffffffffffffffffffffffffffffffffffff1673ffffffffffffffffffffffffffffffffffffffff1663f242432a3033856001015460016040518563ffffffff1660e01b8152600401610ff494939291906123dc565b600060405180830381600087803b15801561100e57600080fd5b505af1158015611022573d6000803e3d6000fd5b505050508160020160009054906101000a900473ffffffffffffffffffffffffffffffffffffffff1673ffffffffffffffffffffffffffffffffffffffff166108fc83600301549081150290604051600060405180830381858888f19350505050158015611094573d6000803e3d6000fd5b5081600301543411156110f8573373ffffffffffffffffffffffffffffffffffffffff166108fc8360030154346110cb91906127ae565b9081150290604051600060405180830381858888f193505050501580156110f6573d6000803e3d6000fd5b505b505050565b60008060009054906101000a900473ffffffffffffffffffffffffffffffffffffffff16905090565b6004818154811061113657600080fd5b90600052602060002090600602016000915090508060000154908060010154908060020160009054906101000a900473ffffffffffffffffffffffffffffffffffffffff16908060030154908060040154908060050160009054906101000a900460ff16908060050160019054906101000a900460ff16905087565b600063bc197c8160e01b905095945050505050565b600081101561120b576040517f08c379a00000000000000000000000000000000000000000000000000000000081526004016112029061285d565b60405180910390fd5b60006003600083815260200190815260200160002090503373ffffffffffffffffffffffffffffffffffffffff168160020160009054906101000a900473ffffffffffffffffffffffffffffffffffffffff1673ffffffffffffffffffffffffffffffffffffffff16146112b4576040517f08c379a00000000000000000000000000000000000000000000000000000000081526004016112ab906128c9565b60405180910390fd5b600015158160050160009054906101000a900460ff1615151461130c576040517f08c379a00000000000000000000000000000000000000000000000000000000081526004016113039061295b565b60405180910390fd5b600015158160050160019054906101000a900460ff16151514611364576040517f08c379a000000000000000000000000000000000000000000000000000000000815260040161135b906129c7565b60405180910390fd5b6004805490508160040154106113af576040517f08c379a00000000000000000000000000000000000000000000000000000000081526004016113a6906126fc565b60405180910390fd5b600060048260040154815481106113c9576113c8612434565b5b90600052602060002090600602016040518060e001604052908160008201548152602001600182015481526020016002820160009054906101000a900473ffffffffffffffffffffffffffffffffffffffff1673ffffffffffffffffffffffffffffffffffffffff1673ffffffffffffffffffffffffffffffffffffffff16815260200160038201548152602001600482015481526020016005820160009054906101000a900460ff161515151581526020016005820160019054906101000a900460ff161515151581525050905080600001518260000154146114e2576040517f08c379a00000000000000000000000000000000000000000000000000000000081526004016114d99061278e565b60405180910390fd5b60018260050160006101000a81548160ff021916908315150217905550600160048054905061151191906127ae565b826004015410156116985760006004600160048054905061153291906127ae565b8154811061154357611542612434565b5b9060005260206000209060060201905082600401548160040181905550826004015460036000836000015481526020019081526020016000206004018190555080600484600401548154811061159c5761159b612434565b5b906000526020600020906006020160008201548160000155600182015481600101556002820160009054906101000a900473ffffffffffffffffffffffffffffffffffffffff168160020160006101000a81548173ffffffffffffffffffffffffffffffffffffffff021916908373ffffffffffffffffffffffffffffffffffffffff16021790555060038201548160030155600482015481600401556005820160009054906101000a900460ff168160050160006101000a81548160ff0219169083151502179055506005820160019054906101000a900460ff168160050160016101000a81548160ff021916908315150217905550905050505b60048054806116aa576116a96127e2565b5b600190038181906000526020600020906006020160008082016000905560018201600090556002820160006101000a81549073ffffffffffffffffffffffffffffffffffffffff0219169055600382016000905560048201600090556005820160006101000a81549060ff02191690556005820160016101000a81549060ff021916905550509055600160009054906101000a900473ffffffffffffffffffffffffffffffffffffffff1673ffffffffffffffffffffffffffffffffffffffff1663f242432a3033856001015460016040518563ffffffff1660e01b815260040161179894939291906123dc565b600060405180830381600087803b1580156117b257600080fd5b505af11580156117c6573d6000803e3d6000fd5b50505050505050565b60025481565b600063f23a6e6160e01b905095945050505050565b6117f26118ed565b600073ffffffffffffffffffffffffffffffffffffffff168173ffffffffffffffffffffffffffffffffffffffff1603611861576040517f08c379a000000000000000000000000000000000000000000000000000000000815260040161185890612a59565b60405180910390fd5b61186a8161196b565b50565b60007f01ffc9a7000000000000000000000000000000000000000000000000000000007bffffffffffffffffffffffffffffffffffffffffffffffffffffffff1916827bffffffffffffffffffffffffffffffffffffffffffffffffffffffff1916149050919050565b600081836118e59190612a79565b905092915050565b6118f5611a2f565b73ffffffffffffffffffffffffffffffffffffffff166119136110fd565b73ffffffffffffffffffffffffffffffffffffffff1614611969576040517f08c379a000000000000000000000000000000000000000000000000000000000815260040161196090612af9565b60405180910390fd5b565b60008060009054906101000a900473ffffffffffffffffffffffffffffffffffffffff169050816000806101000a81548173ffffffffffffffffffffffffffffffffffffffff021916908373ffffffffffffffffffffffffffffffffffffffff1602179055508173ffffffffffffffffffffffffffffffffffffffff168173ffffffffffffffffffffffffffffffffffffffff167f8be0079c531659141344cd1fd0a4f28419497f9722a3daafe3b4186f6b6457e060405160405180910390a35050565b600033905090565b6040518060e001604052806000815260200160008152602001600073ffffffffffffffffffffffffffffffffffffffff16815260200160008152602001600081526020016000151581526020016000151581525090565b6000604051905090565b600080fd5b600080fd5b60007fffffffff0000000000000000000000000000000000000000000000000000000082169050919050565b611ad781611aa2565b8114611ae257600080fd5b50565b600081359050611af481611ace565b92915050565b600060208284031215611b1057611b0f611a98565b5b6000611b1e84828501611ae5565b91505092915050565b60008115159050919050565b611b3c81611b27565b82525050565b6000602082019050611b576000830184611b33565b92915050565b6000819050919050565b611b7081611b5d565b8114611b7b57600080fd5b50565b600081359050611b8d81611b67565b92915050565b600060208284031215611ba957611ba8611a98565b5b6000611bb784828501611b7e565b91505092915050565b611bc981611b5d565b82525050565b600073ffffffffffffffffffffffffffffffffffffffff82169050919050565b6000611bfa82611bcf565b9050919050565b611c0a81611bef565b82525050565b600060e082019050611c25600083018a611bc0565b611c326020830189611bc0565b611c3f6040830188611c01565b611c4c6060830187611bc0565b611c596080830186611bc0565b611c6660a0830185611b33565b611c7360c0830184611b33565b98975050505050505050565b60008060408385031215611c9657611c95611a98565b5b6000611ca485828601611b7e565b9250506020611cb585828601611b7e565b9150509250929050565b600081519050919050565b600082825260208201905092915050565b6000819050602082019050919050565b611cf481611b5d565b82525050565b611d0381611bef565b82525050565b611d1281611b27565b82525050565b60e082016000820151611d2e6000850182611ceb565b506020820151611d416020850182611ceb565b506040820151611d546040850182611cfa565b506060820151611d676060850182611ceb565b506080820151611d7a6080850182611ceb565b5060a0820151611d8d60a0850182611d09565b5060c0820151611da060c0850182611d09565b50505050565b6000611db28383611d18565b60e08301905092915050565b6000602082019050919050565b6000611dd682611cbf565b611de08185611cca565b9350611deb83611cdb565b8060005b83811015611e1c578151611e038882611da6565b9750611e0e83611dbe565b925050600181019050611def565b5085935050505092915050565b60006020820190508181036000830152611e438184611dcb565b905092915050565b6000602082019050611e606000830184611c01565b92915050565b611e6f81611bef565b8114611e7a57600080fd5b50565b600081359050611e8c81611e66565b92915050565b600080fd5b6000601f19601f8301169050919050565b7f4e487b7100000000000000000000000000000000000000000000000000000000600052604160045260246000fd5b611ee082611e97565b810181811067ffffffffffffffff82111715611eff57611efe611ea8565b5b80604052505050565b6000611f12611a8e565b9050611f1e8282611ed7565b919050565b600067ffffffffffffffff821115611f3e57611f3d611ea8565b5b602082029050602081019050919050565b600080fd5b6000611f67611f6284611f23565b611f08565b90508083825260208201905060208402830185811115611f8a57611f89611f4f565b5b835b81811015611fb35780611f9f8882611b7e565b845260208401935050602081019050611f8c565b5050509392505050565b600082601f830112611fd257611fd1611e92565b5b8135611fe2848260208601611f54565b91505092915050565b600080fd5b600067ffffffffffffffff82111561200b5761200a611ea8565b5b61201482611e97565b9050602081019050919050565b82818337600083830152505050565b600061204361203e84611ff0565b611f08565b90508281526020810184848401111561205f5761205e611feb565b5b61206a848285612021565b509392505050565b600082601f83011261208757612086611e92565b5b8135612097848260208601612030565b91505092915050565b600080600080600060a086880312156120bc576120bb611a98565b5b60006120ca88828901611e7d565b95505060206120db88828901611e7d565b945050604086013567ffffffffffffffff8111156120fc576120fb611a9d565b5b61210888828901611fbd565b935050606086013567ffffffffffffffff81111561212957612128611a9d565b5b61213588828901611fbd565b925050608086013567ffffffffffffffff81111561215657612155611a9d565b5b61216288828901612072565b9150509295509295909350565b61217881611aa2565b82525050565b6000602082019050612193600083018461216f565b92915050565b60006020820190506121ae6000830184611bc0565b92915050565b600080600080600060a086880312156121d0576121cf611a98565b5b60006121de88828901611e7d565b95505060206121ef88828901611e7d565b945050604061220088828901611b7e565b935050606061221188828901611b7e565b925050608086013567ffffffffffffffff81111561223257612231611a9d565b5b61223e88828901612072565b9150509295509295909350565b60006020828403121561226157612260611a98565b5b600061226f84828501611e7d565b91505092915050565b600060408201905061228d6000830185611c01565b61229a6020830184611bc0565b9392505050565b6000815190506122b081611b67565b92915050565b6000602082840312156122cc576122cb611a98565b5b60006122da848285016122a1565b91505092915050565b600082825260208201905092915050565b7f596f7520646f6e2774206f776e2074686973204e465400000000000000000000600082015250565b600061232a6016836122e3565b9150612335826122f4565b602082019050919050565b600060208201905081810360008301526123598161231d565b9050919050565b6000819050919050565b6000819050919050565b600061238f61238a61238584612360565b61236a565b611b5d565b9050919050565b61239f81612374565b82525050565b600082825260208201905092915050565b50565b60006123c66000836123a5565b91506123d1826123b6565b600082019050919050565b600060a0820190506123f16000830187611c01565b6123fe6020830186611c01565b61240b6040830185611bc0565b6124186060830184612396565b8181036080830152612429816123b9565b905095945050505050565b7f4e487b7100000000000000000000000000000000000000000000000000000000600052603260045260246000fd5b7f4e487b7100000000000000000000000000000000000000000000000000000000600052601160045260246000fd5b600061249d82611b5d565b91507fffffffffffffffffffffffffffffffffffffffffffffffffffffffffffffffff82036124cf576124ce612463565b5b600182019050919050565b7f4976616c69642073616c65206964000000000000000000000000000000000000600082015250565b6000612510600e836122e3565b915061251b826124da565b602082019050919050565b6000602082019050818103600083015261253f81612503565b9050919050565b7f5468652073616c652069732063616e63656c6564000000000000000000000000600082015250565b600061257c6014836122e3565b915061258782612546565b602082019050919050565b600060208201905081810360008301526125ab8161256f565b9050919050565b7f5468652073616c652069732073656c6c65640000000000000000000000000000600082015250565b60006125e86012836122e3565b91506125f3826125b2565b602082019050919050565b60006020820190508181036000830152612617816125db565b9050919050565b7f496e73756666696369656e742066756e64730000000000000000000000000000600082015250565b60006126546012836122e3565b915061265f8261261e565b602082019050919050565b6000602082019050818103600083015261268381612647565b9050919050565b7f537472616e6765206572726f722c20636f6e7461637420776974682061646d6960008201527f6e6973747261746f727320283129000000000000000000000000000000000000602082015250565b60006126e6602e836122e3565b91506126f18261268a565b604082019050919050565b60006020820190508181036000830152612715816126d9565b9050919050565b7f537472616e6765206572726f722c20636f6e7461637420776974682061646d6960008201527f6e6973747261746f727320283229000000000000000000000000000000000000602082015250565b6000612778602e836122e3565b91506127838261271c565b604082019050919050565b600060208201905081810360008301526127a78161276b565b9050919050565b60006127b982611b5d565b91506127c483611b5d565b92508282039050818111156127dc576127db612463565b5b92915050565b7f4e487b7100000000000000000000000000000000000000000000000000000000600052603160045260246000fd5b7f496e76616c69642073616c652069640000000000000000000000000000000000600082015250565b6000612847600f836122e3565b915061285282612811565b602082019050919050565b600060208201905081810360008301526128768161283a565b9050919050565b7f596f7520617265206e6f74207468652073656c6c657200000000000000000000600082015250565b60006128b36016836122e3565b91506128be8261287d565b602082019050919050565b600060208201905081810360008301526128e2816128a6565b9050919050565b7f5468652073616c652068617320616c7265616479206265656e2063616e63656c60008201527f6564000000000000000000000000000000000000000000000000000000000000602082015250565b60006129456022836122e3565b9150612950826128e9565b604082019050919050565b6000602082019050818103600083015261297481612938565b9050919050565b7f5468652073616c6520686173206265656e20736f6c6400000000000000000000600082015250565b60006129b16016836122e3565b91506129bc8261297b565b602082019050919050565b600060208201905081810360008301526129e0816129a4565b9050919050565b7f4f776e61626c653a206e6577206f776e657220697320746865207a65726f206160008201527f6464726573730000000000000000000000000000000000000000000000000000602082015250565b6000612a436026836122e3565b9150612a4e826129e7565b604082019050919050565b60006020820190508181036000830152612a7281612a36565b9050919050565b6000612a8482611b5d565b9150612a8f83611b5d565b9250828201905080821115612aa757612aa6612463565b5b92915050565b7f4f776e61626c653a2063616c6c6572206973206e6f7420746865206f776e6572600082015250565b6000612ae36020836122e3565b9150612aee82612aad565b602082019050919050565b60006020820190508181036000830152612b1281612ad6565b905091905056fea264697066735822122006b8b0a0bfbcdbb1c16e5ca9bfd656dca49a9459906b0522ac4b25a6b33c451564736f6c63430008130033",
  "immutableReferences": {},
  "source": "// SPDX-License-Identifier: MIT\r\npragma solidity >=0.8.0 <0.9.0;\r\n\r\nimport \"@openzeppelin/contracts/token/ERC1155/ERC1155.sol\";\r\nimport \"@openzeppelin/contracts/token/ERC1155/extensions/ERC1155URIStorage.sol\";\r\nimport \"@openzeppelin/contracts/token/ERC1155/utils/ERC1155Holder.sol\";\r\nimport \"@openzeppelin/contracts/access/Ownable.sol\";\r\nimport \"@openzeppelin/contracts/utils/structs/EnumerableSet.sol\";\r\nimport \"@openzeppelin/contracts/utils/math/SafeMath.sol\";\r\nimport \"./NFTGames.sol\";\r\n\r\ncontract NFTGamesMarketplace is Ownable, ERC1155Holder  {\r\n    using SafeMath for uint256;\r\n    using EnumerableSet for EnumerableSet.UintSet;\r\n\r\n    NFTGames private nftContract; // Referencia al contrato original\r\n\r\n    constructor(address _nftContract) {\r\n        nftContract = NFTGames(_nftContract);\r\n    }\r\n\r\n    // Contador autoincremental, cada nmero ser una venta\r\n    uint256 public nextSaleId = 0;\r\n\r\n    // Estructura para poner a la venta un juego\r\n    struct Sale {\r\n        uint256 saleId;\r\n        uint256 tokenId;\r\n        address seller;\r\n        uint256 price;\r\n        uint256 arrayPosition;\r\n        bool canceled;\r\n        bool selled;\r\n    }\r\n\r\n    mapping(uint256 => Sale) public salesInfo;\r\n    Sale[] public sales;\r\n\r\n    // Crear una venta de juego\r\n    function createSale(uint256 tokenId, uint256 price) payable external {\r\n        require(nftContract.balanceOf(msg.sender, tokenId) > 0, \"You don't own this NFT\");\r\n\r\n        nftContract.safeTransferFrom(msg.sender, address(this), tokenId, 1, \"\");\r\n\r\n        uint256 saleId = nextSaleId;\r\n        nextSaleId = nextSaleId.add(1);\r\n\r\n        Sale memory sale = Sale({saleId: saleId, tokenId: tokenId, seller: msg.sender, price: price, arrayPosition: sales.length, canceled: false, selled: false});\r\n        sales.push(sale);\r\n        salesInfo[saleId] = sale;\r\n    }\r\n\r\n    function cancelSale(uint256 saleId) payable external {\r\n        require(saleId >= 0, \"Invalid sale id\");\r\n\r\n        Sale storage saleMapping = salesInfo[saleId];\r\n        require(saleMapping.seller == msg.sender, \"You are not the seller\");\r\n        require(saleMapping.canceled == false, \"The sale has already been canceled\");\r\n        require(saleMapping.selled == false, \"The sale has been sold\");\r\n        require(saleMapping.arrayPosition < sales.length, \"Strange error, contact with administrators (1)\");\r\n\r\n        Sale memory saleArray = sales[saleMapping.arrayPosition];\r\n        require(saleMapping.saleId == saleArray.saleId, \"Strange error, contact with administrators (2)\");\r\n\r\n        saleMapping.canceled = true;\r\n        // Reorganizar el array moviendo el ltimo elemento al lugar del elemento eliminado\r\n        if (saleMapping.arrayPosition < sales.length - 1) {\r\n            Sale storage lastSale = sales[sales.length - 1];\r\n\r\n            // Actualizamos posiciones\r\n            lastSale.arrayPosition = saleMapping.arrayPosition;\r\n            salesInfo[lastSale.saleId].arrayPosition = saleMapping.arrayPosition;\r\n\r\n            // Guardamos elemento en la nueva posicin del array\r\n            sales[saleMapping.arrayPosition] = lastSale;\r\n        }\r\n        sales.pop();\r\n\r\n        nftContract.safeTransferFrom(address(this), msg.sender, saleMapping.tokenId, 1, \"\");\r\n    }\r\n\r\n    function purchaseFromMarketplace(uint256 saleId) external payable {\r\n        require(saleId >= 0, \"Ivalid sale id\");\r\n\r\n        Sale storage saleMapping = salesInfo[saleId];\r\n        require(saleMapping.canceled == false, \"The sale is canceled\");\r\n        require(saleMapping.selled == false, \"The sale is selled\");\r\n        require(msg.value >= saleMapping.price, \"Insufficient funds\");\r\n        require(saleMapping.arrayPosition < sales.length, \"Strange error, contact with administrators (1)\");\r\n\r\n        Sale memory saleArray = sales[saleMapping.arrayPosition];\r\n        require(saleMapping.saleId == saleArray.saleId, \"Strange error, contact with administrators (2)\");\r\n\r\n        // Reorganizar el array moviendo el ltimo elemento al lugar del elemento eliminado\r\n        saleMapping.selled = true;\r\n        if (saleMapping.arrayPosition < sales.length - 1) {\r\n            Sale storage lastSale = sales[sales.length - 1];\r\n\r\n            // Actualizamos posiciones\r\n            lastSale.arrayPosition = saleMapping.arrayPosition;\r\n            salesInfo[lastSale.saleId].arrayPosition = saleMapping.arrayPosition;\r\n\r\n            // Guardamos elemento en la nueva posicin del array\r\n            sales[saleMapping.arrayPosition] = lastSale;\r\n        }\r\n        sales.pop();\r\n\r\n        nftContract.safeTransferFrom(address(this), msg.sender, saleMapping.tokenId, 1, \"\");\r\n        payable(saleMapping.seller).transfer(saleMapping.price);\r\n        if (msg.value > saleMapping.price) {\r\n            payable(msg.sender).transfer(msg.value - saleMapping.price);\r\n        }\r\n    }\r\n\r\n    // Funcin para obtener los juegos en venta\r\n    function getGamesForSale() external view returns (Sale[] memory) {\r\n        uint256 activeSalesCount = 0;\r\n\r\n        // Contar la cantidad de ventas activas\r\n        for (uint256 i = 0; i < sales.length; i++) {\r\n            if (!sales[i].canceled && !sales[i].selled) {\r\n                activeSalesCount++;\r\n            }\r\n        }\r\n\r\n        // Crear un array para almacenar las ventas activas\r\n        Sale[] memory activeSales = new Sale[](activeSalesCount);\r\n\r\n        // Llenar el array con las ventas activas\r\n        uint256 activeIndex = 0;\r\n        for (uint256 i = 0; i < sales.length; i++) {\r\n            if (!sales[i].canceled && !sales[i].selled) {\r\n                activeSales[activeIndex] = sales[i];\r\n                activeIndex++;\r\n            }\r\n        }\r\n\r\n        return activeSales;\r\n    }\r\n}\r\n",
  "sourcePath": "C:\\Users\\User\\Desktop\\PC\\2_Master\\BSM_Engineering\\TFM\\DAPP\\dapp\\contracts\\NFTGamesMarketplace.sol",
  "compiler": {
    "name": "solc",
    "version": "0.8.19+commit.7dd6d404.Emscripten.clang"
  },
  "schemaVersion": "3.4.14",
  "updatedAt": "2023-08-22T17:39:34.992Z",
  "devdoc": {
    "kind": "dev",
    "methods": {
      "owner()": {
        "details": "Returns the address of the current owner."
      },
      "renounceOwnership()": {
        "details": "Leaves the contract without owner. It will not be possible to call `onlyOwner` functions. Can only be called by the current owner. NOTE: Renouncing ownership will leave the contract without an owner, thereby disabling any functionality that is only available to the owner."
      },
      "supportsInterface(bytes4)": {
        "details": "See {IERC165-supportsInterface}."
      },
      "transferOwnership(address)": {
        "details": "Transfers ownership of the contract to a new account (`newOwner`). Can only be called by the current owner."
      }
    },
    "version": 1
  },
  "userdoc": {
    "kind": "user",
    "methods": {},
    "version": 1
  }
}