{
  "contractName": "NFTGames",
  "abi": [
    {
      "inputs": [
        {
          "internalType": "string",
          "name": "_uri",
          "type": "string"
        }
      ],
      "stateMutability": "nonpayable",
      "type": "constructor"
    },
    {
      "anonymous": false,
      "inputs": [
        {
          "indexed": true,
          "internalType": "address",
          "name": "account",
          "type": "address"
        },
        {
          "indexed": true,
          "internalType": "address",
          "name": "operator",
          "type": "address"
        },
        {
          "indexed": false,
          "internalType": "bool",
          "name": "approved",
          "type": "bool"
        }
      ],
      "name": "ApprovalForAll",
      "type": "event"
    },
    {
      "anonymous": false,
      "inputs": [
        {
          "indexed": true,
          "internalType": "address",
          "name": "previousOwner",
          "type": "address"
        },
        {
          "indexed": true,
          "internalType": "address",
          "name": "newOwner",
          "type": "address"
        }
      ],
      "name": "OwnershipTransferred",
      "type": "event"
    },
    {
      "anonymous": false,
      "inputs": [
        {
          "indexed": true,
          "internalType": "address",
          "name": "operator",
          "type": "address"
        },
        {
          "indexed": true,
          "internalType": "address",
          "name": "from",
          "type": "address"
        },
        {
          "indexed": true,
          "internalType": "address",
          "name": "to",
          "type": "address"
        },
        {
          "indexed": false,
          "internalType": "uint256[]",
          "name": "ids",
          "type": "uint256[]"
        },
        {
          "indexed": false,
          "internalType": "uint256[]",
          "name": "values",
          "type": "uint256[]"
        }
      ],
      "name": "TransferBatch",
      "type": "event"
    },
    {
      "anonymous": false,
      "inputs": [
        {
          "indexed": true,
          "internalType": "address",
          "name": "operator",
          "type": "address"
        },
        {
          "indexed": true,
          "internalType": "address",
          "name": "from",
          "type": "address"
        },
        {
          "indexed": true,
          "internalType": "address",
          "name": "to",
          "type": "address"
        },
        {
          "indexed": false,
          "internalType": "uint256",
          "name": "id",
          "type": "uint256"
        },
        {
          "indexed": false,
          "internalType": "uint256",
          "name": "value",
          "type": "uint256"
        }
      ],
      "name": "TransferSingle",
      "type": "event"
    },
    {
      "anonymous": false,
      "inputs": [
        {
          "indexed": false,
          "internalType": "string",
          "name": "value",
          "type": "string"
        },
        {
          "indexed": true,
          "internalType": "uint256",
          "name": "id",
          "type": "uint256"
        }
      ],
      "name": "URI",
      "type": "event"
    },
    {
      "inputs": [
        {
          "internalType": "address",
          "name": "account",
          "type": "address"
        },
        {
          "internalType": "uint256",
          "name": "id",
          "type": "uint256"
        }
      ],
      "name": "balanceOf",
      "outputs": [
        {
          "internalType": "uint256",
          "name": "",
          "type": "uint256"
        }
      ],
      "stateMutability": "view",
      "type": "function"
    },
    {
      "inputs": [
        {
          "internalType": "address[]",
          "name": "accounts",
          "type": "address[]"
        },
        {
          "internalType": "uint256[]",
          "name": "ids",
          "type": "uint256[]"
        }
      ],
      "name": "balanceOfBatch",
      "outputs": [
        {
          "internalType": "uint256[]",
          "name": "",
          "type": "uint256[]"
        }
      ],
      "stateMutability": "view",
      "type": "function"
    },
    {
      "inputs": [
        {
          "internalType": "uint256",
          "name": "",
          "type": "uint256"
        }
      ],
      "name": "gamesInfo",
      "outputs": [
        {
          "internalType": "string",
          "name": "name",
          "type": "string"
        },
        {
          "internalType": "string",
          "name": "description",
          "type": "string"
        },
        {
          "internalType": "string",
          "name": "category",
          "type": "string"
        },
        {
          "internalType": "string",
          "name": "imageUrl",
          "type": "string"
        },
        {
          "internalType": "uint256",
          "name": "tokenId",
          "type": "uint256"
        },
        {
          "internalType": "uint256",
          "name": "price",
          "type": "uint256"
        },
        {
          "internalType": "uint256",
          "name": "gameRelease",
          "type": "uint256"
        },
        {
          "internalType": "uint256",
          "name": "tokenPlayRoyaltyPercentage",
          "type": "uint256"
        },
        {
          "internalType": "address",
          "name": "gameOwnerAddress",
          "type": "address"
        }
      ],
      "stateMutability": "view",
      "type": "function"
    },
    {
      "inputs": [
        {
          "internalType": "address",
          "name": "account",
          "type": "address"
        },
        {
          "internalType": "address",
          "name": "operator",
          "type": "address"
        }
      ],
      "name": "isApprovedForAll",
      "outputs": [
        {
          "internalType": "bool",
          "name": "",
          "type": "bool"
        }
      ],
      "stateMutability": "view",
      "type": "function"
    },
    {
      "inputs": [],
      "name": "mintIsActive",
      "outputs": [
        {
          "internalType": "bool",
          "name": "",
          "type": "bool"
        }
      ],
      "stateMutability": "view",
      "type": "function"
    },
    {
      "inputs": [],
      "name": "nextTokenId",
      "outputs": [
        {
          "internalType": "uint256",
          "name": "",
          "type": "uint256"
        }
      ],
      "stateMutability": "view",
      "type": "function"
    },
    {
      "inputs": [],
      "name": "owner",
      "outputs": [
        {
          "internalType": "address",
          "name": "",
          "type": "address"
        }
      ],
      "stateMutability": "view",
      "type": "function"
    },
    {
      "inputs": [],
      "name": "renounceOwnership",
      "outputs": [],
      "stateMutability": "nonpayable",
      "type": "function"
    },
    {
      "inputs": [
        {
          "internalType": "address",
          "name": "from",
          "type": "address"
        },
        {
          "internalType": "address",
          "name": "to",
          "type": "address"
        },
        {
          "internalType": "uint256[]",
          "name": "ids",
          "type": "uint256[]"
        },
        {
          "internalType": "uint256[]",
          "name": "amounts",
          "type": "uint256[]"
        },
        {
          "internalType": "bytes",
          "name": "data",
          "type": "bytes"
        }
      ],
      "name": "safeBatchTransferFrom",
      "outputs": [],
      "stateMutability": "nonpayable",
      "type": "function"
    },
    {
      "inputs": [
        {
          "internalType": "address",
          "name": "from",
          "type": "address"
        },
        {
          "internalType": "address",
          "name": "to",
          "type": "address"
        },
        {
          "internalType": "uint256",
          "name": "id",
          "type": "uint256"
        },
        {
          "internalType": "uint256",
          "name": "amount",
          "type": "uint256"
        },
        {
          "internalType": "bytes",
          "name": "data",
          "type": "bytes"
        }
      ],
      "name": "safeTransferFrom",
      "outputs": [],
      "stateMutability": "nonpayable",
      "type": "function"
    },
    {
      "inputs": [
        {
          "internalType": "address",
          "name": "operator",
          "type": "address"
        },
        {
          "internalType": "bool",
          "name": "approved",
          "type": "bool"
        }
      ],
      "name": "setApprovalForAll",
      "outputs": [],
      "stateMutability": "nonpayable",
      "type": "function"
    },
    {
      "inputs": [
        {
          "internalType": "bytes4",
          "name": "interfaceId",
          "type": "bytes4"
        }
      ],
      "name": "supportsInterface",
      "outputs": [
        {
          "internalType": "bool",
          "name": "",
          "type": "bool"
        }
      ],
      "stateMutability": "view",
      "type": "function"
    },
    {
      "inputs": [
        {
          "internalType": "address",
          "name": "newOwner",
          "type": "address"
        }
      ],
      "name": "transferOwnership",
      "outputs": [],
      "stateMutability": "nonpayable",
      "type": "function"
    },
    {
      "inputs": [
        {
          "internalType": "string",
          "name": "name",
          "type": "string"
        },
        {
          "internalType": "string",
          "name": "description",
          "type": "string"
        },
        {
          "internalType": "string",
          "name": "category",
          "type": "string"
        },
        {
          "internalType": "string",
          "name": "imageUrl",
          "type": "string"
        },
        {
          "internalType": "uint256",
          "name": "price",
          "type": "uint256"
        },
        {
          "internalType": "uint256",
          "name": "gameRelease",
          "type": "uint256"
        },
        {
          "internalType": "uint256",
          "name": "tokenPlayRoyaltyPercentage",
          "type": "uint256"
        },
        {
          "internalType": "address",
          "name": "gameOwnerAddress",
          "type": "address"
        }
      ],
      "name": "addNFT",
      "outputs": [],
      "stateMutability": "nonpayable",
      "type": "function"
    },
    {
      "inputs": [
        {
          "internalType": "uint256",
          "name": "tokenId",
          "type": "uint256"
        }
      ],
      "name": "purchaseNFT",
      "outputs": [],
      "stateMutability": "payable",
      "type": "function"
    },
    {
      "inputs": [
        {
          "internalType": "address",
          "name": "account",
          "type": "address"
        }
      ],
      "name": "getPurchasedNFTs",
      "outputs": [
        {
          "components": [
            {
              "components": [
                {
                  "internalType": "string",
                  "name": "name",
                  "type": "string"
                },
                {
                  "internalType": "string",
                  "name": "description",
                  "type": "string"
                },
                {
                  "internalType": "string",
                  "name": "category",
                  "type": "string"
                },
                {
                  "internalType": "string",
                  "name": "imageUrl",
                  "type": "string"
                },
                {
                  "internalType": "uint256",
                  "name": "tokenId",
                  "type": "uint256"
                },
                {
                  "internalType": "uint256",
                  "name": "price",
                  "type": "uint256"
                },
                {
                  "internalType": "uint256",
                  "name": "gameRelease",
                  "type": "uint256"
                },
                {
                  "internalType": "uint256",
                  "name": "tokenPlayRoyaltyPercentage",
                  "type": "uint256"
                },
                {
                  "internalType": "address",
                  "name": "gameOwnerAddress",
                  "type": "address"
                }
              ],
              "internalType": "struct NFTGames.NftGameInfo",
              "name": "game",
              "type": "tuple"
            },
            {
              "internalType": "uint256",
              "name": "qty",
              "type": "uint256"
            }
          ],
          "internalType": "struct NFTGames.PurchasedNft[]",
          "name": "",
          "type": "tuple[]"
        }
      ],
      "stateMutability": "view",
      "type": "function"
    },
    {
      "inputs": [],
      "name": "getNFTs",
      "outputs": [
        {
          "components": [
            {
              "internalType": "string",
              "name": "name",
              "type": "string"
            },
            {
              "internalType": "string",
              "name": "description",
              "type": "string"
            },
            {
              "internalType": "string",
              "name": "category",
              "type": "string"
            },
            {
              "internalType": "string",
              "name": "imageUrl",
              "type": "string"
            },
            {
              "internalType": "uint256",
              "name": "tokenId",
              "type": "uint256"
            },
            {
              "internalType": "uint256",
              "name": "price",
              "type": "uint256"
            },
            {
              "internalType": "uint256",
              "name": "gameRelease",
              "type": "uint256"
            },
            {
              "internalType": "uint256",
              "name": "tokenPlayRoyaltyPercentage",
              "type": "uint256"
            },
            {
              "internalType": "address",
              "name": "gameOwnerAddress",
              "type": "address"
            }
          ],
          "internalType": "struct NFTGames.NftGameInfo[]",
          "name": "",
          "type": "tuple[]"
        }
      ],
      "stateMutability": "view",
      "type": "function"
    },
    {
      "inputs": [
        {
          "internalType": "string",
          "name": "category",
          "type": "string"
        }
      ],
      "name": "getCategoryNFTs",
      "outputs": [
        {
          "components": [
            {
              "internalType": "string",
              "name": "name",
              "type": "string"
            },
            {
              "internalType": "string",
              "name": "description",
              "type": "string"
            },
            {
              "internalType": "string",
              "name": "category",
              "type": "string"
            },
            {
              "internalType": "string",
              "name": "imageUrl",
              "type": "string"
            },
            {
              "internalType": "uint256",
              "name": "tokenId",
              "type": "uint256"
            },
            {
              "internalType": "uint256",
              "name": "price",
              "type": "uint256"
            },
            {
              "internalType": "uint256",
              "name": "gameRelease",
              "type": "uint256"
            },
            {
              "internalType": "uint256",
              "name": "tokenPlayRoyaltyPercentage",
              "type": "uint256"
            },
            {
              "internalType": "address",
              "name": "gameOwnerAddress",
              "type": "address"
            }
          ],
          "internalType": "struct NFTGames.NftGameInfo[]",
          "name": "",
          "type": "tuple[]"
        }
      ],
      "stateMutability": "view",
      "type": "function"
    },
    {
      "inputs": [],
      "name": "withdrawBalance",
      "outputs": [],
      "stateMutability": "nonpayable",
      "type": "function"
    },
    {
      "inputs": [
        {
          "internalType": "uint256",
          "name": "tokenId",
          "type": "uint256"
        },
        {
          "internalType": "uint256",
          "name": "royaltyPercentage",
          "type": "uint256"
        }
      ],
      "name": "setRoyaltyPercentage",
      "outputs": [],
      "stateMutability": "nonpayable",
      "type": "function"
    },
    {
      "inputs": [],
      "name": "flipMintState",
      "outputs": [],
      "stateMutability": "nonpayable",
      "type": "function"
    },
    {
      "inputs": [
        {
          "internalType": "uint256",
          "name": "tokenId",
          "type": "uint256"
        }
      ],
      "name": "uri",
      "outputs": [
        {
          "internalType": "string",
          "name": "",
          "type": "string"
        }
      ],
      "stateMutability": "view",
      "type": "function"
    },
    {
      "inputs": [
        {
          "internalType": "address",
          "name": "marketplace",
          "type": "address"
        }
      ],
      "name": "approveMarketplace",
      "outputs": [],
      "stateMutability": "nonpayable",
      "type": "function"
    }
  ],
  "bytecode": "0x608060405260405180602001604052806000815250600390816200002491906200040f565b506000600560146101000a81548160ff02191690831515021790555060006006553480156200005257600080fd5b5060405162005c4138038062005c4183398181016040528101906200007891906200065a565b806200008a81620000b260201b60201c565b50620000ab6200009f620000c760201b60201c565b620000cf60201b60201c565b50620006ab565b8060029081620000c391906200040f565b5050565b600033905090565b6000600560009054906101000a900473ffffffffffffffffffffffffffffffffffffffff16905081600560006101000a81548173ffffffffffffffffffffffffffffffffffffffff021916908373ffffffffffffffffffffffffffffffffffffffff1602179055508173ffffffffffffffffffffffffffffffffffffffff168173ffffffffffffffffffffffffffffffffffffffff167f8be0079c531659141344cd1fd0a4f28419497f9722a3daafe3b4186f6b6457e060405160405180910390a35050565b600081519050919050565b7f4e487b7100000000000000000000000000000000000000000000000000000000600052604160045260246000fd5b7f4e487b7100000000000000000000000000000000000000000000000000000000600052602260045260246000fd5b600060028204905060018216806200021757607f821691505b6020821081036200022d576200022c620001cf565b5b50919050565b60008190508160005260206000209050919050565b60006020601f8301049050919050565b600082821b905092915050565b600060088302620002977fffffffffffffffffffffffffffffffffffffffffffffffffffffffffffffffff8262000258565b620002a3868362000258565b95508019841693508086168417925050509392505050565b6000819050919050565b6000819050919050565b6000620002f0620002ea620002e484620002bb565b620002c5565b620002bb565b9050919050565b6000819050919050565b6200030c83620002cf565b620003246200031b82620002f7565b84845462000265565b825550505050565b600090565b6200033b6200032c565b6200034881848462000301565b505050565b5b8181101562000370576200036460008262000331565b6001810190506200034e565b5050565b601f821115620003bf57620003898162000233565b620003948462000248565b81016020851015620003a4578190505b620003bc620003b38562000248565b8301826200034d565b50505b505050565b600082821c905092915050565b6000620003e460001984600802620003c4565b1980831691505092915050565b6000620003ff8383620003d1565b9150826002028217905092915050565b6200041a8262000195565b67ffffffffffffffff811115620004365762000435620001a0565b5b620004428254620001fe565b6200044f82828562000374565b600060209050601f83116001811462000487576000841562000472578287015190505b6200047e8582620003f1565b865550620004ee565b601f198416620004978662000233565b60005b82811015620004c1578489015182556001820191506020850194506020810190506200049a565b86831015620004e15784890151620004dd601f891682620003d1565b8355505b6001600288020188555050505b505050505050565b6000604051905090565b600080fd5b600080fd5b600080fd5b600080fd5b6000601f19601f8301169050919050565b620005308262000514565b810181811067ffffffffffffffff82111715620005525762000551620001a0565b5b80604052505050565b600062000567620004f6565b905062000575828262000525565b919050565b600067ffffffffffffffff821115620005985762000597620001a0565b5b620005a38262000514565b9050602081019050919050565b60005b83811015620005d0578082015181840152602081019050620005b3565b60008484015250505050565b6000620005f3620005ed846200057a565b6200055b565b9050828152602081018484840111156200061257620006116200050f565b5b6200061f848285620005b0565b509392505050565b600082601f8301126200063f576200063e6200050a565b5b815162000651848260208601620005dc565b91505092915050565b60006020828403121562000673576200067262000500565b5b600082015167ffffffffffffffff81111562000694576200069362000505565b5b620006a28482850162000627565b91505092915050565b61558680620006bb6000396000f3fe60806040526004361061013f5760003560e01c80634f83489b116100b6578063a22cb4651161006f578063a22cb4651461042e578063c983f7d214610457578063e206dc2e14610494578063e985e9c5146104d1578063f242432a1461050e578063f2fde38b146105375761013f565b80634f83489b1461036a57806359c74f29146103935780635fd8c710146103aa578063715018a6146103c157806375794a3c146103d85780638da5cb5b146104035761013f565b80632c84a55c116101085780632c84a55c146102425780632eb2c2d61461026b578063406942561461029457806341d6f9c2146102d9578063471a4294146103025780634e1273f41461032d5761013f565b8062fdd58e1461014457806301ffc9a7146101815780630e89341c146101be578063150bde03146101fb578063227212f214610217575b600080fd5b34801561015057600080fd5b5061016b600480360381019061016691906134b5565b610560565b6040516101789190613504565b60405180910390f35b34801561018d57600080fd5b506101a860048036038101906101a39190613577565b610628565b6040516101b591906135bf565b60405180910390f35b3480156101ca57600080fd5b506101e560048036038101906101e091906135da565b61070a565b6040516101f29190613697565b60405180910390f35b610215600480360381019061021091906135da565b610802565b005b34801561022357600080fd5b5061022c610ba6565b60405161023991906138bd565b60405180910390f35b34801561024e57600080fd5b5061026960048036038101906102649190613a14565b610f51565b005b34801561027757600080fd5b50610292600480360381019061028d9190613ca3565b6110bb565b005b3480156102a057600080fd5b506102bb60048036038101906102b691906135da565b61115c565b6040516102d099989796959493929190613d81565b60405180910390f35b3480156102e557600080fd5b5061030060048036038101906102fb9190613e2a565b6113ea565b005b34801561030e57600080fd5b50610317611462565b60405161032491906135bf565b60405180910390f35b34801561033957600080fd5b50610354600480360381019061034f9190613f2d565b611475565b6040516103619190614054565b60405180910390f35b34801561037657600080fd5b50610391600480360381019061038c9190614076565b61158e565b005b34801561039f57600080fd5b506103a861160b565b005b3480156103b657600080fd5b506103bf61163f565b005b3480156103cd57600080fd5b506103d6611697565b005b3480156103e457600080fd5b506103ed6116ab565b6040516103fa9190613504565b60405180910390f35b34801561040f57600080fd5b506104186116b1565b60405161042591906140a3565b60405180910390f35b34801561043a57600080fd5b50610455600480360381019061045091906140ea565b6116db565b005b34801561046357600080fd5b5061047e6004803603810190610479919061412a565b6116f1565b60405161048b91906138bd565b60405180910390f35b3480156104a057600080fd5b506104bb60048036038101906104b69190614076565b611bca565b6040516104c89190614272565b60405180910390f35b3480156104dd57600080fd5b506104f860048036038101906104f39190614294565b612160565b60405161050591906135bf565b60405180910390f35b34801561051a57600080fd5b50610535600480360381019061053091906142d4565b6121f4565b005b34801561054357600080fd5b5061055e60048036038101906105599190614076565b612295565b005b60008073ffffffffffffffffffffffffffffffffffffffff168373ffffffffffffffffffffffffffffffffffffffff16036105d0576040517f08c379a00000000000000000000000000000000000000000000000000000000081526004016105c7906143dd565b60405180910390fd5b60008083815260200190815260200160002060008473ffffffffffffffffffffffffffffffffffffffff1673ffffffffffffffffffffffffffffffffffffffff16815260200190815260200160002054905092915050565b60007fd9b67a26000000000000000000000000000000000000000000000000000000007bffffffffffffffffffffffffffffffffffffffffffffffffffffffff1916827bffffffffffffffffffffffffffffffffffffffffffffffffffffffff191614806106f357507f0e89341c000000000000000000000000000000000000000000000000000000007bffffffffffffffffffffffffffffffffffffffffffffffffffffffff1916827bffffffffffffffffffffffffffffffffffffffffffffffffffffffff1916145b80610703575061070282612318565b5b9050919050565b606060008211801561071d575060065482105b61075c576040517f08c379a000000000000000000000000000000000000000000000000000000000815260040161075390614449565b60405180910390fd5b60076000838152602001908152602001600020600301805461077d90614498565b80601f01602080910402602001604051908101604052809291908181526020018280546107a990614498565b80156107f65780601f106107cb576101008083540402835291602001916107f6565b820191906000526020600020905b8154815290600101906020018083116107d957829003601f168201915b50505050509050919050565b600560149054906101000a900460ff16610851576040517f08c379a000000000000000000000000000000000000000000000000000000000815260040161084890614515565b60405180910390fd5b60008110158015610863575060065481105b6108a2576040517f08c379a000000000000000000000000000000000000000000000000000000000815260040161089990614449565b60405180910390fd5b60006007600083815260200190815260200160002060050154905080341015610900576040517f08c379a00000000000000000000000000000000000000000000000000000000081526004016108f790614581565b60405180910390fd5b4260076000848152602001908152602001600020600601541115610959576040517f08c379a0000000000000000000000000000000000000000000000000000000008152600401610950906145ed565b60405180910390fd5b6109753383600160405180602001604052806000815250612382565b6109c682600860003373ffffffffffffffffffffffffffffffffffffffff1673ffffffffffffffffffffffffffffffffffffffff16815260200190815260200160002061253290919063ffffffff16565b610a1d57610a1b82600860003373ffffffffffffffffffffffffffffffffffffffff1673ffffffffffffffffffffffffffffffffffffffff16815260200190815260200160002061254c90919063ffffffff16565b505b60008190506000610a606064610a5260076000888152602001908152602001600020600701548561256690919063ffffffff16565b61257c90919063ffffffff16565b90506000610a77828461259290919063ffffffff16565b9050610a816116b1565b73ffffffffffffffffffffffffffffffffffffffff166108fc839081150290604051600060405180830381858888f19350505050158015610ac6573d6000803e3d6000fd5b506007600086815260200190815260200160002060080160009054906101000a900473ffffffffffffffffffffffffffffffffffffffff1673ffffffffffffffffffffffffffffffffffffffff166108fc829081150290604051600060405180830381858888f19350505050158015610b43573d6000803e3d6000fd5b5083341115610b9f573373ffffffffffffffffffffffffffffffffffffffff166108fc8534610b72919061463c565b9081150290604051600060405180830381858888f19350505050158015610b9d573d6000803e3d6000fd5b505b5050505050565b6060600060065467ffffffffffffffff811115610bc657610bc56138e9565b5b604051908082528060200260200182016040528015610bff57816020015b610bec61338b565b815260200190600190039081610be45790505b50905060005b600654811015610f495742600760008381526020019081526020016000206006015411610f365760006007600083815260200190815260200160002090508060405180610120016040529081600082018054610c6090614498565b80601f0160208091040260200160405190810160405280929190818152602001828054610c8c90614498565b8015610cd95780601f10610cae57610100808354040283529160200191610cd9565b820191906000526020600020905b815481529060010190602001808311610cbc57829003601f168201915b50505050508152602001600182018054610cf290614498565b80601f0160208091040260200160405190810160405280929190818152602001828054610d1e90614498565b8015610d6b5780601f10610d4057610100808354040283529160200191610d6b565b820191906000526020600020905b815481529060010190602001808311610d4e57829003601f168201915b50505050508152602001600282018054610d8490614498565b80601f0160208091040260200160405190810160405280929190818152602001828054610db090614498565b8015610dfd5780601f10610dd257610100808354040283529160200191610dfd565b820191906000526020600020905b815481529060010190602001808311610de057829003601f168201915b50505050508152602001600382018054610e1690614498565b80601f0160208091040260200160405190810160405280929190818152602001828054610e4290614498565b8015610e8f5780601f10610e6457610100808354040283529160200191610e8f565b820191906000526020600020905b815481529060010190602001808311610e7257829003601f168201915b50505050508152602001600482015481526020016005820154815260200160068201548152602001600782015481526020016008820160009054906101000a900473ffffffffffffffffffffffffffffffffffffffff1673ffffffffffffffffffffffffffffffffffffffff1673ffffffffffffffffffffffffffffffffffffffff1681525050838381518110610f2957610f28614670565b5b6020026020010181905250505b8080610f419061469f565b915050610c05565b508091505090565b610f596125a8565b60006006549050610f76600160065461262690919063ffffffff16565b6006819055506040518061012001604052808a81526020018981526020018881526020018781526020018281526020018681526020018581526020018481526020018373ffffffffffffffffffffffffffffffffffffffff16815250600760008381526020019081526020016000206000820151816000019081610ffa9190614893565b5060208201518160010190816110109190614893565b5060408201518160020190816110269190614893565b50606082015181600301908161103c9190614893565b506080820151816004015560a0820151816005015560c0820151816006015560e082015181600701556101008201518160080160006101000a81548173ffffffffffffffffffffffffffffffffffffffff021916908373ffffffffffffffffffffffffffffffffffffffff160217905550905050505050505050505050565b6110c361263c565b73ffffffffffffffffffffffffffffffffffffffff168573ffffffffffffffffffffffffffffffffffffffff16148061110957506111088561110361263c565b612160565b5b611148576040517f08c379a000000000000000000000000000000000000000000000000000000000815260040161113f906149d7565b60405180910390fd5b6111558585858585612644565b5050505050565b600760205280600052604060002060009150905080600001805461117f90614498565b80601f01602080910402602001604051908101604052809291908181526020018280546111ab90614498565b80156111f85780601f106111cd576101008083540402835291602001916111f8565b820191906000526020600020905b8154815290600101906020018083116111db57829003601f168201915b50505050509080600101805461120d90614498565b80601f016020809104026020016040519081016040528092919081815260200182805461123990614498565b80156112865780601f1061125b57610100808354040283529160200191611286565b820191906000526020600020905b81548152906001019060200180831161126957829003601f168201915b50505050509080600201805461129b90614498565b80601f01602080910402602001604051908101604052809291908181526020018280546112c790614498565b80156113145780601f106112e957610100808354040283529160200191611314565b820191906000526020600020905b8154815290600101906020018083116112f757829003601f168201915b50505050509080600301805461132990614498565b80601f016020809104026020016040519081016040528092919081815260200182805461135590614498565b80156113a25780601f10611377576101008083540402835291602001916113a2565b820191906000526020600020905b81548152906001019060200180831161138557829003601f168201915b5050505050908060040154908060050154908060060154908060070154908060080160009054906101000a900473ffffffffffffffffffffffffffffffffffffffff16905089565b6113f26125a8565b60008210158015611404575060065482105b611443576040517f08c379a000000000000000000000000000000000000000000000000000000000815260040161143a90614449565b60405180910390fd5b8060076000848152602001908152602001600020600701819055505050565b600560149054906101000a900460ff1681565b606081518351146114bb576040517f08c379a00000000000000000000000000000000000000000000000000000000081526004016114b290614a69565b60405180910390fd5b6000835167ffffffffffffffff8111156114d8576114d76138e9565b5b6040519080825280602002602001820160405280156115065781602001602082028036833780820191505090505b50905060005b84518110156115835761155385828151811061152b5761152a614670565b5b602002602001015185838151811061154657611545614670565b5b6020026020010151610560565b82828151811061156657611565614670565b5b6020026020010181815250508061157c9061469f565b905061150c565b508091505092915050565b600073ffffffffffffffffffffffffffffffffffffffff168173ffffffffffffffffffffffffffffffffffffffff16036115fd576040517f08c379a00000000000000000000000000000000000000000000000000000000081526004016115f490614afb565b60405180910390fd5b6116088160016116db565b50565b6116136125a8565b600560149054906101000a900460ff1615600560146101000a81548160ff021916908315150217905550565b6116476125a8565b61164f6116b1565b73ffffffffffffffffffffffffffffffffffffffff166108fc479081150290604051600060405180830381858888f19350505050158015611694573d6000803e3d6000fd5b50565b61169f6125a8565b6116a96000612965565b565b60065481565b6000600560009054906101000a900473ffffffffffffffffffffffffffffffffffffffff16905090565b6116ed6116e661263c565b8383612a2b565b5050565b6060806000805b6006548110156117b55760006007600083815260200190815260200160002090504260076000848152602001908152602001600020600601541115801561178d57508560405160200161174b9190614b57565b60405160208183030381529060405280519060200120816002016040516020016117759190614bf1565b60405160208183030381529060405280519060200120145b156117a157828061179d9061469f565b9350505b5080806117ad9061469f565b9150506116f8565b508067ffffffffffffffff8111156117d0576117cf6138e9565b5b60405190808252806020026020018201604052801561180957816020015b6117f661338b565b8152602001906001900390816117ee5790505b5091506000805b600654811015611bbe576000600760008381526020019081526020016000209050426007600084815260200190815260200160002060060154111580156118a55750866040516020016118639190614b57565b604051602081830303815290604052805190602001208160020160405160200161188d9190614bf1565b60405160208183030381529060405280519060200120145b15611baa5780604051806101200160405290816000820180546118c790614498565b80601f01602080910402602001604051908101604052809291908181526020018280546118f390614498565b80156119405780601f1061191557610100808354040283529160200191611940565b820191906000526020600020905b81548152906001019060200180831161192357829003601f168201915b5050505050815260200160018201805461195990614498565b80601f016020809104026020016040519081016040528092919081815260200182805461198590614498565b80156119d25780601f106119a7576101008083540402835291602001916119d2565b820191906000526020600020905b8154815290600101906020018083116119b557829003601f168201915b505050505081526020016002820180546119eb90614498565b80601f0160208091040260200160405190810160405280929190818152602001828054611a1790614498565b8015611a645780601f10611a3957610100808354040283529160200191611a64565b820191906000526020600020905b815481529060010190602001808311611a4757829003601f168201915b50505050508152602001600382018054611a7d90614498565b80601f0160208091040260200160405190810160405280929190818152602001828054611aa990614498565b8015611af65780601f10611acb57610100808354040283529160200191611af6565b820191906000526020600020905b815481529060010190602001808311611ad957829003601f168201915b50505050508152602001600482015481526020016005820154815260200160068201548152602001600782015481526020016008820160009054906101000a900473ffffffffffffffffffffffffffffffffffffffff1673ffffffffffffffffffffffffffffffffffffffff1673ffffffffffffffffffffffffffffffffffffffff1681525050858481518110611b9057611b8f614670565b5b60200260200101819052508280611ba69061469f565b9350505b508080611bb69061469f565b915050611810565b50829350505050919050565b6060600073ffffffffffffffffffffffffffffffffffffffff168273ffffffffffffffffffffffffffffffffffffffff1603611c3b576040517f08c379a0000000000000000000000000000000000000000000000000000000008152600401611c3290614c54565b60405180910390fd5b6000611c84600860008573ffffffffffffffffffffffffffffffffffffffff1673ffffffffffffffffffffffffffffffffffffffff168152602001908152602001600020612b97565b905060008111611cc9576040517f08c379a0000000000000000000000000000000000000000000000000000000008152600401611cc090614ce6565b60405180910390fd5b6000611d12600860008673ffffffffffffffffffffffffffffffffffffffff1673ffffffffffffffffffffffffffffffffffffffff168152602001908152602001600020612b97565b67ffffffffffffffff811115611d2b57611d2a6138e9565b5b604051908082528060200260200182016040528015611d6457816020015b611d516133ed565b815260200190600190039081611d495790505b50905060005b611db1600860008773ffffffffffffffffffffffffffffffffffffffff1673ffffffffffffffffffffffffffffffffffffffff168152602001908152602001600020612b97565b811015612155576000611e0b82600860008973ffffffffffffffffffffffffffffffffffffffff1673ffffffffffffffffffffffffffffffffffffffff168152602001908152602001600020612bac90919063ffffffff16565b90506007600082815260200190815260200160002060405180610120016040529081600082018054611e3c90614498565b80601f0160208091040260200160405190810160405280929190818152602001828054611e6890614498565b8015611eb55780601f10611e8a57610100808354040283529160200191611eb5565b820191906000526020600020905b815481529060010190602001808311611e9857829003601f168201915b50505050508152602001600182018054611ece90614498565b80601f0160208091040260200160405190810160405280929190818152602001828054611efa90614498565b8015611f475780601f10611f1c57610100808354040283529160200191611f47565b820191906000526020600020905b815481529060010190602001808311611f2a57829003601f168201915b50505050508152602001600282018054611f6090614498565b80601f0160208091040260200160405190810160405280929190818152602001828054611f8c90614498565b8015611fd95780601f10611fae57610100808354040283529160200191611fd9565b820191906000526020600020905b815481529060010190602001808311611fbc57829003601f168201915b50505050508152602001600382018054611ff290614498565b80601f016020809104026020016040519081016040528092919081815260200182805461201e90614498565b801561206b5780601f106120405761010080835404028352916020019161206b565b820191906000526020600020905b81548152906001019060200180831161204e57829003601f168201915b50505050508152602001600482015481526020016005820154815260200160068201548152602001600782015481526020016008820160009054906101000a900473ffffffffffffffffffffffffffffffffffffffff1673ffffffffffffffffffffffffffffffffffffffff1673ffffffffffffffffffffffffffffffffffffffff168152505083838151811061210557612104614670565b5b60200260200101516000018190525061211e8682610560565b83838151811061213157612130614670565b5b6020026020010151602001818152505050808061214d9061469f565b915050611d6a565b508092505050919050565b6000600160008473ffffffffffffffffffffffffffffffffffffffff1673ffffffffffffffffffffffffffffffffffffffff16815260200190815260200160002060008373ffffffffffffffffffffffffffffffffffffffff1673ffffffffffffffffffffffffffffffffffffffff16815260200190815260200160002060009054906101000a900460ff16905092915050565b6121fc61263c565b73ffffffffffffffffffffffffffffffffffffffff168573ffffffffffffffffffffffffffffffffffffffff16148061224257506122418561223c61263c565b612160565b5b612281576040517f08c379a0000000000000000000000000000000000000000000000000000000008152600401612278906149d7565b60405180910390fd5b61228e8585858585612bc6565b5050505050565b61229d6125a8565b600073ffffffffffffffffffffffffffffffffffffffff168173ffffffffffffffffffffffffffffffffffffffff160361230c576040517f08c379a000000000000000000000000000000000000000000000000000000000815260040161230390614d78565b60405180910390fd5b61231581612965565b50565b60007f01ffc9a7000000000000000000000000000000000000000000000000000000007bffffffffffffffffffffffffffffffffffffffffffffffffffffffff1916827bffffffffffffffffffffffffffffffffffffffffffffffffffffffff1916149050919050565b600073ffffffffffffffffffffffffffffffffffffffff168473ffffffffffffffffffffffffffffffffffffffff16036123f1576040517f08c379a00000000000000000000000000000000000000000000000000000000081526004016123e890614e0a565b60405180910390fd5b60006123fb61263c565b9050600061240885612e61565b9050600061241585612e61565b905061242683600089858589612edb565b8460008088815260200190815260200160002060008973ffffffffffffffffffffffffffffffffffffffff1673ffffffffffffffffffffffffffffffffffffffff16815260200190815260200160002060008282546124859190614e2a565b925050819055508673ffffffffffffffffffffffffffffffffffffffff16600073ffffffffffffffffffffffffffffffffffffffff168473ffffffffffffffffffffffffffffffffffffffff167fc3d58168c5ae7397731d063d5bbf3d657854427343f4c083240f7aacaa2d0f628989604051612503929190614e5e565b60405180910390a461251a83600089858589612ee3565b61252983600089898989612eeb565b50505050505050565b6000612544836000018360001b6130c2565b905092915050565b600061255e836000018360001b6130e5565b905092915050565b600081836125749190614e87565b905092915050565b6000818361258a9190614ef8565b905092915050565b600081836125a0919061463c565b905092915050565b6125b061263c565b73ffffffffffffffffffffffffffffffffffffffff166125ce6116b1565b73ffffffffffffffffffffffffffffffffffffffff1614612624576040517f08c379a000000000000000000000000000000000000000000000000000000000815260040161261b90614f75565b60405180910390fd5b565b600081836126349190614e2a565b905092915050565b600033905090565b8151835114612688576040517f08c379a000000000000000000000000000000000000000000000000000000000815260040161267f90615007565b60405180910390fd5b600073ffffffffffffffffffffffffffffffffffffffff168473ffffffffffffffffffffffffffffffffffffffff16036126f7576040517f08c379a00000000000000000000000000000000000000000000000000000000081526004016126ee90615099565b60405180910390fd5b600061270161263c565b9050612711818787878787612edb565b60005b84518110156128c257600085828151811061273257612731614670565b5b60200260200101519050600085838151811061275157612750614670565b5b60200260200101519050600080600084815260200190815260200160002060008b73ffffffffffffffffffffffffffffffffffffffff1673ffffffffffffffffffffffffffffffffffffffff168152602001908152602001600020549050818110156127f2576040517f08c379a00000000000000000000000000000000000000000000000000000000081526004016127e99061512b565b60405180910390fd5b81810360008085815260200190815260200160002060008c73ffffffffffffffffffffffffffffffffffffffff1673ffffffffffffffffffffffffffffffffffffffff168152602001908152602001600020819055508160008085815260200190815260200160002060008b73ffffffffffffffffffffffffffffffffffffffff1673ffffffffffffffffffffffffffffffffffffffff16815260200190815260200160002060008282546128a79190614e2a565b92505081905550505050806128bb9061469f565b9050612714565b508473ffffffffffffffffffffffffffffffffffffffff168673ffffffffffffffffffffffffffffffffffffffff168273ffffffffffffffffffffffffffffffffffffffff167f4a39dc06d4c0dbc64b70af90fd698a233a518aa5d07e595d983b8c0526c8f7fb878760405161293992919061514b565b60405180910390a461294f818787878787612ee3565b61295d818787878787613155565b505050505050565b6000600560009054906101000a900473ffffffffffffffffffffffffffffffffffffffff16905081600560006101000a81548173ffffffffffffffffffffffffffffffffffffffff021916908373ffffffffffffffffffffffffffffffffffffffff1602179055508173ffffffffffffffffffffffffffffffffffffffff168173ffffffffffffffffffffffffffffffffffffffff167f8be0079c531659141344cd1fd0a4f28419497f9722a3daafe3b4186f6b6457e060405160405180910390a35050565b8173ffffffffffffffffffffffffffffffffffffffff168373ffffffffffffffffffffffffffffffffffffffff1603612a99576040517f08c379a0000000000000000000000000000000000000000000000000000000008152600401612a90906151f4565b60405180910390fd5b80600160008573ffffffffffffffffffffffffffffffffffffffff1673ffffffffffffffffffffffffffffffffffffffff16815260200190815260200160002060008473ffffffffffffffffffffffffffffffffffffffff1673ffffffffffffffffffffffffffffffffffffffff16815260200190815260200160002060006101000a81548160ff0219169083151502179055508173ffffffffffffffffffffffffffffffffffffffff168373ffffffffffffffffffffffffffffffffffffffff167f17307eab39ab6107e8899845ad3d59bd9653f200f220920489ca2b5937696c3183604051612b8a91906135bf565b60405180910390a3505050565b6000612ba58260000161332c565b9050919050565b6000612bbb836000018361333d565b60001c905092915050565b600073ffffffffffffffffffffffffffffffffffffffff168473ffffffffffffffffffffffffffffffffffffffff1603612c35576040517f08c379a0000000000000000000000000000000000000000000000000000000008152600401612c2c90615099565b60405180910390fd5b6000612c3f61263c565b90506000612c4c85612e61565b90506000612c5985612e61565b9050612c69838989858589612edb565b600080600088815260200190815260200160002060008a73ffffffffffffffffffffffffffffffffffffffff1673ffffffffffffffffffffffffffffffffffffffff16815260200190815260200160002054905085811015612d00576040517f08c379a0000000000000000000000000000000000000000000000000000000008152600401612cf79061512b565b60405180910390fd5b85810360008089815260200190815260200160002060008b73ffffffffffffffffffffffffffffffffffffffff1673ffffffffffffffffffffffffffffffffffffffff168152602001908152602001600020819055508560008089815260200190815260200160002060008a73ffffffffffffffffffffffffffffffffffffffff1673ffffffffffffffffffffffffffffffffffffffff1681526020019081526020016000206000828254612db59190614e2a565b925050819055508773ffffffffffffffffffffffffffffffffffffffff168973ffffffffffffffffffffffffffffffffffffffff168573ffffffffffffffffffffffffffffffffffffffff167fc3d58168c5ae7397731d063d5bbf3d657854427343f4c083240f7aacaa2d0f628a8a604051612e32929190614e5e565b60405180910390a4612e48848a8a86868a612ee3565b612e56848a8a8a8a8a612eeb565b505050505050505050565b60606000600167ffffffffffffffff811115612e8057612e7f6138e9565b5b604051908082528060200260200182016040528015612eae5781602001602082028036833780820191505090505b5090508281600081518110612ec657612ec5614670565b5b60200260200101818152505080915050919050565b505050505050565b505050505050565b612f0a8473ffffffffffffffffffffffffffffffffffffffff16613368565b156130ba578373ffffffffffffffffffffffffffffffffffffffff1663f23a6e6187878686866040518663ffffffff1660e01b8152600401612f50959493929190615269565b6020604051808303816000875af1925050508015612f8c57506040513d601f19601f82011682018060405250810190612f8991906152d8565b60015b61303157612f98615312565b806308c379a003612ff45750612fac615334565b80612fb75750612ff6565b806040517f08c379a0000000000000000000000000000000000000000000000000000000008152600401612feb9190613697565b60405180910390fd5b505b6040517f08c379a000000000000000000000000000000000000000000000000000000000815260040161302890615436565b60405180910390fd5b63f23a6e6160e01b7bffffffffffffffffffffffffffffffffffffffffffffffffffffffff1916817bffffffffffffffffffffffffffffffffffffffffffffffffffffffff1916146130b8576040517f08c379a00000000000000000000000000000000000000000000000000000000081526004016130af906154c8565b60405180910390fd5b505b505050505050565b600080836001016000848152602001908152602001600020541415905092915050565b60006130f183836130c2565b61314a57826000018290806001815401808255809150506001900390600052602060002001600090919091909150558260000180549050836001016000848152602001908152602001600020819055506001905061314f565b600090505b92915050565b6131748473ffffffffffffffffffffffffffffffffffffffff16613368565b15613324578373ffffffffffffffffffffffffffffffffffffffff1663bc197c8187878686866040518663ffffffff1660e01b81526004016131ba9594939291906154e8565b6020604051808303816000875af19250505080156131f657506040513d601f19601f820116820180604052508101906131f391906152d8565b60015b61329b57613202615312565b806308c379a00361325e5750613216615334565b806132215750613260565b806040517f08c379a00000000000000000000000000000000000000000000000000000000081526004016132559190613697565b60405180910390fd5b505b6040517f08c379a000000000000000000000000000000000000000000000000000000000815260040161329290615436565b60405180910390fd5b63bc197c8160e01b7bffffffffffffffffffffffffffffffffffffffffffffffffffffffff1916817bffffffffffffffffffffffffffffffffffffffffffffffffffffffff191614613322576040517f08c379a0000000000000000000000000000000000000000000000000000000008152600401613319906154c8565b60405180910390fd5b505b505050505050565b600081600001805490509050919050565b600082600001828154811061335557613354614670565b5b9060005260206000200154905092915050565b6000808273ffffffffffffffffffffffffffffffffffffffff163b119050919050565b6040518061012001604052806060815260200160608152602001606081526020016060815260200160008152602001600081526020016000815260200160008152602001600073ffffffffffffffffffffffffffffffffffffffff1681525090565b604051806040016040528061340061338b565b8152602001600081525090565b6000604051905090565b600080fd5b600080fd5b600073ffffffffffffffffffffffffffffffffffffffff82169050919050565b600061344c82613421565b9050919050565b61345c81613441565b811461346757600080fd5b50565b60008135905061347981613453565b92915050565b6000819050919050565b6134928161347f565b811461349d57600080fd5b50565b6000813590506134af81613489565b92915050565b600080604083850312156134cc576134cb613417565b5b60006134da8582860161346a565b92505060206134eb858286016134a0565b9150509250929050565b6134fe8161347f565b82525050565b600060208201905061351960008301846134f5565b92915050565b60007fffffffff0000000000000000000000000000000000000000000000000000000082169050919050565b6135548161351f565b811461355f57600080fd5b50565b6000813590506135718161354b565b92915050565b60006020828403121561358d5761358c613417565b5b600061359b84828501613562565b91505092915050565b60008115159050919050565b6135b9816135a4565b82525050565b60006020820190506135d460008301846135b0565b92915050565b6000602082840312156135f0576135ef613417565b5b60006135fe848285016134a0565b91505092915050565b600081519050919050565b600082825260208201905092915050565b60005b83811015613641578082015181840152602081019050613626565b60008484015250505050565b6000601f19601f8301169050919050565b600061366982613607565b6136738185613612565b9350613683818560208601613623565b61368c8161364d565b840191505092915050565b600060208201905081810360008301526136b1818461365e565b905092915050565b600081519050919050565b600082825260208201905092915050565b6000819050602082019050919050565b600082825260208201905092915050565b600061370182613607565b61370b81856136e5565b935061371b818560208601613623565b6137248161364d565b840191505092915050565b6137388161347f565b82525050565b61374781613441565b82525050565b600061012083016000830151848203600086015261376b82826136f6565b9150506020830151848203602086015261378582826136f6565b9150506040830151848203604086015261379f82826136f6565b915050606083015184820360608601526137b982826136f6565b91505060808301516137ce608086018261372f565b5060a08301516137e160a086018261372f565b5060c08301516137f460c086018261372f565b5060e083015161380760e086018261372f565b5061010083015161381c61010086018261373e565b508091505092915050565b6000613833838361374d565b905092915050565b6000602082019050919050565b6000613853826136b9565b61385d81856136c4565b93508360208202850161386f856136d5565b8060005b858110156138ab578484038952815161388c8582613827565b94506138978361383b565b925060208a01995050600181019050613873565b50829750879550505050505092915050565b600060208201905081810360008301526138d78184613848565b905092915050565b600080fd5b600080fd5b7f4e487b7100000000000000000000000000000000000000000000000000000000600052604160045260246000fd5b6139218261364d565b810181811067ffffffffffffffff821117156139405761393f6138e9565b5b80604052505050565b600061395361340d565b905061395f8282613918565b919050565b600067ffffffffffffffff82111561397f5761397e6138e9565b5b6139888261364d565b9050602081019050919050565b82818337600083830152505050565b60006139b76139b284613964565b613949565b9050828152602081018484840111156139d3576139d26138e4565b5b6139de848285613995565b509392505050565b600082601f8301126139fb576139fa6138df565b5b8135613a0b8482602086016139a4565b91505092915050565b600080600080600080600080610100898b031215613a3557613a34613417565b5b600089013567ffffffffffffffff811115613a5357613a5261341c565b5b613a5f8b828c016139e6565b985050602089013567ffffffffffffffff811115613a8057613a7f61341c565b5b613a8c8b828c016139e6565b975050604089013567ffffffffffffffff811115613aad57613aac61341c565b5b613ab98b828c016139e6565b965050606089013567ffffffffffffffff811115613ada57613ad961341c565b5b613ae68b828c016139e6565b9550506080613af78b828c016134a0565b94505060a0613b088b828c016134a0565b93505060c0613b198b828c016134a0565b92505060e0613b2a8b828c0161346a565b9150509295985092959890939650565b600067ffffffffffffffff821115613b5557613b546138e9565b5b602082029050602081019050919050565b600080fd5b6000613b7e613b7984613b3a565b613949565b90508083825260208201905060208402830185811115613ba157613ba0613b66565b5b835b81811015613bca5780613bb688826134a0565b845260208401935050602081019050613ba3565b5050509392505050565b600082601f830112613be957613be86138df565b5b8135613bf9848260208601613b6b565b91505092915050565b600067ffffffffffffffff821115613c1d57613c1c6138e9565b5b613c268261364d565b9050602081019050919050565b6000613c46613c4184613c02565b613949565b905082815260208101848484011115613c6257613c616138e4565b5b613c6d848285613995565b509392505050565b600082601f830112613c8a57613c896138df565b5b8135613c9a848260208601613c33565b91505092915050565b600080600080600060a08688031215613cbf57613cbe613417565b5b6000613ccd8882890161346a565b9550506020613cde8882890161346a565b945050604086013567ffffffffffffffff811115613cff57613cfe61341c565b5b613d0b88828901613bd4565b935050606086013567ffffffffffffffff811115613d2c57613d2b61341c565b5b613d3888828901613bd4565b925050608086013567ffffffffffffffff811115613d5957613d5861341c565b5b613d6588828901613c75565b9150509295509295909350565b613d7b81613441565b82525050565b6000610120820190508181036000830152613d9c818c61365e565b90508181036020830152613db0818b61365e565b90508181036040830152613dc4818a61365e565b90508181036060830152613dd8818961365e565b9050613de760808301886134f5565b613df460a08301876134f5565b613e0160c08301866134f5565b613e0e60e08301856134f5565b613e1c610100830184613d72565b9a9950505050505050505050565b60008060408385031215613e4157613e40613417565b5b6000613e4f858286016134a0565b9250506020613e60858286016134a0565b9150509250929050565b600067ffffffffffffffff821115613e8557613e846138e9565b5b602082029050602081019050919050565b6000613ea9613ea484613e6a565b613949565b90508083825260208201905060208402830185811115613ecc57613ecb613b66565b5b835b81811015613ef55780613ee1888261346a565b845260208401935050602081019050613ece565b5050509392505050565b600082601f830112613f1457613f136138df565b5b8135613f24848260208601613e96565b91505092915050565b60008060408385031215613f4457613f43613417565b5b600083013567ffffffffffffffff811115613f6257613f6161341c565b5b613f6e85828601613eff565b925050602083013567ffffffffffffffff811115613f8f57613f8e61341c565b5b613f9b85828601613bd4565b9150509250929050565b600081519050919050565b600082825260208201905092915050565b6000819050602082019050919050565b6000613fdd838361372f565b60208301905092915050565b6000602082019050919050565b600061400182613fa5565b61400b8185613fb0565b935061401683613fc1565b8060005b8381101561404757815161402e8882613fd1565b975061403983613fe9565b92505060018101905061401a565b5085935050505092915050565b6000602082019050818103600083015261406e8184613ff6565b905092915050565b60006020828403121561408c5761408b613417565b5b600061409a8482850161346a565b91505092915050565b60006020820190506140b86000830184613d72565b92915050565b6140c7816135a4565b81146140d257600080fd5b50565b6000813590506140e4816140be565b92915050565b6000806040838503121561410157614100613417565b5b600061410f8582860161346a565b9250506020614120858286016140d5565b9150509250929050565b6000602082840312156141405761413f613417565b5b600082013567ffffffffffffffff81111561415e5761415d61341c565b5b61416a848285016139e6565b91505092915050565b600081519050919050565b600082825260208201905092915050565b6000819050602082019050919050565b600060408301600083015184820360008601526141bc828261374d565b91505060208301516141d1602086018261372f565b508091505092915050565b60006141e8838361419f565b905092915050565b6000602082019050919050565b600061420882614173565b614212818561417e565b9350836020820285016142248561418f565b8060005b85811015614260578484038952815161424185826141dc565b945061424c836141f0565b925060208a01995050600181019050614228565b50829750879550505050505092915050565b6000602082019050818103600083015261428c81846141fd565b905092915050565b600080604083850312156142ab576142aa613417565b5b60006142b98582860161346a565b92505060206142ca8582860161346a565b9150509250929050565b600080600080600060a086880312156142f0576142ef613417565b5b60006142fe8882890161346a565b955050602061430f8882890161346a565b9450506040614320888289016134a0565b9350506060614331888289016134a0565b925050608086013567ffffffffffffffff8111156143525761435161341c565b5b61435e88828901613c75565b9150509295509295909350565b7f455243313135353a2061646472657373207a65726f206973206e6f742061207660008201527f616c6964206f776e657200000000000000000000000000000000000000000000602082015250565b60006143c7602a83613612565b91506143d28261436b565b604082019050919050565b600060208201905081810360008301526143f6816143ba565b9050919050565b7f496e76616c696420746f6b656e20494400000000000000000000000000000000600082015250565b6000614433601083613612565b915061443e826143fd565b602082019050919050565b6000602082019050818103600083015261446281614426565b9050919050565b7f4e487b7100000000000000000000000000000000000000000000000000000000600052602260045260246000fd5b600060028204905060018216806144b057607f821691505b6020821081036144c3576144c2614469565b5b50919050565b7f4d696e74206973206e6f74206163746976650000000000000000000000000000600082015250565b60006144ff601283613612565b915061450a826144c9565b602082019050919050565b6000602082019050818103600083015261452e816144f2565b9050919050565b7f496e73756666696369656e742066756e64730000000000000000000000000000600082015250565b600061456b601283613612565b915061457682614535565b602082019050919050565b6000602082019050818103600083015261459a8161455e565b9050919050565b7f47616d65206e6f742072656c6561736564207965740000000000000000000000600082015250565b60006145d7601583613612565b91506145e2826145a1565b602082019050919050565b60006020820190508181036000830152614606816145ca565b9050919050565b7f4e487b7100000000000000000000000000000000000000000000000000000000600052601160045260246000fd5b60006146478261347f565b91506146528361347f565b925082820390508181111561466a5761466961460d565b5b92915050565b7f4e487b7100000000000000000000000000000000000000000000000000000000600052603260045260246000fd5b60006146aa8261347f565b91507fffffffffffffffffffffffffffffffffffffffffffffffffffffffffffffffff82036146dc576146db61460d565b5b600182019050919050565b60008190508160005260206000209050919050565b60006020601f8301049050919050565b600082821b905092915050565b6000600883026147497fffffffffffffffffffffffffffffffffffffffffffffffffffffffffffffffff8261470c565b614753868361470c565b95508019841693508086168417925050509392505050565b6000819050919050565b600061479061478b6147868461347f565b61476b565b61347f565b9050919050565b6000819050919050565b6147aa83614775565b6147be6147b682614797565b848454614719565b825550505050565b600090565b6147d36147c6565b6147de8184846147a1565b505050565b5b81811015614802576147f76000826147cb565b6001810190506147e4565b5050565b601f82111561484757614818816146e7565b614821846146fc565b81016020851015614830578190505b61484461483c856146fc565b8301826147e3565b50505b505050565b600082821c905092915050565b600061486a6000198460080261484c565b1980831691505092915050565b60006148838383614859565b9150826002028217905092915050565b61489c82613607565b67ffffffffffffffff8111156148b5576148b46138e9565b5b6148bf8254614498565b6148ca828285614806565b600060209050601f8311600181146148fd57600084156148eb578287015190505b6148f58582614877565b86555061495d565b601f19841661490b866146e7565b60005b828110156149335784890151825560018201915060208501945060208101905061490e565b86831015614950578489015161494c601f891682614859565b8355505b6001600288020188555050505b505050505050565b7f455243313135353a2063616c6c6572206973206e6f7420746f6b656e206f776e60008201527f6572206f7220617070726f766564000000000000000000000000000000000000602082015250565b60006149c1602e83613612565b91506149cc82614965565b604082019050919050565b600060208201905081810360008301526149f0816149b4565b9050919050565b7f455243313135353a206163636f756e747320616e6420696473206c656e67746860008201527f206d69736d617463680000000000000000000000000000000000000000000000602082015250565b6000614a53602983613612565b9150614a5e826149f7565b604082019050919050565b60006020820190508181036000830152614a8281614a46565b9050919050565b7f546865206d61726b6574706c616365206164647265737320697320696e636f7260008201527f7265637400000000000000000000000000000000000000000000000000000000602082015250565b6000614ae5602483613612565b9150614af082614a89565b604082019050919050565b60006020820190508181036000830152614b1481614ad8565b9050919050565b600081905092915050565b6000614b3182613607565b614b3b8185614b1b565b9350614b4b818560208601613623565b80840191505092915050565b6000614b638284614b26565b915081905092915050565b60008154614b7b81614498565b614b858186614b1b565b94506001821660008114614ba05760018114614bb557614be8565b60ff1983168652811515820286019350614be8565b614bbe856146e7565b60005b83811015614be057815481890152600182019150602081019050614bc1565b838801955050505b50505092915050565b6000614bfd8284614b6e565b915081905092915050565b7f496e76616c696420616464726573730000000000000000000000000000000000600082015250565b6000614c3e600f83613612565b9150614c4982614c08565b602082019050919050565b60006020820190508181036000830152614c6d81614c31565b9050919050565b7f546865207573657220686173206e6f742070757263686173656420616e79204e60008201527f4654730000000000000000000000000000000000000000000000000000000000602082015250565b6000614cd0602383613612565b9150614cdb82614c74565b604082019050919050565b60006020820190508181036000830152614cff81614cc3565b9050919050565b7f4f776e61626c653a206e6577206f776e657220697320746865207a65726f206160008201527f6464726573730000000000000000000000000000000000000000000000000000602082015250565b6000614d62602683613612565b9150614d6d82614d06565b604082019050919050565b60006020820190508181036000830152614d9181614d55565b9050919050565b7f455243313135353a206d696e7420746f20746865207a65726f2061646472657360008201527f7300000000000000000000000000000000000000000000000000000000000000602082015250565b6000614df4602183613612565b9150614dff82614d98565b604082019050919050565b60006020820190508181036000830152614e2381614de7565b9050919050565b6000614e358261347f565b9150614e408361347f565b9250828201905080821115614e5857614e5761460d565b5b92915050565b6000604082019050614e7360008301856134f5565b614e8060208301846134f5565b9392505050565b6000614e928261347f565b9150614e9d8361347f565b9250828202614eab8161347f565b91508282048414831517614ec257614ec161460d565b5b5092915050565b7f4e487b7100000000000000000000000000000000000000000000000000000000600052601260045260246000fd5b6000614f038261347f565b9150614f0e8361347f565b925082614f1e57614f1d614ec9565b5b828204905092915050565b7f4f776e61626c653a2063616c6c6572206973206e6f7420746865206f776e6572600082015250565b6000614f5f602083613612565b9150614f6a82614f29565b602082019050919050565b60006020820190508181036000830152614f8e81614f52565b9050919050565b7f455243313135353a2069647320616e6420616d6f756e7473206c656e6774682060008201527f6d69736d61746368000000000000000000000000000000000000000000000000602082015250565b6000614ff1602883613612565b9150614ffc82614f95565b604082019050919050565b6000602082019050818103600083015261502081614fe4565b9050919050565b7f455243313135353a207472616e7366657220746f20746865207a65726f20616460008201527f6472657373000000000000000000000000000000000000000000000000000000602082015250565b6000615083602583613612565b915061508e82615027565b604082019050919050565b600060208201905081810360008301526150b281615076565b9050919050565b7f455243313135353a20696e73756666696369656e742062616c616e636520666f60008201527f72207472616e7366657200000000000000000000000000000000000000000000602082015250565b6000615115602a83613612565b9150615120826150b9565b604082019050919050565b6000602082019050818103600083015261514481615108565b9050919050565b600060408201905081810360008301526151658185613ff6565b905081810360208301526151798184613ff6565b90509392505050565b7f455243313135353a2073657474696e6720617070726f76616c2073746174757360008201527f20666f722073656c660000000000000000000000000000000000000000000000602082015250565b60006151de602983613612565b91506151e982615182565b604082019050919050565b6000602082019050818103600083015261520d816151d1565b9050919050565b600081519050919050565b600082825260208201905092915050565b600061523b82615214565b615245818561521f565b9350615255818560208601613623565b61525e8161364d565b840191505092915050565b600060a08201905061527e6000830188613d72565b61528b6020830187613d72565b61529860408301866134f5565b6152a560608301856134f5565b81810360808301526152b78184615230565b90509695505050505050565b6000815190506152d28161354b565b92915050565b6000602082840312156152ee576152ed613417565b5b60006152fc848285016152c3565b91505092915050565b60008160e01c9050919050565b600060033d11156153315760046000803e61532e600051615305565b90505b90565b600060443d106153c15761534661340d565b60043d036004823e80513d602482011167ffffffffffffffff8211171561536e5750506153c1565b808201805167ffffffffffffffff81111561538c57505050506153c1565b80602083010160043d0385018111156153a95750505050506153c1565b6153b882602001850186613918565b82955050505050505b90565b7f455243313135353a207472616e7366657220746f206e6f6e2d4552433131353560008201527f526563656976657220696d706c656d656e746572000000000000000000000000602082015250565b6000615420603483613612565b915061542b826153c4565b604082019050919050565b6000602082019050818103600083015261544f81615413565b9050919050565b7f455243313135353a204552433131353552656365697665722072656a6563746560008201527f6420746f6b656e73000000000000000000000000000000000000000000000000602082015250565b60006154b2602883613612565b91506154bd82615456565b604082019050919050565b600060208201905081810360008301526154e1816154a5565b9050919050565b600060a0820190506154fd6000830188613d72565b61550a6020830187613d72565b818103604083015261551c8186613ff6565b905081810360608301526155308185613ff6565b905081810360808301526155448184615230565b9050969550505050505056fea26469706673582212201a133d0fba467d8a09168555bf945fbfe48c26ff72a57432db254409d831a85064736f6c63430008130033",
  "immutableReferences": {},
  "source": "// SPDX-License-Identifier: MIT\r\npragma solidity >=0.8.0 <0.9.0;\r\n\r\nimport \"@openzeppelin/contracts/token/ERC1155/ERC1155.sol\";\r\nimport \"@openzeppelin/contracts/token/ERC1155/extensions/ERC1155URIStorage.sol\";\r\nimport \"@openzeppelin/contracts/access/Ownable.sol\";\r\nimport \"@openzeppelin/contracts/utils/structs/EnumerableSet.sol\";\r\nimport \"@openzeppelin/contracts/utils/math/SafeMath.sol\";\r\n\r\ncontract NFTGames is ERC1155, ERC1155URIStorage, Ownable {\r\n    using SafeMath for uint256;\r\n    using EnumerableSet for EnumerableSet.UintSet;\r\n\r\n    bool public mintIsActive = false;\r\n\r\n    // Estructura para guardar los datos relevantes del NFT\r\n    struct NftGameInfo {\r\n        string name;\r\n        string description;\r\n        string category;\r\n        string imageUrl;\r\n        uint256 tokenId;\r\n        uint256 price;\r\n        uint256 gameRelease;\r\n        uint256 tokenPlayRoyaltyPercentage;\r\n        address gameOwnerAddress;\r\n    }\r\n\r\n    // Estructura para devolver los juegos que ha comprado un usuario y la cantidad que tiene de cada juego\r\n    struct PurchasedNft {\r\n        NftGameInfo game;\r\n        uint256 qty;\r\n    }\r\n\r\n    constructor(string memory _uri) ERC1155(_uri) {}\r\n\r\n    // Contador autoincremental, cada nmero ser un juego (token)\r\n    uint256 public nextTokenId = 0;\r\n\r\n    // Estructura, donde por cada juego definiremos el precio\r\n    mapping(uint256 => NftGameInfo) public gamesInfo;\r\n    mapping(address => EnumerableSet.UintSet) private purchasedNFTs;\r\n\r\n    // Funcin para aadir un juego (crear un token)\r\n    function addNFT(string memory name, string memory description, string memory category, string memory imageUrl, uint256 price, uint256 gameRelease, uint256 tokenPlayRoyaltyPercentage, address gameOwnerAddress) external onlyOwner {\r\n        uint256 tokenId = nextTokenId;\r\n        nextTokenId = nextTokenId.add(1);\r\n\r\n        gamesInfo[tokenId] = NftGameInfo(name, description, category, imageUrl, tokenId, price, gameRelease, tokenPlayRoyaltyPercentage, gameOwnerAddress);\r\n    }\r\n\r\n    // Funcin para comprar un juego (un token)\r\n    function purchaseNFT(uint256 tokenId) external payable {\r\n        require(mintIsActive, \"Mint is not active\");\r\n        require(tokenId >= 0 && tokenId < nextTokenId, \"Invalid token ID\");\r\n        uint256 price = gamesInfo[tokenId].price;\r\n        require(msg.value >= price, \"Insufficient funds\");\r\n        require(gamesInfo[tokenId].gameRelease <= block.timestamp, \"Game not released yet\");\r\n\r\n        // Minteamos el NFT al comprador y registramos al array de juegos que tiene comprados (si el Id ya existe no lo registramos de nuevo)\r\n        _mint(msg.sender, tokenId, 1, \"\");\r\n        if (!purchasedNFTs[msg.sender].contains(tokenId)) {\r\n            purchasedNFTs[msg.sender].add(tokenId);\r\n        }\r\n\r\n        // Calculamos los porcentajes que se lleva cada parte y hacemos la transferencia de los tokens\r\n        uint256 paymentAmount = price;\r\n        uint256 tokenPlay = paymentAmount.mul(gamesInfo[tokenId].tokenPlayRoyaltyPercentage).div(100); // royaltypercentage para token play\r\n        uint256 gameOwner = paymentAmount.sub(tokenPlay);  // el restante para game owner\r\n\r\n        payable(owner()).transfer(tokenPlay);\r\n        payable(gamesInfo[tokenId].gameOwnerAddress).transfer(gameOwner);\r\n\r\n        // Si el usuario ha pagado de mas, le devolvemos el dinero\r\n        if (msg.value > price) {\r\n            payable(msg.sender).transfer(msg.value - price);\r\n        }\r\n    }\r\n\r\n    // Funcion para obtener los juegos que ha comprado un usuario\r\n    function getPurchasedNFTs(address account) external view returns (PurchasedNft[] memory) {\r\n        require(account != address(0), \"Invalid address\");\r\n\r\n        uint256 purchasedCount = purchasedNFTs[account].length();\r\n        require(purchasedCount > 0, \"The user has not purchased any NFTs\");\r\n\r\n        PurchasedNft[] memory accountGames = new PurchasedNft[](purchasedNFTs[account].length());\r\n\r\n        for (uint256 i = 0; i < purchasedNFTs[account].length(); i++) {\r\n            uint256 id = purchasedNFTs[account].at(i);\r\n            accountGames[i].game = gamesInfo[id];\r\n            accountGames[i].qty = balanceOf(account, id);\r\n        }\r\n\r\n        return accountGames;\r\n    }\r\n\r\n    // Funcin para obtener todos los juegos disponibles\r\n    function getNFTs() external view returns (NftGameInfo[] memory) {\r\n        NftGameInfo[] memory allNFTs = new NftGameInfo[](nextTokenId);\r\n\r\n        for (uint256 i = 0; i < nextTokenId; i++) {\r\n            if (gamesInfo[i].gameRelease <= block.timestamp) {\r\n                NftGameInfo storage nftInfo = gamesInfo[i];\r\n                allNFTs[i] = nftInfo;\r\n            }\r\n        }\r\n\r\n        return allNFTs;\r\n    }\r\n\r\n    // Funcin para obtener los juegos de una categoria\r\n    function getCategoryNFTs(string memory category) external view returns (NftGameInfo[] memory) {\r\n        NftGameInfo[] memory matchingNFTs;\r\n        uint256 matchingCount = 0;\r\n\r\n        for (uint256 i = 0; i < nextTokenId; i++) {\r\n            NftGameInfo storage nftInfo = gamesInfo[i];\r\n            if(gamesInfo[i].gameRelease <= block.timestamp && keccak256(abi.encodePacked(nftInfo.category)) == keccak256(abi.encodePacked(category))){\r\n                matchingCount++;\r\n            }\r\n        }\r\n\r\n        matchingNFTs = new NftGameInfo[](matchingCount);\r\n        uint256 currentIndex = 0;\r\n\r\n        for (uint256 i = 0; i < nextTokenId; i++) {\r\n            NftGameInfo storage nftInfo = gamesInfo[i];\r\n            if(gamesInfo[i].gameRelease <= block.timestamp && keccak256(abi.encodePacked(nftInfo.category)) == keccak256(abi.encodePacked(category))){\r\n                matchingNFTs[currentIndex] = nftInfo;\r\n                currentIndex++;\r\n            }\r\n        }\r\n\r\n        return matchingNFTs;\r\n    }\r\n\r\n    // Funcin para que el propietario retire los fondos acumulados\r\n    function withdrawBalance() external onlyOwner {\r\n        payable(owner()).transfer(address(this).balance);\r\n    }\r\n\r\n    // Funcin para cambiar el porcentaje de royalty que nos llevamos\r\n    function setRoyaltyPercentage(uint256 tokenId, uint256 royaltyPercentage) public onlyOwner {\r\n        require(tokenId >= 0 && tokenId < nextTokenId, \"Invalid token ID\");\r\n\r\n        gamesInfo[tokenId].tokenPlayRoyaltyPercentage = royaltyPercentage;\r\n    }\r\n\r\n    // Funcin para activar o desactivar la compra de juegos (tokens)\r\n    function flipMintState() public onlyOwner {\r\n        mintIsActive = ! mintIsActive;\r\n    }\r\n\r\n    // Override de la funcin porque el estndard ERC1155 lo exige\r\n    function uri(uint256 tokenId) public view virtual override(ERC1155, ERC1155URIStorage) returns (string memory) {\r\n        require(tokenId > 0 && tokenId < nextTokenId, \"Invalid token ID\");\r\n        return gamesInfo[tokenId].imageUrl;\r\n    }\r\n\r\n    function approveMarketplace(address marketplace) external {\r\n        require(marketplace != address(0), \"The marketplace address is incorrect\");\r\n        setApprovalForAll(marketplace, true);\r\n    }\r\n}\r\n",
  "sourcePath": "C:\\Users\\User\\Desktop\\PC\\2_Master\\BSM_Engineering\\TFM\\DAPP\\dapp\\contracts\\NFTGames.sol",
  "compiler": {
    "name": "solc",
    "version": "0.8.19+commit.7dd6d404.Emscripten.clang"
  },
  "schemaVersion": "3.4.14",
  "updatedAt": "2023-08-22T17:39:34.945Z",
  "devdoc": {
    "events": {
      "ApprovalForAll(address,address,bool)": {
        "details": "Emitted when `account` grants or revokes permission to `operator` to transfer their tokens, according to `approved`."
      },
      "TransferBatch(address,address,address,uint256[],uint256[])": {
        "details": "Equivalent to multiple {TransferSingle} events, where `operator`, `from` and `to` are the same for all transfers."
      },
      "TransferSingle(address,address,address,uint256,uint256)": {
        "details": "Emitted when `value` tokens of token type `id` are transferred from `from` to `to` by `operator`."
      },
      "URI(string,uint256)": {
        "details": "Emitted when the URI for token type `id` changes to `value`, if it is a non-programmatic URI. If an {URI} event was emitted for `id`, the standard https://eips.ethereum.org/EIPS/eip-1155#metadata-extensions[guarantees] that `value` will equal the value returned by {IERC1155MetadataURI-uri}."
      }
    },
    "kind": "dev",
    "methods": {
      "balanceOf(address,uint256)": {
        "details": "See {IERC1155-balanceOf}. Requirements: - `account` cannot be the zero address."
      },
      "balanceOfBatch(address[],uint256[])": {
        "details": "See {IERC1155-balanceOfBatch}. Requirements: - `accounts` and `ids` must have the same length."
      },
      "isApprovedForAll(address,address)": {
        "details": "See {IERC1155-isApprovedForAll}."
      },
      "owner()": {
        "details": "Returns the address of the current owner."
      },
      "renounceOwnership()": {
        "details": "Leaves the contract without owner. It will not be possible to call `onlyOwner` functions. Can only be called by the current owner. NOTE: Renouncing ownership will leave the contract without an owner, thereby disabling any functionality that is only available to the owner."
      },
      "safeBatchTransferFrom(address,address,uint256[],uint256[],bytes)": {
        "details": "See {IERC1155-safeBatchTransferFrom}."
      },
      "safeTransferFrom(address,address,uint256,uint256,bytes)": {
        "details": "See {IERC1155-safeTransferFrom}."
      },
      "setApprovalForAll(address,bool)": {
        "details": "See {IERC1155-setApprovalForAll}."
      },
      "supportsInterface(bytes4)": {
        "details": "See {IERC165-supportsInterface}."
      },
      "transferOwnership(address)": {
        "details": "Transfers ownership of the contract to a new account (`newOwner`). Can only be called by the current owner."
      }
    },
    "version": 1
  },
  "userdoc": {
    "kind": "user",
    "methods": {},
    "version": 1
  }
}