{
  "contractName": "NFTGamesMarketplace",
  "abi": [
    {
      "inputs": [
        {
          "internalType": "address",
          "name": "_nftContract",
          "type": "address"
        }
      ],
      "stateMutability": "nonpayable",
      "type": "constructor"
    },
    {
      "anonymous": false,
      "inputs": [
        {
          "indexed": false,
          "internalType": "uint256",
          "name": "newCommissionPercentage",
          "type": "uint256"
        }
      ],
      "name": "CommissionUpdated",
      "type": "event"
    },
    {
      "anonymous": false,
      "inputs": [
        {
          "indexed": true,
          "internalType": "uint256",
          "name": "saleId",
          "type": "uint256"
        },
        {
          "indexed": true,
          "internalType": "uint256",
          "name": "tokenId",
          "type": "uint256"
        },
        {
          "indexed": true,
          "internalType": "address",
          "name": "buyer",
          "type": "address"
        },
        {
          "indexed": false,
          "internalType": "uint256",
          "name": "purchasePrice",
          "type": "uint256"
        }
      ],
      "name": "GamePurchasedFromMarketplace",
      "type": "event"
    },
    {
      "anonymous": false,
      "inputs": [
        {
          "indexed": true,
          "internalType": "address",
          "name": "previousOwner",
          "type": "address"
        },
        {
          "indexed": true,
          "internalType": "address",
          "name": "newOwner",
          "type": "address"
        }
      ],
      "name": "OwnershipTransferred",
      "type": "event"
    },
    {
      "anonymous": false,
      "inputs": [
        {
          "indexed": false,
          "internalType": "address",
          "name": "account",
          "type": "address"
        }
      ],
      "name": "Paused",
      "type": "event"
    },
    {
      "anonymous": false,
      "inputs": [
        {
          "indexed": true,
          "internalType": "uint256",
          "name": "saleId",
          "type": "uint256"
        },
        {
          "indexed": true,
          "internalType": "address",
          "name": "seller",
          "type": "address"
        }
      ],
      "name": "SaleCanceled",
      "type": "event"
    },
    {
      "anonymous": false,
      "inputs": [
        {
          "indexed": true,
          "internalType": "uint256",
          "name": "saleId",
          "type": "uint256"
        },
        {
          "indexed": true,
          "internalType": "uint256",
          "name": "tokenId",
          "type": "uint256"
        },
        {
          "indexed": true,
          "internalType": "address",
          "name": "seller",
          "type": "address"
        },
        {
          "indexed": false,
          "internalType": "uint256",
          "name": "price",
          "type": "uint256"
        }
      ],
      "name": "SaleCreated",
      "type": "event"
    },
    {
      "anonymous": false,
      "inputs": [
        {
          "indexed": true,
          "internalType": "uint256",
          "name": "saleId",
          "type": "uint256"
        },
        {
          "indexed": false,
          "internalType": "uint256",
          "name": "newPrice",
          "type": "uint256"
        },
        {
          "indexed": true,
          "internalType": "address",
          "name": "seller",
          "type": "address"
        }
      ],
      "name": "SalePriceUpdated",
      "type": "event"
    },
    {
      "anonymous": false,
      "inputs": [
        {
          "indexed": false,
          "internalType": "address",
          "name": "account",
          "type": "address"
        }
      ],
      "name": "Unpaused",
      "type": "event"
    },
    {
      "inputs": [],
      "name": "commissionPercentage",
      "outputs": [
        {
          "internalType": "uint256",
          "name": "",
          "type": "uint256"
        }
      ],
      "stateMutability": "view",
      "type": "function"
    },
    {
      "inputs": [],
      "name": "nextSaleId",
      "outputs": [
        {
          "internalType": "uint256",
          "name": "",
          "type": "uint256"
        }
      ],
      "stateMutability": "view",
      "type": "function"
    },
    {
      "inputs": [
        {
          "internalType": "address",
          "name": "",
          "type": "address"
        },
        {
          "internalType": "address",
          "name": "",
          "type": "address"
        },
        {
          "internalType": "uint256[]",
          "name": "",
          "type": "uint256[]"
        },
        {
          "internalType": "uint256[]",
          "name": "",
          "type": "uint256[]"
        },
        {
          "internalType": "bytes",
          "name": "",
          "type": "bytes"
        }
      ],
      "name": "onERC1155BatchReceived",
      "outputs": [
        {
          "internalType": "bytes4",
          "name": "",
          "type": "bytes4"
        }
      ],
      "stateMutability": "nonpayable",
      "type": "function"
    },
    {
      "inputs": [
        {
          "internalType": "address",
          "name": "",
          "type": "address"
        },
        {
          "internalType": "address",
          "name": "",
          "type": "address"
        },
        {
          "internalType": "uint256",
          "name": "",
          "type": "uint256"
        },
        {
          "internalType": "uint256",
          "name": "",
          "type": "uint256"
        },
        {
          "internalType": "bytes",
          "name": "",
          "type": "bytes"
        }
      ],
      "name": "onERC1155Received",
      "outputs": [
        {
          "internalType": "bytes4",
          "name": "",
          "type": "bytes4"
        }
      ],
      "stateMutability": "nonpayable",
      "type": "function"
    },
    {
      "inputs": [],
      "name": "owner",
      "outputs": [
        {
          "internalType": "address",
          "name": "",
          "type": "address"
        }
      ],
      "stateMutability": "view",
      "type": "function"
    },
    {
      "inputs": [],
      "name": "paused",
      "outputs": [
        {
          "internalType": "bool",
          "name": "",
          "type": "bool"
        }
      ],
      "stateMutability": "view",
      "type": "function"
    },
    {
      "inputs": [],
      "name": "renounceOwnership",
      "outputs": [],
      "stateMutability": "nonpayable",
      "type": "function"
    },
    {
      "inputs": [
        {
          "internalType": "uint256",
          "name": "",
          "type": "uint256"
        }
      ],
      "name": "sales",
      "outputs": [
        {
          "internalType": "uint256",
          "name": "saleId",
          "type": "uint256"
        },
        {
          "internalType": "uint256",
          "name": "tokenId",
          "type": "uint256"
        },
        {
          "internalType": "address",
          "name": "seller",
          "type": "address"
        },
        {
          "internalType": "uint256",
          "name": "price",
          "type": "uint256"
        },
        {
          "internalType": "uint256",
          "name": "arrayPosition",
          "type": "uint256"
        },
        {
          "internalType": "enum NFTGamesMarketplace.SaleStatus",
          "name": "status",
          "type": "uint8"
        }
      ],
      "stateMutability": "view",
      "type": "function"
    },
    {
      "inputs": [
        {
          "internalType": "uint256",
          "name": "",
          "type": "uint256"
        }
      ],
      "name": "salesInfo",
      "outputs": [
        {
          "internalType": "uint256",
          "name": "saleId",
          "type": "uint256"
        },
        {
          "internalType": "uint256",
          "name": "tokenId",
          "type": "uint256"
        },
        {
          "internalType": "address",
          "name": "seller",
          "type": "address"
        },
        {
          "internalType": "uint256",
          "name": "price",
          "type": "uint256"
        },
        {
          "internalType": "uint256",
          "name": "arrayPosition",
          "type": "uint256"
        },
        {
          "internalType": "enum NFTGamesMarketplace.SaleStatus",
          "name": "status",
          "type": "uint8"
        }
      ],
      "stateMutability": "view",
      "type": "function"
    },
    {
      "inputs": [
        {
          "internalType": "bytes4",
          "name": "interfaceId",
          "type": "bytes4"
        }
      ],
      "name": "supportsInterface",
      "outputs": [
        {
          "internalType": "bool",
          "name": "",
          "type": "bool"
        }
      ],
      "stateMutability": "view",
      "type": "function"
    },
    {
      "inputs": [
        {
          "internalType": "address",
          "name": "newOwner",
          "type": "address"
        }
      ],
      "name": "transferOwnership",
      "outputs": [],
      "stateMutability": "nonpayable",
      "type": "function"
    },
    {
      "inputs": [
        {
          "internalType": "uint256",
          "name": "tokenId",
          "type": "uint256"
        },
        {
          "internalType": "uint256",
          "name": "price",
          "type": "uint256"
        }
      ],
      "name": "createSale",
      "outputs": [],
      "stateMutability": "payable",
      "type": "function"
    },
    {
      "inputs": [
        {
          "internalType": "uint256",
          "name": "saleId",
          "type": "uint256"
        }
      ],
      "name": "cancelSale",
      "outputs": [],
      "stateMutability": "payable",
      "type": "function"
    },
    {
      "inputs": [
        {
          "internalType": "uint256",
          "name": "saleId",
          "type": "uint256"
        }
      ],
      "name": "purchaseFromMarketplace",
      "outputs": [],
      "stateMutability": "payable",
      "type": "function"
    },
    {
      "inputs": [],
      "name": "getGamesForSale",
      "outputs": [
        {
          "components": [
            {
              "internalType": "uint256",
              "name": "saleId",
              "type": "uint256"
            },
            {
              "internalType": "uint256",
              "name": "tokenId",
              "type": "uint256"
            },
            {
              "internalType": "address",
              "name": "seller",
              "type": "address"
            },
            {
              "internalType": "uint256",
              "name": "price",
              "type": "uint256"
            },
            {
              "internalType": "uint256",
              "name": "arrayPosition",
              "type": "uint256"
            },
            {
              "internalType": "enum NFTGamesMarketplace.SaleStatus",
              "name": "status",
              "type": "uint8"
            }
          ],
          "internalType": "struct NFTGamesMarketplace.Sale[]",
          "name": "",
          "type": "tuple[]"
        }
      ],
      "stateMutability": "view",
      "type": "function"
    },
    {
      "inputs": [
        {
          "internalType": "uint256",
          "name": "saleId",
          "type": "uint256"
        },
        {
          "internalType": "uint256",
          "name": "newPrice",
          "type": "uint256"
        }
      ],
      "name": "updateSalePrice",
      "outputs": [],
      "stateMutability": "nonpayable",
      "type": "function"
    },
    {
      "inputs": [
        {
          "internalType": "uint256",
          "name": "_commissionPercentage",
          "type": "uint256"
        }
      ],
      "name": "setCommissionPercentage",
      "outputs": [],
      "stateMutability": "nonpayable",
      "type": "function"
    },
    {
      "inputs": [],
      "name": "getCommissionPercentage",
      "outputs": [
        {
          "internalType": "uint256",
          "name": "",
          "type": "uint256"
        }
      ],
      "stateMutability": "view",
      "type": "function"
    }
  ],
  "bytecode": "0x6080604052600060035560056004553480156200001b57600080fd5b506040516200379438038062003794833981810160405281019062000041919062000201565b6200006162000055620000cb60201b60201c565b620000d360201b60201c565b600180819055506000600260006101000a81548160ff02191690831515021790555080600260016101000a81548173ffffffffffffffffffffffffffffffffffffffff021916908373ffffffffffffffffffffffffffffffffffffffff1602179055505062000233565b600033905090565b60008060009054906101000a900473ffffffffffffffffffffffffffffffffffffffff169050816000806101000a81548173ffffffffffffffffffffffffffffffffffffffff021916908373ffffffffffffffffffffffffffffffffffffffff1602179055508173ffffffffffffffffffffffffffffffffffffffff168173ffffffffffffffffffffffffffffffffffffffff167f8be0079c531659141344cd1fd0a4f28419497f9722a3daafe3b4186f6b6457e060405160405180910390a35050565b600080fd5b600073ffffffffffffffffffffffffffffffffffffffff82169050919050565b6000620001c9826200019c565b9050919050565b620001db81620001bc565b8114620001e757600080fd5b50565b600081519050620001fb81620001d0565b92915050565b6000602082840312156200021a576200021962000197565b5b60006200022a84828501620001ea565b91505092915050565b61355180620002436000396000f3fe6080604052600436106101095760003560e01c80638da5cb5b11610095578063bd94b00511610064578063bd94b00514610359578063d575fe6414610375578063deb077b9146103a0578063f23a6e61146103cb578063f2fde38b1461040857610109565b80638da5cb5b14610284578063a5dbd814146102af578063b5f522f7146102da578063bc197c811461031c57610109565b80635c975abb116100dc5780635c975abb146101df5780636019061b1461020a578063715018a614610226578063726da5af1461023d578063814646871461026857610109565b806301ffc9a71461010e578063351c38961461014b57806339b87c8f1461018d5780634896672e146101b6575b600080fd5b34801561011a57600080fd5b5061013560048036038101906101309190612254565b610431565b604051610142919061229c565b60405180910390f35b34801561015757600080fd5b50610172600480360381019061016d91906122ed565b6104ab565b604051610184969594939291906123e1565b60405180910390f35b34801561019957600080fd5b506101b460048036038101906101af91906122ed565b610514565b005b3480156101c257600080fd5b506101dd60048036038101906101d89190612442565b6105ae565b005b3480156101eb57600080fd5b506101f46107b3565b604051610201919061229c565b60405180910390f35b610224600480360381019061021f9190612442565b6107ca565b005b34801561023257600080fd5b5061023b610bec565b005b34801561024957600080fd5b50610252610c00565b60405161025f91906125d9565b60405180910390f35b610282600480360381019061027d91906122ed565b610e8b565b005b34801561029057600080fd5b50610299611634565b6040516102a691906125fb565b60405180910390f35b3480156102bb57600080fd5b506102c461165d565b6040516102d19190612616565b60405180910390f35b3480156102e657600080fd5b5061030160048036038101906102fc91906122ed565b611667565b604051610313969594939291906123e1565b60405180910390f35b34801561032857600080fd5b50610343600480360381019061033e919061286b565b6116e0565b6040516103509190612949565b60405180910390f35b610373600480360381019061036e91906122ed565b6116f5565b005b34801561038157600080fd5b5061038a611d6c565b6040516103979190612616565b60405180910390f35b3480156103ac57600080fd5b506103b5611d72565b6040516103c29190612616565b60405180910390f35b3480156103d757600080fd5b506103f260048036038101906103ed9190612964565b611d78565b6040516103ff9190612949565b60405180910390f35b34801561041457600080fd5b5061042f600480360381019061042a91906129fb565b611d8d565b005b60007f4e2312e0000000000000000000000000000000000000000000000000000000007bffffffffffffffffffffffffffffffffffffffffffffffffffffffff1916827bffffffffffffffffffffffffffffffffffffffffffffffffffffffff191614806104a457506104a382611e10565b5b9050919050565b60056020528060005260406000206000915090508060000154908060010154908060020160009054906101000a900473ffffffffffffffffffffffffffffffffffffffff16908060030154908060040154908060050160009054906101000a900460ff16905086565b61051c611e7a565b6000811015801561052e575060648111155b61056d576040517f08c379a000000000000000000000000000000000000000000000000000000000815260040161056490612a85565b60405180910390fd5b806004819055507f13f60dd2b588490608c3ff1932a3daeb4087f3d5af04b97e5c2a16b5b4c0302e816040516105a39190612616565b60405180910390a150565b60008210156105f2576040517f08c379a00000000000000000000000000000000000000000000000000000000081526004016105e990612af1565b60405180910390fd5b60008111610635576040517f08c379a000000000000000000000000000000000000000000000000000000000815260040161062c90612b5d565b60405180910390fd5b60006005600084815260200190815260200160002090503373ffffffffffffffffffffffffffffffffffffffff168160020160009054906101000a900473ffffffffffffffffffffffffffffffffffffffff1673ffffffffffffffffffffffffffffffffffffffff16146106de576040517f08c379a00000000000000000000000000000000000000000000000000000000081526004016106d590612bc9565b60405180910390fd5b600060028111156106f2576106f161236a565b5b8160050160009054906101000a900460ff1660028111156107165761071561236a565b5b14610756576040517f08c379a000000000000000000000000000000000000000000000000000000000815260040161074d90612c35565b60405180910390fd5b8181600301819055503373ffffffffffffffffffffffffffffffffffffffff16837f9bbf54fc7ff6f67d3c4b11a11099fa5d5b6def97d72a570633e56032f18b1222846040516107a69190612616565b60405180910390a3505050565b6000600260009054906101000a900460ff16905090565b6107d2611ef8565b6107da611f47565b6000600260019054906101000a900473ffffffffffffffffffffffffffffffffffffffff1673ffffffffffffffffffffffffffffffffffffffff1662fdd58e33856040518363ffffffff1660e01b8152600401610838929190612c55565b602060405180830381865afa158015610855573d6000803e3d6000fd5b505050506040513d601f19601f820116820180604052508101906108799190612c93565b116108b9576040517f08c379a00000000000000000000000000000000000000000000000000000000081526004016108b090612d0c565b60405180910390fd5b600081116108fc576040517f08c379a00000000000000000000000000000000000000000000000000000000081526004016108f390612b5d565b60405180910390fd5b61090582611f91565b15610945576040517f08c379a000000000000000000000000000000000000000000000000000000000815260040161093c90612d78565b60405180910390fd5b600260019054906101000a900473ffffffffffffffffffffffffffffffffffffffff1673ffffffffffffffffffffffffffffffffffffffff1663f242432a33308560016040518563ffffffff1660e01b81526004016109a79493929190612e14565b600060405180830381600087803b1580156109c157600080fd5b505af11580156109d5573d6000803e3d6000fd5b50505050600060035490506109f6600160035461205d90919063ffffffff16565b60038190555060006040518060c001604052808381526020018581526020013373ffffffffffffffffffffffffffffffffffffffff168152602001848152602001600680549050815260200160006002811115610a5657610a5561236a565b5b81525090506006819080600181540180825580915050600190039060005260206000209060060201600090919091909150600082015181600001556020820151816001015560408201518160020160006101000a81548173ffffffffffffffffffffffffffffffffffffffff021916908373ffffffffffffffffffffffffffffffffffffffff160217905550606082015181600301556080820151816004015560a08201518160050160006101000a81548160ff02191690836002811115610b2157610b2061236a565b5b021790555050508060056000848152602001908152602001600020600082015181600001556020820151816001015560408201518160020160006101000a81548173ffffffffffffffffffffffffffffffffffffffff021916908373ffffffffffffffffffffffffffffffffffffffff160217905550606082015181600301556080820151816004015560a08201518160050160006101000a81548160ff02191690836002811115610bd657610bd561236a565b5b02179055509050505050610be8612073565b5050565b610bf4611e7a565b610bfe600061207c565b565b60606000805b600680549050811015610c935760006002811115610c2757610c2661236a565b5b60068281548110610c3b57610c3a612e6c565b5b906000526020600020906006020160050160009054906101000a900460ff166002811115610c6c57610c6b61236a565b5b03610c80578180610c7c90612eca565b9250505b8080610c8b90612eca565b915050610c06565b5060008167ffffffffffffffff811115610cb057610caf612673565b5b604051908082528060200260200182016040528015610ce957816020015b610cd661218a565b815260200190600190039081610cce5790505b5090506000805b600680549050811015610e815760006002811115610d1157610d1061236a565b5b60068281548110610d2557610d24612e6c565b5b906000526020600020906006020160050160009054906101000a900460ff166002811115610d5657610d5561236a565b5b03610e6e5760068181548110610d6f57610d6e612e6c565b5b90600052602060002090600602016040518060c001604052908160008201548152602001600182015481526020016002820160009054906101000a900473ffffffffffffffffffffffffffffffffffffffff1673ffffffffffffffffffffffffffffffffffffffff1673ffffffffffffffffffffffffffffffffffffffff16815260200160038201548152602001600482015481526020016005820160009054906101000a900460ff166002811115610e2b57610e2a61236a565b5b6002811115610e3d57610e3c61236a565b5b81525050838381518110610e5457610e53612e6c565b5b60200260200101819052508180610e6a90612eca565b9250505b8080610e7990612eca565b915050610cf0565b5081935050505090565b610e93611f47565b6000811015610ed7576040517f08c379a0000000000000000000000000000000000000000000000000000000008152600401610ece90612f5e565b60405180910390fd5b6000600560008381526020019081526020016000209050600280811115610f0157610f0061236a565b5b8160050160009054906101000a900460ff166002811115610f2557610f2461236a565b5b03610f65576040517f08c379a0000000000000000000000000000000000000000000000000000000008152600401610f5c90612ff0565b60405180910390fd5b60016002811115610f7957610f7861236a565b5b8160050160009054906101000a900460ff166002811115610f9d57610f9c61236a565b5b03610fdd576040517f08c379a0000000000000000000000000000000000000000000000000000000008152600401610fd49061305c565b60405180910390fd5b8060030154341015611024576040517f08c379a000000000000000000000000000000000000000000000000000000000815260040161101b906130c8565b60405180910390fd5b60068054905081600401541061106f576040517f08c379a00000000000000000000000000000000000000000000000000000000081526004016110669061315a565b60405180910390fd5b6000600682600401548154811061108957611088612e6c565b5b90600052602060002090600602016040518060c001604052908160008201548152602001600182015481526020016002820160009054906101000a900473ffffffffffffffffffffffffffffffffffffffff1673ffffffffffffffffffffffffffffffffffffffff1673ffffffffffffffffffffffffffffffffffffffff16815260200160038201548152602001600482015481526020016005820160009054906101000a900460ff1660028111156111455761114461236a565b5b60028111156111575761115661236a565b5b81525050905080600001518260000154146111a7576040517f08c379a000000000000000000000000000000000000000000000000000000000815260040161119e906131ec565b60405180910390fd5b60018260050160006101000a81548160ff021916908360028111156111cf576111ce61236a565b5b021790555060016006805490506111e6919061320c565b8260040154101561135057600060066001600680549050611207919061320c565b8154811061121857611217612e6c565b5b9060005260206000209060060201905082600401548160040181905550826004015460056000836000015481526020019081526020016000206004018190555080600684600401548154811061127157611270612e6c565b5b906000526020600020906006020160008201548160000155600182015481600101556002820160009054906101000a900473ffffffffffffffffffffffffffffffffffffffff168160020160006101000a81548173ffffffffffffffffffffffffffffffffffffffff021916908373ffffffffffffffffffffffffffffffffffffffff16021790555060038201548160030155600482015481600401556005820160009054906101000a900460ff168160050160006101000a81548160ff021916908360028111156113465761134561236a565b5b0217905550905050505b600680548061136257611361613240565b5b600190038181906000526020600020906006020160008082016000905560018201600090556002820160006101000a81549073ffffffffffffffffffffffffffffffffffffffff0219169055600382016000905560048201600090556005820160006101000a81549060ff021916905550509055600260019054906101000a900473ffffffffffffffffffffffffffffffffffffffff1673ffffffffffffffffffffffffffffffffffffffff1663f242432a3033856001015460016040518563ffffffff1660e01b815260040161143c9493929190612e14565b600060405180830381600087803b15801561145657600080fd5b505af115801561146a573d6000803e3d6000fd5b50505050600061149c606461148e600454866003015461214090919063ffffffff16565b61215690919063ffffffff16565b905060006114b782856003015461216c90919063ffffffff16565b90508360020160009054906101000a900473ffffffffffffffffffffffffffffffffffffffff1673ffffffffffffffffffffffffffffffffffffffff166108fc829081150290604051600060405180830381858888f19350505050158015611523573d6000803e3d6000fd5b5061152c611634565b73ffffffffffffffffffffffffffffffffffffffff166108fc839081150290604051600060405180830381858888f19350505050158015611571573d6000803e3d6000fd5b5083600301543411156115d5573373ffffffffffffffffffffffffffffffffffffffff166108fc8560030154346115a8919061320c565b9081150290604051600060405180830381858888f193505050501580156115d3573d6000803e3d6000fd5b505b3373ffffffffffffffffffffffffffffffffffffffff168460010154867f8e6b318531fe50ff45fb53965093ee54fd104eb3bb5ed61a979969e5b36bcee087600301546040516116259190612616565b60405180910390a45050505050565b60008060009054906101000a900473ffffffffffffffffffffffffffffffffffffffff16905090565b6000600454905090565b6006818154811061167757600080fd5b90600052602060002090600602016000915090508060000154908060010154908060020160009054906101000a900473ffffffffffffffffffffffffffffffffffffffff16908060030154908060040154908060050160009054906101000a900460ff16905086565b600063bc197c8160e01b905095945050505050565b6116fd611f47565b6000811015611741576040517f08c379a000000000000000000000000000000000000000000000000000000000815260040161173890612af1565b60405180910390fd5b60006005600083815260200190815260200160002090503373ffffffffffffffffffffffffffffffffffffffff168160020160009054906101000a900473ffffffffffffffffffffffffffffffffffffffff1673ffffffffffffffffffffffffffffffffffffffff16146117ea576040517f08c379a00000000000000000000000000000000000000000000000000000000081526004016117e190612bc9565b60405180910390fd5b6002808111156117fd576117fc61236a565b5b8160050160009054906101000a900460ff1660028111156118215761182061236a565b5b03611861576040517f08c379a000000000000000000000000000000000000000000000000000000000815260040161185890612ff0565b60405180910390fd5b600160028111156118755761187461236a565b5b8160050160009054906101000a900460ff1660028111156118995761189861236a565b5b036118d9576040517f08c379a00000000000000000000000000000000000000000000000000000000081526004016118d09061305c565b60405180910390fd5b600680549050816004015410611924576040517f08c379a000000000000000000000000000000000000000000000000000000000815260040161191b9061315a565b60405180910390fd5b6000600682600401548154811061193e5761193d612e6c565b5b90600052602060002090600602016040518060c001604052908160008201548152602001600182015481526020016002820160009054906101000a900473ffffffffffffffffffffffffffffffffffffffff1673ffffffffffffffffffffffffffffffffffffffff1673ffffffffffffffffffffffffffffffffffffffff16815260200160038201548152602001600482015481526020016005820160009054906101000a900460ff1660028111156119fa576119f961236a565b5b6002811115611a0c57611a0b61236a565b5b8152505090508060000151826000015414611a5c576040517f08c379a0000000000000000000000000000000000000000000000000000000008152600401611a53906131ec565b60405180910390fd5b60028260050160006101000a81548160ff02191690836002811115611a8457611a8361236a565b5b02179055506001600680549050611a9b919061320c565b82600401541015611c0557600060066001600680549050611abc919061320c565b81548110611acd57611acc612e6c565b5b90600052602060002090600602019050826004015481600401819055508260040154600560008360000154815260200190815260200160002060040181905550806006846004015481548110611b2657611b25612e6c565b5b906000526020600020906006020160008201548160000155600182015481600101556002820160009054906101000a900473ffffffffffffffffffffffffffffffffffffffff168160020160006101000a81548173ffffffffffffffffffffffffffffffffffffffff021916908373ffffffffffffffffffffffffffffffffffffffff16021790555060038201548160030155600482015481600401556005820160009054906101000a900460ff168160050160006101000a81548160ff02191690836002811115611bfb57611bfa61236a565b5b0217905550905050505b6006805480611c1757611c16613240565b5b600190038181906000526020600020906006020160008082016000905560018201600090556002820160006101000a81549073ffffffffffffffffffffffffffffffffffffffff0219169055600382016000905560048201600090556005820160006101000a81549060ff021916905550509055600260019054906101000a900473ffffffffffffffffffffffffffffffffffffffff1673ffffffffffffffffffffffffffffffffffffffff1663f242432a3033856001015460016040518563ffffffff1660e01b8152600401611cf19493929190612e14565b600060405180830381600087803b158015611d0b57600080fd5b505af1158015611d1f573d6000803e3d6000fd5b505050503373ffffffffffffffffffffffffffffffffffffffff16837fc17a2000b952093a1b49de547dc3416f2a96f6d78da5b597d5ee0272b6be70e960405160405180910390a3505050565b60045481565b60035481565b600063f23a6e6160e01b905095945050505050565b611d95611e7a565b600073ffffffffffffffffffffffffffffffffffffffff168173ffffffffffffffffffffffffffffffffffffffff1603611e04576040517f08c379a0000000000000000000000000000000000000000000000000000000008152600401611dfb906132e1565b60405180910390fd5b611e0d8161207c565b50565b60007f01ffc9a7000000000000000000000000000000000000000000000000000000007bffffffffffffffffffffffffffffffffffffffffffffffffffffffff1916827bffffffffffffffffffffffffffffffffffffffffffffffffffffffff1916149050919050565b611e82612182565b73ffffffffffffffffffffffffffffffffffffffff16611ea0611634565b73ffffffffffffffffffffffffffffffffffffffff1614611ef6576040517f08c379a0000000000000000000000000000000000000000000000000000000008152600401611eed9061334d565b60405180910390fd5b565b600260015403611f3d576040517f08c379a0000000000000000000000000000000000000000000000000000000008152600401611f34906133b9565b60405180910390fd5b6002600181905550565b611f4f6107b3565b15611f8f576040517f08c379a0000000000000000000000000000000000000000000000000000000008152600401611f8690613425565b60405180910390fd5b565b600080600090505b600680549050811015612052578260068281548110611fbb57611fba612e6c565b5b906000526020600020906006020160010154148015612030575060006002811115611fe957611fe861236a565b5b60068281548110611ffd57611ffc612e6c565b5b906000526020600020906006020160050160009054906101000a900460ff16600281111561202e5761202d61236a565b5b145b1561203f576001915050612058565b808061204a90612eca565b915050611f99565b50600090505b919050565b6000818361206b9190613445565b905092915050565b60018081905550565b60008060009054906101000a900473ffffffffffffffffffffffffffffffffffffffff169050816000806101000a81548173ffffffffffffffffffffffffffffffffffffffff021916908373ffffffffffffffffffffffffffffffffffffffff1602179055508173ffffffffffffffffffffffffffffffffffffffff168173ffffffffffffffffffffffffffffffffffffffff167f8be0079c531659141344cd1fd0a4f28419497f9722a3daafe3b4186f6b6457e060405160405180910390a35050565b6000818361214e9190613479565b905092915050565b6000818361216491906134ea565b905092915050565b6000818361217a919061320c565b905092915050565b600033905090565b6040518060c001604052806000815260200160008152602001600073ffffffffffffffffffffffffffffffffffffffff1681526020016000815260200160008152602001600060028111156121e2576121e161236a565b5b81525090565b6000604051905090565b600080fd5b600080fd5b60007fffffffff0000000000000000000000000000000000000000000000000000000082169050919050565b612231816121fc565b811461223c57600080fd5b50565b60008135905061224e81612228565b92915050565b60006020828403121561226a576122696121f2565b5b60006122788482850161223f565b91505092915050565b60008115159050919050565b61229681612281565b82525050565b60006020820190506122b1600083018461228d565b92915050565b6000819050919050565b6122ca816122b7565b81146122d557600080fd5b50565b6000813590506122e7816122c1565b92915050565b600060208284031215612303576123026121f2565b5b6000612311848285016122d8565b91505092915050565b612323816122b7565b82525050565b600073ffffffffffffffffffffffffffffffffffffffff82169050919050565b600061235482612329565b9050919050565b61236481612349565b82525050565b7f4e487b7100000000000000000000000000000000000000000000000000000000600052602160045260246000fd5b600381106123aa576123a961236a565b5b50565b60008190506123bb82612399565b919050565b60006123cb826123ad565b9050919050565b6123db816123c0565b82525050565b600060c0820190506123f6600083018961231a565b612403602083018861231a565b612410604083018761235b565b61241d606083018661231a565b61242a608083018561231a565b61243760a08301846123d2565b979650505050505050565b60008060408385031215612459576124586121f2565b5b6000612467858286016122d8565b9250506020612478858286016122d8565b9150509250929050565b600081519050919050565b600082825260208201905092915050565b6000819050602082019050919050565b6124b7816122b7565b82525050565b6124c681612349565b82525050565b6124d5816123c0565b82525050565b60c0820160008201516124f160008501826124ae565b50602082015161250460208501826124ae565b50604082015161251760408501826124bd565b50606082015161252a60608501826124ae565b50608082015161253d60808501826124ae565b5060a082015161255060a08501826124cc565b50505050565b600061256283836124db565b60c08301905092915050565b6000602082019050919050565b600061258682612482565b612590818561248d565b935061259b8361249e565b8060005b838110156125cc5781516125b38882612556565b97506125be8361256e565b92505060018101905061259f565b5085935050505092915050565b600060208201905081810360008301526125f3818461257b565b905092915050565b6000602082019050612610600083018461235b565b92915050565b600060208201905061262b600083018461231a565b92915050565b61263a81612349565b811461264557600080fd5b50565b60008135905061265781612631565b92915050565b600080fd5b6000601f19601f8301169050919050565b7f4e487b7100000000000000000000000000000000000000000000000000000000600052604160045260246000fd5b6126ab82612662565b810181811067ffffffffffffffff821117156126ca576126c9612673565b5b80604052505050565b60006126dd6121e8565b90506126e982826126a2565b919050565b600067ffffffffffffffff82111561270957612708612673565b5b602082029050602081019050919050565b600080fd5b600061273261272d846126ee565b6126d3565b905080838252602082019050602084028301858111156127555761275461271a565b5b835b8181101561277e578061276a88826122d8565b845260208401935050602081019050612757565b5050509392505050565b600082601f83011261279d5761279c61265d565b5b81356127ad84826020860161271f565b91505092915050565b600080fd5b600067ffffffffffffffff8211156127d6576127d5612673565b5b6127df82612662565b9050602081019050919050565b82818337600083830152505050565b600061280e612809846127bb565b6126d3565b90508281526020810184848401111561282a576128296127b6565b5b6128358482856127ec565b509392505050565b600082601f8301126128525761285161265d565b5b81356128628482602086016127fb565b91505092915050565b600080600080600060a08688031215612887576128866121f2565b5b600061289588828901612648565b95505060206128a688828901612648565b945050604086013567ffffffffffffffff8111156128c7576128c66121f7565b5b6128d388828901612788565b935050606086013567ffffffffffffffff8111156128f4576128f36121f7565b5b61290088828901612788565b925050608086013567ffffffffffffffff811115612921576129206121f7565b5b61292d8882890161283d565b9150509295509295909350565b612943816121fc565b82525050565b600060208201905061295e600083018461293a565b92915050565b600080600080600060a086880312156129805761297f6121f2565b5b600061298e88828901612648565b955050602061299f88828901612648565b94505060406129b0888289016122d8565b93505060606129c1888289016122d8565b925050608086013567ffffffffffffffff8111156129e2576129e16121f7565b5b6129ee8882890161283d565b9150509295509295909350565b600060208284031215612a1157612a106121f2565b5b6000612a1f84828501612648565b91505092915050565b600082825260208201905092915050565b7f496e76616c696420636f6d6d697373696f6e2070657263656e74616765000000600082015250565b6000612a6f601d83612a28565b9150612a7a82612a39565b602082019050919050565b60006020820190508181036000830152612a9e81612a62565b9050919050565b7f496e76616c69642073616c652069640000000000000000000000000000000000600082015250565b6000612adb600f83612a28565b9150612ae682612aa5565b602082019050919050565b60006020820190508181036000830152612b0a81612ace565b9050919050565b7f546865207072696365206d75737420626520706f736974697665000000000000600082015250565b6000612b47601a83612a28565b9150612b5282612b11565b602082019050919050565b60006020820190508181036000830152612b7681612b3a565b9050919050565b7f596f7520617265206e6f74207468652073656c6c657200000000000000000000600082015250565b6000612bb3601683612a28565b9150612bbe82612b7d565b602082019050919050565b60006020820190508181036000830152612be281612ba6565b9050919050565b7f5468652073616c65206973206e6f742061637469766500000000000000000000600082015250565b6000612c1f601683612a28565b9150612c2a82612be9565b602082019050919050565b60006020820190508181036000830152612c4e81612c12565b9050919050565b6000604082019050612c6a600083018561235b565b612c77602083018461231a565b9392505050565b600081519050612c8d816122c1565b92915050565b600060208284031215612ca957612ca86121f2565b5b6000612cb784828501612c7e565b91505092915050565b7f596f7520646f6e2774206f776e2074686973204e465400000000000000000000600082015250565b6000612cf6601683612a28565b9150612d0182612cc0565b602082019050919050565b60006020820190508181036000830152612d2581612ce9565b9050919050565b7f546f6b656e20697320616c7265616479206f6e2073616c650000000000000000600082015250565b6000612d62601883612a28565b9150612d6d82612d2c565b602082019050919050565b60006020820190508181036000830152612d9181612d55565b9050919050565b6000819050919050565b6000819050919050565b6000612dc7612dc2612dbd84612d98565b612da2565b6122b7565b9050919050565b612dd781612dac565b82525050565b600082825260208201905092915050565b50565b6000612dfe600083612ddd565b9150612e0982612dee565b600082019050919050565b600060a082019050612e29600083018761235b565b612e36602083018661235b565b612e43604083018561231a565b612e506060830184612dce565b8181036080830152612e6181612df1565b905095945050505050565b7f4e487b7100000000000000000000000000000000000000000000000000000000600052603260045260246000fd5b7f4e487b7100000000000000000000000000000000000000000000000000000000600052601160045260246000fd5b6000612ed5826122b7565b91507fffffffffffffffffffffffffffffffffffffffffffffffffffffffffffffffff8203612f0757612f06612e9b565b5b600182019050919050565b7f4976616c69642073616c65206964000000000000000000000000000000000000600082015250565b6000612f48600e83612a28565b9150612f5382612f12565b602082019050919050565b60006020820190508181036000830152612f7781612f3b565b9050919050565b7f5468652073616c652068617320616c7265616479206265656e2063616e63656c60008201527f6564000000000000000000000000000000000000000000000000000000000000602082015250565b6000612fda602283612a28565b9150612fe582612f7e565b604082019050919050565b6000602082019050818103600083015261300981612fcd565b9050919050565b7f5468652073616c6520686173206265656e20736f6c6400000000000000000000600082015250565b6000613046601683612a28565b915061305182613010565b602082019050919050565b6000602082019050818103600083015261307581613039565b9050919050565b7f496e73756666696369656e742066756e64730000000000000000000000000000600082015250565b60006130b2601283612a28565b91506130bd8261307c565b602082019050919050565b600060208201905081810360008301526130e1816130a5565b9050919050565b7f537472616e6765206572726f722c20636f6e7461637420776974682061646d6960008201527f6e6973747261746f727320283129000000000000000000000000000000000000602082015250565b6000613144602e83612a28565b915061314f826130e8565b604082019050919050565b6000602082019050818103600083015261317381613137565b9050919050565b7f537472616e6765206572726f722c20636f6e7461637420776974682061646d6960008201527f6e6973747261746f727320283229000000000000000000000000000000000000602082015250565b60006131d6602e83612a28565b91506131e18261317a565b604082019050919050565b60006020820190508181036000830152613205816131c9565b9050919050565b6000613217826122b7565b9150613222836122b7565b925082820390508181111561323a57613239612e9b565b5b92915050565b7f4e487b7100000000000000000000000000000000000000000000000000000000600052603160045260246000fd5b7f4f776e61626c653a206e6577206f776e657220697320746865207a65726f206160008201527f6464726573730000000000000000000000000000000000000000000000000000602082015250565b60006132cb602683612a28565b91506132d68261326f565b604082019050919050565b600060208201905081810360008301526132fa816132be565b9050919050565b7f4f776e61626c653a2063616c6c6572206973206e6f7420746865206f776e6572600082015250565b6000613337602083612a28565b915061334282613301565b602082019050919050565b600060208201905081810360008301526133668161332a565b9050919050565b7f5265656e7472616e637947756172643a207265656e7472616e742063616c6c00600082015250565b60006133a3601f83612a28565b91506133ae8261336d565b602082019050919050565b600060208201905081810360008301526133d281613396565b9050919050565b7f5061757361626c653a2070617573656400000000000000000000000000000000600082015250565b600061340f601083612a28565b915061341a826133d9565b602082019050919050565b6000602082019050818103600083015261343e81613402565b9050919050565b6000613450826122b7565b915061345b836122b7565b925082820190508082111561347357613472612e9b565b5b92915050565b6000613484826122b7565b915061348f836122b7565b925082820261349d816122b7565b915082820484148315176134b4576134b3612e9b565b5b5092915050565b7f4e487b7100000000000000000000000000000000000000000000000000000000600052601260045260246000fd5b60006134f5826122b7565b9150613500836122b7565b9250826135105761350f6134bb565b5b82820490509291505056fea264697066735822122099551de0d38e770073268da8e09375cec4da0b17253190311ab6ee5de6aff32b64736f6c63430008130033",
  "immutableReferences": {},
  "source": "// SPDX-License-Identifier: MIT\r\npragma solidity >=0.8.0 <0.9.0;\r\n\r\nimport \"@openzeppelin/contracts/token/ERC1155/ERC1155.sol\";\r\nimport \"@openzeppelin/contracts/token/ERC1155/extensions/ERC1155URIStorage.sol\";\r\nimport \"@openzeppelin/contracts/token/ERC1155/utils/ERC1155Holder.sol\";\r\nimport \"@openzeppelin/contracts/access/Ownable.sol\";\r\nimport \"@openzeppelin/contracts/utils/structs/EnumerableSet.sol\";\r\nimport \"@openzeppelin/contracts/utils/math/SafeMath.sol\";\r\nimport \"@openzeppelin/contracts/security/ReentrancyGuard.sol\";\r\nimport \"@openzeppelin/contracts/security/Pausable.sol\";\r\nimport \"./TOKENPLAY.sol\";\r\n\r\ncontract NFTGamesMarketplace is Ownable, ERC1155Holder, ReentrancyGuard, Pausable {\r\n    using SafeMath for uint256;\r\n    using EnumerableSet for EnumerableSet.UintSet;\r\n\r\n    TOKENPLAY private nftContract; // Referencia al contrato original\r\n\r\n    constructor(address _nftContract) {\r\n        nftContract = TOKENPLAY(_nftContract);\r\n    }\r\n\r\n    // Contador autoincremental, cada nmero ser una venta\r\n    uint256 public nextSaleId = 0;\r\n    // % royalties\r\n    uint256 public commissionPercentage = 5;\r\n\r\n    // Enum para el estado de la venta\r\n    enum SaleStatus { Listed, Sold, Canceled }\r\n\r\n    // Estructura para poner a la venta un juego\r\n    struct Sale {\r\n        uint256 saleId;\r\n        uint256 tokenId;\r\n        address seller;\r\n        uint256 price;\r\n        uint256 arrayPosition;\r\n        SaleStatus status;\r\n    }\r\n\r\n    mapping(uint256 => Sale) public salesInfo;\r\n    Sale[] public sales;\r\n\r\n    // EVENTOS\r\n    // Publicacin de la venta de un juego\r\n    event SaleCreated(uint256 indexed saleId, uint256 indexed tokenId, address indexed seller, uint256 price);\r\n    // Cancelacin de una publicacin\r\n    event SaleCanceled(uint256 indexed saleId, address indexed seller);\r\n    // Cuando alguien compra un juego en el mercado\r\n    event GamePurchasedFromMarketplace(uint256 indexed saleId, uint256 indexed tokenId, address indexed buyer, uint256 purchasePrice);\r\n    // Modificar precio de venta\r\n    event SalePriceUpdated(uint256 indexed saleId, uint256 newPrice, address indexed seller);\r\n    // Modificar % royalty\r\n    event CommissionUpdated(uint256 newCommissionPercentage);\r\n\r\n    // Crear una venta de juego\r\n    function createSale(uint256 tokenId, uint256 price) external payable nonReentrant whenNotPaused {\r\n        require(nftContract.balanceOf(msg.sender, tokenId) > 0, \"You don't own this NFT\");\r\n        require(price > 0, \"The price must be positive\");\r\n        require(!isTokenOnSale(tokenId), \"Token is already on sale\");\r\n\r\n        nftContract.safeTransferFrom(msg.sender, address(this), tokenId, 1, \"\");\r\n\r\n        uint256 saleId = nextSaleId;\r\n        nextSaleId = nextSaleId.add(1);\r\n\r\n        Sale memory sale = Sale({saleId: saleId, tokenId: tokenId, seller: msg.sender, price: price, arrayPosition: sales.length, status: SaleStatus.Listed});\r\n        sales.push(sale);\r\n        salesInfo[saleId] = sale;\r\n    }\r\n\r\n    function isTokenOnSale(uint256 tokenId) internal view returns (bool) {\r\n        for (uint256 i = 0; i < sales.length; i++) {\r\n            if (sales[i].tokenId == tokenId && sales[i].status == SaleStatus.Listed) {\r\n                return true;\r\n            }\r\n        }\r\n        return false;\r\n    }\r\n\r\n    function cancelSale(uint256 saleId) payable external whenNotPaused {\r\n        require(saleId >= 0, \"Invalid sale id\");\r\n\r\n        Sale storage saleMapping = salesInfo[saleId];\r\n        require(saleMapping.seller == msg.sender, \"You are not the seller\");\r\n        require(saleMapping.status != SaleStatus.Canceled, \"The sale has already been canceled\");\r\n        require(saleMapping.status != SaleStatus.Sold, \"The sale has been sold\");\r\n        require(saleMapping.arrayPosition < sales.length, \"Strange error, contact with administrators (1)\");\r\n\r\n        Sale memory saleArray = sales[saleMapping.arrayPosition];\r\n        require(saleMapping.saleId == saleArray.saleId, \"Strange error, contact with administrators (2)\");\r\n\r\n        saleMapping.status = SaleStatus.Canceled;\r\n        // Reorganizar el array moviendo el ltimo elemento al lugar del elemento eliminado\r\n        if (saleMapping.arrayPosition < sales.length - 1) {\r\n            Sale storage lastSale = sales[sales.length - 1];\r\n\r\n            // Actualizamos posiciones\r\n            lastSale.arrayPosition = saleMapping.arrayPosition;\r\n            salesInfo[lastSale.saleId].arrayPosition = saleMapping.arrayPosition;\r\n\r\n            // Guardamos elemento en la nueva posicin del array\r\n            sales[saleMapping.arrayPosition] = lastSale;\r\n        }\r\n        sales.pop();\r\n\r\n        nftContract.safeTransferFrom(address(this), msg.sender, saleMapping.tokenId, 1, \"\");\r\n        emit SaleCanceled(saleId, msg.sender);\r\n    }\r\n\r\n    function purchaseFromMarketplace(uint256 saleId) external payable whenNotPaused {\r\n        require(saleId >= 0, \"Ivalid sale id\");\r\n\r\n        Sale storage saleMapping = salesInfo[saleId];\r\n        require(saleMapping.status != SaleStatus.Canceled, \"The sale has already been canceled\");\r\n        require(saleMapping.status != SaleStatus.Sold, \"The sale has been sold\");\r\n        require(msg.value >= saleMapping.price, \"Insufficient funds\");\r\n        require(saleMapping.arrayPosition < sales.length, \"Strange error, contact with administrators (1)\");\r\n\r\n        Sale memory saleArray = sales[saleMapping.arrayPosition];\r\n        require(saleMapping.saleId == saleArray.saleId, \"Strange error, contact with administrators (2)\");\r\n\r\n        // Reorganizar el array moviendo el ltimo elemento al lugar del elemento eliminado\r\n        saleMapping.status = SaleStatus.Sold;\r\n        if (saleMapping.arrayPosition < sales.length - 1) {\r\n            Sale storage lastSale = sales[sales.length - 1];\r\n\r\n            // Actualizamos posiciones\r\n            lastSale.arrayPosition = saleMapping.arrayPosition;\r\n            salesInfo[lastSale.saleId].arrayPosition = saleMapping.arrayPosition;\r\n\r\n            // Guardamos elemento en la nueva posicin del array\r\n            sales[saleMapping.arrayPosition] = lastSale;\r\n        }\r\n        sales.pop();\r\n\r\n        nftContract.safeTransferFrom(address(this), msg.sender, saleMapping.tokenId, 1, \"\");\r\n\r\n        // Deduccin de la comisin y transferencia al propietario del contrato\r\n        uint256 commissionAmount = saleMapping.price.mul(commissionPercentage).div(100);\r\n        uint256 sellerAmount = saleMapping.price.sub(commissionAmount);\r\n\r\n        payable(saleMapping.seller).transfer(sellerAmount);\r\n        payable(owner()).transfer(commissionAmount);\r\n\r\n        // Si el usuario ha pagado de mas, le devolvemos el dinero\r\n        if (msg.value > saleMapping.price) {\r\n            payable(msg.sender).transfer(msg.value - saleMapping.price);\r\n        }\r\n        emit GamePurchasedFromMarketplace(saleId, saleMapping.tokenId, msg.sender, saleMapping.price);\r\n    }\r\n\r\n    // Funcin para obtener los juegos en venta\r\n    function getGamesForSale() external view returns (Sale[] memory) {\r\n        uint256 activeSalesCount = 0;\r\n\r\n        // Contar la cantidad de ventas activas\r\n        for (uint256 i = 0; i < sales.length; i++) {\r\n            if (sales[i].status == SaleStatus.Listed) {\r\n                activeSalesCount++;\r\n            }\r\n        }\r\n\r\n        // Crear un array para almacenar las ventas activas\r\n        Sale[] memory activeSales = new Sale[](activeSalesCount);\r\n\r\n        // Llenar el array con las ventas activas\r\n        uint256 activeIndex = 0;\r\n        for (uint256 i = 0; i < sales.length; i++) {\r\n            if (sales[i].status == SaleStatus.Listed) {\r\n                activeSales[activeIndex] = sales[i];\r\n                activeIndex++;\r\n            }\r\n        }\r\n\r\n        return activeSales;\r\n    }\r\n\r\n    // Funcin para actualizar el precio de venta\r\n    function updateSalePrice(uint256 saleId, uint256 newPrice) external {\r\n        require(saleId >= 0, \"Invalid sale id\");\r\n        require(newPrice > 0, \"The price must be positive\");\r\n\r\n        Sale storage saleMapping = salesInfo[saleId];\r\n        require(saleMapping.seller == msg.sender, \"You are not the seller\");\r\n        require(saleMapping.status == SaleStatus.Listed, \"The sale is not active\");\r\n    \r\n        saleMapping.price = newPrice;\r\n\r\n        emit SalePriceUpdated(saleId, newPrice, msg.sender);\r\n    }\r\n\r\n    function setCommissionPercentage(uint256 _commissionPercentage) external onlyOwner {\r\n        require(_commissionPercentage >= 0 && _commissionPercentage <= 100, \"Invalid commission percentage\");\r\n        commissionPercentage = _commissionPercentage;\r\n        emit CommissionUpdated(_commissionPercentage);\r\n    }   \r\n\r\n    function getCommissionPercentage() external view returns (uint256) {\r\n        return commissionPercentage;\r\n    }\r\n}\r\n",
  "sourcePath": "C:\\Users\\User\\Desktop\\PC\\2_Master\\BSM_Engineering\\TFM\\DAPP\\dapp\\contracts\\NFTGamesMarketplace.sol",
  "compiler": {
    "name": "solc",
    "version": "0.8.19+commit.7dd6d404.Emscripten.clang"
  },
  "schemaVersion": "3.4.14",
  "updatedAt": "2023-08-24T14:35:16.315Z",
  "devdoc": {
    "events": {
      "Paused(address)": {
        "details": "Emitted when the pause is triggered by `account`."
      },
      "Unpaused(address)": {
        "details": "Emitted when the pause is lifted by `account`."
      }
    },
    "kind": "dev",
    "methods": {
      "owner()": {
        "details": "Returns the address of the current owner."
      },
      "paused()": {
        "details": "Returns true if the contract is paused, and false otherwise."
      },
      "renounceOwnership()": {
        "details": "Leaves the contract without owner. It will not be possible to call `onlyOwner` functions. Can only be called by the current owner. NOTE: Renouncing ownership will leave the contract without an owner, thereby disabling any functionality that is only available to the owner."
      },
      "supportsInterface(bytes4)": {
        "details": "See {IERC165-supportsInterface}."
      },
      "transferOwnership(address)": {
        "details": "Transfers ownership of the contract to a new account (`newOwner`). Can only be called by the current owner."
      }
    },
    "version": 1
  },
  "userdoc": {
    "kind": "user",
    "methods": {},
    "version": 1
  }
}