{
  "contractName": "NFTGames",
  "abi": [
    {
      "inputs": [
        {
          "internalType": "string",
          "name": "_uri",
          "type": "string"
        }
      ],
      "stateMutability": "nonpayable",
      "type": "constructor"
    },
    {
      "anonymous": false,
      "inputs": [
        {
          "indexed": true,
          "internalType": "address",
          "name": "account",
          "type": "address"
        },
        {
          "indexed": true,
          "internalType": "address",
          "name": "operator",
          "type": "address"
        },
        {
          "indexed": false,
          "internalType": "bool",
          "name": "approved",
          "type": "bool"
        }
      ],
      "name": "ApprovalForAll",
      "type": "event"
    },
    {
      "anonymous": false,
      "inputs": [
        {
          "indexed": true,
          "internalType": "address",
          "name": "previousOwner",
          "type": "address"
        },
        {
          "indexed": true,
          "internalType": "address",
          "name": "newOwner",
          "type": "address"
        }
      ],
      "name": "OwnershipTransferred",
      "type": "event"
    },
    {
      "anonymous": false,
      "inputs": [
        {
          "indexed": true,
          "internalType": "address",
          "name": "operator",
          "type": "address"
        },
        {
          "indexed": true,
          "internalType": "address",
          "name": "from",
          "type": "address"
        },
        {
          "indexed": true,
          "internalType": "address",
          "name": "to",
          "type": "address"
        },
        {
          "indexed": false,
          "internalType": "uint256[]",
          "name": "ids",
          "type": "uint256[]"
        },
        {
          "indexed": false,
          "internalType": "uint256[]",
          "name": "values",
          "type": "uint256[]"
        }
      ],
      "name": "TransferBatch",
      "type": "event"
    },
    {
      "anonymous": false,
      "inputs": [
        {
          "indexed": true,
          "internalType": "address",
          "name": "operator",
          "type": "address"
        },
        {
          "indexed": true,
          "internalType": "address",
          "name": "from",
          "type": "address"
        },
        {
          "indexed": true,
          "internalType": "address",
          "name": "to",
          "type": "address"
        },
        {
          "indexed": false,
          "internalType": "uint256",
          "name": "id",
          "type": "uint256"
        },
        {
          "indexed": false,
          "internalType": "uint256",
          "name": "value",
          "type": "uint256"
        }
      ],
      "name": "TransferSingle",
      "type": "event"
    },
    {
      "anonymous": false,
      "inputs": [
        {
          "indexed": false,
          "internalType": "string",
          "name": "value",
          "type": "string"
        },
        {
          "indexed": true,
          "internalType": "uint256",
          "name": "id",
          "type": "uint256"
        }
      ],
      "name": "URI",
      "type": "event"
    },
    {
      "inputs": [
        {
          "internalType": "address",
          "name": "account",
          "type": "address"
        },
        {
          "internalType": "uint256",
          "name": "id",
          "type": "uint256"
        }
      ],
      "name": "balanceOf",
      "outputs": [
        {
          "internalType": "uint256",
          "name": "",
          "type": "uint256"
        }
      ],
      "stateMutability": "view",
      "type": "function"
    },
    {
      "inputs": [
        {
          "internalType": "address[]",
          "name": "accounts",
          "type": "address[]"
        },
        {
          "internalType": "uint256[]",
          "name": "ids",
          "type": "uint256[]"
        }
      ],
      "name": "balanceOfBatch",
      "outputs": [
        {
          "internalType": "uint256[]",
          "name": "",
          "type": "uint256[]"
        }
      ],
      "stateMutability": "view",
      "type": "function"
    },
    {
      "inputs": [
        {
          "internalType": "uint256",
          "name": "",
          "type": "uint256"
        }
      ],
      "name": "gamesInfo",
      "outputs": [
        {
          "internalType": "string",
          "name": "name",
          "type": "string"
        },
        {
          "internalType": "string",
          "name": "description",
          "type": "string"
        },
        {
          "internalType": "string",
          "name": "imageUrl",
          "type": "string"
        },
        {
          "internalType": "uint256",
          "name": "tokenId",
          "type": "uint256"
        },
        {
          "internalType": "uint256",
          "name": "price",
          "type": "uint256"
        },
        {
          "internalType": "address",
          "name": "gameOwnerAddress",
          "type": "address"
        }
      ],
      "stateMutability": "view",
      "type": "function"
    },
    {
      "inputs": [
        {
          "internalType": "address",
          "name": "account",
          "type": "address"
        },
        {
          "internalType": "address",
          "name": "operator",
          "type": "address"
        }
      ],
      "name": "isApprovedForAll",
      "outputs": [
        {
          "internalType": "bool",
          "name": "",
          "type": "bool"
        }
      ],
      "stateMutability": "view",
      "type": "function"
    },
    {
      "inputs": [],
      "name": "mintIsActive",
      "outputs": [
        {
          "internalType": "bool",
          "name": "",
          "type": "bool"
        }
      ],
      "stateMutability": "view",
      "type": "function"
    },
    {
      "inputs": [],
      "name": "nextTokenId",
      "outputs": [
        {
          "internalType": "uint256",
          "name": "",
          "type": "uint256"
        }
      ],
      "stateMutability": "view",
      "type": "function"
    },
    {
      "inputs": [],
      "name": "owner",
      "outputs": [
        {
          "internalType": "address",
          "name": "",
          "type": "address"
        }
      ],
      "stateMutability": "view",
      "type": "function"
    },
    {
      "inputs": [],
      "name": "renounceOwnership",
      "outputs": [],
      "stateMutability": "nonpayable",
      "type": "function"
    },
    {
      "inputs": [],
      "name": "royaltyPercentage",
      "outputs": [
        {
          "internalType": "uint256",
          "name": "",
          "type": "uint256"
        }
      ],
      "stateMutability": "view",
      "type": "function"
    },
    {
      "inputs": [
        {
          "internalType": "address",
          "name": "from",
          "type": "address"
        },
        {
          "internalType": "address",
          "name": "to",
          "type": "address"
        },
        {
          "internalType": "uint256[]",
          "name": "ids",
          "type": "uint256[]"
        },
        {
          "internalType": "uint256[]",
          "name": "amounts",
          "type": "uint256[]"
        },
        {
          "internalType": "bytes",
          "name": "data",
          "type": "bytes"
        }
      ],
      "name": "safeBatchTransferFrom",
      "outputs": [],
      "stateMutability": "nonpayable",
      "type": "function"
    },
    {
      "inputs": [
        {
          "internalType": "address",
          "name": "from",
          "type": "address"
        },
        {
          "internalType": "address",
          "name": "to",
          "type": "address"
        },
        {
          "internalType": "uint256",
          "name": "id",
          "type": "uint256"
        },
        {
          "internalType": "uint256",
          "name": "amount",
          "type": "uint256"
        },
        {
          "internalType": "bytes",
          "name": "data",
          "type": "bytes"
        }
      ],
      "name": "safeTransferFrom",
      "outputs": [],
      "stateMutability": "nonpayable",
      "type": "function"
    },
    {
      "inputs": [
        {
          "internalType": "address",
          "name": "operator",
          "type": "address"
        },
        {
          "internalType": "bool",
          "name": "approved",
          "type": "bool"
        }
      ],
      "name": "setApprovalForAll",
      "outputs": [],
      "stateMutability": "nonpayable",
      "type": "function"
    },
    {
      "inputs": [
        {
          "internalType": "bytes4",
          "name": "interfaceId",
          "type": "bytes4"
        }
      ],
      "name": "supportsInterface",
      "outputs": [
        {
          "internalType": "bool",
          "name": "",
          "type": "bool"
        }
      ],
      "stateMutability": "view",
      "type": "function"
    },
    {
      "inputs": [
        {
          "internalType": "address",
          "name": "newOwner",
          "type": "address"
        }
      ],
      "name": "transferOwnership",
      "outputs": [],
      "stateMutability": "nonpayable",
      "type": "function"
    },
    {
      "inputs": [
        {
          "internalType": "string",
          "name": "name",
          "type": "string"
        },
        {
          "internalType": "string",
          "name": "description",
          "type": "string"
        },
        {
          "internalType": "string",
          "name": "imageUrl",
          "type": "string"
        },
        {
          "internalType": "uint256",
          "name": "price",
          "type": "uint256"
        },
        {
          "internalType": "address",
          "name": "gameOwnerAddress",
          "type": "address"
        }
      ],
      "name": "addNFT",
      "outputs": [],
      "stateMutability": "nonpayable",
      "type": "function"
    },
    {
      "inputs": [
        {
          "internalType": "uint256",
          "name": "tokenId",
          "type": "uint256"
        }
      ],
      "name": "purchaseNFT",
      "outputs": [],
      "stateMutability": "payable",
      "type": "function"
    },
    {
      "inputs": [
        {
          "internalType": "address",
          "name": "account",
          "type": "address"
        }
      ],
      "name": "getPurchasedNFTs",
      "outputs": [
        {
          "components": [
            {
              "components": [
                {
                  "internalType": "string",
                  "name": "name",
                  "type": "string"
                },
                {
                  "internalType": "string",
                  "name": "description",
                  "type": "string"
                },
                {
                  "internalType": "string",
                  "name": "imageUrl",
                  "type": "string"
                },
                {
                  "internalType": "uint256",
                  "name": "tokenId",
                  "type": "uint256"
                },
                {
                  "internalType": "uint256",
                  "name": "price",
                  "type": "uint256"
                },
                {
                  "internalType": "address",
                  "name": "gameOwnerAddress",
                  "type": "address"
                }
              ],
              "internalType": "struct NFTGames.NftGameInfo",
              "name": "game",
              "type": "tuple"
            },
            {
              "internalType": "uint256",
              "name": "qty",
              "type": "uint256"
            }
          ],
          "internalType": "struct NFTGames.PurchasedNft[]",
          "name": "",
          "type": "tuple[]"
        }
      ],
      "stateMutability": "view",
      "type": "function"
    },
    {
      "inputs": [],
      "name": "getNFTs",
      "outputs": [
        {
          "components": [
            {
              "internalType": "string",
              "name": "name",
              "type": "string"
            },
            {
              "internalType": "string",
              "name": "description",
              "type": "string"
            },
            {
              "internalType": "string",
              "name": "imageUrl",
              "type": "string"
            },
            {
              "internalType": "uint256",
              "name": "tokenId",
              "type": "uint256"
            },
            {
              "internalType": "uint256",
              "name": "price",
              "type": "uint256"
            },
            {
              "internalType": "address",
              "name": "gameOwnerAddress",
              "type": "address"
            }
          ],
          "internalType": "struct NFTGames.NftGameInfo[]",
          "name": "",
          "type": "tuple[]"
        }
      ],
      "stateMutability": "view",
      "type": "function"
    },
    {
      "inputs": [],
      "name": "withdrawBalance",
      "outputs": [],
      "stateMutability": "nonpayable",
      "type": "function"
    },
    {
      "inputs": [
        {
          "internalType": "uint256",
          "name": "percentage",
          "type": "uint256"
        }
      ],
      "name": "setRoyaltyPercentage",
      "outputs": [],
      "stateMutability": "nonpayable",
      "type": "function"
    },
    {
      "inputs": [],
      "name": "flipMintState",
      "outputs": [],
      "stateMutability": "nonpayable",
      "type": "function"
    },
    {
      "inputs": [
        {
          "internalType": "uint256",
          "name": "tokenId",
          "type": "uint256"
        }
      ],
      "name": "uri",
      "outputs": [
        {
          "internalType": "string",
          "name": "",
          "type": "string"
        }
      ],
      "stateMutability": "view",
      "type": "function"
    }
  ],
  "bytecode": "0x6080604052604051806020016040528060008152506003908162000024919062000414565b50600a6006556000600760006101000a81548160ff02191690831515021790555060006008553480156200005757600080fd5b5060405162004e4038038062004e4083398181016040528101906200007d91906200065f565b806200008f81620000b760201b60201c565b50620000b0620000a4620000cc60201b60201c565b620000d460201b60201c565b50620006b0565b8060029081620000c8919062000414565b5050565b600033905090565b6000600560009054906101000a900473ffffffffffffffffffffffffffffffffffffffff16905081600560006101000a81548173ffffffffffffffffffffffffffffffffffffffff021916908373ffffffffffffffffffffffffffffffffffffffff1602179055508173ffffffffffffffffffffffffffffffffffffffff168173ffffffffffffffffffffffffffffffffffffffff167f8be0079c531659141344cd1fd0a4f28419497f9722a3daafe3b4186f6b6457e060405160405180910390a35050565b600081519050919050565b7f4e487b7100000000000000000000000000000000000000000000000000000000600052604160045260246000fd5b7f4e487b7100000000000000000000000000000000000000000000000000000000600052602260045260246000fd5b600060028204905060018216806200021c57607f821691505b602082108103620002325762000231620001d4565b5b50919050565b60008190508160005260206000209050919050565b60006020601f8301049050919050565b600082821b905092915050565b6000600883026200029c7fffffffffffffffffffffffffffffffffffffffffffffffffffffffffffffffff826200025d565b620002a886836200025d565b95508019841693508086168417925050509392505050565b6000819050919050565b6000819050919050565b6000620002f5620002ef620002e984620002c0565b620002ca565b620002c0565b9050919050565b6000819050919050565b6200031183620002d4565b620003296200032082620002fc565b8484546200026a565b825550505050565b600090565b6200034062000331565b6200034d81848462000306565b505050565b5b8181101562000375576200036960008262000336565b60018101905062000353565b5050565b601f821115620003c4576200038e8162000238565b62000399846200024d565b81016020851015620003a9578190505b620003c1620003b8856200024d565b83018262000352565b50505b505050565b600082821c905092915050565b6000620003e960001984600802620003c9565b1980831691505092915050565b6000620004048383620003d6565b9150826002028217905092915050565b6200041f826200019a565b67ffffffffffffffff8111156200043b576200043a620001a5565b5b62000447825462000203565b6200045482828562000379565b600060209050601f8311600181146200048c576000841562000477578287015190505b620004838582620003f6565b865550620004f3565b601f1984166200049c8662000238565b60005b82811015620004c6578489015182556001820191506020850194506020810190506200049f565b86831015620004e65784890151620004e2601f891682620003d6565b8355505b6001600288020188555050505b505050505050565b6000604051905090565b600080fd5b600080fd5b600080fd5b600080fd5b6000601f19601f8301169050919050565b620005358262000519565b810181811067ffffffffffffffff82111715620005575762000556620001a5565b5b80604052505050565b60006200056c620004fb565b90506200057a82826200052a565b919050565b600067ffffffffffffffff8211156200059d576200059c620001a5565b5b620005a88262000519565b9050602081019050919050565b60005b83811015620005d5578082015181840152602081019050620005b8565b60008484015250505050565b6000620005f8620005f2846200057f565b62000560565b90508281526020810184848401111562000617576200061662000514565b5b62000624848285620005b5565b509392505050565b600082601f8301126200064457620006436200050f565b5b815162000656848260208601620005e1565b91505092915050565b60006020828403121562000678576200067762000505565b5b600082015167ffffffffffffffff8111156200069957620006986200050a565b5b620006a7848285016200062c565b91505092915050565b61478080620006c06000396000f3fe6080604052600436106101345760003560e01c806361ba27da116100ab578063a22cb4651161006f578063a22cb465146103f9578063e206dc2e14610422578063e985e9c51461045f578063f242432a1461049c578063f2fde38b146104c5578063fdcf9439146104ee57610134565b806361ba27da14610338578063715018a61461036157806375794a3c146103785780638a71bb2d146103a35780638da5cb5b146103ce57610134565b80632eb2c2d6116100fd5780632eb2c2d6146102375780634069425614610260578063471a4294146102a25780634e1273f4146102cd57806359c74f291461030a5780635fd8c7101461032157610134565b8062fdd58e1461013957806301ffc9a7146101765780630e89341c146101b3578063150bde03146101f0578063227212f21461020c575b600080fd5b34801561014557600080fd5b50610160600480360381019061015b9190612aee565b610517565b60405161016d9190612b3d565b60405180910390f35b34801561018257600080fd5b5061019d60048036038101906101989190612bb0565b6105df565b6040516101aa9190612bf8565b60405180910390f35b3480156101bf57600080fd5b506101da60048036038101906101d59190612c13565b6106c1565b6040516101e79190612cd0565b60405180910390f35b61020a60048036038101906102059190612c13565b6107b9565b005b34801561021857600080fd5b50610221610af0565b60405161022e9190612eb3565b60405180910390f35b34801561024357600080fd5b5061025e600480360381019061025991906130d2565b610dd6565b005b34801561026c57600080fd5b5061028760048036038101906102829190612c13565b610e77565b604051610299969594939291906131b0565b60405180910390f35b3480156102ae57600080fd5b506102b761106b565b6040516102c49190612bf8565b60405180910390f35b3480156102d957600080fd5b506102f460048036038101906102ef91906132e9565b61107e565b6040516103019190613410565b60405180910390f35b34801561031657600080fd5b5061031f611197565b005b34801561032d57600080fd5b506103366111cb565b005b34801561034457600080fd5b5061035f600480360381019061035a9190612c13565b611223565b005b34801561036d57600080fd5b50610376611235565b005b34801561038457600080fd5b5061038d611249565b60405161039a9190612b3d565b60405180910390f35b3480156103af57600080fd5b506103b861124f565b6040516103c59190612b3d565b60405180910390f35b3480156103da57600080fd5b506103e3611255565b6040516103f09190613432565b60405180910390f35b34801561040557600080fd5b50610420600480360381019061041b9190613479565b61127f565b005b34801561042e57600080fd5b50610449600480360381019061044491906134b9565b611295565b60405161045691906135e5565b60405180910390f35b34801561046b57600080fd5b5061048660048036038101906104819190613607565b611686565b6040516104939190612bf8565b60405180910390f35b3480156104a857600080fd5b506104c360048036038101906104be9190613647565b61171a565b005b3480156104d157600080fd5b506104ec60048036038101906104e791906134b9565b6117bb565b005b3480156104fa57600080fd5b506105156004803603810190610510919061377f565b61183e565b005b60008073ffffffffffffffffffffffffffffffffffffffff168373ffffffffffffffffffffffffffffffffffffffff1603610587576040517f08c379a000000000000000000000000000000000000000000000000000000000815260040161057e906138c0565b60405180910390fd5b60008083815260200190815260200160002060008473ffffffffffffffffffffffffffffffffffffffff1673ffffffffffffffffffffffffffffffffffffffff16815260200190815260200160002054905092915050565b60007fd9b67a26000000000000000000000000000000000000000000000000000000007bffffffffffffffffffffffffffffffffffffffffffffffffffffffff1916827bffffffffffffffffffffffffffffffffffffffffffffffffffffffff191614806106aa57507f0e89341c000000000000000000000000000000000000000000000000000000007bffffffffffffffffffffffffffffffffffffffffffffffffffffffff1916827bffffffffffffffffffffffffffffffffffffffffffffffffffffffff1916145b806106ba57506106b982611967565b5b9050919050565b60606000821180156106d4575060085482105b610713576040517f08c379a000000000000000000000000000000000000000000000000000000000815260040161070a9061392c565b60405180910390fd5b6009600083815260200190815260200160002060020180546107349061397b565b80601f01602080910402602001604051908101604052809291908181526020018280546107609061397b565b80156107ad5780601f10610782576101008083540402835291602001916107ad565b820191906000526020600020905b81548152906001019060200180831161079057829003601f168201915b50505050509050919050565b600760009054906101000a900460ff16610808576040517f08c379a00000000000000000000000000000000000000000000000000000000081526004016107ff906139f8565b60405180910390fd5b6000811015801561081a575060085481105b610859576040517f08c379a00000000000000000000000000000000000000000000000000000000081526004016108509061392c565b60405180910390fd5b600060096000838152602001908152602001600020600401549050803410156108b7576040517f08c379a00000000000000000000000000000000000000000000000000000000081526004016108ae90613a64565b60405180910390fd5b6108d333836001604051806020016040528060008152506119d1565b61092482600a60003373ffffffffffffffffffffffffffffffffffffffff1673ffffffffffffffffffffffffffffffffffffffff168152602001908152602001600020611b8190919063ffffffff16565b61097b5761097982600a60003373ffffffffffffffffffffffffffffffffffffffff1673ffffffffffffffffffffffffffffffffffffffff168152602001908152602001600020611b9b90919063ffffffff16565b505b600081905060006109aa606461099c60065485611bb590919063ffffffff16565b611bcb90919063ffffffff16565b905060006109c18284611be190919063ffffffff16565b90506109cb611255565b73ffffffffffffffffffffffffffffffffffffffff166108fc839081150290604051600060405180830381858888f19350505050158015610a10573d6000803e3d6000fd5b506009600086815260200190815260200160002060050160009054906101000a900473ffffffffffffffffffffffffffffffffffffffff1673ffffffffffffffffffffffffffffffffffffffff166108fc829081150290604051600060405180830381858888f19350505050158015610a8d573d6000803e3d6000fd5b5083341115610ae9573373ffffffffffffffffffffffffffffffffffffffff166108fc8534610abc9190613ab3565b9081150290604051600060405180830381858888f19350505050158015610ae7573d6000803e3d6000fd5b505b5050505050565b6060600060085467ffffffffffffffff811115610b1057610b0f612eda565b5b604051908082528060200260200182016040528015610b4957816020015b610b366129da565b815260200190600190039081610b2e5790505b50905060005b600854811015610dce576000600960008381526020019081526020016000209050806040518060c0016040529081600082018054610b8c9061397b565b80601f0160208091040260200160405190810160405280929190818152602001828054610bb89061397b565b8015610c055780601f10610bda57610100808354040283529160200191610c05565b820191906000526020600020905b815481529060010190602001808311610be857829003601f168201915b50505050508152602001600182018054610c1e9061397b565b80601f0160208091040260200160405190810160405280929190818152602001828054610c4a9061397b565b8015610c975780601f10610c6c57610100808354040283529160200191610c97565b820191906000526020600020905b815481529060010190602001808311610c7a57829003601f168201915b50505050508152602001600282018054610cb09061397b565b80601f0160208091040260200160405190810160405280929190818152602001828054610cdc9061397b565b8015610d295780601f10610cfe57610100808354040283529160200191610d29565b820191906000526020600020905b815481529060010190602001808311610d0c57829003601f168201915b5050505050815260200160038201548152602001600482015481526020016005820160009054906101000a900473ffffffffffffffffffffffffffffffffffffffff1673ffffffffffffffffffffffffffffffffffffffff1673ffffffffffffffffffffffffffffffffffffffff1681525050838381518110610daf57610dae613ae7565b5b6020026020010181905250508080610dc690613b16565b915050610b4f565b508091505090565b610dde611bf7565b73ffffffffffffffffffffffffffffffffffffffff168573ffffffffffffffffffffffffffffffffffffffff161480610e245750610e2385610e1e611bf7565b611686565b5b610e63576040517f08c379a0000000000000000000000000000000000000000000000000000000008152600401610e5a90613bd0565b60405180910390fd5b610e708585858585611bff565b5050505050565b6009602052806000526040600020600091509050806000018054610e9a9061397b565b80601f0160208091040260200160405190810160405280929190818152602001828054610ec69061397b565b8015610f135780601f10610ee857610100808354040283529160200191610f13565b820191906000526020600020905b815481529060010190602001808311610ef657829003601f168201915b505050505090806001018054610f289061397b565b80601f0160208091040260200160405190810160405280929190818152602001828054610f549061397b565b8015610fa15780601f10610f7657610100808354040283529160200191610fa1565b820191906000526020600020905b815481529060010190602001808311610f8457829003601f168201915b505050505090806002018054610fb69061397b565b80601f0160208091040260200160405190810160405280929190818152602001828054610fe29061397b565b801561102f5780601f106110045761010080835404028352916020019161102f565b820191906000526020600020905b81548152906001019060200180831161101257829003601f168201915b5050505050908060030154908060040154908060050160009054906101000a900473ffffffffffffffffffffffffffffffffffffffff16905086565b600760009054906101000a900460ff1681565b606081518351146110c4576040517f08c379a00000000000000000000000000000000000000000000000000000000081526004016110bb90613c62565b60405180910390fd5b6000835167ffffffffffffffff8111156110e1576110e0612eda565b5b60405190808252806020026020018201604052801561110f5781602001602082028036833780820191505090505b50905060005b845181101561118c5761115c85828151811061113457611133613ae7565b5b602002602001015185838151811061114f5761114e613ae7565b5b6020026020010151610517565b82828151811061116f5761116e613ae7565b5b6020026020010181815250508061118590613b16565b9050611115565b508091505092915050565b61119f611f20565b600760009054906101000a900460ff1615600760006101000a81548160ff021916908315150217905550565b6111d3611f20565b6111db611255565b73ffffffffffffffffffffffffffffffffffffffff166108fc479081150290604051600060405180830381858888f19350505050158015611220573d6000803e3d6000fd5b50565b61122b611f20565b8060068190555050565b61123d611f20565b6112476000611f9e565b565b60085481565b60065481565b6000600560009054906101000a900473ffffffffffffffffffffffffffffffffffffffff16905090565b61129161128a611bf7565b8383612064565b5050565b606060006112e0600a60008573ffffffffffffffffffffffffffffffffffffffff1673ffffffffffffffffffffffffffffffffffffffff1681526020019081526020016000206121d0565b67ffffffffffffffff8111156112f9576112f8612eda565b5b60405190808252806020026020018201604052801561133257816020015b61131f612a26565b8152602001906001900390816113175790505b50905060005b61137f600a60008673ffffffffffffffffffffffffffffffffffffffff1673ffffffffffffffffffffffffffffffffffffffff1681526020019081526020016000206121d0565b81101561167c5760006113d982600a60008873ffffffffffffffffffffffffffffffffffffffff1673ffffffffffffffffffffffffffffffffffffffff1681526020019081526020016000206121e590919063ffffffff16565b9050600960008281526020019081526020016000206040518060c00160405290816000820180546114099061397b565b80601f01602080910402602001604051908101604052809291908181526020018280546114359061397b565b80156114825780601f1061145757610100808354040283529160200191611482565b820191906000526020600020905b81548152906001019060200180831161146557829003601f168201915b5050505050815260200160018201805461149b9061397b565b80601f01602080910402602001604051908101604052809291908181526020018280546114c79061397b565b80156115145780601f106114e957610100808354040283529160200191611514565b820191906000526020600020905b8154815290600101906020018083116114f757829003601f168201915b5050505050815260200160028201805461152d9061397b565b80601f01602080910402602001604051908101604052809291908181526020018280546115599061397b565b80156115a65780601f1061157b576101008083540402835291602001916115a6565b820191906000526020600020905b81548152906001019060200180831161158957829003601f168201915b5050505050815260200160038201548152602001600482015481526020016005820160009054906101000a900473ffffffffffffffffffffffffffffffffffffffff1673ffffffffffffffffffffffffffffffffffffffff1673ffffffffffffffffffffffffffffffffffffffff168152505083838151811061162c5761162b613ae7565b5b6020026020010151600001819052506116458582610517565b83838151811061165857611657613ae7565b5b6020026020010151602001818152505050808061167490613b16565b915050611338565b5080915050919050565b6000600160008473ffffffffffffffffffffffffffffffffffffffff1673ffffffffffffffffffffffffffffffffffffffff16815260200190815260200160002060008373ffffffffffffffffffffffffffffffffffffffff1673ffffffffffffffffffffffffffffffffffffffff16815260200190815260200160002060009054906101000a900460ff16905092915050565b611722611bf7565b73ffffffffffffffffffffffffffffffffffffffff168573ffffffffffffffffffffffffffffffffffffffff161480611768575061176785611762611bf7565b611686565b5b6117a7576040517f08c379a000000000000000000000000000000000000000000000000000000000815260040161179e90613bd0565b60405180910390fd5b6117b485858585856121ff565b5050505050565b6117c3611f20565b600073ffffffffffffffffffffffffffffffffffffffff168173ffffffffffffffffffffffffffffffffffffffff1603611832576040517f08c379a000000000000000000000000000000000000000000000000000000000815260040161182990613cf4565b60405180910390fd5b61183b81611f9e565b50565b611846611f20565b60006008549050611863600160085461249a90919063ffffffff16565b6008819055506040518060c001604052808781526020018681526020018581526020018281526020018481526020018373ffffffffffffffffffffffffffffffffffffffff168152506009600083815260200190815260200160002060008201518160000190816118d49190613ec0565b5060208201518160010190816118ea9190613ec0565b5060408201518160020190816119009190613ec0565b50606082015181600301556080820151816004015560a08201518160050160006101000a81548173ffffffffffffffffffffffffffffffffffffffff021916908373ffffffffffffffffffffffffffffffffffffffff160217905550905050505050505050565b60007f01ffc9a7000000000000000000000000000000000000000000000000000000007bffffffffffffffffffffffffffffffffffffffffffffffffffffffff1916827bffffffffffffffffffffffffffffffffffffffffffffffffffffffff1916149050919050565b600073ffffffffffffffffffffffffffffffffffffffff168473ffffffffffffffffffffffffffffffffffffffff1603611a40576040517f08c379a0000000000000000000000000000000000000000000000000000000008152600401611a3790614004565b60405180910390fd5b6000611a4a611bf7565b90506000611a57856124b0565b90506000611a64856124b0565b9050611a758360008985858961252a565b8460008088815260200190815260200160002060008973ffffffffffffffffffffffffffffffffffffffff1673ffffffffffffffffffffffffffffffffffffffff1681526020019081526020016000206000828254611ad49190614024565b925050819055508673ffffffffffffffffffffffffffffffffffffffff16600073ffffffffffffffffffffffffffffffffffffffff168473ffffffffffffffffffffffffffffffffffffffff167fc3d58168c5ae7397731d063d5bbf3d657854427343f4c083240f7aacaa2d0f628989604051611b52929190614058565b60405180910390a4611b6983600089858589612532565b611b788360008989898961253a565b50505050505050565b6000611b93836000018360001b612711565b905092915050565b6000611bad836000018360001b612734565b905092915050565b60008183611bc39190614081565b905092915050565b60008183611bd991906140f2565b905092915050565b60008183611bef9190613ab3565b905092915050565b600033905090565b8151835114611c43576040517f08c379a0000000000000000000000000000000000000000000000000000000008152600401611c3a90614195565b60405180910390fd5b600073ffffffffffffffffffffffffffffffffffffffff168473ffffffffffffffffffffffffffffffffffffffff1603611cb2576040517f08c379a0000000000000000000000000000000000000000000000000000000008152600401611ca990614227565b60405180910390fd5b6000611cbc611bf7565b9050611ccc81878787878761252a565b60005b8451811015611e7d576000858281518110611ced57611cec613ae7565b5b602002602001015190506000858381518110611d0c57611d0b613ae7565b5b60200260200101519050600080600084815260200190815260200160002060008b73ffffffffffffffffffffffffffffffffffffffff1673ffffffffffffffffffffffffffffffffffffffff16815260200190815260200160002054905081811015611dad576040517f08c379a0000000000000000000000000000000000000000000000000000000008152600401611da4906142b9565b60405180910390fd5b81810360008085815260200190815260200160002060008c73ffffffffffffffffffffffffffffffffffffffff1673ffffffffffffffffffffffffffffffffffffffff168152602001908152602001600020819055508160008085815260200190815260200160002060008b73ffffffffffffffffffffffffffffffffffffffff1673ffffffffffffffffffffffffffffffffffffffff1681526020019081526020016000206000828254611e629190614024565b9250508190555050505080611e7690613b16565b9050611ccf565b508473ffffffffffffffffffffffffffffffffffffffff168673ffffffffffffffffffffffffffffffffffffffff168273ffffffffffffffffffffffffffffffffffffffff167f4a39dc06d4c0dbc64b70af90fd698a233a518aa5d07e595d983b8c0526c8f7fb8787604051611ef49291906142d9565b60405180910390a4611f0a818787878787612532565b611f188187878787876127a4565b505050505050565b611f28611bf7565b73ffffffffffffffffffffffffffffffffffffffff16611f46611255565b73ffffffffffffffffffffffffffffffffffffffff1614611f9c576040517f08c379a0000000000000000000000000000000000000000000000000000000008152600401611f939061435c565b60405180910390fd5b565b6000600560009054906101000a900473ffffffffffffffffffffffffffffffffffffffff16905081600560006101000a81548173ffffffffffffffffffffffffffffffffffffffff021916908373ffffffffffffffffffffffffffffffffffffffff1602179055508173ffffffffffffffffffffffffffffffffffffffff168173ffffffffffffffffffffffffffffffffffffffff167f8be0079c531659141344cd1fd0a4f28419497f9722a3daafe3b4186f6b6457e060405160405180910390a35050565b8173ffffffffffffffffffffffffffffffffffffffff168373ffffffffffffffffffffffffffffffffffffffff16036120d2576040517f08c379a00000000000000000000000000000000000000000000000000000000081526004016120c9906143ee565b60405180910390fd5b80600160008573ffffffffffffffffffffffffffffffffffffffff1673ffffffffffffffffffffffffffffffffffffffff16815260200190815260200160002060008473ffffffffffffffffffffffffffffffffffffffff1673ffffffffffffffffffffffffffffffffffffffff16815260200190815260200160002060006101000a81548160ff0219169083151502179055508173ffffffffffffffffffffffffffffffffffffffff168373ffffffffffffffffffffffffffffffffffffffff167f17307eab39ab6107e8899845ad3d59bd9653f200f220920489ca2b5937696c31836040516121c39190612bf8565b60405180910390a3505050565b60006121de8260000161297b565b9050919050565b60006121f4836000018361298c565b60001c905092915050565b600073ffffffffffffffffffffffffffffffffffffffff168473ffffffffffffffffffffffffffffffffffffffff160361226e576040517f08c379a000000000000000000000000000000000000000000000000000000000815260040161226590614227565b60405180910390fd5b6000612278611bf7565b90506000612285856124b0565b90506000612292856124b0565b90506122a283898985858961252a565b600080600088815260200190815260200160002060008a73ffffffffffffffffffffffffffffffffffffffff1673ffffffffffffffffffffffffffffffffffffffff16815260200190815260200160002054905085811015612339576040517f08c379a0000000000000000000000000000000000000000000000000000000008152600401612330906142b9565b60405180910390fd5b85810360008089815260200190815260200160002060008b73ffffffffffffffffffffffffffffffffffffffff1673ffffffffffffffffffffffffffffffffffffffff168152602001908152602001600020819055508560008089815260200190815260200160002060008a73ffffffffffffffffffffffffffffffffffffffff1673ffffffffffffffffffffffffffffffffffffffff16815260200190815260200160002060008282546123ee9190614024565b925050819055508773ffffffffffffffffffffffffffffffffffffffff168973ffffffffffffffffffffffffffffffffffffffff168573ffffffffffffffffffffffffffffffffffffffff167fc3d58168c5ae7397731d063d5bbf3d657854427343f4c083240f7aacaa2d0f628a8a60405161246b929190614058565b60405180910390a4612481848a8a86868a612532565b61248f848a8a8a8a8a61253a565b505050505050505050565b600081836124a89190614024565b905092915050565b60606000600167ffffffffffffffff8111156124cf576124ce612eda565b5b6040519080825280602002602001820160405280156124fd5781602001602082028036833780820191505090505b509050828160008151811061251557612514613ae7565b5b60200260200101818152505080915050919050565b505050505050565b505050505050565b6125598473ffffffffffffffffffffffffffffffffffffffff166129b7565b15612709578373ffffffffffffffffffffffffffffffffffffffff1663f23a6e6187878686866040518663ffffffff1660e01b815260040161259f959493929190614463565b6020604051808303816000875af19250505080156125db57506040513d601f19601f820116820180604052508101906125d891906144d2565b60015b612680576125e761450c565b806308c379a00361264357506125fb61452e565b806126065750612645565b806040517f08c379a000000000000000000000000000000000000000000000000000000000815260040161263a9190612cd0565b60405180910390fd5b505b6040517f08c379a000000000000000000000000000000000000000000000000000000000815260040161267790614630565b60405180910390fd5b63f23a6e6160e01b7bffffffffffffffffffffffffffffffffffffffffffffffffffffffff1916817bffffffffffffffffffffffffffffffffffffffffffffffffffffffff191614612707576040517f08c379a00000000000000000000000000000000000000000000000000000000081526004016126fe906146c2565b60405180910390fd5b505b505050505050565b600080836001016000848152602001908152602001600020541415905092915050565b60006127408383612711565b61279957826000018290806001815401808255809150506001900390600052602060002001600090919091909150558260000180549050836001016000848152602001908152602001600020819055506001905061279e565b600090505b92915050565b6127c38473ffffffffffffffffffffffffffffffffffffffff166129b7565b15612973578373ffffffffffffffffffffffffffffffffffffffff1663bc197c8187878686866040518663ffffffff1660e01b81526004016128099594939291906146e2565b6020604051808303816000875af192505050801561284557506040513d601f19601f8201168201806040525081019061284291906144d2565b60015b6128ea5761285161450c565b806308c379a0036128ad575061286561452e565b8061287057506128af565b806040517f08c379a00000000000000000000000000000000000000000000000000000000081526004016128a49190612cd0565b60405180910390fd5b505b6040517f08c379a00000000000000000000000000000000000000000000000000000000081526004016128e190614630565b60405180910390fd5b63bc197c8160e01b7bffffffffffffffffffffffffffffffffffffffffffffffffffffffff1916817bffffffffffffffffffffffffffffffffffffffffffffffffffffffff191614612971576040517f08c379a0000000000000000000000000000000000000000000000000000000008152600401612968906146c2565b60405180910390fd5b505b505050505050565b600081600001805490509050919050565b60008260000182815481106129a4576129a3613ae7565b5b9060005260206000200154905092915050565b6000808273ffffffffffffffffffffffffffffffffffffffff163b119050919050565b6040518060c001604052806060815260200160608152602001606081526020016000815260200160008152602001600073ffffffffffffffffffffffffffffffffffffffff1681525090565b6040518060400160405280612a396129da565b8152602001600081525090565b6000604051905090565b600080fd5b600080fd5b600073ffffffffffffffffffffffffffffffffffffffff82169050919050565b6000612a8582612a5a565b9050919050565b612a9581612a7a565b8114612aa057600080fd5b50565b600081359050612ab281612a8c565b92915050565b6000819050919050565b612acb81612ab8565b8114612ad657600080fd5b50565b600081359050612ae881612ac2565b92915050565b60008060408385031215612b0557612b04612a50565b5b6000612b1385828601612aa3565b9250506020612b2485828601612ad9565b9150509250929050565b612b3781612ab8565b82525050565b6000602082019050612b526000830184612b2e565b92915050565b60007fffffffff0000000000000000000000000000000000000000000000000000000082169050919050565b612b8d81612b58565b8114612b9857600080fd5b50565b600081359050612baa81612b84565b92915050565b600060208284031215612bc657612bc5612a50565b5b6000612bd484828501612b9b565b91505092915050565b60008115159050919050565b612bf281612bdd565b82525050565b6000602082019050612c0d6000830184612be9565b92915050565b600060208284031215612c2957612c28612a50565b5b6000612c3784828501612ad9565b91505092915050565b600081519050919050565b600082825260208201905092915050565b60005b83811015612c7a578082015181840152602081019050612c5f565b60008484015250505050565b6000601f19601f8301169050919050565b6000612ca282612c40565b612cac8185612c4b565b9350612cbc818560208601612c5c565b612cc581612c86565b840191505092915050565b60006020820190508181036000830152612cea8184612c97565b905092915050565b600081519050919050565b600082825260208201905092915050565b6000819050602082019050919050565b600082825260208201905092915050565b6000612d3a82612c40565b612d448185612d1e565b9350612d54818560208601612c5c565b612d5d81612c86565b840191505092915050565b612d7181612ab8565b82525050565b612d8081612a7a565b82525050565b600060c0830160008301518482036000860152612da38282612d2f565b91505060208301518482036020860152612dbd8282612d2f565b91505060408301518482036040860152612dd78282612d2f565b9150506060830151612dec6060860182612d68565b506080830151612dff6080860182612d68565b5060a0830151612e1260a0860182612d77565b508091505092915050565b6000612e298383612d86565b905092915050565b6000602082019050919050565b6000612e4982612cf2565b612e538185612cfd565b935083602082028501612e6585612d0e565b8060005b85811015612ea15784840389528151612e828582612e1d565b9450612e8d83612e31565b925060208a01995050600181019050612e69565b50829750879550505050505092915050565b60006020820190508181036000830152612ecd8184612e3e565b905092915050565b600080fd5b7f4e487b7100000000000000000000000000000000000000000000000000000000600052604160045260246000fd5b612f1282612c86565b810181811067ffffffffffffffff82111715612f3157612f30612eda565b5b80604052505050565b6000612f44612a46565b9050612f508282612f09565b919050565b600067ffffffffffffffff821115612f7057612f6f612eda565b5b602082029050602081019050919050565b600080fd5b6000612f99612f9484612f55565b612f3a565b90508083825260208201905060208402830185811115612fbc57612fbb612f81565b5b835b81811015612fe55780612fd18882612ad9565b845260208401935050602081019050612fbe565b5050509392505050565b600082601f83011261300457613003612ed5565b5b8135613014848260208601612f86565b91505092915050565b600080fd5b600067ffffffffffffffff82111561303d5761303c612eda565b5b61304682612c86565b9050602081019050919050565b82818337600083830152505050565b600061307561307084613022565b612f3a565b9050828152602081018484840111156130915761309061301d565b5b61309c848285613053565b509392505050565b600082601f8301126130b9576130b8612ed5565b5b81356130c9848260208601613062565b91505092915050565b600080600080600060a086880312156130ee576130ed612a50565b5b60006130fc88828901612aa3565b955050602061310d88828901612aa3565b945050604086013567ffffffffffffffff81111561312e5761312d612a55565b5b61313a88828901612fef565b935050606086013567ffffffffffffffff81111561315b5761315a612a55565b5b61316788828901612fef565b925050608086013567ffffffffffffffff81111561318857613187612a55565b5b613194888289016130a4565b9150509295509295909350565b6131aa81612a7a565b82525050565b600060c08201905081810360008301526131ca8189612c97565b905081810360208301526131de8188612c97565b905081810360408301526131f28187612c97565b90506132016060830186612b2e565b61320e6080830185612b2e565b61321b60a08301846131a1565b979650505050505050565b600067ffffffffffffffff82111561324157613240612eda565b5b602082029050602081019050919050565b600061326561326084613226565b612f3a565b9050808382526020820190506020840283018581111561328857613287612f81565b5b835b818110156132b1578061329d8882612aa3565b84526020840193505060208101905061328a565b5050509392505050565b600082601f8301126132d0576132cf612ed5565b5b81356132e0848260208601613252565b91505092915050565b60008060408385031215613300576132ff612a50565b5b600083013567ffffffffffffffff81111561331e5761331d612a55565b5b61332a858286016132bb565b925050602083013567ffffffffffffffff81111561334b5761334a612a55565b5b61335785828601612fef565b9150509250929050565b600081519050919050565b600082825260208201905092915050565b6000819050602082019050919050565b60006133998383612d68565b60208301905092915050565b6000602082019050919050565b60006133bd82613361565b6133c7818561336c565b93506133d28361337d565b8060005b838110156134035781516133ea888261338d565b97506133f5836133a5565b9250506001810190506133d6565b5085935050505092915050565b6000602082019050818103600083015261342a81846133b2565b905092915050565b600060208201905061344760008301846131a1565b92915050565b61345681612bdd565b811461346157600080fd5b50565b6000813590506134738161344d565b92915050565b600080604083850312156134905761348f612a50565b5b600061349e85828601612aa3565b92505060206134af85828601613464565b9150509250929050565b6000602082840312156134cf576134ce612a50565b5b60006134dd84828501612aa3565b91505092915050565b600081519050919050565b600082825260208201905092915050565b6000819050602082019050919050565b6000604083016000830151848203600086015261352f8282612d86565b91505060208301516135446020860182612d68565b508091505092915050565b600061355b8383613512565b905092915050565b6000602082019050919050565b600061357b826134e6565b61358581856134f1565b93508360208202850161359785613502565b8060005b858110156135d357848403895281516135b4858261354f565b94506135bf83613563565b925060208a0199505060018101905061359b565b50829750879550505050505092915050565b600060208201905081810360008301526135ff8184613570565b905092915050565b6000806040838503121561361e5761361d612a50565b5b600061362c85828601612aa3565b925050602061363d85828601612aa3565b9150509250929050565b600080600080600060a0868803121561366357613662612a50565b5b600061367188828901612aa3565b955050602061368288828901612aa3565b945050604061369388828901612ad9565b93505060606136a488828901612ad9565b925050608086013567ffffffffffffffff8111156136c5576136c4612a55565b5b6136d1888289016130a4565b9150509295509295909350565b600067ffffffffffffffff8211156136f9576136f8612eda565b5b61370282612c86565b9050602081019050919050565b600061372261371d846136de565b612f3a565b90508281526020810184848401111561373e5761373d61301d565b5b613749848285613053565b509392505050565b600082601f83011261376657613765612ed5565b5b813561377684826020860161370f565b91505092915050565b600080600080600060a0868803121561379b5761379a612a50565b5b600086013567ffffffffffffffff8111156137b9576137b8612a55565b5b6137c588828901613751565b955050602086013567ffffffffffffffff8111156137e6576137e5612a55565b5b6137f288828901613751565b945050604086013567ffffffffffffffff81111561381357613812612a55565b5b61381f88828901613751565b935050606061383088828901612ad9565b925050608061384188828901612aa3565b9150509295509295909350565b7f455243313135353a2061646472657373207a65726f206973206e6f742061207660008201527f616c6964206f776e657200000000000000000000000000000000000000000000602082015250565b60006138aa602a83612c4b565b91506138b58261384e565b604082019050919050565b600060208201905081810360008301526138d98161389d565b9050919050565b7f496e76616c696420746f6b656e20494400000000000000000000000000000000600082015250565b6000613916601083612c4b565b9150613921826138e0565b602082019050919050565b6000602082019050818103600083015261394581613909565b9050919050565b7f4e487b7100000000000000000000000000000000000000000000000000000000600052602260045260246000fd5b6000600282049050600182168061399357607f821691505b6020821081036139a6576139a561394c565b5b50919050565b7f4d696e74206973206e6f74206163746976650000000000000000000000000000600082015250565b60006139e2601283612c4b565b91506139ed826139ac565b602082019050919050565b60006020820190508181036000830152613a11816139d5565b9050919050565b7f496e73756666696369656e742066756e64730000000000000000000000000000600082015250565b6000613a4e601283612c4b565b9150613a5982613a18565b602082019050919050565b60006020820190508181036000830152613a7d81613a41565b9050919050565b7f4e487b7100000000000000000000000000000000000000000000000000000000600052601160045260246000fd5b6000613abe82612ab8565b9150613ac983612ab8565b9250828203905081811115613ae157613ae0613a84565b5b92915050565b7f4e487b7100000000000000000000000000000000000000000000000000000000600052603260045260246000fd5b6000613b2182612ab8565b91507fffffffffffffffffffffffffffffffffffffffffffffffffffffffffffffffff8203613b5357613b52613a84565b5b600182019050919050565b7f455243313135353a2063616c6c6572206973206e6f7420746f6b656e206f776e60008201527f6572206f7220617070726f766564000000000000000000000000000000000000602082015250565b6000613bba602e83612c4b565b9150613bc582613b5e565b604082019050919050565b60006020820190508181036000830152613be981613bad565b9050919050565b7f455243313135353a206163636f756e747320616e6420696473206c656e67746860008201527f206d69736d617463680000000000000000000000000000000000000000000000602082015250565b6000613c4c602983612c4b565b9150613c5782613bf0565b604082019050919050565b60006020820190508181036000830152613c7b81613c3f565b9050919050565b7f4f776e61626c653a206e6577206f776e657220697320746865207a65726f206160008201527f6464726573730000000000000000000000000000000000000000000000000000602082015250565b6000613cde602683612c4b565b9150613ce982613c82565b604082019050919050565b60006020820190508181036000830152613d0d81613cd1565b9050919050565b60008190508160005260206000209050919050565b60006020601f8301049050919050565b600082821b905092915050565b600060088302613d767fffffffffffffffffffffffffffffffffffffffffffffffffffffffffffffffff82613d39565b613d808683613d39565b95508019841693508086168417925050509392505050565b6000819050919050565b6000613dbd613db8613db384612ab8565b613d98565b612ab8565b9050919050565b6000819050919050565b613dd783613da2565b613deb613de382613dc4565b848454613d46565b825550505050565b600090565b613e00613df3565b613e0b818484613dce565b505050565b5b81811015613e2f57613e24600082613df8565b600181019050613e11565b5050565b601f821115613e7457613e4581613d14565b613e4e84613d29565b81016020851015613e5d578190505b613e71613e6985613d29565b830182613e10565b50505b505050565b600082821c905092915050565b6000613e9760001984600802613e79565b1980831691505092915050565b6000613eb08383613e86565b9150826002028217905092915050565b613ec982612c40565b67ffffffffffffffff811115613ee257613ee1612eda565b5b613eec825461397b565b613ef7828285613e33565b600060209050601f831160018114613f2a5760008415613f18578287015190505b613f228582613ea4565b865550613f8a565b601f198416613f3886613d14565b60005b82811015613f6057848901518255600182019150602085019450602081019050613f3b565b86831015613f7d5784890151613f79601f891682613e86565b8355505b6001600288020188555050505b505050505050565b7f455243313135353a206d696e7420746f20746865207a65726f2061646472657360008201527f7300000000000000000000000000000000000000000000000000000000000000602082015250565b6000613fee602183612c4b565b9150613ff982613f92565b604082019050919050565b6000602082019050818103600083015261401d81613fe1565b9050919050565b600061402f82612ab8565b915061403a83612ab8565b925082820190508082111561405257614051613a84565b5b92915050565b600060408201905061406d6000830185612b2e565b61407a6020830184612b2e565b9392505050565b600061408c82612ab8565b915061409783612ab8565b92508282026140a581612ab8565b915082820484148315176140bc576140bb613a84565b5b5092915050565b7f4e487b7100000000000000000000000000000000000000000000000000000000600052601260045260246000fd5b60006140fd82612ab8565b915061410883612ab8565b925082614118576141176140c3565b5b828204905092915050565b7f455243313135353a2069647320616e6420616d6f756e7473206c656e6774682060008201527f6d69736d61746368000000000000000000000000000000000000000000000000602082015250565b600061417f602883612c4b565b915061418a82614123565b604082019050919050565b600060208201905081810360008301526141ae81614172565b9050919050565b7f455243313135353a207472616e7366657220746f20746865207a65726f20616460008201527f6472657373000000000000000000000000000000000000000000000000000000602082015250565b6000614211602583612c4b565b915061421c826141b5565b604082019050919050565b6000602082019050818103600083015261424081614204565b9050919050565b7f455243313135353a20696e73756666696369656e742062616c616e636520666f60008201527f72207472616e7366657200000000000000000000000000000000000000000000602082015250565b60006142a3602a83612c4b565b91506142ae82614247565b604082019050919050565b600060208201905081810360008301526142d281614296565b9050919050565b600060408201905081810360008301526142f381856133b2565b9050818103602083015261430781846133b2565b90509392505050565b7f4f776e61626c653a2063616c6c6572206973206e6f7420746865206f776e6572600082015250565b6000614346602083612c4b565b915061435182614310565b602082019050919050565b6000602082019050818103600083015261437581614339565b9050919050565b7f455243313135353a2073657474696e6720617070726f76616c2073746174757360008201527f20666f722073656c660000000000000000000000000000000000000000000000602082015250565b60006143d8602983612c4b565b91506143e38261437c565b604082019050919050565b60006020820190508181036000830152614407816143cb565b9050919050565b600081519050919050565b600082825260208201905092915050565b60006144358261440e565b61443f8185614419565b935061444f818560208601612c5c565b61445881612c86565b840191505092915050565b600060a08201905061447860008301886131a1565b61448560208301876131a1565b6144926040830186612b2e565b61449f6060830185612b2e565b81810360808301526144b1818461442a565b90509695505050505050565b6000815190506144cc81612b84565b92915050565b6000602082840312156144e8576144e7612a50565b5b60006144f6848285016144bd565b91505092915050565b60008160e01c9050919050565b600060033d111561452b5760046000803e6145286000516144ff565b90505b90565b600060443d106145bb57614540612a46565b60043d036004823e80513d602482011167ffffffffffffffff821117156145685750506145bb565b808201805167ffffffffffffffff81111561458657505050506145bb565b80602083010160043d0385018111156145a35750505050506145bb565b6145b282602001850186612f09565b82955050505050505b90565b7f455243313135353a207472616e7366657220746f206e6f6e2d4552433131353560008201527f526563656976657220696d706c656d656e746572000000000000000000000000602082015250565b600061461a603483612c4b565b9150614625826145be565b604082019050919050565b600060208201905081810360008301526146498161460d565b9050919050565b7f455243313135353a204552433131353552656365697665722072656a6563746560008201527f6420746f6b656e73000000000000000000000000000000000000000000000000602082015250565b60006146ac602883612c4b565b91506146b782614650565b604082019050919050565b600060208201905081810360008301526146db8161469f565b9050919050565b600060a0820190506146f760008301886131a1565b61470460208301876131a1565b818103604083015261471681866133b2565b9050818103606083015261472a81856133b2565b9050818103608083015261473e818461442a565b9050969550505050505056fea2646970667358221220f1a68cd27e81a8513448336d2ea4d5431ce2bda68af29f19579ce2d5414108c464736f6c63430008130033",
  "immutableReferences": {},
  "source": "// SPDX-License-Identifier: MIT\r\npragma solidity >=0.8.0 <0.9.0;\r\n\r\nimport \"@openzeppelin/contracts/token/ERC1155/ERC1155.sol\";\r\nimport \"@openzeppelin/contracts/token/ERC1155/extensions/ERC1155URIStorage.sol\";\r\nimport \"@openzeppelin/contracts/access/Ownable.sol\";\r\nimport \"@openzeppelin/contracts/utils/structs/EnumerableSet.sol\";\r\nimport \"@openzeppelin/contracts/utils/math/SafeMath.sol\";\r\n\r\ncontract NFTGames is ERC1155, ERC1155URIStorage, Ownable {\r\n    using SafeMath for uint256;\r\n    using EnumerableSet for EnumerableSet.UintSet;\r\n\r\n    uint256 public royaltyPercentage = 10; // % royalties\r\n    bool public mintIsActive = false;\r\n\r\n    // Estructura para guardar los datos relevantes del NFT\r\n    struct NftGameInfo {\r\n        string name;\r\n        string description;\r\n        string imageUrl;\r\n        uint256 tokenId;\r\n        uint256 price;\r\n        address gameOwnerAddress;\r\n    }\r\n\r\n    // Estructura para devolver los juegos que ha comprado un usuario y la cantidad que tiene de cada juego\r\n    struct PurchasedNft {\r\n        NftGameInfo game;\r\n        uint256 qty;\r\n    }\r\n\r\n    constructor(string memory _uri) ERC1155(_uri) {}\r\n\r\n    // Contador autoincremental, cada nmero ser un juego (token)\r\n    uint256 public nextTokenId = 0;\r\n\r\n    // Estructura, donde por cada juego definiremos el precio\r\n    mapping(uint256 => NftGameInfo) public gamesInfo;\r\n    mapping(address => EnumerableSet.UintSet) private purchasedNFTs;\r\n\r\n    // Funcin para aadir un juego (crear un token)\r\n    function addNFT(string memory name, string memory description, string memory imageUrl, uint256 price, address gameOwnerAddress) external onlyOwner {\r\n        uint256 tokenId = nextTokenId;\r\n        nextTokenId = nextTokenId.add(1);\r\n\r\n        gamesInfo[tokenId] = NftGameInfo(name, description, imageUrl, tokenId, price, gameOwnerAddress);\r\n    }\r\n\r\n    // Funcin para comprar un juego (un token)\r\n    function purchaseNFT(uint256 tokenId) external payable {\r\n        require(mintIsActive, \"Mint is not active\");\r\n        require(tokenId >= 0 && tokenId < nextTokenId, \"Invalid token ID\");\r\n        uint256 price = gamesInfo[tokenId].price;\r\n        require(msg.value >= price, \"Insufficient funds\");\r\n\r\n        // Minteamos el NFT al comprador y registramos al array de juegos que tiene comprados (si el Id ya existe no lo registramos de nuevo)\r\n        _mint(msg.sender, tokenId, 1, \"\");\r\n        if (!purchasedNFTs[msg.sender].contains(tokenId)) {\r\n            purchasedNFTs[msg.sender].add(tokenId);\r\n        }\r\n\r\n        // Calculamos los porcentajes que se lleva cada parte y hacemos la transferencia de los tokens\r\n        uint256 paymentAmount = price;\r\n        uint256 tokenPlay = paymentAmount.mul(royaltyPercentage).div(100); // royaltypercentage para token play\r\n        uint256 gameOwner = paymentAmount.sub(tokenPlay);  // el restante para game owner\r\n\r\n        payable(owner()).transfer(tokenPlay);\r\n        payable(gamesInfo[tokenId].gameOwnerAddress).transfer(gameOwner);\r\n\r\n        // Si el usuario ha pagado de mas, le devolvemos el dinero\r\n        if (msg.value > price) {\r\n            payable(msg.sender).transfer(msg.value - price);\r\n        }\r\n    }\r\n\r\n    // Funcion para obtener los juegos que ha comprado un usuario\r\n    function getPurchasedNFTs(address account) external view returns (PurchasedNft[] memory) {\r\n        PurchasedNft[] memory accountGames = new PurchasedNft[](purchasedNFTs[account].length());\r\n\r\n        for (uint256 i = 0; i < purchasedNFTs[account].length(); i++) {\r\n            uint256 id = purchasedNFTs[account].at(i);\r\n            accountGames[i].game = gamesInfo[id];\r\n            accountGames[i].qty = balanceOf(account, id);\r\n        }\r\n\r\n        return accountGames;\r\n    }\r\n\r\n    // Funcin para obtener todos los juegos disponibles\r\n    function getNFTs() external view returns (NftGameInfo[] memory) {\r\n        NftGameInfo[] memory allNFTs = new NftGameInfo[](nextTokenId);\r\n\r\n        for (uint256 i = 0; i < nextTokenId; i++) {\r\n            NftGameInfo storage nftInfo = gamesInfo[i];\r\n            allNFTs[i] = nftInfo;\r\n        }\r\n\r\n        return allNFTs;\r\n    }\r\n\r\n    // Funcin para que el propietario retire los fondos acumulados\r\n    function withdrawBalance() external onlyOwner {\r\n        payable(owner()).transfer(address(this).balance);\r\n    }\r\n\r\n    // Funcin para cambiar el porcentaje de royalty que nos llevamos\r\n    function setRoyaltyPercentage(uint256 percentage) public onlyOwner {\r\n        royaltyPercentage = percentage;\r\n    }\r\n\r\n    // Funcin para activar o desactivar la compra de juegos (tokens)\r\n    function flipMintState() public onlyOwner {\r\n        mintIsActive = ! mintIsActive;\r\n    }\r\n\r\n    // Override de la funcin porque el estndard ERC1155 lo exige\r\n    function uri(uint256 tokenId) public view virtual override(ERC1155, ERC1155URIStorage) returns (string memory) {\r\n        require(tokenId > 0 && tokenId < nextTokenId, \"Invalid token ID\");\r\n        return gamesInfo[tokenId].imageUrl;\r\n    }\r\n}\r\n",
  "sourcePath": "C:\\Users\\User\\Desktop\\PC\\2_Master\\BSM_Engineering\\TFM\\DAPP\\dapp\\contracts\\NFTGames.sol",
  "compiler": {
    "name": "solc",
    "version": "0.8.19+commit.7dd6d404.Emscripten.clang"
  },
  "schemaVersion": "3.4.14",
  "updatedAt": "2023-08-22T11:32:37.697Z",
  "devdoc": {
    "events": {
      "ApprovalForAll(address,address,bool)": {
        "details": "Emitted when `account` grants or revokes permission to `operator` to transfer their tokens, according to `approved`."
      },
      "TransferBatch(address,address,address,uint256[],uint256[])": {
        "details": "Equivalent to multiple {TransferSingle} events, where `operator`, `from` and `to` are the same for all transfers."
      },
      "TransferSingle(address,address,address,uint256,uint256)": {
        "details": "Emitted when `value` tokens of token type `id` are transferred from `from` to `to` by `operator`."
      },
      "URI(string,uint256)": {
        "details": "Emitted when the URI for token type `id` changes to `value`, if it is a non-programmatic URI. If an {URI} event was emitted for `id`, the standard https://eips.ethereum.org/EIPS/eip-1155#metadata-extensions[guarantees] that `value` will equal the value returned by {IERC1155MetadataURI-uri}."
      }
    },
    "kind": "dev",
    "methods": {
      "balanceOf(address,uint256)": {
        "details": "See {IERC1155-balanceOf}. Requirements: - `account` cannot be the zero address."
      },
      "balanceOfBatch(address[],uint256[])": {
        "details": "See {IERC1155-balanceOfBatch}. Requirements: - `accounts` and `ids` must have the same length."
      },
      "isApprovedForAll(address,address)": {
        "details": "See {IERC1155-isApprovedForAll}."
      },
      "owner()": {
        "details": "Returns the address of the current owner."
      },
      "renounceOwnership()": {
        "details": "Leaves the contract without owner. It will not be possible to call `onlyOwner` functions. Can only be called by the current owner. NOTE: Renouncing ownership will leave the contract without an owner, thereby disabling any functionality that is only available to the owner."
      },
      "safeBatchTransferFrom(address,address,uint256[],uint256[],bytes)": {
        "details": "See {IERC1155-safeBatchTransferFrom}."
      },
      "safeTransferFrom(address,address,uint256,uint256,bytes)": {
        "details": "See {IERC1155-safeTransferFrom}."
      },
      "setApprovalForAll(address,bool)": {
        "details": "See {IERC1155-setApprovalForAll}."
      },
      "supportsInterface(bytes4)": {
        "details": "See {IERC165-supportsInterface}."
      },
      "transferOwnership(address)": {
        "details": "Transfers ownership of the contract to a new account (`newOwner`). Can only be called by the current owner."
      }
    },
    "version": 1
  },
  "userdoc": {
    "kind": "user",
    "methods": {},
    "version": 1
  }
}