{
  "contractName": "TOKENPLAY",
  "abi": [
    {
      "inputs": [
        {
          "internalType": "string",
          "name": "_baseURI",
          "type": "string"
        }
      ],
      "stateMutability": "nonpayable",
      "type": "constructor"
    },
    {
      "anonymous": false,
      "inputs": [
        {
          "indexed": true,
          "internalType": "address",
          "name": "account",
          "type": "address"
        },
        {
          "indexed": true,
          "internalType": "address",
          "name": "operator",
          "type": "address"
        },
        {
          "indexed": false,
          "internalType": "bool",
          "name": "approved",
          "type": "bool"
        }
      ],
      "name": "ApprovalForAll",
      "type": "event"
    },
    {
      "anonymous": false,
      "inputs": [
        {
          "indexed": false,
          "internalType": "string",
          "name": "newBaseURI",
          "type": "string"
        }
      ],
      "name": "BaseURISet",
      "type": "event"
    },
    {
      "anonymous": false,
      "inputs": [
        {
          "indexed": true,
          "internalType": "address",
          "name": "marketplace",
          "type": "address"
        }
      ],
      "name": "MarketplaceApproved",
      "type": "event"
    },
    {
      "anonymous": false,
      "inputs": [
        {
          "indexed": false,
          "internalType": "bool",
          "name": "newState",
          "type": "bool"
        }
      ],
      "name": "MintingStateToggled",
      "type": "event"
    },
    {
      "anonymous": false,
      "inputs": [
        {
          "indexed": true,
          "internalType": "uint256",
          "name": "tokenId",
          "type": "uint256"
        },
        {
          "indexed": false,
          "internalType": "uint256",
          "name": "price",
          "type": "uint256"
        },
        {
          "indexed": true,
          "internalType": "address",
          "name": "gameOwnerAddress",
          "type": "address"
        },
        {
          "indexed": false,
          "internalType": "uint256",
          "name": "supply",
          "type": "uint256"
        },
        {
          "indexed": false,
          "internalType": "uint256",
          "name": "tokenPlayRoyaltyPercentage",
          "type": "uint256"
        },
        {
          "indexed": false,
          "internalType": "uint256",
          "name": "gameRelease",
          "type": "uint256"
        }
      ],
      "name": "NFTAdded",
      "type": "event"
    },
    {
      "anonymous": false,
      "inputs": [
        {
          "indexed": true,
          "internalType": "uint256",
          "name": "tokenId",
          "type": "uint256"
        },
        {
          "indexed": false,
          "internalType": "uint256",
          "name": "newPrice",
          "type": "uint256"
        }
      ],
      "name": "NFTPriceChanged",
      "type": "event"
    },
    {
      "anonymous": false,
      "inputs": [
        {
          "indexed": true,
          "internalType": "address",
          "name": "previousOwner",
          "type": "address"
        },
        {
          "indexed": true,
          "internalType": "address",
          "name": "newOwner",
          "type": "address"
        }
      ],
      "name": "OwnershipTransferred",
      "type": "event"
    },
    {
      "anonymous": false,
      "inputs": [
        {
          "indexed": false,
          "internalType": "address",
          "name": "account",
          "type": "address"
        }
      ],
      "name": "Paused",
      "type": "event"
    },
    {
      "anonymous": false,
      "inputs": [
        {
          "indexed": true,
          "internalType": "address",
          "name": "minter",
          "type": "address"
        },
        {
          "indexed": true,
          "internalType": "uint256",
          "name": "tokenId",
          "type": "uint256"
        }
      ],
      "name": "Purchased",
      "type": "event"
    },
    {
      "anonymous": false,
      "inputs": [
        {
          "indexed": true,
          "internalType": "uint256",
          "name": "tokenId",
          "type": "uint256"
        },
        {
          "indexed": false,
          "internalType": "uint256",
          "name": "newRoyaltyPercentage",
          "type": "uint256"
        }
      ],
      "name": "RoyaltyPercentageChanged",
      "type": "event"
    },
    {
      "anonymous": false,
      "inputs": [
        {
          "indexed": true,
          "internalType": "address",
          "name": "operator",
          "type": "address"
        },
        {
          "indexed": true,
          "internalType": "address",
          "name": "from",
          "type": "address"
        },
        {
          "indexed": true,
          "internalType": "address",
          "name": "to",
          "type": "address"
        },
        {
          "indexed": false,
          "internalType": "uint256[]",
          "name": "ids",
          "type": "uint256[]"
        },
        {
          "indexed": false,
          "internalType": "uint256[]",
          "name": "values",
          "type": "uint256[]"
        }
      ],
      "name": "TransferBatch",
      "type": "event"
    },
    {
      "anonymous": false,
      "inputs": [
        {
          "indexed": true,
          "internalType": "address",
          "name": "operator",
          "type": "address"
        },
        {
          "indexed": true,
          "internalType": "address",
          "name": "from",
          "type": "address"
        },
        {
          "indexed": true,
          "internalType": "address",
          "name": "to",
          "type": "address"
        },
        {
          "indexed": false,
          "internalType": "uint256",
          "name": "id",
          "type": "uint256"
        },
        {
          "indexed": false,
          "internalType": "uint256",
          "name": "value",
          "type": "uint256"
        }
      ],
      "name": "TransferSingle",
      "type": "event"
    },
    {
      "anonymous": false,
      "inputs": [
        {
          "indexed": false,
          "internalType": "string",
          "name": "value",
          "type": "string"
        },
        {
          "indexed": true,
          "internalType": "uint256",
          "name": "id",
          "type": "uint256"
        }
      ],
      "name": "URI",
      "type": "event"
    },
    {
      "anonymous": false,
      "inputs": [
        {
          "indexed": false,
          "internalType": "address",
          "name": "account",
          "type": "address"
        }
      ],
      "name": "Unpaused",
      "type": "event"
    },
    {
      "inputs": [
        {
          "internalType": "uint256",
          "name": "",
          "type": "uint256"
        }
      ],
      "name": "_totalSupply",
      "outputs": [
        {
          "internalType": "uint256",
          "name": "",
          "type": "uint256"
        }
      ],
      "stateMutability": "view",
      "type": "function",
      "constant": true
    },
    {
      "inputs": [
        {
          "internalType": "address",
          "name": "account",
          "type": "address"
        },
        {
          "internalType": "uint256",
          "name": "id",
          "type": "uint256"
        }
      ],
      "name": "balanceOf",
      "outputs": [
        {
          "internalType": "uint256",
          "name": "",
          "type": "uint256"
        }
      ],
      "stateMutability": "view",
      "type": "function",
      "constant": true
    },
    {
      "inputs": [
        {
          "internalType": "address[]",
          "name": "accounts",
          "type": "address[]"
        },
        {
          "internalType": "uint256[]",
          "name": "ids",
          "type": "uint256[]"
        }
      ],
      "name": "balanceOfBatch",
      "outputs": [
        {
          "internalType": "uint256[]",
          "name": "",
          "type": "uint256[]"
        }
      ],
      "stateMutability": "view",
      "type": "function",
      "constant": true
    },
    {
      "inputs": [
        {
          "internalType": "uint256",
          "name": "",
          "type": "uint256"
        }
      ],
      "name": "gamesInfo",
      "outputs": [
        {
          "internalType": "uint256",
          "name": "tokenId",
          "type": "uint256"
        },
        {
          "internalType": "uint256",
          "name": "price",
          "type": "uint256"
        },
        {
          "internalType": "address",
          "name": "gameOwnerAddress",
          "type": "address"
        },
        {
          "internalType": "uint256",
          "name": "supply",
          "type": "uint256"
        },
        {
          "internalType": "uint256",
          "name": "tokenPlayRoyaltyPercentage",
          "type": "uint256"
        },
        {
          "internalType": "uint256",
          "name": "gameRelease",
          "type": "uint256"
        }
      ],
      "stateMutability": "view",
      "type": "function",
      "constant": true
    },
    {
      "inputs": [
        {
          "internalType": "address",
          "name": "account",
          "type": "address"
        },
        {
          "internalType": "address",
          "name": "operator",
          "type": "address"
        }
      ],
      "name": "isApprovedForAll",
      "outputs": [
        {
          "internalType": "bool",
          "name": "",
          "type": "bool"
        }
      ],
      "stateMutability": "view",
      "type": "function",
      "constant": true
    },
    {
      "inputs": [],
      "name": "mintIsActive",
      "outputs": [
        {
          "internalType": "bool",
          "name": "",
          "type": "bool"
        }
      ],
      "stateMutability": "view",
      "type": "function",
      "constant": true
    },
    {
      "inputs": [
        {
          "internalType": "uint256",
          "name": "",
          "type": "uint256"
        }
      ],
      "name": "nGames",
      "outputs": [
        {
          "internalType": "uint256",
          "name": "",
          "type": "uint256"
        }
      ],
      "stateMutability": "view",
      "type": "function",
      "constant": true
    },
    {
      "inputs": [],
      "name": "nextTokenId",
      "outputs": [
        {
          "internalType": "uint256",
          "name": "",
          "type": "uint256"
        }
      ],
      "stateMutability": "view",
      "type": "function",
      "constant": true
    },
    {
      "inputs": [],
      "name": "owner",
      "outputs": [
        {
          "internalType": "address",
          "name": "",
          "type": "address"
        }
      ],
      "stateMutability": "view",
      "type": "function",
      "constant": true
    },
    {
      "inputs": [],
      "name": "paused",
      "outputs": [
        {
          "internalType": "bool",
          "name": "",
          "type": "bool"
        }
      ],
      "stateMutability": "view",
      "type": "function",
      "constant": true
    },
    {
      "inputs": [],
      "name": "renounceOwnership",
      "outputs": [],
      "stateMutability": "nonpayable",
      "type": "function"
    },
    {
      "inputs": [
        {
          "internalType": "address",
          "name": "from",
          "type": "address"
        },
        {
          "internalType": "address",
          "name": "to",
          "type": "address"
        },
        {
          "internalType": "uint256[]",
          "name": "ids",
          "type": "uint256[]"
        },
        {
          "internalType": "uint256[]",
          "name": "amounts",
          "type": "uint256[]"
        },
        {
          "internalType": "bytes",
          "name": "data",
          "type": "bytes"
        }
      ],
      "name": "safeBatchTransferFrom",
      "outputs": [],
      "stateMutability": "nonpayable",
      "type": "function"
    },
    {
      "inputs": [
        {
          "internalType": "address",
          "name": "from",
          "type": "address"
        },
        {
          "internalType": "address",
          "name": "to",
          "type": "address"
        },
        {
          "internalType": "uint256",
          "name": "id",
          "type": "uint256"
        },
        {
          "internalType": "uint256",
          "name": "amount",
          "type": "uint256"
        },
        {
          "internalType": "bytes",
          "name": "data",
          "type": "bytes"
        }
      ],
      "name": "safeTransferFrom",
      "outputs": [],
      "stateMutability": "nonpayable",
      "type": "function"
    },
    {
      "inputs": [
        {
          "internalType": "address",
          "name": "operator",
          "type": "address"
        },
        {
          "internalType": "bool",
          "name": "approved",
          "type": "bool"
        }
      ],
      "name": "setApprovalForAll",
      "outputs": [],
      "stateMutability": "nonpayable",
      "type": "function"
    },
    {
      "inputs": [
        {
          "internalType": "bytes4",
          "name": "interfaceId",
          "type": "bytes4"
        }
      ],
      "name": "supportsInterface",
      "outputs": [
        {
          "internalType": "bool",
          "name": "",
          "type": "bool"
        }
      ],
      "stateMutability": "view",
      "type": "function",
      "constant": true
    },
    {
      "inputs": [
        {
          "internalType": "address",
          "name": "newOwner",
          "type": "address"
        }
      ],
      "name": "transferOwnership",
      "outputs": [],
      "stateMutability": "nonpayable",
      "type": "function"
    },
    {
      "inputs": [
        {
          "internalType": "uint256",
          "name": "tokenId",
          "type": "uint256"
        },
        {
          "internalType": "uint256",
          "name": "price",
          "type": "uint256"
        },
        {
          "internalType": "address",
          "name": "gameOwnerAddress",
          "type": "address"
        },
        {
          "internalType": "uint256",
          "name": "supply",
          "type": "uint256"
        },
        {
          "internalType": "uint256",
          "name": "tokenPlayRoyaltyPercentage",
          "type": "uint256"
        },
        {
          "internalType": "uint256",
          "name": "gameRelease",
          "type": "uint256"
        }
      ],
      "name": "addNFT",
      "outputs": [],
      "stateMutability": "nonpayable",
      "type": "function"
    },
    {
      "inputs": [
        {
          "internalType": "uint256",
          "name": "tokenId",
          "type": "uint256"
        }
      ],
      "name": "purchaseNFT",
      "outputs": [],
      "stateMutability": "payable",
      "type": "function",
      "payable": true
    },
    {
      "inputs": [
        {
          "internalType": "address",
          "name": "account",
          "type": "address"
        }
      ],
      "name": "getPurchasedNFTs",
      "outputs": [
        {
          "components": [
            {
              "components": [
                {
                  "internalType": "uint256",
                  "name": "tokenId",
                  "type": "uint256"
                },
                {
                  "internalType": "uint256",
                  "name": "price",
                  "type": "uint256"
                },
                {
                  "internalType": "address",
                  "name": "gameOwnerAddress",
                  "type": "address"
                },
                {
                  "internalType": "uint256",
                  "name": "supply",
                  "type": "uint256"
                },
                {
                  "internalType": "uint256",
                  "name": "tokenPlayRoyaltyPercentage",
                  "type": "uint256"
                },
                {
                  "internalType": "uint256",
                  "name": "gameRelease",
                  "type": "uint256"
                }
              ],
              "internalType": "struct TOKENPLAY.NftGameInfo",
              "name": "game",
              "type": "tuple"
            },
            {
              "internalType": "uint256",
              "name": "qty",
              "type": "uint256"
            }
          ],
          "internalType": "struct TOKENPLAY.PurchasedNft[]",
          "name": "",
          "type": "tuple[]"
        }
      ],
      "stateMutability": "view",
      "type": "function",
      "constant": true
    },
    {
      "inputs": [],
      "name": "getNFTs",
      "outputs": [
        {
          "components": [
            {
              "internalType": "uint256",
              "name": "tokenId",
              "type": "uint256"
            },
            {
              "internalType": "uint256",
              "name": "price",
              "type": "uint256"
            },
            {
              "internalType": "address",
              "name": "gameOwnerAddress",
              "type": "address"
            },
            {
              "internalType": "uint256",
              "name": "supply",
              "type": "uint256"
            },
            {
              "internalType": "uint256",
              "name": "tokenPlayRoyaltyPercentage",
              "type": "uint256"
            },
            {
              "internalType": "uint256",
              "name": "gameRelease",
              "type": "uint256"
            }
          ],
          "internalType": "struct TOKENPLAY.NftGameInfo[]",
          "name": "",
          "type": "tuple[]"
        }
      ],
      "stateMutability": "view",
      "type": "function",
      "constant": true
    },
    {
      "inputs": [
        {
          "internalType": "uint256",
          "name": "tokenId",
          "type": "uint256"
        },
        {
          "internalType": "uint256",
          "name": "royaltyPercentage",
          "type": "uint256"
        }
      ],
      "name": "setRoyaltyPercentage",
      "outputs": [],
      "stateMutability": "nonpayable",
      "type": "function"
    },
    {
      "inputs": [
        {
          "internalType": "uint256",
          "name": "tokenId",
          "type": "uint256"
        },
        {
          "internalType": "uint256",
          "name": "_mintPrice",
          "type": "uint256"
        }
      ],
      "name": "setMintPrice",
      "outputs": [],
      "stateMutability": "nonpayable",
      "type": "function"
    },
    {
      "inputs": [
        {
          "internalType": "uint256",
          "name": "tokenId",
          "type": "uint256"
        }
      ],
      "name": "totalSupply",
      "outputs": [
        {
          "internalType": "uint256",
          "name": "",
          "type": "uint256"
        }
      ],
      "stateMutability": "view",
      "type": "function",
      "constant": true
    },
    {
      "inputs": [],
      "name": "flipMintState",
      "outputs": [],
      "stateMutability": "nonpayable",
      "type": "function"
    },
    {
      "inputs": [
        {
          "internalType": "uint256",
          "name": "tokenId",
          "type": "uint256"
        }
      ],
      "name": "uri",
      "outputs": [
        {
          "internalType": "string",
          "name": "",
          "type": "string"
        }
      ],
      "stateMutability": "view",
      "type": "function",
      "constant": true
    },
    {
      "inputs": [
        {
          "internalType": "string",
          "name": "baseURI",
          "type": "string"
        }
      ],
      "name": "setBaseURI",
      "outputs": [],
      "stateMutability": "nonpayable",
      "type": "function"
    },
    {
      "inputs": [
        {
          "internalType": "address",
          "name": "marketplace",
          "type": "address"
        }
      ],
      "name": "approveMarketplace",
      "outputs": [],
      "stateMutability": "nonpayable",
      "type": "function"
    }
  ],
  "bytecode": "0x6080604052604051806020016040528060008152506003908162000024919062000458565b506000600760016101000a81548160ff02191690831515021790555060006008553480156200005257600080fd5b5060405162006181380380620061818339818101604052810190620000789190620006a3565b806200008a81620000e660201b60201c565b50620000ab6200009f620000fb60201b60201c565b6200010360201b60201c565b60016006819055506000600760006101000a81548160ff021916908315150217905550620000df81620001c960201b60201c565b50620006f4565b8060029081620000f7919062000458565b5050565b600033905090565b6000600560009054906101000a900473ffffffffffffffffffffffffffffffffffffffff16905081600560006101000a81548173ffffffffffffffffffffffffffffffffffffffff021916908373ffffffffffffffffffffffffffffffffffffffff1602179055508173ffffffffffffffffffffffffffffffffffffffff168173ffffffffffffffffffffffffffffffffffffffff167f8be0079c531659141344cd1fd0a4f28419497f9722a3daafe3b4186f6b6457e060405160405180910390a35050565b8060039081620001da919062000458565b5050565b600081519050919050565b7f4e487b7100000000000000000000000000000000000000000000000000000000600052604160045260246000fd5b7f4e487b7100000000000000000000000000000000000000000000000000000000600052602260045260246000fd5b600060028204905060018216806200026057607f821691505b60208210810362000276576200027562000218565b5b50919050565b60008190508160005260206000209050919050565b60006020601f8301049050919050565b600082821b905092915050565b600060088302620002e07fffffffffffffffffffffffffffffffffffffffffffffffffffffffffffffffff82620002a1565b620002ec8683620002a1565b95508019841693508086168417925050509392505050565b6000819050919050565b6000819050919050565b600062000339620003336200032d8462000304565b6200030e565b62000304565b9050919050565b6000819050919050565b620003558362000318565b6200036d620003648262000340565b848454620002ae565b825550505050565b600090565b6200038462000375565b620003918184846200034a565b505050565b5b81811015620003b957620003ad6000826200037a565b60018101905062000397565b5050565b601f8211156200040857620003d2816200027c565b620003dd8462000291565b81016020851015620003ed578190505b62000405620003fc8562000291565b83018262000396565b50505b505050565b600082821c905092915050565b60006200042d600019846008026200040d565b1980831691505092915050565b60006200044883836200041a565b9150826002028217905092915050565b6200046382620001de565b67ffffffffffffffff8111156200047f576200047e620001e9565b5b6200048b825462000247565b62000498828285620003bd565b600060209050601f831160018114620004d05760008415620004bb578287015190505b620004c785826200043a565b86555062000537565b601f198416620004e0866200027c565b60005b828110156200050a57848901518255600182019150602085019450602081019050620004e3565b868310156200052a578489015162000526601f8916826200041a565b8355505b6001600288020188555050505b505050505050565b6000604051905090565b600080fd5b600080fd5b600080fd5b600080fd5b6000601f19601f8301169050919050565b62000579826200055d565b810181811067ffffffffffffffff821117156200059b576200059a620001e9565b5b80604052505050565b6000620005b06200053f565b9050620005be82826200056e565b919050565b600067ffffffffffffffff821115620005e157620005e0620001e9565b5b620005ec826200055d565b9050602081019050919050565b60005b8381101562000619578082015181840152602081019050620005fc565b60008484015250505050565b60006200063c6200063684620005c3565b620005a4565b9050828152602081018484840111156200065b576200065a62000558565b5b62000668848285620005f9565b509392505050565b600082601f83011262000688576200068762000553565b5b81516200069a84826020860162000625565b91505092915050565b600060208284031215620006bc57620006bb62000549565b5b600082015167ffffffffffffffff811115620006dd57620006dc6200054e565b5b620006eb8482850162000670565b91505092915050565b615a7d80620007046000396000f3fe60806040526004361061019b5760003560e01c806355f804b3116100ec578063a22cb4651161008a578063e206dc2e11610064578063e206dc2e146105cd578063e985e9c51461060a578063f242432a14610647578063f2fde38b146106705761019b565b8063a22cb4651461052a578063b0cc532814610553578063bd85b039146105905761019b565b80635c975abb116100c65780635c975abb14610492578063715018a6146104bd57806375794a3c146104d45780638da5cb5b146104ff5761019b565b806355f804b3146104155780635977e82a1461043e57806359c74f291461047b5761019b565b80632eb2c2d61161015957806342fd245f1161013357806342fd245f1461035b578063471a4294146103845780634e1273f4146103af5780634f83489b146103ec5761019b565b80632eb2c2d6146102c757806340694256146102f057806341d6f9c2146103325761019b565b8062fdd58e146101a057806301ffc9a7146101dd5780630442bfa81461021a5780630e89341c14610243578063150bde0314610280578063227212f21461029c575b600080fd5b3480156101ac57600080fd5b506101c760048036038101906101c2919061359a565b610699565b6040516101d491906135e9565b60405180910390f35b3480156101e957600080fd5b5061020460048036038101906101ff919061365c565b610761565b60405161021191906136a4565b60405180910390f35b34801561022657600080fd5b50610241600480360381019061023c91906136bf565b610843565b005b34801561024f57600080fd5b5061026a600480360381019061026591906136ff565b610936565b60405161027791906137bc565b60405180910390f35b61029a600480360381019061029591906136ff565b610990565b005b3480156102a857600080fd5b506102b1610ec8565b6040516102be9190613926565b60405180910390f35b3480156102d357600080fd5b506102ee60048036038101906102e99190613b45565b61109f565b005b3480156102fc57600080fd5b50610317600480360381019061031291906136ff565b611140565b60405161032996959493929190613c23565b60405180910390f35b34801561033e57600080fd5b50610359600480360381019061035491906136bf565b61119c565b005b34801561036757600080fd5b50610382600480360381019061037d9190613c84565b611254565b005b34801561039057600080fd5b506103996115bf565b6040516103a691906136a4565b60405180910390f35b3480156103bb57600080fd5b506103d660048036038101906103d19190613dd4565b6115d2565b6040516103e39190613efb565b60405180910390f35b3480156103f857600080fd5b50610413600480360381019061040e9190613f1d565b6116eb565b005b34801561042157600080fd5b5061043c60048036038101906104379190613feb565b6117bb565b005b34801561044a57600080fd5b50610465600480360381019061046091906136ff565b6118a5565b60405161047291906135e9565b60405180910390f35b34801561048757600080fd5b506104906118bd565b005b34801561049e57600080fd5b506104a761193f565b6040516104b491906136a4565b60405180910390f35b3480156104c957600080fd5b506104d2611956565b005b3480156104e057600080fd5b506104e961196a565b6040516104f691906135e9565b60405180910390f35b34801561050b57600080fd5b50610514611970565b6040516105219190614034565b60405180910390f35b34801561053657600080fd5b50610551600480360381019061054c919061407b565b61199a565b005b34801561055f57600080fd5b5061057a600480360381019061057591906136ff565b6119b0565b60405161058791906135e9565b60405180910390f35b34801561059c57600080fd5b506105b760048036038101906105b291906136ff565b6119c8565b6040516105c491906135e9565b60405180910390f35b3480156105d957600080fd5b506105f460048036038101906105ef9190613f1d565b611a2d565b6040516106019190614199565b60405180910390f35b34801561061657600080fd5b50610631600480360381019061062c91906141bb565b611d84565b60405161063e91906136a4565b60405180910390f35b34801561065357600080fd5b5061066e600480360381019061066991906141fb565b611e18565b005b34801561067c57600080fd5b5061069760048036038101906106929190613f1d565b611eb9565b005b60008073ffffffffffffffffffffffffffffffffffffffff168373ffffffffffffffffffffffffffffffffffffffff1603610709576040517f08c379a000000000000000000000000000000000000000000000000000000000815260040161070090614304565b60405180910390fd5b60008083815260200190815260200160002060008473ffffffffffffffffffffffffffffffffffffffff1673ffffffffffffffffffffffffffffffffffffffff16815260200190815260200160002054905092915050565b60007fd9b67a26000000000000000000000000000000000000000000000000000000007bffffffffffffffffffffffffffffffffffffffffffffffffffffffff1916827bffffffffffffffffffffffffffffffffffffffffffffffffffffffff1916148061082c57507f0e89341c000000000000000000000000000000000000000000000000000000007bffffffffffffffffffffffffffffffffffffffffffffffffffffffff1916827bffffffffffffffffffffffffffffffffffffffffffffffffffffffff1916145b8061083c575061083b82611f3c565b5b9050919050565b61084b611fa6565b610853612024565b61085c8261206e565b61089b576040517f08c379a000000000000000000000000000000000000000000000000000000000815260040161089290614370565b60405180910390fd5b60008110156108df576040517f08c379a00000000000000000000000000000000000000000000000000000000081526004016108d6906143dc565b60405180910390fd5b806009600084815260200190815260200160002060010181905550817f39c0d3343dcaca0906e186779c0e59726f88182c606a921871c82eac377229fd8260405161092a91906135e9565b60405180910390a25050565b60606109418261206e565b610980576040517f08c379a000000000000000000000000000000000000000000000000000000000815260040161097790614370565b60405180910390fd5b61098982612090565b9050919050565b610998612175565b6109a0612024565b600760019054906101000a900460ff166109ef576040517f08c379a00000000000000000000000000000000000000000000000000000000081526004016109e690614448565b60405180910390fd5b600060085411610a34576040517f08c379a0000000000000000000000000000000000000000000000000000000008152600401610a2b906144b4565b60405180910390fd5b610a3d8161206e565b610a7c576040517f08c379a0000000000000000000000000000000000000000000000000000000008152600401610a7390614370565b60405180910390fd5b60006009600083815260200190815260200160002060010154905080341015610ada576040517f08c379a0000000000000000000000000000000000000000000000000000000008152600401610ad190614520565b60405180910390fd5b6000600960008481526020019081526020016000206003015411610b33576040517f08c379a0000000000000000000000000000000000000000000000000000000008152600401610b2a9061458c565b60405180910390fd5b4260096000848152602001908152602001600020600501541115610b8c576040517f08c379a0000000000000000000000000000000000000000000000000000000008152600401610b83906145f8565b60405180910390fd5b610ba833836001604051806020016040528060008152506121c4565b610bf982600a60003373ffffffffffffffffffffffffffffffffffffffff1673ffffffffffffffffffffffffffffffffffffffff16815260200190815260200160002061237490919063ffffffff16565b610c5057610c4e82600a60003373ffffffffffffffffffffffffffffffffffffffff1673ffffffffffffffffffffffffffffffffffffffff16815260200190815260200160002061238e90919063ffffffff16565b505b610c8182610c5d846123a8565b604051602001610c6d91906146a0565b604051602081830303815290604052612476565b610cab600160096000858152602001908152602001600020600301546124db90919063ffffffff16565b60096000848152602001908152602001600020600301819055506009600083815260200190815260200160002060030154600c60008481526020019081526020016000208190555060008190506000610d366064610d286009600088815260200190815260200160002060040154856124f190919063ffffffff16565b61250790919063ffffffff16565b90506000610d4d82846124db90919063ffffffff16565b9050610d57611970565b73ffffffffffffffffffffffffffffffffffffffff166108fc839081150290604051600060405180830381858888f19350505050158015610d9c573d6000803e3d6000fd5b506009600086815260200190815260200160002060020160009054906101000a900473ffffffffffffffffffffffffffffffffffffffff1673ffffffffffffffffffffffffffffffffffffffff166108fc829081150290604051600060405180830381858888f19350505050158015610e19573d6000803e3d6000fd5b5083341115610e75573373ffffffffffffffffffffffffffffffffffffffff166108fc8534610e4891906146f1565b9081150290604051600060405180830381858888f19350505050158015610e73573d6000803e3d6000fd5b505b843373ffffffffffffffffffffffffffffffffffffffff167fa512fb2532ca8587f236380171326ebb69670e86a2ba0c4412a3fcca4c3ada9b60405160405180910390a350505050610ec561251d565b50565b6060600060085411610f0f576040517f08c379a0000000000000000000000000000000000000000000000000000000008152600401610f06906144b4565b60405180910390fd5b600060085467ffffffffffffffff811115610f2d57610f2c61394d565b5b604051908082528060200260200182016040528015610f6657816020015b610f53613486565b815260200190600190039081610f4b5790505b50905060005b600854811015611097574260096000600b6000858152602001908152602001600020548152602001908152602001600020600501541161108457600060096000600b60008581526020019081526020016000205481526020019081526020016000209050806040518060c001604052908160008201548152602001600182015481526020016002820160009054906101000a900473ffffffffffffffffffffffffffffffffffffffff1673ffffffffffffffffffffffffffffffffffffffff1673ffffffffffffffffffffffffffffffffffffffff168152602001600382015481526020016004820154815260200160058201548152505083838151811061107757611076614725565b5b6020026020010181905250505b808061108f90614754565b915050610f6c565b508091505090565b6110a7612527565b73ffffffffffffffffffffffffffffffffffffffff168573ffffffffffffffffffffffffffffffffffffffff1614806110ed57506110ec856110e7612527565b611d84565b5b61112c576040517f08c379a00000000000000000000000000000000000000000000000000000000081526004016111239061480e565b60405180910390fd5b611139858585858561252f565b5050505050565b60096020528060005260406000206000915090508060000154908060010154908060020160009054906101000a900473ffffffffffffffffffffffffffffffffffffffff16908060030154908060040154908060050154905086565b6111a4611fa6565b6111ac612024565b600081101580156111be575060648111155b6111fd576040517f08c379a00000000000000000000000000000000000000000000000000000000081526004016111f49061487a565b60405180910390fd5b806009600084815260200190815260200160002060040181905550817f53370c0001decf439b377b84b0a32c0753378f9d6acb4c2be8f6e9a0fccc13af8260405161124891906135e9565b60405180910390a25050565b61125c611fa6565b6112658661206e565b156112a5576040517f08c379a000000000000000000000000000000000000000000000000000000000815260040161129c906148e6565b60405180910390fd5b600085116112e8576040517f08c379a00000000000000000000000000000000000000000000000000000000081526004016112df90614952565b60405180910390fd5b600073ffffffffffffffffffffffffffffffffffffffff168473ffffffffffffffffffffffffffffffffffffffff1603611357576040517f08c379a000000000000000000000000000000000000000000000000000000000815260040161134e906149be565b60405180910390fd5b3073ffffffffffffffffffffffffffffffffffffffff168473ffffffffffffffffffffffffffffffffffffffff160361138f57600080fd5b600083116113d2576040517f08c379a00000000000000000000000000000000000000000000000000000000081526004016113c990614a2a565b60405180910390fd5b6000821015611416576040517f08c379a000000000000000000000000000000000000000000000000000000000815260040161140d90614a96565b60405180910390fd5b600081101561145a576040517f08c379a000000000000000000000000000000000000000000000000000000000815260040161145190614b02565b60405180910390fd5b85600b600060085481526020019081526020016000208190555061148a600160085461285090919063ffffffff16565b6008819055506040518060c001604052808781526020018681526020018573ffffffffffffffffffffffffffffffffffffffff1681526020018481526020018381526020018281525060096000888152602001908152602001600020600082015181600001556020820151816001015560408201518160020160006101000a81548173ffffffffffffffffffffffffffffffffffffffff021916908373ffffffffffffffffffffffffffffffffffffffff160217905550606082015181600301556080820151816004015560a082015181600501559050508373ffffffffffffffffffffffffffffffffffffffff16867f9849f17e0bab8bb7f83a2f279801a16425c61790ed64d22bb579f7583ce4ac39878686866040516115af9493929190614b22565b60405180910390a3505050505050565b600760019054906101000a900460ff1681565b60608151835114611618576040517f08c379a000000000000000000000000000000000000000000000000000000000815260040161160f90614bd9565b60405180910390fd5b6000835167ffffffffffffffff8111156116355761163461394d565b5b6040519080825280602002602001820160405280156116635781602001602082028036833780820191505090505b50905060005b84518110156116e0576116b085828151811061168857611687614725565b5b60200260200101518583815181106116a3576116a2614725565b5b6020026020010151610699565b8282815181106116c3576116c2614725565b5b602002602001018181525050806116d990614754565b9050611669565b508091505092915050565b6116f3611fa6565b6116fb612024565b600073ffffffffffffffffffffffffffffffffffffffff168173ffffffffffffffffffffffffffffffffffffffff160361176a576040517f08c379a000000000000000000000000000000000000000000000000000000000815260040161176190614c6b565b60405180910390fd5b61177581600161199a565b8073ffffffffffffffffffffffffffffffffffffffff167f6079fa87a18fc2d8411649005d40e2a160bf3aa768b6da9f91ac358e1a9e331960405160405180910390a250565b6117c3611fa6565b6117cb612024565b6117d56000610936565b6040516020016117e59190614c8b565b604051602081830303815290604052805190602001208160405160200161180c9190614c8b565b6040516020818303038152906040528051906020012003611862576040517f08c379a000000000000000000000000000000000000000000000000000000000815260040161185990614cee565b60405180910390fd5b61186b81612866565b7ff9c7803e94e0d3c02900d8a90893a6d5e90dd04d32a4cfe825520f82bf9f32f68160405161189a91906137bc565b60405180910390a150565b600c6020528060005260406000206000915090505481565b6118c5611fa6565b6118cd612024565b600760019054906101000a900460ff1615600760016101000a81548160ff0219169083151502179055507fcd5585d6c08334c541a98e717d2d6c8b7b86922a325507446a0152f0beb279a0600760019054906101000a900460ff1660405161193591906136a4565b60405180910390a1565b6000600760009054906101000a900460ff16905090565b61195e611fa6565b6119686000612879565b565b60085481565b6000600560009054906101000a900473ffffffffffffffffffffffffffffffffffffffff16905090565b6119ac6119a5612527565b838361293f565b5050565b600b6020528060005260406000206000915090505481565b60006119d38261206e565b611a12576040517f08c379a0000000000000000000000000000000000000000000000000000000008152600401611a0990614370565b60405180910390fd5b600c6000838152602001908152602001600020549050919050565b6060600073ffffffffffffffffffffffffffffffffffffffff168273ffffffffffffffffffffffffffffffffffffffff1603611a9e576040517f08c379a0000000000000000000000000000000000000000000000000000000008152600401611a95906149be565b60405180910390fd5b6000611ae7600a60008573ffffffffffffffffffffffffffffffffffffffff1673ffffffffffffffffffffffffffffffffffffffff168152602001908152602001600020612aab565b905060008111611b2c576040517f08c379a0000000000000000000000000000000000000000000000000000000008152600401611b2390614d80565b60405180910390fd5b6000611b75600a60008673ffffffffffffffffffffffffffffffffffffffff1673ffffffffffffffffffffffffffffffffffffffff168152602001908152602001600020612aab565b67ffffffffffffffff811115611b8e57611b8d61394d565b5b604051908082528060200260200182016040528015611bc757816020015b611bb46134d2565b815260200190600190039081611bac5790505b50905060005b611c14600a60008773ffffffffffffffffffffffffffffffffffffffff1673ffffffffffffffffffffffffffffffffffffffff168152602001908152602001600020612aab565b811015611d79576000611c6e82600a60008973ffffffffffffffffffffffffffffffffffffffff1673ffffffffffffffffffffffffffffffffffffffff168152602001908152602001600020612ac090919063ffffffff16565b9050600960008281526020019081526020016000206040518060c001604052908160008201548152602001600182015481526020016002820160009054906101000a900473ffffffffffffffffffffffffffffffffffffffff1673ffffffffffffffffffffffffffffffffffffffff1673ffffffffffffffffffffffffffffffffffffffff1681526020016003820154815260200160048201548152602001600582015481525050838381518110611d2957611d28614725565b5b602002602001015160000181905250611d428682610699565b838381518110611d5557611d54614725565b5b60200260200101516020018181525050508080611d7190614754565b915050611bcd565b508092505050919050565b6000600160008473ffffffffffffffffffffffffffffffffffffffff1673ffffffffffffffffffffffffffffffffffffffff16815260200190815260200160002060008373ffffffffffffffffffffffffffffffffffffffff1673ffffffffffffffffffffffffffffffffffffffff16815260200190815260200160002060009054906101000a900460ff16905092915050565b611e20612527565b73ffffffffffffffffffffffffffffffffffffffff168573ffffffffffffffffffffffffffffffffffffffff161480611e665750611e6585611e60612527565b611d84565b5b611ea5576040517f08c379a0000000000000000000000000000000000000000000000000000000008152600401611e9c9061480e565b60405180910390fd5b611eb28585858585612ada565b5050505050565b611ec1611fa6565b600073ffffffffffffffffffffffffffffffffffffffff168173ffffffffffffffffffffffffffffffffffffffff1603611f30576040517f08c379a0000000000000000000000000000000000000000000000000000000008152600401611f2790614e12565b60405180910390fd5b611f3981612879565b50565b60007f01ffc9a7000000000000000000000000000000000000000000000000000000007bffffffffffffffffffffffffffffffffffffffffffffffffffffffff1916827bffffffffffffffffffffffffffffffffffffffffffffffffffffffff1916149050919050565b611fae612527565b73ffffffffffffffffffffffffffffffffffffffff16611fcc611970565b73ffffffffffffffffffffffffffffffffffffffff1614612022576040517f08c379a000000000000000000000000000000000000000000000000000000000815260040161201990614e7e565b60405180910390fd5b565b61202c61193f565b1561206c576040517f08c379a000000000000000000000000000000000000000000000000000000000815260040161206390614eea565b60405180910390fd5b565b6000816009600084815260200190815260200160002060000154149050919050565b606060006004600084815260200190815260200160002080546120b290614f39565b80601f01602080910402602001604051908101604052809291908181526020018280546120de90614f39565b801561212b5780601f106121005761010080835404028352916020019161212b565b820191906000526020600020905b81548152906001019060200180831161210e57829003601f168201915b5050505050905060008151116121495761214483612d75565b61216d565b60038160405160200161215d929190615002565b6040516020818303038152906040525b915050919050565b6002600654036121ba576040517f08c379a00000000000000000000000000000000000000000000000000000000081526004016121b190615072565b60405180910390fd5b6002600681905550565b600073ffffffffffffffffffffffffffffffffffffffff168473ffffffffffffffffffffffffffffffffffffffff1603612233576040517f08c379a000000000000000000000000000000000000000000000000000000000815260040161222a90615104565b60405180910390fd5b600061223d612527565b9050600061224a85612e09565b9050600061225785612e09565b905061226883600089858589612e83565b8460008088815260200190815260200160002060008973ffffffffffffffffffffffffffffffffffffffff1673ffffffffffffffffffffffffffffffffffffffff16815260200190815260200160002060008282546122c79190615124565b925050819055508673ffffffffffffffffffffffffffffffffffffffff16600073ffffffffffffffffffffffffffffffffffffffff168473ffffffffffffffffffffffffffffffffffffffff167fc3d58168c5ae7397731d063d5bbf3d657854427343f4c083240f7aacaa2d0f628989604051612345929190615158565b60405180910390a461235c83600089858589612e8b565b61236b83600089898989612e93565b50505050505050565b6000612386836000018360001b61306a565b905092915050565b60006123a0836000018360001b61308d565b905092915050565b6060600060016123b7846130fd565b01905060008167ffffffffffffffff8111156123d6576123d561394d565b5b6040519080825280601f01601f1916602001820160405280156124085781602001600182028036833780820191505090505b509050600082602001820190505b60011561246b578080600190039150507f3031323334353637383961626364656600000000000000000000000000000000600a86061a8153600a858161245f5761245e615181565b5b04945060008503612416575b819350505050919050565b806004600084815260200190815260200160002090816124969190615347565b50817f6bb7ff708619ba0610cba295a58592e0451dee2622938c8755667688daf3529b6124c284610936565b6040516124cf91906137bc565b60405180910390a25050565b600081836124e991906146f1565b905092915050565b600081836124ff9190615419565b905092915050565b60008183612515919061545b565b905092915050565b6001600681905550565b600033905090565b8151835114612573576040517f08c379a000000000000000000000000000000000000000000000000000000000815260040161256a906154fe565b60405180910390fd5b600073ffffffffffffffffffffffffffffffffffffffff168473ffffffffffffffffffffffffffffffffffffffff16036125e2576040517f08c379a00000000000000000000000000000000000000000000000000000000081526004016125d990615590565b60405180910390fd5b60006125ec612527565b90506125fc818787878787612e83565b60005b84518110156127ad57600085828151811061261d5761261c614725565b5b60200260200101519050600085838151811061263c5761263b614725565b5b60200260200101519050600080600084815260200190815260200160002060008b73ffffffffffffffffffffffffffffffffffffffff1673ffffffffffffffffffffffffffffffffffffffff168152602001908152602001600020549050818110156126dd576040517f08c379a00000000000000000000000000000000000000000000000000000000081526004016126d490615622565b60405180910390fd5b81810360008085815260200190815260200160002060008c73ffffffffffffffffffffffffffffffffffffffff1673ffffffffffffffffffffffffffffffffffffffff168152602001908152602001600020819055508160008085815260200190815260200160002060008b73ffffffffffffffffffffffffffffffffffffffff1673ffffffffffffffffffffffffffffffffffffffff16815260200190815260200160002060008282546127929190615124565b92505081905550505050806127a690614754565b90506125ff565b508473ffffffffffffffffffffffffffffffffffffffff168673ffffffffffffffffffffffffffffffffffffffff168273ffffffffffffffffffffffffffffffffffffffff167f4a39dc06d4c0dbc64b70af90fd698a233a518aa5d07e595d983b8c0526c8f7fb8787604051612824929190615642565b60405180910390a461283a818787878787612e8b565b612848818787878787613250565b505050505050565b6000818361285e9190615124565b905092915050565b80600390816128759190615347565b5050565b6000600560009054906101000a900473ffffffffffffffffffffffffffffffffffffffff16905081600560006101000a81548173ffffffffffffffffffffffffffffffffffffffff021916908373ffffffffffffffffffffffffffffffffffffffff1602179055508173ffffffffffffffffffffffffffffffffffffffff168173ffffffffffffffffffffffffffffffffffffffff167f8be0079c531659141344cd1fd0a4f28419497f9722a3daafe3b4186f6b6457e060405160405180910390a35050565b8173ffffffffffffffffffffffffffffffffffffffff168373ffffffffffffffffffffffffffffffffffffffff16036129ad576040517f08c379a00000000000000000000000000000000000000000000000000000000081526004016129a4906156eb565b60405180910390fd5b80600160008573ffffffffffffffffffffffffffffffffffffffff1673ffffffffffffffffffffffffffffffffffffffff16815260200190815260200160002060008473ffffffffffffffffffffffffffffffffffffffff1673ffffffffffffffffffffffffffffffffffffffff16815260200190815260200160002060006101000a81548160ff0219169083151502179055508173ffffffffffffffffffffffffffffffffffffffff168373ffffffffffffffffffffffffffffffffffffffff167f17307eab39ab6107e8899845ad3d59bd9653f200f220920489ca2b5937696c3183604051612a9e91906136a4565b60405180910390a3505050565b6000612ab982600001613427565b9050919050565b6000612acf8360000183613438565b60001c905092915050565b600073ffffffffffffffffffffffffffffffffffffffff168473ffffffffffffffffffffffffffffffffffffffff1603612b49576040517f08c379a0000000000000000000000000000000000000000000000000000000008152600401612b4090615590565b60405180910390fd5b6000612b53612527565b90506000612b6085612e09565b90506000612b6d85612e09565b9050612b7d838989858589612e83565b600080600088815260200190815260200160002060008a73ffffffffffffffffffffffffffffffffffffffff1673ffffffffffffffffffffffffffffffffffffffff16815260200190815260200160002054905085811015612c14576040517f08c379a0000000000000000000000000000000000000000000000000000000008152600401612c0b90615622565b60405180910390fd5b85810360008089815260200190815260200160002060008b73ffffffffffffffffffffffffffffffffffffffff1673ffffffffffffffffffffffffffffffffffffffff168152602001908152602001600020819055508560008089815260200190815260200160002060008a73ffffffffffffffffffffffffffffffffffffffff1673ffffffffffffffffffffffffffffffffffffffff1681526020019081526020016000206000828254612cc99190615124565b925050819055508773ffffffffffffffffffffffffffffffffffffffff168973ffffffffffffffffffffffffffffffffffffffff168573ffffffffffffffffffffffffffffffffffffffff167fc3d58168c5ae7397731d063d5bbf3d657854427343f4c083240f7aacaa2d0f628a8a604051612d46929190615158565b60405180910390a4612d5c848a8a86868a612e8b565b612d6a848a8a8a8a8a612e93565b505050505050505050565b606060028054612d8490614f39565b80601f0160208091040260200160405190810160405280929190818152602001828054612db090614f39565b8015612dfd5780601f10612dd257610100808354040283529160200191612dfd565b820191906000526020600020905b815481529060010190602001808311612de057829003601f168201915b50505050509050919050565b60606000600167ffffffffffffffff811115612e2857612e2761394d565b5b604051908082528060200260200182016040528015612e565781602001602082028036833780820191505090505b5090508281600081518110612e6e57612e6d614725565b5b60200260200101818152505080915050919050565b505050505050565b505050505050565b612eb28473ffffffffffffffffffffffffffffffffffffffff16613463565b15613062578373ffffffffffffffffffffffffffffffffffffffff1663f23a6e6187878686866040518663ffffffff1660e01b8152600401612ef8959493929190615760565b6020604051808303816000875af1925050508015612f3457506040513d601f19601f82011682018060405250810190612f3191906157cf565b60015b612fd957612f40615809565b806308c379a003612f9c5750612f5461582b565b80612f5f5750612f9e565b806040517f08c379a0000000000000000000000000000000000000000000000000000000008152600401612f9391906137bc565b60405180910390fd5b505b6040517f08c379a0000000000000000000000000000000000000000000000000000000008152600401612fd09061592d565b60405180910390fd5b63f23a6e6160e01b7bffffffffffffffffffffffffffffffffffffffffffffffffffffffff1916817bffffffffffffffffffffffffffffffffffffffffffffffffffffffff191614613060576040517f08c379a0000000000000000000000000000000000000000000000000000000008152600401613057906159bf565b60405180910390fd5b505b505050505050565b600080836001016000848152602001908152602001600020541415905092915050565b6000613099838361306a565b6130f25782600001829080600181540180825580915050600190039060005260206000200160009091909190915055826000018054905083600101600084815260200190815260200160002081905550600190506130f7565b600090505b92915050565b600080600090507a184f03e93ff9f4daa797ed6e38ed64bf6a1f010000000000000000831061315b577a184f03e93ff9f4daa797ed6e38ed64bf6a1f010000000000000000838161315157613150615181565b5b0492506040810190505b6d04ee2d6d415b85acef81000000008310613198576d04ee2d6d415b85acef8100000000838161318e5761318d615181565b5b0492506020810190505b662386f26fc1000083106131c757662386f26fc1000083816131bd576131bc615181565b5b0492506010810190505b6305f5e10083106131f0576305f5e10083816131e6576131e5615181565b5b0492506008810190505b612710831061321557612710838161320b5761320a615181565b5b0492506004810190505b60648310613238576064838161322e5761322d615181565b5b0492506002810190505b600a8310613247576001810190505b80915050919050565b61326f8473ffffffffffffffffffffffffffffffffffffffff16613463565b1561341f578373ffffffffffffffffffffffffffffffffffffffff1663bc197c8187878686866040518663ffffffff1660e01b81526004016132b59594939291906159df565b6020604051808303816000875af19250505080156132f157506040513d601f19601f820116820180604052508101906132ee91906157cf565b60015b613396576132fd615809565b806308c379a003613359575061331161582b565b8061331c575061335b565b806040517f08c379a000000000000000000000000000000000000000000000000000000000815260040161335091906137bc565b60405180910390fd5b505b6040517f08c379a000000000000000000000000000000000000000000000000000000000815260040161338d9061592d565b60405180910390fd5b63bc197c8160e01b7bffffffffffffffffffffffffffffffffffffffffffffffffffffffff1916817bffffffffffffffffffffffffffffffffffffffffffffffffffffffff19161461341d576040517f08c379a0000000000000000000000000000000000000000000000000000000008152600401613414906159bf565b60405180910390fd5b505b505050505050565b600081600001805490509050919050565b60008260000182815481106134505761344f614725565b5b9060005260206000200154905092915050565b6000808273ffffffffffffffffffffffffffffffffffffffff163b119050919050565b6040518060c001604052806000815260200160008152602001600073ffffffffffffffffffffffffffffffffffffffff1681526020016000815260200160008152602001600081525090565b60405180604001604052806134e5613486565b8152602001600081525090565b6000604051905090565b600080fd5b600080fd5b600073ffffffffffffffffffffffffffffffffffffffff82169050919050565b600061353182613506565b9050919050565b61354181613526565b811461354c57600080fd5b50565b60008135905061355e81613538565b92915050565b6000819050919050565b61357781613564565b811461358257600080fd5b50565b6000813590506135948161356e565b92915050565b600080604083850312156135b1576135b06134fc565b5b60006135bf8582860161354f565b92505060206135d085828601613585565b9150509250929050565b6135e381613564565b82525050565b60006020820190506135fe60008301846135da565b92915050565b60007fffffffff0000000000000000000000000000000000000000000000000000000082169050919050565b61363981613604565b811461364457600080fd5b50565b60008135905061365681613630565b92915050565b600060208284031215613672576136716134fc565b5b600061368084828501613647565b91505092915050565b60008115159050919050565b61369e81613689565b82525050565b60006020820190506136b96000830184613695565b92915050565b600080604083850312156136d6576136d56134fc565b5b60006136e485828601613585565b92505060206136f585828601613585565b9150509250929050565b600060208284031215613715576137146134fc565b5b600061372384828501613585565b91505092915050565b600081519050919050565b600082825260208201905092915050565b60005b8381101561376657808201518184015260208101905061374b565b60008484015250505050565b6000601f19601f8301169050919050565b600061378e8261372c565b6137988185613737565b93506137a8818560208601613748565b6137b181613772565b840191505092915050565b600060208201905081810360008301526137d68184613783565b905092915050565b600081519050919050565b600082825260208201905092915050565b6000819050602082019050919050565b61381381613564565b82525050565b61382281613526565b82525050565b60c08201600082015161383e600085018261380a565b506020820151613851602085018261380a565b5060408201516138646040850182613819565b506060820151613877606085018261380a565b50608082015161388a608085018261380a565b5060a082015161389d60a085018261380a565b50505050565b60006138af8383613828565b60c08301905092915050565b6000602082019050919050565b60006138d3826137de565b6138dd81856137e9565b93506138e8836137fa565b8060005b8381101561391957815161390088826138a3565b975061390b836138bb565b9250506001810190506138ec565b5085935050505092915050565b6000602082019050818103600083015261394081846138c8565b905092915050565b600080fd5b7f4e487b7100000000000000000000000000000000000000000000000000000000600052604160045260246000fd5b61398582613772565b810181811067ffffffffffffffff821117156139a4576139a361394d565b5b80604052505050565b60006139b76134f2565b90506139c3828261397c565b919050565b600067ffffffffffffffff8211156139e3576139e261394d565b5b602082029050602081019050919050565b600080fd5b6000613a0c613a07846139c8565b6139ad565b90508083825260208201905060208402830185811115613a2f57613a2e6139f4565b5b835b81811015613a585780613a448882613585565b845260208401935050602081019050613a31565b5050509392505050565b600082601f830112613a7757613a76613948565b5b8135613a878482602086016139f9565b91505092915050565b600080fd5b600067ffffffffffffffff821115613ab057613aaf61394d565b5b613ab982613772565b9050602081019050919050565b82818337600083830152505050565b6000613ae8613ae384613a95565b6139ad565b905082815260208101848484011115613b0457613b03613a90565b5b613b0f848285613ac6565b509392505050565b600082601f830112613b2c57613b2b613948565b5b8135613b3c848260208601613ad5565b91505092915050565b600080600080600060a08688031215613b6157613b606134fc565b5b6000613b6f8882890161354f565b9550506020613b808882890161354f565b945050604086013567ffffffffffffffff811115613ba157613ba0613501565b5b613bad88828901613a62565b935050606086013567ffffffffffffffff811115613bce57613bcd613501565b5b613bda88828901613a62565b925050608086013567ffffffffffffffff811115613bfb57613bfa613501565b5b613c0788828901613b17565b9150509295509295909350565b613c1d81613526565b82525050565b600060c082019050613c3860008301896135da565b613c4560208301886135da565b613c526040830187613c14565b613c5f60608301866135da565b613c6c60808301856135da565b613c7960a08301846135da565b979650505050505050565b60008060008060008060c08789031215613ca157613ca06134fc565b5b6000613caf89828a01613585565b9650506020613cc089828a01613585565b9550506040613cd189828a0161354f565b9450506060613ce289828a01613585565b9350506080613cf389828a01613585565b92505060a0613d0489828a01613585565b9150509295509295509295565b600067ffffffffffffffff821115613d2c57613d2b61394d565b5b602082029050602081019050919050565b6000613d50613d4b84613d11565b6139ad565b90508083825260208201905060208402830185811115613d7357613d726139f4565b5b835b81811015613d9c5780613d88888261354f565b845260208401935050602081019050613d75565b5050509392505050565b600082601f830112613dbb57613dba613948565b5b8135613dcb848260208601613d3d565b91505092915050565b60008060408385031215613deb57613dea6134fc565b5b600083013567ffffffffffffffff811115613e0957613e08613501565b5b613e1585828601613da6565b925050602083013567ffffffffffffffff811115613e3657613e35613501565b5b613e4285828601613a62565b9150509250929050565b600081519050919050565b600082825260208201905092915050565b6000819050602082019050919050565b6000613e84838361380a565b60208301905092915050565b6000602082019050919050565b6000613ea882613e4c565b613eb28185613e57565b9350613ebd83613e68565b8060005b83811015613eee578151613ed58882613e78565b9750613ee083613e90565b925050600181019050613ec1565b5085935050505092915050565b60006020820190508181036000830152613f158184613e9d565b905092915050565b600060208284031215613f3357613f326134fc565b5b6000613f418482850161354f565b91505092915050565b600067ffffffffffffffff821115613f6557613f6461394d565b5b613f6e82613772565b9050602081019050919050565b6000613f8e613f8984613f4a565b6139ad565b905082815260208101848484011115613faa57613fa9613a90565b5b613fb5848285613ac6565b509392505050565b600082601f830112613fd257613fd1613948565b5b8135613fe2848260208601613f7b565b91505092915050565b600060208284031215614001576140006134fc565b5b600082013567ffffffffffffffff81111561401f5761401e613501565b5b61402b84828501613fbd565b91505092915050565b60006020820190506140496000830184613c14565b92915050565b61405881613689565b811461406357600080fd5b50565b6000813590506140758161404f565b92915050565b60008060408385031215614092576140916134fc565b5b60006140a08582860161354f565b92505060206140b185828601614066565b9150509250929050565b600081519050919050565b600082825260208201905092915050565b6000819050602082019050919050565b60e0820160008201516140fd6000850182613828565b50602082015161411060c085018261380a565b50505050565b600061412283836140e7565b60e08301905092915050565b6000602082019050919050565b6000614146826140bb565b61415081856140c6565b935061415b836140d7565b8060005b8381101561418c5781516141738882614116565b975061417e8361412e565b92505060018101905061415f565b5085935050505092915050565b600060208201905081810360008301526141b3818461413b565b905092915050565b600080604083850312156141d2576141d16134fc565b5b60006141e08582860161354f565b92505060206141f18582860161354f565b9150509250929050565b600080600080600060a08688031215614217576142166134fc565b5b60006142258882890161354f565b95505060206142368882890161354f565b945050604061424788828901613585565b935050606061425888828901613585565b925050608086013567ffffffffffffffff81111561427957614278613501565b5b61428588828901613b17565b9150509295509295909350565b7f455243313135353a2061646472657373207a65726f206973206e6f742061207660008201527f616c6964206f776e657200000000000000000000000000000000000000000000602082015250565b60006142ee602a83613737565b91506142f982614292565b604082019050919050565b6000602082019050818103600083015261431d816142e1565b9050919050565b7f47616d65204944206d7573742062652063726561746564000000000000000000600082015250565b600061435a601783613737565b915061436582614324565b602082019050919050565b600060208201905081810360008301526143898161434d565b9050919050565b7f546865207072696365206d75737420626520706f736974697665000000000000600082015250565b60006143c6601a83613737565b91506143d182614390565b602082019050919050565b600060208201905081810360008301526143f5816143b9565b9050919050565b7f4d696e74206d7573742062652061637469766520746f206d696e740000000000600082015250565b6000614432601b83613737565b915061443d826143fc565b602082019050919050565b6000602082019050818103600083015261446181614425565b9050919050565b7f4e6f2067616d6573206372656174656400000000000000000000000000000000600082015250565b600061449e601083613737565b91506144a982614468565b602082019050919050565b600060208201905081810360008301526144cd81614491565b9050919050565b7f496e73756666696369656e742066756e64730000000000000000000000000000600082015250565b600061450a601283613737565b9150614515826144d4565b602082019050919050565b60006020820190508181036000830152614539816144fd565b9050919050565b7f496e73756666696369656e7420737570706c792e2049742773206f7665722e00600082015250565b6000614576601f83613737565b915061458182614540565b602082019050919050565b600060208201905081810360008301526145a581614569565b9050919050565b7f47616d65206e6f742072656c6561736564207965740000000000000000000000600082015250565b60006145e2601583613737565b91506145ed826145ac565b602082019050919050565b60006020820190508181036000830152614611816145d5565b9050919050565b600081905092915050565b600061462e8261372c565b6146388185614618565b9350614648818560208601613748565b80840191505092915050565b7f2e6a736f6e000000000000000000000000000000000000000000000000000000600082015250565b600061468a600583614618565b915061469582614654565b600582019050919050565b60006146ac8284614623565b91506146b78261467d565b915081905092915050565b7f4e487b7100000000000000000000000000000000000000000000000000000000600052601160045260246000fd5b60006146fc82613564565b915061470783613564565b925082820390508181111561471f5761471e6146c2565b5b92915050565b7f4e487b7100000000000000000000000000000000000000000000000000000000600052603260045260246000fd5b600061475f82613564565b91507fffffffffffffffffffffffffffffffffffffffffffffffffffffffffffffffff8203614791576147906146c2565b5b600182019050919050565b7f455243313135353a2063616c6c6572206973206e6f7420746f6b656e206f776e60008201527f6572206f7220617070726f766564000000000000000000000000000000000000602082015250565b60006147f8602e83613737565b91506148038261479c565b604082019050919050565b60006020820190508181036000830152614827816147eb565b9050919050565b7f496e76616c696420636f6d6d697373696f6e2070657263656e74616765000000600082015250565b6000614864601d83613737565b915061486f8261482e565b602082019050919050565b6000602082019050818103600083015261489381614857565b9050919050565b7f546f6b656e20494420616c726561647920657869737473000000000000000000600082015250565b60006148d0601783613737565b91506148db8261489a565b602082019050919050565b600060208201905081810360008301526148ff816148c3565b9050919050565b7f496e76616c696420707269636500000000000000000000000000000000000000600082015250565b600061493c600d83613737565b915061494782614906565b602082019050919050565b6000602082019050818103600083015261496b8161492f565b9050919050565b7f496e76616c696420616464726573730000000000000000000000000000000000600082015250565b60006149a8600f83613737565b91506149b382614972565b602082019050919050565b600060208201905081810360008301526149d78161499b565b9050919050565b7f496e76616c696420737570706c79000000000000000000000000000000000000600082015250565b6000614a14600e83613737565b9150614a1f826149de565b602082019050919050565b60006020820190508181036000830152614a4381614a07565b9050919050565b7f496e76616c69642070657263656e7461676520726f79616c7479000000000000600082015250565b6000614a80601a83613737565b9150614a8b82614a4a565b602082019050919050565b60006020820190508181036000830152614aaf81614a73565b9050919050565b7f54696d65206d75737420626520706f7369746976650000000000000000000000600082015250565b6000614aec601583613737565b9150614af782614ab6565b602082019050919050565b60006020820190508181036000830152614b1b81614adf565b9050919050565b6000608082019050614b3760008301876135da565b614b4460208301866135da565b614b5160408301856135da565b614b5e60608301846135da565b95945050505050565b7f455243313135353a206163636f756e747320616e6420696473206c656e67746860008201527f206d69736d617463680000000000000000000000000000000000000000000000602082015250565b6000614bc3602983613737565b9150614bce82614b67565b604082019050919050565b60006020820190508181036000830152614bf281614bb6565b9050919050565b7f546865206d61726b6574706c616365206164647265737320697320696e636f7260008201527f7265637400000000000000000000000000000000000000000000000000000000602082015250565b6000614c55602483613737565b9150614c6082614bf9565b604082019050919050565b60006020820190508181036000830152614c8481614c48565b9050919050565b6000614c978284614623565b915081905092915050565b7f5468652070726f76696465642055524920697320616c7265616479207365742e600082015250565b6000614cd8602083613737565b9150614ce382614ca2565b602082019050919050565b60006020820190508181036000830152614d0781614ccb565b9050919050565b7f546865207573657220686173206e6f742070757263686173656420616e79204e60008201527f4654730000000000000000000000000000000000000000000000000000000000602082015250565b6000614d6a602383613737565b9150614d7582614d0e565b604082019050919050565b60006020820190508181036000830152614d9981614d5d565b9050919050565b7f4f776e61626c653a206e6577206f776e657220697320746865207a65726f206160008201527f6464726573730000000000000000000000000000000000000000000000000000602082015250565b6000614dfc602683613737565b9150614e0782614da0565b604082019050919050565b60006020820190508181036000830152614e2b81614def565b9050919050565b7f4f776e61626c653a2063616c6c6572206973206e6f7420746865206f776e6572600082015250565b6000614e68602083613737565b9150614e7382614e32565b602082019050919050565b60006020820190508181036000830152614e9781614e5b565b9050919050565b7f5061757361626c653a2070617573656400000000000000000000000000000000600082015250565b6000614ed4601083613737565b9150614edf82614e9e565b602082019050919050565b60006020820190508181036000830152614f0381614ec7565b9050919050565b7f4e487b7100000000000000000000000000000000000000000000000000000000600052602260045260246000fd5b60006002820490506001821680614f5157607f821691505b602082108103614f6457614f63614f0a565b5b50919050565b60008190508160005260206000209050919050565b60008154614f8c81614f39565b614f968186614618565b94506001821660008114614fb15760018114614fc657614ff9565b60ff1983168652811515820286019350614ff9565b614fcf85614f6a565b60005b83811015614ff157815481890152600182019150602081019050614fd2565b838801955050505b50505092915050565b600061500e8285614f7f565b915061501a8284614623565b91508190509392505050565b7f5265656e7472616e637947756172643a207265656e7472616e742063616c6c00600082015250565b600061505c601f83613737565b915061506782615026565b602082019050919050565b6000602082019050818103600083015261508b8161504f565b9050919050565b7f455243313135353a206d696e7420746f20746865207a65726f2061646472657360008201527f7300000000000000000000000000000000000000000000000000000000000000602082015250565b60006150ee602183613737565b91506150f982615092565b604082019050919050565b6000602082019050818103600083015261511d816150e1565b9050919050565b600061512f82613564565b915061513a83613564565b9250828201905080821115615152576151516146c2565b5b92915050565b600060408201905061516d60008301856135da565b61517a60208301846135da565b9392505050565b7f4e487b7100000000000000000000000000000000000000000000000000000000600052601260045260246000fd5b60006020601f8301049050919050565b600082821b905092915050565b6000600883026151fd7fffffffffffffffffffffffffffffffffffffffffffffffffffffffffffffffff826151c0565b61520786836151c0565b95508019841693508086168417925050509392505050565b6000819050919050565b600061524461523f61523a84613564565b61521f565b613564565b9050919050565b6000819050919050565b61525e83615229565b61527261526a8261524b565b8484546151cd565b825550505050565b600090565b61528761527a565b615292818484615255565b505050565b5b818110156152b6576152ab60008261527f565b600181019050615298565b5050565b601f8211156152fb576152cc81614f6a565b6152d5846151b0565b810160208510156152e4578190505b6152f86152f0856151b0565b830182615297565b50505b505050565b600082821c905092915050565b600061531e60001984600802615300565b1980831691505092915050565b6000615337838361530d565b9150826002028217905092915050565b6153508261372c565b67ffffffffffffffff8111156153695761536861394d565b5b6153738254614f39565b61537e8282856152ba565b600060209050601f8311600181146153b1576000841561539f578287015190505b6153a9858261532b565b865550615411565b601f1984166153bf86614f6a565b60005b828110156153e7578489015182556001820191506020850194506020810190506153c2565b868310156154045784890151615400601f89168261530d565b8355505b6001600288020188555050505b505050505050565b600061542482613564565b915061542f83613564565b925082820261543d81613564565b91508282048414831517615454576154536146c2565b5b5092915050565b600061546682613564565b915061547183613564565b92508261548157615480615181565b5b828204905092915050565b7f455243313135353a2069647320616e6420616d6f756e7473206c656e6774682060008201527f6d69736d61746368000000000000000000000000000000000000000000000000602082015250565b60006154e8602883613737565b91506154f38261548c565b604082019050919050565b60006020820190508181036000830152615517816154db565b9050919050565b7f455243313135353a207472616e7366657220746f20746865207a65726f20616460008201527f6472657373000000000000000000000000000000000000000000000000000000602082015250565b600061557a602583613737565b91506155858261551e565b604082019050919050565b600060208201905081810360008301526155a98161556d565b9050919050565b7f455243313135353a20696e73756666696369656e742062616c616e636520666f60008201527f72207472616e7366657200000000000000000000000000000000000000000000602082015250565b600061560c602a83613737565b9150615617826155b0565b604082019050919050565b6000602082019050818103600083015261563b816155ff565b9050919050565b6000604082019050818103600083015261565c8185613e9d565b905081810360208301526156708184613e9d565b90509392505050565b7f455243313135353a2073657474696e6720617070726f76616c2073746174757360008201527f20666f722073656c660000000000000000000000000000000000000000000000602082015250565b60006156d5602983613737565b91506156e082615679565b604082019050919050565b60006020820190508181036000830152615704816156c8565b9050919050565b600081519050919050565b600082825260208201905092915050565b60006157328261570b565b61573c8185615716565b935061574c818560208601613748565b61575581613772565b840191505092915050565b600060a0820190506157756000830188613c14565b6157826020830187613c14565b61578f60408301866135da565b61579c60608301856135da565b81810360808301526157ae8184615727565b90509695505050505050565b6000815190506157c981613630565b92915050565b6000602082840312156157e5576157e46134fc565b5b60006157f3848285016157ba565b91505092915050565b60008160e01c9050919050565b600060033d11156158285760046000803e6158256000516157fc565b90505b90565b600060443d106158b85761583d6134f2565b60043d036004823e80513d602482011167ffffffffffffffff821117156158655750506158b8565b808201805167ffffffffffffffff81111561588357505050506158b8565b80602083010160043d0385018111156158a05750505050506158b8565b6158af8260200185018661397c565b82955050505050505b90565b7f455243313135353a207472616e7366657220746f206e6f6e2d4552433131353560008201527f526563656976657220696d706c656d656e746572000000000000000000000000602082015250565b6000615917603483613737565b9150615922826158bb565b604082019050919050565b600060208201905081810360008301526159468161590a565b9050919050565b7f455243313135353a204552433131353552656365697665722072656a6563746560008201527f6420746f6b656e73000000000000000000000000000000000000000000000000602082015250565b60006159a9602883613737565b91506159b48261594d565b604082019050919050565b600060208201905081810360008301526159d88161599c565b9050919050565b600060a0820190506159f46000830188613c14565b615a016020830187613c14565b8181036040830152615a138186613e9d565b90508181036060830152615a278185613e9d565b90508181036080830152615a3b8184615727565b9050969550505050505056fea2646970667358221220e8ce133464df71f69cb9d6c11c20615fe868beebf46dd6b27d448e59b9bccb4c64736f6c63430008130033",
  "immutableReferences": {},
  "source": "// SPDX-License-Identifier: MIT\npragma solidity >=0.8.0 <0.9.0;\n\nimport \"@openzeppelin/contracts/token/ERC1155/ERC1155.sol\";\nimport \"@openzeppelin/contracts/token/ERC1155/extensions/ERC1155URIStorage.sol\";\nimport \"@openzeppelin/contracts/access/Ownable.sol\";\nimport \"@openzeppelin/contracts/utils/structs/EnumerableSet.sol\";\nimport \"@openzeppelin/contracts/utils/math/SafeMath.sol\";\nimport \"@openzeppelin/contracts/utils/Strings.sol\";\nimport \"@openzeppelin/contracts/security/ReentrancyGuard.sol\";\nimport \"@openzeppelin/contracts/security/Pausable.sol\";\n\n\ncontract TOKENPLAY is ERC1155, ERC1155URIStorage, Ownable, ReentrancyGuard, Pausable {\n    using SafeMath for uint256;\n    using Strings for uint256;\n    using EnumerableSet for EnumerableSet.UintSet;\n\n    bool public mintIsActive = false;\n\n    // Estructura para guardar los datos relevantes del NFT\n    struct NftGameInfo {\n        uint256 tokenId;\n        uint256 price;\n        address gameOwnerAddress;\n        uint256 supply;\n        uint256 tokenPlayRoyaltyPercentage;\n        uint256 gameRelease;\n    }\n\n    // Estructura para devolver los juegos que ha comprado un usuario y la cantidad que tiene de cada juego\n    struct PurchasedNft {\n        NftGameInfo game;\n        uint256 qty;\n    }\n\n    constructor(string memory _baseURI) ERC1155(_baseURI) {\n        _setBaseURI(_baseURI);\n    }\n\n    // Contador autoincremental, cada nmero ser un juego (token)\n    uint256 public nextTokenId = 0;\n\n    // Estructura, donde por cada juego definiremos sus atributos\n    mapping(uint256 => NftGameInfo) public gamesInfo;\n\n    // Estructura donde registraremos los juegos vendidos\n    mapping(address => EnumerableSet.UintSet) private purchasedNFTs;\n\n    // Contador de juegos\n    mapping(uint256 => uint256) public nGames;\n\n    // Estructura para definir el supply de cada juego\n    mapping(uint256 => uint256) public _totalSupply;\n\n    // EVENTOS\n    // Notificar que se ha aadido un juego\n    event NFTAdded(uint256 indexed tokenId, uint256 price, address indexed gameOwnerAddress, uint256 supply, uint256 tokenPlayRoyaltyPercentage, uint256 gameRelease);\n    // Notificar que se ha realizado el mint\n    event Purchased(address indexed minter, uint256 indexed tokenId);\n    // Modificado el porcentaje de royalty\n    event RoyaltyPercentageChanged(uint256 indexed tokenId, uint256 newRoyaltyPercentage);\n    // Modificado el precio del juego\n    event NFTPriceChanged(uint256 indexed tokenId, uint256 newPrice);\n    // Aprobacin mercado secundario\n    event MarketplaceApproved(address indexed marketplace);\n    // Modificacin URI base\n    event BaseURISet(string newBaseURI);\n    // Modificar estado mint\n    event MintingStateToggled(bool newState);\n\n    // Funcin para comprobar que existe el token\n    function _exists(uint256 tokenTest) internal view virtual returns (bool) {\n        return gamesInfo[tokenTest].tokenId == tokenTest;\n    }\n\n    // Funcin para aadir un juego (crear un token)\n    function addNFT(uint256 tokenId,uint256 price, address gameOwnerAddress, uint256 supply, uint256 tokenPlayRoyaltyPercentage, uint256 gameRelease ) external onlyOwner {\n        require(!_exists(tokenId), \"Token ID already exists\");\n        require(price > 0, \"Invalid price\");\n        require( gameOwnerAddress != address(0), \"Invalid address\");\n        require(gameOwnerAddress != address(this));\n        require(supply > 0, \"Invalid supply\");\n        require(tokenPlayRoyaltyPercentage >= 0, \"Invalid percentage royalty\");\n        require(gameRelease >= 0, \"Time must be positive\");\n\n        // Contabilizamos el juego aadido\n        nGames[nextTokenId] = tokenId;\n        nextTokenId = nextTokenId.add(1);\n\n        gamesInfo[tokenId] = NftGameInfo(tokenId, price, gameOwnerAddress, supply, tokenPlayRoyaltyPercentage, gameRelease);\n\n        emit NFTAdded(tokenId, price,gameOwnerAddress,supply, tokenPlayRoyaltyPercentage, gameRelease);\n    }\n\n    // Funcin para comprar un juego (un token)\n    function purchaseNFT(uint256 tokenId) external payable nonReentrant whenNotPaused {\n        require(mintIsActive, \"Mint must be active to mint\");\n        require(nextTokenId > 0, \"No games created\");\n        require(_exists(tokenId), \"Game ID must be created\");\n        uint256 price = gamesInfo[tokenId].price;\n        require(msg.value >= price, \"Insufficient funds\"); \n        require(gamesInfo[tokenId].supply > 0, \"Insufficient supply. It's over.\");\n        require(gamesInfo[tokenId].gameRelease <= block.timestamp, \"Game not released yet\");\n        \n        // Minteamos el NFT al comprador y registramos al array de juegos que tiene comprados (si el Id ya existe no lo registramos de nuevo)\n        _mint(msg.sender, tokenId, 1, \"\");\n        if (!purchasedNFTs[msg.sender].contains(tokenId)) {\n            purchasedNFTs[msg.sender].add(tokenId);\n        }\n\n        // Asignamos el URI al juego con el ID y la extensin\n        _setURI(tokenId, string(abi.encodePacked(tokenId.toString(), \".json\")));\n\n        // Restamos del supply total el juego comprado\n        gamesInfo[tokenId].supply = gamesInfo[tokenId].supply.sub(1);\n        // Guardamos el supply del NFT\n        _totalSupply[tokenId] = gamesInfo[tokenId].supply;\n\n\n        // Calculamos los porcentajes que se lleva cada parte y hacemos la transferencia de los tokens\n        uint256 paymentAmount = price;\n        uint256 tokenPlay = paymentAmount.mul(gamesInfo[tokenId].tokenPlayRoyaltyPercentage).div(100); // royaltypercentage para token play\n        uint256 gameOwner = paymentAmount.sub(tokenPlay);  // el restante para game owner\n\n        payable(owner()).transfer(tokenPlay);\n        payable(gamesInfo[tokenId].gameOwnerAddress).transfer(gameOwner);\n\n        // Si el usuario ha pagado de mas, le devolvemos el dinero\n        if (msg.value > price) {\n            payable(msg.sender).transfer(msg.value - price);\n        }\n\n        emit Purchased(msg.sender, tokenId);\n    }\n    \n    // Funcion para obtener los juegos que ha comprado un usuario\n    function getPurchasedNFTs(address account) external view returns (PurchasedNft[] memory) {\n        require( account != address(0), \"Invalid address\");\n        uint256 purchasedCount = purchasedNFTs[account].length();\n        require(purchasedCount > 0, \"The user has not purchased any NFTs\");\n\n        PurchasedNft[] memory accountGames = new PurchasedNft[](purchasedNFTs[account].length());\n\n        for (uint256 i = 0; i < purchasedNFTs[account].length(); i++) {\n            uint256 id = purchasedNFTs[account].at(i);\n            accountGames[i].game = gamesInfo[id];\n            accountGames[i].qty = balanceOf(account, id);\n        }\n\n        return accountGames;\n    }\n    \n    // Funcin para obtener todos los juegos disponibles\n    function getNFTs() external view returns (NftGameInfo[] memory) {\n        require(nextTokenId > 0, \"No games created\");\n\n        NftGameInfo[] memory allNFTs = new NftGameInfo[](nextTokenId);\n\n        for (uint256 i = 0; i < nextTokenId; i++) {\n            if (gamesInfo[nGames[i]].gameRelease <= block.timestamp) {\n                NftGameInfo storage nftInfo = gamesInfo[nGames[i]]; \n                allNFTs[i] = nftInfo;\n            }\n        }\n\n        return allNFTs;\n    }\n\n    // Funcin para cambiar el porcentaje de royalty que nos llevamos\n    function setRoyaltyPercentage(uint256 tokenId, uint256 royaltyPercentage) public onlyOwner whenNotPaused {\n        require(royaltyPercentage >= 0 && royaltyPercentage <= 100, \"Invalid commission percentage\");\n        gamesInfo[tokenId].tokenPlayRoyaltyPercentage = royaltyPercentage;\n        emit RoyaltyPercentageChanged(tokenId, royaltyPercentage);\n    }\n\n    // Funcion para cambiar el precio del juego\n    function setMintPrice(uint256 tokenId, uint256 _mintPrice) public onlyOwner whenNotPaused {\n        require(_exists(tokenId), \"Game ID must be created\");\n        require(_mintPrice >= 0, \"The price must be positive\");\n        gamesInfo[tokenId].price = _mintPrice;\n        emit NFTPriceChanged(tokenId, _mintPrice);\n    }\n\n    // Funcion para saber el supply de un juego\n    function totalSupply(uint256 tokenId) public view returns (uint256) {\n        require(_exists(tokenId), \"Game ID must be created\");\n        return _totalSupply[tokenId];\n    }\n\n    // Funcin para activar o desactivar la compra de juegos (tokens)\n    function flipMintState() public onlyOwner whenNotPaused {\n        mintIsActive = ! mintIsActive;\n        emit MintingStateToggled(mintIsActive);\n    }\n\n    // Funcion para obtener el URI de un juego\n    function uri(uint256 tokenId) public view virtual override(ERC1155, ERC1155URIStorage) returns (string memory) {\n        require(_exists(tokenId), \"Game ID must be created\");\n\n        return super.uri(tokenId);\n    }\n\n    // Funcin para modificar el URI del juego\n    function setBaseURI(string memory baseURI) public onlyOwner whenNotPaused {\n        require(keccak256(abi.encodePacked(baseURI)) != keccak256(abi.encodePacked(uri(0))), \"The provided URI is already set.\");\n        _setBaseURI(baseURI);\n        emit BaseURISet(baseURI);\n    }\n\n    // Funcion para dar de alta el mercado secundario\n    function approveMarketplace(address marketplace) external onlyOwner whenNotPaused {\n        require(marketplace != address(0), \"The marketplace address is incorrect\");\n        setApprovalForAll(marketplace, true);\n        emit MarketplaceApproved(marketplace);\n    }\n    /*\n    // Funcin para obtener los juegos de una categoria\n    function getCategoryNFTs(string memory category) external view returns (NftGameInfo[] memory) {\n        NftGameInfo[] memory matchingNFTs;\n        uint256 matchingCount = 0;\n\n        for (uint256 i = 0; i < nextTokenId; i++) {\n            NftGameInfo storage nftInfo = gamesInfo[i]; // habra que cambiar la i\n            if(gamesInfo[i].gameRelease <= block.timestamp && keccak256(abi.encodePacked(nftInfo.category)) == keccak256(abi.encodePacked(category))){\n                matchingCount++;\n            }\n        }\n\n        matchingNFTs = new NftGameInfo[](matchingCount);\n        uint256 currentIndex = 0;\n\n        for (uint256 i = 0; i < nextTokenId; i++) {\n            NftGameInfo storage nftInfo = gamesInfo[i]; // habra que cambiar la i\n            if(gamesInfo[i].gameRelease <= block.timestamp && keccak256(abi.encodePacked(nftInfo.category)) == keccak256(abi.encodePacked(category))){\n                matchingNFTs[currentIndex] = nftInfo;\n                currentIndex++;\n            }\n        }\n\n        return matchingNFTs;\n    }\n    */\n}\n",
  "sourcePath": "C:\\Users\\User\\Desktop\\PC\\2_Master\\BSM_Engineering\\TFM\\DAPP\\dapp\\contracts\\TOKENPLAY.sol",
  "compiler": {
    "name": "solc",
    "version": "0.8.19+commit.7dd6d404.Emscripten.clang"
  },
  "schemaVersion": "3.4.14",
  "updatedAt": "2023-08-24T14:35:23.406Z",
  "networkType": "ethereum",
  "devdoc": {
    "events": {
      "ApprovalForAll(address,address,bool)": {
        "details": "Emitted when `account` grants or revokes permission to `operator` to transfer their tokens, according to `approved`."
      },
      "Paused(address)": {
        "details": "Emitted when the pause is triggered by `account`."
      },
      "TransferBatch(address,address,address,uint256[],uint256[])": {
        "details": "Equivalent to multiple {TransferSingle} events, where `operator`, `from` and `to` are the same for all transfers."
      },
      "TransferSingle(address,address,address,uint256,uint256)": {
        "details": "Emitted when `value` tokens of token type `id` are transferred from `from` to `to` by `operator`."
      },
      "URI(string,uint256)": {
        "details": "Emitted when the URI for token type `id` changes to `value`, if it is a non-programmatic URI. If an {URI} event was emitted for `id`, the standard https://eips.ethereum.org/EIPS/eip-1155#metadata-extensions[guarantees] that `value` will equal the value returned by {IERC1155MetadataURI-uri}."
      },
      "Unpaused(address)": {
        "details": "Emitted when the pause is lifted by `account`."
      }
    },
    "kind": "dev",
    "methods": {
      "balanceOf(address,uint256)": {
        "details": "See {IERC1155-balanceOf}. Requirements: - `account` cannot be the zero address."
      },
      "balanceOfBatch(address[],uint256[])": {
        "details": "See {IERC1155-balanceOfBatch}. Requirements: - `accounts` and `ids` must have the same length."
      },
      "isApprovedForAll(address,address)": {
        "details": "See {IERC1155-isApprovedForAll}."
      },
      "owner()": {
        "details": "Returns the address of the current owner."
      },
      "paused()": {
        "details": "Returns true if the contract is paused, and false otherwise."
      },
      "renounceOwnership()": {
        "details": "Leaves the contract without owner. It will not be possible to call `onlyOwner` functions. Can only be called by the current owner. NOTE: Renouncing ownership will leave the contract without an owner, thereby disabling any functionality that is only available to the owner."
      },
      "safeBatchTransferFrom(address,address,uint256[],uint256[],bytes)": {
        "details": "See {IERC1155-safeBatchTransferFrom}."
      },
      "safeTransferFrom(address,address,uint256,uint256,bytes)": {
        "details": "See {IERC1155-safeTransferFrom}."
      },
      "setApprovalForAll(address,bool)": {
        "details": "See {IERC1155-setApprovalForAll}."
      },
      "supportsInterface(bytes4)": {
        "details": "See {IERC165-supportsInterface}."
      },
      "transferOwnership(address)": {
        "details": "Transfers ownership of the contract to a new account (`newOwner`). Can only be called by the current owner."
      }
    },
    "version": 1
  },
  "userdoc": {
    "kind": "user",
    "methods": {},
    "version": 1
  }
}