{
  "contractName": "TOKENPLAY",
  "abi": [
    {
      "inputs": [
        {
          "internalType": "string",
          "name": "_baseURI",
          "type": "string"
        }
      ],
      "stateMutability": "nonpayable",
      "type": "constructor"
    },
    {
      "anonymous": false,
      "inputs": [
        {
          "indexed": true,
          "internalType": "address",
          "name": "account",
          "type": "address"
        },
        {
          "indexed": true,
          "internalType": "address",
          "name": "operator",
          "type": "address"
        },
        {
          "indexed": false,
          "internalType": "bool",
          "name": "approved",
          "type": "bool"
        }
      ],
      "name": "ApprovalForAll",
      "type": "event"
    },
    {
      "anonymous": false,
      "inputs": [
        {
          "indexed": true,
          "internalType": "address",
          "name": "minter",
          "type": "address"
        },
        {
          "indexed": true,
          "internalType": "uint256",
          "name": "tokenId",
          "type": "uint256"
        }
      ],
      "name": "Minted",
      "type": "event"
    },
    {
      "anonymous": false,
      "inputs": [
        {
          "indexed": true,
          "internalType": "address",
          "name": "previousOwner",
          "type": "address"
        },
        {
          "indexed": true,
          "internalType": "address",
          "name": "newOwner",
          "type": "address"
        }
      ],
      "name": "OwnershipTransferred",
      "type": "event"
    },
    {
      "anonymous": false,
      "inputs": [
        {
          "indexed": true,
          "internalType": "address",
          "name": "operator",
          "type": "address"
        },
        {
          "indexed": true,
          "internalType": "address",
          "name": "from",
          "type": "address"
        },
        {
          "indexed": true,
          "internalType": "address",
          "name": "to",
          "type": "address"
        },
        {
          "indexed": false,
          "internalType": "uint256[]",
          "name": "ids",
          "type": "uint256[]"
        },
        {
          "indexed": false,
          "internalType": "uint256[]",
          "name": "values",
          "type": "uint256[]"
        }
      ],
      "name": "TransferBatch",
      "type": "event"
    },
    {
      "anonymous": false,
      "inputs": [
        {
          "indexed": true,
          "internalType": "address",
          "name": "operator",
          "type": "address"
        },
        {
          "indexed": true,
          "internalType": "address",
          "name": "from",
          "type": "address"
        },
        {
          "indexed": true,
          "internalType": "address",
          "name": "to",
          "type": "address"
        },
        {
          "indexed": false,
          "internalType": "uint256",
          "name": "id",
          "type": "uint256"
        },
        {
          "indexed": false,
          "internalType": "uint256",
          "name": "value",
          "type": "uint256"
        }
      ],
      "name": "TransferSingle",
      "type": "event"
    },
    {
      "anonymous": false,
      "inputs": [
        {
          "indexed": false,
          "internalType": "string",
          "name": "value",
          "type": "string"
        },
        {
          "indexed": true,
          "internalType": "uint256",
          "name": "id",
          "type": "uint256"
        }
      ],
      "name": "URI",
      "type": "event"
    },
    {
      "inputs": [
        {
          "internalType": "uint256",
          "name": "",
          "type": "uint256"
        }
      ],
      "name": "_totalSupply",
      "outputs": [
        {
          "internalType": "uint256",
          "name": "",
          "type": "uint256"
        }
      ],
      "stateMutability": "view",
      "type": "function"
    },
    {
      "inputs": [
        {
          "internalType": "address",
          "name": "account",
          "type": "address"
        },
        {
          "internalType": "uint256",
          "name": "id",
          "type": "uint256"
        }
      ],
      "name": "balanceOf",
      "outputs": [
        {
          "internalType": "uint256",
          "name": "",
          "type": "uint256"
        }
      ],
      "stateMutability": "view",
      "type": "function"
    },
    {
      "inputs": [
        {
          "internalType": "address[]",
          "name": "accounts",
          "type": "address[]"
        },
        {
          "internalType": "uint256[]",
          "name": "ids",
          "type": "uint256[]"
        }
      ],
      "name": "balanceOfBatch",
      "outputs": [
        {
          "internalType": "uint256[]",
          "name": "",
          "type": "uint256[]"
        }
      ],
      "stateMutability": "view",
      "type": "function"
    },
    {
      "inputs": [
        {
          "internalType": "address",
          "name": "account",
          "type": "address"
        },
        {
          "internalType": "address",
          "name": "operator",
          "type": "address"
        }
      ],
      "name": "isApprovedForAll",
      "outputs": [
        {
          "internalType": "bool",
          "name": "",
          "type": "bool"
        }
      ],
      "stateMutability": "view",
      "type": "function"
    },
    {
      "inputs": [],
      "name": "mintIsActive",
      "outputs": [
        {
          "internalType": "bool",
          "name": "",
          "type": "bool"
        }
      ],
      "stateMutability": "view",
      "type": "function"
    },
    {
      "inputs": [],
      "name": "mintPrice",
      "outputs": [
        {
          "internalType": "uint256",
          "name": "",
          "type": "uint256"
        }
      ],
      "stateMutability": "view",
      "type": "function"
    },
    {
      "inputs": [],
      "name": "name",
      "outputs": [
        {
          "internalType": "string",
          "name": "",
          "type": "string"
        }
      ],
      "stateMutability": "view",
      "type": "function"
    },
    {
      "inputs": [],
      "name": "owner",
      "outputs": [
        {
          "internalType": "address",
          "name": "",
          "type": "address"
        }
      ],
      "stateMutability": "view",
      "type": "function"
    },
    {
      "inputs": [],
      "name": "renounceOwnership",
      "outputs": [],
      "stateMutability": "nonpayable",
      "type": "function"
    },
    {
      "inputs": [
        {
          "internalType": "uint256",
          "name": "",
          "type": "uint256"
        }
      ],
      "name": "royaltiesPendingWithdrawal",
      "outputs": [
        {
          "internalType": "uint256",
          "name": "",
          "type": "uint256"
        }
      ],
      "stateMutability": "view",
      "type": "function"
    },
    {
      "inputs": [],
      "name": "royaltyPercentage",
      "outputs": [
        {
          "internalType": "uint256",
          "name": "",
          "type": "uint256"
        }
      ],
      "stateMutability": "view",
      "type": "function"
    },
    {
      "inputs": [
        {
          "internalType": "address",
          "name": "from",
          "type": "address"
        },
        {
          "internalType": "address",
          "name": "to",
          "type": "address"
        },
        {
          "internalType": "uint256[]",
          "name": "ids",
          "type": "uint256[]"
        },
        {
          "internalType": "uint256[]",
          "name": "amounts",
          "type": "uint256[]"
        },
        {
          "internalType": "bytes",
          "name": "data",
          "type": "bytes"
        }
      ],
      "name": "safeBatchTransferFrom",
      "outputs": [],
      "stateMutability": "nonpayable",
      "type": "function"
    },
    {
      "inputs": [
        {
          "internalType": "address",
          "name": "from",
          "type": "address"
        },
        {
          "internalType": "address",
          "name": "to",
          "type": "address"
        },
        {
          "internalType": "uint256",
          "name": "id",
          "type": "uint256"
        },
        {
          "internalType": "uint256",
          "name": "amount",
          "type": "uint256"
        },
        {
          "internalType": "bytes",
          "name": "data",
          "type": "bytes"
        }
      ],
      "name": "safeTransferFrom",
      "outputs": [],
      "stateMutability": "nonpayable",
      "type": "function"
    },
    {
      "inputs": [
        {
          "internalType": "address",
          "name": "operator",
          "type": "address"
        },
        {
          "internalType": "bool",
          "name": "approved",
          "type": "bool"
        }
      ],
      "name": "setApprovalForAll",
      "outputs": [],
      "stateMutability": "nonpayable",
      "type": "function"
    },
    {
      "inputs": [],
      "name": "supplyNFT",
      "outputs": [
        {
          "internalType": "uint256",
          "name": "",
          "type": "uint256"
        }
      ],
      "stateMutability": "view",
      "type": "function"
    },
    {
      "inputs": [
        {
          "internalType": "bytes4",
          "name": "interfaceId",
          "type": "bytes4"
        }
      ],
      "name": "supportsInterface",
      "outputs": [
        {
          "internalType": "bool",
          "name": "",
          "type": "bool"
        }
      ],
      "stateMutability": "view",
      "type": "function"
    },
    {
      "inputs": [],
      "name": "symbol",
      "outputs": [
        {
          "internalType": "string",
          "name": "",
          "type": "string"
        }
      ],
      "stateMutability": "view",
      "type": "function"
    },
    {
      "inputs": [
        {
          "internalType": "address",
          "name": "newOwner",
          "type": "address"
        }
      ],
      "name": "transferOwnership",
      "outputs": [],
      "stateMutability": "nonpayable",
      "type": "function"
    },
    {
      "inputs": [
        {
          "internalType": "uint256",
          "name": "",
          "type": "uint256"
        }
      ],
      "name": "wineries",
      "outputs": [
        {
          "internalType": "address",
          "name": "",
          "type": "address"
        }
      ],
      "stateMutability": "view",
      "type": "function"
    },
    {
      "inputs": [
        {
          "internalType": "uint256",
          "name": "percentage",
          "type": "uint256"
        }
      ],
      "name": "setRoyaltyPercentage",
      "outputs": [],
      "stateMutability": "nonpayable",
      "type": "function"
    },
    {
      "inputs": [
        {
          "internalType": "string",
          "name": "baseURI",
          "type": "string"
        }
      ],
      "name": "setBaseURI",
      "outputs": [],
      "stateMutability": "nonpayable",
      "type": "function"
    },
    {
      "inputs": [
        {
          "internalType": "uint256",
          "name": "_mintPrice",
          "type": "uint256"
        }
      ],
      "name": "setMintPrice",
      "outputs": [],
      "stateMutability": "nonpayable",
      "type": "function"
    },
    {
      "inputs": [],
      "name": "flipMintState",
      "outputs": [],
      "stateMutability": "nonpayable",
      "type": "function"
    },
    {
      "inputs": [],
      "name": "withdraw",
      "outputs": [],
      "stateMutability": "nonpayable",
      "type": "function"
    },
    {
      "inputs": [
        {
          "internalType": "uint256",
          "name": "tokenId",
          "type": "uint256"
        }
      ],
      "name": "mint",
      "outputs": [],
      "stateMutability": "payable",
      "type": "function"
    },
    {
      "inputs": [
        {
          "internalType": "uint256",
          "name": "tokenId",
          "type": "uint256"
        }
      ],
      "name": "uri",
      "outputs": [
        {
          "internalType": "string",
          "name": "",
          "type": "string"
        }
      ],
      "stateMutability": "view",
      "type": "function"
    },
    {
      "inputs": [
        {
          "internalType": "uint256",
          "name": "tokenId",
          "type": "uint256"
        }
      ],
      "name": "totalSupply",
      "outputs": [
        {
          "internalType": "uint256",
          "name": "",
          "type": "uint256"
        }
      ],
      "stateMutability": "view",
      "type": "function"
    }
  ],
  "bytecode": "0x608060405260405180602001604052805f81525060039081620000239190620004b4565b506040518060400160405280600981526020017f544f4b454e504c41590000000000000000000000000000000000000000000000815250600690816200006a9190620004b4565b506040518060400160405280600381526020017f544b50000000000000000000000000000000000000000000000000000000000081525060079081620000b19190620004b4565b50662386f26fc100006008555f60095f6101000a81548160ff021916908315150217905550600a8055600a600b55348015620000eb575f80fd5b50604051620044fc380380620044fc8339818101604052810190620001119190620006f0565b8062000123816200015c60201b60201c565b5062000144620001386200017160201b60201c565b6200017860201b60201c565b62000155816200023b60201b60201c565b506200073f565b80600290816200016d9190620004b4565b5050565b5f33905090565b5f60055f9054906101000a900473ffffffffffffffffffffffffffffffffffffffff1690508160055f6101000a81548173ffffffffffffffffffffffffffffffffffffffff021916908373ffffffffffffffffffffffffffffffffffffffff1602179055508173ffffffffffffffffffffffffffffffffffffffff168173ffffffffffffffffffffffffffffffffffffffff167f8be0079c531659141344cd1fd0a4f28419497f9722a3daafe3b4186f6b6457e060405160405180910390a35050565b80600390816200024c9190620004b4565b5050565b5f81519050919050565b7f4e487b71000000000000000000000000000000000000000000000000000000005f52604160045260245ffd5b7f4e487b71000000000000000000000000000000000000000000000000000000005f52602260045260245ffd5b5f6002820490506001821680620002cc57607f821691505b602082108103620002e257620002e162000287565b5b50919050565b5f819050815f5260205f209050919050565b5f6020601f8301049050919050565b5f82821b905092915050565b5f60088302620003467fffffffffffffffffffffffffffffffffffffffffffffffffffffffffffffffff8262000309565b62000352868362000309565b95508019841693508086168417925050509392505050565b5f819050919050565b5f819050919050565b5f6200039c6200039662000390846200036a565b62000373565b6200036a565b9050919050565b5f819050919050565b620003b7836200037c565b620003cf620003c682620003a3565b84845462000315565b825550505050565b5f90565b620003e5620003d7565b620003f2818484620003ac565b505050565b5b8181101562000419576200040d5f82620003db565b600181019050620003f8565b5050565b601f82111562000468576200043281620002e8565b6200043d84620002fa565b810160208510156200044d578190505b620004656200045c85620002fa565b830182620003f7565b50505b505050565b5f82821c905092915050565b5f6200048a5f19846008026200046d565b1980831691505092915050565b5f620004a4838362000479565b9150826002028217905092915050565b620004bf8262000250565b67ffffffffffffffff811115620004db57620004da6200025a565b5b620004e78254620002b4565b620004f48282856200041d565b5f60209050601f8311600181146200052a575f841562000515578287015190505b62000521858262000497565b86555062000590565b601f1984166200053a86620002e8565b5f5b8281101562000563578489015182556001820191506020850194506020810190506200053c565b868310156200058357848901516200057f601f89168262000479565b8355505b6001600288020188555050505b505050505050565b5f604051905090565b5f80fd5b5f80fd5b5f80fd5b5f80fd5b5f601f19601f8301169050919050565b620005cc82620005b1565b810181811067ffffffffffffffff82111715620005ee57620005ed6200025a565b5b80604052505050565b5f6200060262000598565b9050620006108282620005c1565b919050565b5f67ffffffffffffffff8211156200063257620006316200025a565b5b6200063d82620005b1565b9050602081019050919050565b5f5b83811015620006695780820151818401526020810190506200064c565b5f8484015250505050565b5f6200068a620006848462000615565b620005f7565b905082815260208101848484011115620006a957620006a8620005ad565b5b620006b68482856200064a565b509392505050565b5f82601f830112620006d557620006d4620005a9565b5b8151620006e784826020860162000674565b91505092915050565b5f60208284031215620007085762000707620005a1565b5b5f82015167ffffffffffffffff811115620007285762000727620005a5565b5b6200073684828501620006be565b91505092915050565b613daf806200074d5f395ff3fe60806040526004361061019a575f3560e01c80636817c76c116100eb578063bd85b03911610089578063f242432a11610063578063f242432a146105a2578063f2fde38b146105ca578063f4a0a528146105f2578063f4b77a981461061a5761019a565b8063bd85b039146104ee578063e97f57111461052a578063e985e9c5146105665761019a565b80638da5cb5b116100c55780638da5cb5b1461045657806395d89b4114610480578063a0712d68146104aa578063a22cb465146104c65761019a565b80636817c76c146103ec578063715018a6146104165780638a71bb2d1461042c5761019a565b8063471a42941161015857806355f804b31161013257806355f804b31461034a5780635977e82a1461037257806359c74f29146103ae57806361ba27da146103c45761019a565b8063471a4294146102ba5780634c73501a146102e45780634e1273f41461030e5761019a565b8062fdd58e1461019e57806301ffc9a7146101da57806306fdde03146102165780630e89341c146102405780632eb2c2d61461027c5780633ccfd60b146102a4575b5f80fd5b3480156101a9575f80fd5b506101c460048036038101906101bf9190612451565b610656565b6040516101d1919061249e565b60405180910390f35b3480156101e5575f80fd5b5061020060048036038101906101fb919061250c565b610719565b60405161020d9190612551565b60405180910390f35b348015610221575f80fd5b5061022a6107fa565b60405161023791906125f4565b60405180910390f35b34801561024b575f80fd5b5061026660048036038101906102619190612614565b610886565b60405161027391906125f4565b60405180910390f35b348015610287575f80fd5b506102a2600480360381019061029d919061282f565b6108a1565b005b3480156102af575f80fd5b506102b8610942565b005b3480156102c5575f80fd5b506102ce610995565b6040516102db9190612551565b60405180910390f35b3480156102ef575f80fd5b506102f86109a7565b604051610305919061249e565b60405180910390f35b348015610319575f80fd5b50610334600480360381019061032f91906129ba565b6109ad565b6040516103419190612ae7565b60405180910390f35b348015610355575f80fd5b50610370600480360381019061036b9190612ba5565b610ac4565b005b34801561037d575f80fd5b5061039860048036038101906103939190612614565b610ad8565b6040516103a5919061249e565b60405180910390f35b3480156103b9575f80fd5b506103c2610aed565b005b3480156103cf575f80fd5b506103ea60048036038101906103e59190612614565b610b1f565b005b3480156103f7575f80fd5b50610400610b31565b60405161040d919061249e565b60405180910390f35b348015610421575f80fd5b5061042a610b37565b005b348015610437575f80fd5b50610440610b4a565b60405161044d919061249e565b60405180910390f35b348015610461575f80fd5b5061046a610b50565b6040516104779190612bfb565b60405180910390f35b34801561048b575f80fd5b50610494610b78565b6040516104a191906125f4565b60405180910390f35b6104c460048036038101906104bf9190612614565b610c04565b005b3480156104d1575f80fd5b506104ec60048036038101906104e79190612c3e565b610e1e565b005b3480156104f9575f80fd5b50610514600480360381019061050f9190612614565b610e34565b604051610521919061249e565b60405180910390f35b348015610535575f80fd5b50610550600480360381019061054b9190612614565b610e4e565b60405161055d919061249e565b60405180910390f35b348015610571575f80fd5b5061058c60048036038101906105879190612c7c565b610e63565b6040516105999190612551565b60405180910390f35b3480156105ad575f80fd5b506105c860048036038101906105c39190612cba565b610ef1565b005b3480156105d5575f80fd5b506105f060048036038101906105eb9190612d4d565b610f92565b005b3480156105fd575f80fd5b5061061860048036038101906106139190612614565b611014565b005b348015610625575f80fd5b50610640600480360381019061063b9190612614565b611026565b60405161064d9190612bfb565b60405180910390f35b5f8073ffffffffffffffffffffffffffffffffffffffff168373ffffffffffffffffffffffffffffffffffffffff16036106c5576040517f08c379a00000000000000000000000000000000000000000000000000000000081526004016106bc90612de8565b60405180910390fd5b5f808381526020019081526020015f205f8473ffffffffffffffffffffffffffffffffffffffff1673ffffffffffffffffffffffffffffffffffffffff1681526020019081526020015f2054905092915050565b5f7fd9b67a26000000000000000000000000000000000000000000000000000000007bffffffffffffffffffffffffffffffffffffffffffffffffffffffff1916827bffffffffffffffffffffffffffffffffffffffffffffffffffffffff191614806107e357507f0e89341c000000000000000000000000000000000000000000000000000000007bffffffffffffffffffffffffffffffffffffffffffffffffffffffff1916827bffffffffffffffffffffffffffffffffffffffffffffffffffffffff1916145b806107f357506107f282611056565b5b9050919050565b6006805461080790612e33565b80601f016020809104026020016040519081016040528092919081815260200182805461083390612e33565b801561087e5780601f106108555761010080835404028352916020019161087e565b820191905f5260205f20905b81548152906001019060200180831161086157829003601f168201915b505050505081565b6060610891826110bf565b61089a8261110a565b9050919050565b6108a96111e9565b73ffffffffffffffffffffffffffffffffffffffff168573ffffffffffffffffffffffffffffffffffffffff1614806108ef57506108ee856108e96111e9565b610e63565b5b61092e576040517f08c379a000000000000000000000000000000000000000000000000000000000815260040161092590612ed3565b60405180910390fd5b61093b85858585856111f0565b5050505050565b61094a6114fe565b5f4790503373ffffffffffffffffffffffffffffffffffffffff166108fc8290811502906040515f60405180830381858888f19350505050158015610991573d5f803e3d5ffd5b5050565b60095f9054906101000a900460ff1681565b600b5481565b606081518351146109f3576040517f08c379a00000000000000000000000000000000000000000000000000000000081526004016109ea90612f61565b60405180910390fd5b5f835167ffffffffffffffff811115610a0f57610a0e612643565b5b604051908082528060200260200182016040528015610a3d5781602001602082028036833780820191505090505b5090505f5b8451811015610ab957610a89858281518110610a6157610a60612f7f565b5b6020026020010151858381518110610a7c57610a7b612f7f565b5b6020026020010151610656565b828281518110610a9c57610a9b612f7f565b5b60200260200101818152505080610ab290612fd9565b9050610a42565b508091505092915050565b610acc6114fe565b610ad58161157c565b50565b600d602052805f5260405f205f915090505481565b610af56114fe565b60095f9054906101000a900460ff161560095f6101000a81548160ff021916908315150217905550565b610b276114fe565b80600a8190555050565b60085481565b610b3f6114fe565b610b485f61158f565b565b600a5481565b5f60055f9054906101000a900473ffffffffffffffffffffffffffffffffffffffff16905090565b60078054610b8590612e33565b80601f0160208091040260200160405190810160405280929190818152602001828054610bb190612e33565b8015610bfc5780601f10610bd357610100808354040283529160200191610bfc565b820191905f5260205f20905b815481529060010190602001808311610bdf57829003601f168201915b505050505081565b60095f9054906101000a900460ff16610c52576040517f08c379a0000000000000000000000000000000000000000000000000000000008152600401610c499061306a565b60405180910390fd5b3460085414610c96576040517f08c379a0000000000000000000000000000000000000000000000000000000008152600401610c8d906130d2565b60405180910390fd5b610c9f81611652565b15610cdf576040517f08c379a0000000000000000000000000000000000000000000000000000000008152600401610cd69061313a565b60405180910390fd5b5f600b5411610d23576040517f08c379a0000000000000000000000000000000000000000000000000000000008152600401610d1a906131a2565b60405180910390fd5b33600c5f8381526020019081526020015f205f6101000a81548173ffffffffffffffffffffffffffffffffffffffff021916908373ffffffffffffffffffffffffffffffffffffffff160217905550610d8e3382600b5460405180602001604052805f8152506116ba565b610dbf81610d9b8361185d565b604051602001610dab9190613244565b604051602081830303815290604052611927565b600b54600d5f8381526020019081526020015f2081905550803373ffffffffffffffffffffffffffffffffffffffff167f30385c845b448a36257a6a1716e6ad2e1bc2cbe333cde1e69fe849ad6511adfe60405160405180910390a350565b610e30610e296111e9565b838361198a565b5050565b5f600d5f8381526020019081526020015f20549050919050565b600e602052805f5260405f205f915090505481565b5f60015f8473ffffffffffffffffffffffffffffffffffffffff1673ffffffffffffffffffffffffffffffffffffffff1681526020019081526020015f205f8373ffffffffffffffffffffffffffffffffffffffff1673ffffffffffffffffffffffffffffffffffffffff1681526020019081526020015f205f9054906101000a900460ff16905092915050565b610ef96111e9565b73ffffffffffffffffffffffffffffffffffffffff168573ffffffffffffffffffffffffffffffffffffffff161480610f3f5750610f3e85610f396111e9565b610e63565b5b610f7e576040517f08c379a0000000000000000000000000000000000000000000000000000000008152600401610f7590612ed3565b60405180910390fd5b610f8b8585858585611af1565b5050505050565b610f9a6114fe565b5f73ffffffffffffffffffffffffffffffffffffffff168173ffffffffffffffffffffffffffffffffffffffff1603611008576040517f08c379a0000000000000000000000000000000000000000000000000000000008152600401610fff906132d5565b60405180910390fd5b6110118161158f565b50565b61101c6114fe565b8060088190555050565b600c602052805f5260405f205f915054906101000a900473ffffffffffffffffffffffffffffffffffffffff1681565b5f7f01ffc9a7000000000000000000000000000000000000000000000000000000007bffffffffffffffffffffffffffffffffffffffffffffffffffffffff1916827bffffffffffffffffffffffffffffffffffffffffffffffffffffffff1916149050919050565b6110c881611652565b611107576040517f08c379a00000000000000000000000000000000000000000000000000000000081526004016110fe9061333d565b60405180910390fd5b50565b60605f60045f8481526020019081526020015f20805461112990612e33565b80601f016020809104026020016040519081016040528092919081815260200182805461115590612e33565b80156111a05780601f10611177576101008083540402835291602001916111a0565b820191905f5260205f20905b81548152906001019060200180831161118357829003601f168201915b505050505090505f8151116111bd576111b883611d7a565b6111e1565b6003816040516020016111d19291906133ed565b6040516020818303038152906040525b915050919050565b5f33905090565b8151835114611234576040517f08c379a000000000000000000000000000000000000000000000000000000000815260040161122b90613480565b60405180910390fd5b5f73ffffffffffffffffffffffffffffffffffffffff168473ffffffffffffffffffffffffffffffffffffffff16036112a2576040517f08c379a00000000000000000000000000000000000000000000000000000000081526004016112999061350e565b60405180910390fd5b5f6112ab6111e9565b90506112bb818787878787611e0c565b5f5b845181101561145b575f8582815181106112da576112d9612f7f565b5b602002602001015190505f8583815181106112f8576112f7612f7f565b5b602002602001015190505f805f8481526020019081526020015f205f8b73ffffffffffffffffffffffffffffffffffffffff1673ffffffffffffffffffffffffffffffffffffffff1681526020019081526020015f2054905081811015611394576040517f08c379a000000000000000000000000000000000000000000000000000000000815260040161138b9061359c565b60405180910390fd5b8181035f808581526020019081526020015f205f8c73ffffffffffffffffffffffffffffffffffffffff1673ffffffffffffffffffffffffffffffffffffffff1681526020019081526020015f2081905550815f808581526020019081526020015f205f8b73ffffffffffffffffffffffffffffffffffffffff1673ffffffffffffffffffffffffffffffffffffffff1681526020019081526020015f205f82825461144091906135ba565b925050819055505050508061145490612fd9565b90506112bd565b508473ffffffffffffffffffffffffffffffffffffffff168673ffffffffffffffffffffffffffffffffffffffff168273ffffffffffffffffffffffffffffffffffffffff167f4a39dc06d4c0dbc64b70af90fd698a233a518aa5d07e595d983b8c0526c8f7fb87876040516114d29291906135ed565b60405180910390a46114e8818787878787611e14565b6114f6818787878787611e1c565b505050505050565b6115066111e9565b73ffffffffffffffffffffffffffffffffffffffff16611524610b50565b73ffffffffffffffffffffffffffffffffffffffff161461157a576040517f08c379a00000000000000000000000000000000000000000000000000000000081526004016115719061366c565b60405180910390fd5b565b806003908161158b9190613815565b5050565b5f60055f9054906101000a900473ffffffffffffffffffffffffffffffffffffffff1690508160055f6101000a81548173ffffffffffffffffffffffffffffffffffffffff021916908373ffffffffffffffffffffffffffffffffffffffff1602179055508173ffffffffffffffffffffffffffffffffffffffff168173ffffffffffffffffffffffffffffffffffffffff167f8be0079c531659141344cd1fd0a4f28419497f9722a3daafe3b4186f6b6457e060405160405180910390a35050565b5f8073ffffffffffffffffffffffffffffffffffffffff16600c5f8481526020019081526020015f205f9054906101000a900473ffffffffffffffffffffffffffffffffffffffff1673ffffffffffffffffffffffffffffffffffffffff1614159050919050565b5f73ffffffffffffffffffffffffffffffffffffffff168473ffffffffffffffffffffffffffffffffffffffff1603611728576040517f08c379a000000000000000000000000000000000000000000000000000000000815260040161171f90613954565b60405180910390fd5b5f6117316111e9565b90505f61173d85611ff2565b90505f61174985611ff2565b9050611759835f89858589611e0c565b845f808881526020019081526020015f205f8973ffffffffffffffffffffffffffffffffffffffff1673ffffffffffffffffffffffffffffffffffffffff1681526020019081526020015f205f8282546117b391906135ba565b925050819055508673ffffffffffffffffffffffffffffffffffffffff165f73ffffffffffffffffffffffffffffffffffffffff168473ffffffffffffffffffffffffffffffffffffffff167fc3d58168c5ae7397731d063d5bbf3d657854427343f4c083240f7aacaa2d0f628989604051611830929190613972565b60405180910390a4611846835f89858589611e14565b611854835f8989898961206a565b50505050505050565b60605f600161186b84612240565b0190505f8167ffffffffffffffff81111561188957611888612643565b5b6040519080825280601f01601f1916602001820160405280156118bb5781602001600182028036833780820191505090505b5090505f82602001820190505b60011561191c578080600190039150507f3031323334353637383961626364656600000000000000000000000000000000600a86061a8153600a858161191157611910613999565b5b0494505f85036118c8575b819350505050919050565b8060045f8481526020019081526020015f2090816119459190613815565b50817f6bb7ff708619ba0610cba295a58592e0451dee2622938c8755667688daf3529b61197184610886565b60405161197e91906125f4565b60405180910390a25050565b8173ffffffffffffffffffffffffffffffffffffffff168373ffffffffffffffffffffffffffffffffffffffff16036119f8576040517f08c379a00000000000000000000000000000000000000000000000000000000081526004016119ef90613a36565b60405180910390fd5b8060015f8573ffffffffffffffffffffffffffffffffffffffff1673ffffffffffffffffffffffffffffffffffffffff1681526020019081526020015f205f8473ffffffffffffffffffffffffffffffffffffffff1673ffffffffffffffffffffffffffffffffffffffff1681526020019081526020015f205f6101000a81548160ff0219169083151502179055508173ffffffffffffffffffffffffffffffffffffffff168373ffffffffffffffffffffffffffffffffffffffff167f17307eab39ab6107e8899845ad3d59bd9653f200f220920489ca2b5937696c3183604051611ae49190612551565b60405180910390a3505050565b5f73ffffffffffffffffffffffffffffffffffffffff168473ffffffffffffffffffffffffffffffffffffffff1603611b5f576040517f08c379a0000000000000000000000000000000000000000000000000000000008152600401611b569061350e565b60405180910390fd5b5f611b686111e9565b90505f611b7485611ff2565b90505f611b8085611ff2565b9050611b90838989858589611e0c565b5f805f8881526020019081526020015f205f8a73ffffffffffffffffffffffffffffffffffffffff1673ffffffffffffffffffffffffffffffffffffffff1681526020019081526020015f2054905085811015611c22576040517f08c379a0000000000000000000000000000000000000000000000000000000008152600401611c199061359c565b60405180910390fd5b8581035f808981526020019081526020015f205f8b73ffffffffffffffffffffffffffffffffffffffff1673ffffffffffffffffffffffffffffffffffffffff1681526020019081526020015f2081905550855f808981526020019081526020015f205f8a73ffffffffffffffffffffffffffffffffffffffff1673ffffffffffffffffffffffffffffffffffffffff1681526020019081526020015f205f828254611cce91906135ba565b925050819055508773ffffffffffffffffffffffffffffffffffffffff168973ffffffffffffffffffffffffffffffffffffffff168573ffffffffffffffffffffffffffffffffffffffff167fc3d58168c5ae7397731d063d5bbf3d657854427343f4c083240f7aacaa2d0f628a8a604051611d4b929190613972565b60405180910390a4611d61848a8a86868a611e14565b611d6f848a8a8a8a8a61206a565b505050505050505050565b606060028054611d8990612e33565b80601f0160208091040260200160405190810160405280929190818152602001828054611db590612e33565b8015611e005780601f10611dd757610100808354040283529160200191611e00565b820191905f5260205f20905b815481529060010190602001808311611de357829003601f168201915b50505050509050919050565b505050505050565b505050505050565b611e3b8473ffffffffffffffffffffffffffffffffffffffff16612391565b15611fea578373ffffffffffffffffffffffffffffffffffffffff1663bc197c8187878686866040518663ffffffff1660e01b8152600401611e81959493929190613aa6565b6020604051808303815f875af1925050508015611ebc57506040513d601f19601f82011682018060405250810190611eb99190613b20565b60015b611f6157611ec8613b57565b806308c379a003611f245750611edc613b76565b80611ee75750611f26565b806040517f08c379a0000000000000000000000000000000000000000000000000000000008152600401611f1b91906125f4565b60405180910390fd5b505b6040517f08c379a0000000000000000000000000000000000000000000000000000000008152600401611f5890613c75565b60405180910390fd5b63bc197c8160e01b7bffffffffffffffffffffffffffffffffffffffffffffffffffffffff1916817bffffffffffffffffffffffffffffffffffffffffffffffffffffffff191614611fe8576040517f08c379a0000000000000000000000000000000000000000000000000000000008152600401611fdf90613d03565b60405180910390fd5b505b505050505050565b60605f600167ffffffffffffffff8111156120105761200f612643565b5b60405190808252806020026020018201604052801561203e5781602001602082028036833780820191505090505b50905082815f8151811061205557612054612f7f565b5b60200260200101818152505080915050919050565b6120898473ffffffffffffffffffffffffffffffffffffffff16612391565b15612238578373ffffffffffffffffffffffffffffffffffffffff1663f23a6e6187878686866040518663ffffffff1660e01b81526004016120cf959493929190613d21565b6020604051808303815f875af192505050801561210a57506040513d601f19601f820116820180604052508101906121079190613b20565b60015b6121af57612116613b57565b806308c379a003612172575061212a613b76565b806121355750612174565b806040517f08c379a000000000000000000000000000000000000000000000000000000000815260040161216991906125f4565b60405180910390fd5b505b6040517f08c379a00000000000000000000000000000000000000000000000000000000081526004016121a690613c75565b60405180910390fd5b63f23a6e6160e01b7bffffffffffffffffffffffffffffffffffffffffffffffffffffffff1916817bffffffffffffffffffffffffffffffffffffffffffffffffffffffff191614612236576040517f08c379a000000000000000000000000000000000000000000000000000000000815260040161222d90613d03565b60405180910390fd5b505b505050505050565b5f805f90507a184f03e93ff9f4daa797ed6e38ed64bf6a1f010000000000000000831061229c577a184f03e93ff9f4daa797ed6e38ed64bf6a1f010000000000000000838161229257612291613999565b5b0492506040810190505b6d04ee2d6d415b85acef810000000083106122d9576d04ee2d6d415b85acef810000000083816122cf576122ce613999565b5b0492506020810190505b662386f26fc10000831061230857662386f26fc1000083816122fe576122fd613999565b5b0492506010810190505b6305f5e1008310612331576305f5e100838161232757612326613999565b5b0492506008810190505b612710831061235657612710838161234c5761234b613999565b5b0492506004810190505b60648310612379576064838161236f5761236e613999565b5b0492506002810190505b600a8310612388576001810190505b80915050919050565b5f808273ffffffffffffffffffffffffffffffffffffffff163b119050919050565b5f604051905090565b5f80fd5b5f80fd5b5f73ffffffffffffffffffffffffffffffffffffffff82169050919050565b5f6123ed826123c4565b9050919050565b6123fd816123e3565b8114612407575f80fd5b50565b5f81359050612418816123f4565b92915050565b5f819050919050565b6124308161241e565b811461243a575f80fd5b50565b5f8135905061244b81612427565b92915050565b5f8060408385031215612467576124666123bc565b5b5f6124748582860161240a565b92505060206124858582860161243d565b9150509250929050565b6124988161241e565b82525050565b5f6020820190506124b15f83018461248f565b92915050565b5f7fffffffff0000000000000000000000000000000000000000000000000000000082169050919050565b6124eb816124b7565b81146124f5575f80fd5b50565b5f81359050612506816124e2565b92915050565b5f60208284031215612521576125206123bc565b5b5f61252e848285016124f8565b91505092915050565b5f8115159050919050565b61254b81612537565b82525050565b5f6020820190506125645f830184612542565b92915050565b5f81519050919050565b5f82825260208201905092915050565b5f5b838110156125a1578082015181840152602081019050612586565b5f8484015250505050565b5f601f19601f8301169050919050565b5f6125c68261256a565b6125d08185612574565b93506125e0818560208601612584565b6125e9816125ac565b840191505092915050565b5f6020820190508181035f83015261260c81846125bc565b905092915050565b5f60208284031215612629576126286123bc565b5b5f6126368482850161243d565b91505092915050565b5f80fd5b7f4e487b71000000000000000000000000000000000000000000000000000000005f52604160045260245ffd5b612679826125ac565b810181811067ffffffffffffffff8211171561269857612697612643565b5b80604052505050565b5f6126aa6123b3565b90506126b68282612670565b919050565b5f67ffffffffffffffff8211156126d5576126d4612643565b5b602082029050602081019050919050565b5f80fd5b5f6126fc6126f7846126bb565b6126a1565b9050808382526020820190506020840283018581111561271f5761271e6126e6565b5b835b818110156127485780612734888261243d565b845260208401935050602081019050612721565b5050509392505050565b5f82601f8301126127665761276561263f565b5b81356127768482602086016126ea565b91505092915050565b5f80fd5b5f67ffffffffffffffff82111561279d5761279c612643565b5b6127a6826125ac565b9050602081019050919050565b828183375f83830152505050565b5f6127d36127ce84612783565b6126a1565b9050828152602081018484840111156127ef576127ee61277f565b5b6127fa8482856127b3565b509392505050565b5f82601f8301126128165761281561263f565b5b81356128268482602086016127c1565b91505092915050565b5f805f805f60a08688031215612848576128476123bc565b5b5f6128558882890161240a565b95505060206128668882890161240a565b945050604086013567ffffffffffffffff811115612887576128866123c0565b5b61289388828901612752565b935050606086013567ffffffffffffffff8111156128b4576128b36123c0565b5b6128c088828901612752565b925050608086013567ffffffffffffffff8111156128e1576128e06123c0565b5b6128ed88828901612802565b9150509295509295909350565b5f67ffffffffffffffff82111561291457612913612643565b5b602082029050602081019050919050565b5f612937612932846128fa565b6126a1565b9050808382526020820190506020840283018581111561295a576129596126e6565b5b835b81811015612983578061296f888261240a565b84526020840193505060208101905061295c565b5050509392505050565b5f82601f8301126129a1576129a061263f565b5b81356129b1848260208601612925565b91505092915050565b5f80604083850312156129d0576129cf6123bc565b5b5f83013567ffffffffffffffff8111156129ed576129ec6123c0565b5b6129f98582860161298d565b925050602083013567ffffffffffffffff811115612a1a57612a196123c0565b5b612a2685828601612752565b9150509250929050565b5f81519050919050565b5f82825260208201905092915050565b5f819050602082019050919050565b612a628161241e565b82525050565b5f612a738383612a59565b60208301905092915050565b5f602082019050919050565b5f612a9582612a30565b612a9f8185612a3a565b9350612aaa83612a4a565b805f5b83811015612ada578151612ac18882612a68565b9750612acc83612a7f565b925050600181019050612aad565b5085935050505092915050565b5f6020820190508181035f830152612aff8184612a8b565b905092915050565b5f67ffffffffffffffff821115612b2157612b20612643565b5b612b2a826125ac565b9050602081019050919050565b5f612b49612b4484612b07565b6126a1565b905082815260208101848484011115612b6557612b6461277f565b5b612b708482856127b3565b509392505050565b5f82601f830112612b8c57612b8b61263f565b5b8135612b9c848260208601612b37565b91505092915050565b5f60208284031215612bba57612bb96123bc565b5b5f82013567ffffffffffffffff811115612bd757612bd66123c0565b5b612be384828501612b78565b91505092915050565b612bf5816123e3565b82525050565b5f602082019050612c0e5f830184612bec565b92915050565b612c1d81612537565b8114612c27575f80fd5b50565b5f81359050612c3881612c14565b92915050565b5f8060408385031215612c5457612c536123bc565b5b5f612c618582860161240a565b9250506020612c7285828601612c2a565b9150509250929050565b5f8060408385031215612c9257612c916123bc565b5b5f612c9f8582860161240a565b9250506020612cb08582860161240a565b9150509250929050565b5f805f805f60a08688031215612cd357612cd26123bc565b5b5f612ce08882890161240a565b9550506020612cf18882890161240a565b9450506040612d028882890161243d565b9350506060612d138882890161243d565b925050608086013567ffffffffffffffff811115612d3457612d336123c0565b5b612d4088828901612802565b9150509295509295909350565b5f60208284031215612d6257612d616123bc565b5b5f612d6f8482850161240a565b91505092915050565b7f455243313135353a2061646472657373207a65726f206973206e6f74206120765f8201527f616c6964206f776e657200000000000000000000000000000000000000000000602082015250565b5f612dd2602a83612574565b9150612ddd82612d78565b604082019050919050565b5f6020820190508181035f830152612dff81612dc6565b9050919050565b7f4e487b71000000000000000000000000000000000000000000000000000000005f52602260045260245ffd5b5f6002820490506001821680612e4a57607f821691505b602082108103612e5d57612e5c612e06565b5b50919050565b7f455243313135353a2063616c6c6572206973206e6f7420746f6b656e206f776e5f8201527f6572206f7220617070726f766564000000000000000000000000000000000000602082015250565b5f612ebd602e83612574565b9150612ec882612e63565b604082019050919050565b5f6020820190508181035f830152612eea81612eb1565b9050919050565b7f455243313135353a206163636f756e747320616e6420696473206c656e6774685f8201527f206d69736d617463680000000000000000000000000000000000000000000000602082015250565b5f612f4b602983612574565b9150612f5682612ef1565b604082019050919050565b5f6020820190508181035f830152612f7881612f3f565b9050919050565b7f4e487b71000000000000000000000000000000000000000000000000000000005f52603260045260245ffd5b7f4e487b71000000000000000000000000000000000000000000000000000000005f52601160045260245ffd5b5f612fe38261241e565b91507fffffffffffffffffffffffffffffffffffffffffffffffffffffffffffffffff820361301557613014612fac565b5b600182019050919050565b7f4d696e74206d7573742062652061637469766520746f206d696e7400000000005f82015250565b5f613054601b83612574565b915061305f82613020565b602082019050919050565b5f6020820190508181035f83015261308181613048565b9050919050565b7f56616c75652073656e74206973206e6f7420636f7272656374000000000000005f82015250565b5f6130bc601983612574565b91506130c782613088565b602082019050919050565b5f6020820190508181035f8301526130e9816130b0565b9050919050565b7f47616d6520616c7265616479206d696e746564000000000000000000000000005f82015250565b5f613124601383612574565b915061312f826130f0565b602082019050919050565b5f6020820190508181035f83015261315181613118565b9050919050565b7f54686520737570706c79206d75737420626520686967686572207468616e20305f82015250565b5f61318c602083612574565b915061319782613158565b602082019050919050565b5f6020820190508181035f8301526131b981613180565b9050919050565b5f81905092915050565b5f6131d48261256a565b6131de81856131c0565b93506131ee818560208601612584565b80840191505092915050565b7f2e6a736f6e0000000000000000000000000000000000000000000000000000005f82015250565b5f61322e6005836131c0565b9150613239826131fa565b600582019050919050565b5f61324f82846131ca565b915061325a82613222565b915081905092915050565b7f4f776e61626c653a206e6577206f776e657220697320746865207a65726f20615f8201527f6464726573730000000000000000000000000000000000000000000000000000602082015250565b5f6132bf602683612574565b91506132ca82613265565b604082019050919050565b5f6020820190508181035f8301526132ec816132b3565b9050919050565b7f496e76616c696420746f6b656e204944000000000000000000000000000000005f82015250565b5f613327601083612574565b9150613332826132f3565b602082019050919050565b5f6020820190508181035f8301526133548161331b565b9050919050565b5f819050815f5260205f209050919050565b5f815461337981612e33565b61338381866131c0565b9450600182165f811461339d57600181146133b2576133e4565b60ff19831686528115158202860193506133e4565b6133bb8561335b565b5f5b838110156133dc578154818901526001820191506020810190506133bd565b838801955050505b50505092915050565b5f6133f8828561336d565b915061340482846131ca565b91508190509392505050565b7f455243313135353a2069647320616e6420616d6f756e7473206c656e677468205f8201527f6d69736d61746368000000000000000000000000000000000000000000000000602082015250565b5f61346a602883612574565b915061347582613410565b604082019050919050565b5f6020820190508181035f8301526134978161345e565b9050919050565b7f455243313135353a207472616e7366657220746f20746865207a65726f2061645f8201527f6472657373000000000000000000000000000000000000000000000000000000602082015250565b5f6134f8602583612574565b91506135038261349e565b604082019050919050565b5f6020820190508181035f830152613525816134ec565b9050919050565b7f455243313135353a20696e73756666696369656e742062616c616e636520666f5f8201527f72207472616e7366657200000000000000000000000000000000000000000000602082015250565b5f613586602a83612574565b91506135918261352c565b604082019050919050565b5f6020820190508181035f8301526135b38161357a565b9050919050565b5f6135c48261241e565b91506135cf8361241e565b92508282019050808211156135e7576135e6612fac565b5b92915050565b5f6040820190508181035f8301526136058185612a8b565b905081810360208301526136198184612a8b565b90509392505050565b7f4f776e61626c653a2063616c6c6572206973206e6f7420746865206f776e65725f82015250565b5f613656602083612574565b915061366182613622565b602082019050919050565b5f6020820190508181035f8301526136838161364a565b9050919050565b5f6020601f8301049050919050565b5f82821b905092915050565b5f600883026136d47fffffffffffffffffffffffffffffffffffffffffffffffffffffffffffffffff82613699565b6136de8683613699565b95508019841693508086168417925050509392505050565b5f819050919050565b5f61371961371461370f8461241e565b6136f6565b61241e565b9050919050565b5f819050919050565b613732836136ff565b61374661373e82613720565b8484546136a5565b825550505050565b5f90565b61375a61374e565b613765818484613729565b505050565b5b818110156137885761377d5f82613752565b60018101905061376b565b5050565b601f8211156137cd5761379e8161335b565b6137a78461368a565b810160208510156137b6578190505b6137ca6137c28561368a565b83018261376a565b50505b505050565b5f82821c905092915050565b5f6137ed5f19846008026137d2565b1980831691505092915050565b5f61380583836137de565b9150826002028217905092915050565b61381e8261256a565b67ffffffffffffffff81111561383757613836612643565b5b6138418254612e33565b61384c82828561378c565b5f60209050601f83116001811461387d575f841561386b578287015190505b61387585826137fa565b8655506138dc565b601f19841661388b8661335b565b5f5b828110156138b25784890151825560018201915060208501945060208101905061388d565b868310156138cf57848901516138cb601f8916826137de565b8355505b6001600288020188555050505b505050505050565b7f455243313135353a206d696e7420746f20746865207a65726f206164647265735f8201527f7300000000000000000000000000000000000000000000000000000000000000602082015250565b5f61393e602183612574565b9150613949826138e4565b604082019050919050565b5f6020820190508181035f83015261396b81613932565b9050919050565b5f6040820190506139855f83018561248f565b613992602083018461248f565b9392505050565b7f4e487b71000000000000000000000000000000000000000000000000000000005f52601260045260245ffd5b7f455243313135353a2073657474696e6720617070726f76616c207374617475735f8201527f20666f722073656c660000000000000000000000000000000000000000000000602082015250565b5f613a20602983612574565b9150613a2b826139c6565b604082019050919050565b5f6020820190508181035f830152613a4d81613a14565b9050919050565b5f81519050919050565b5f82825260208201905092915050565b5f613a7882613a54565b613a828185613a5e565b9350613a92818560208601612584565b613a9b816125ac565b840191505092915050565b5f60a082019050613ab95f830188612bec565b613ac66020830187612bec565b8181036040830152613ad88186612a8b565b90508181036060830152613aec8185612a8b565b90508181036080830152613b008184613a6e565b90509695505050505050565b5f81519050613b1a816124e2565b92915050565b5f60208284031215613b3557613b346123bc565b5b5f613b4284828501613b0c565b91505092915050565b5f8160e01c9050919050565b5f60033d1115613b735760045f803e613b705f51613b4b565b90505b90565b5f60443d10613c0257613b876123b3565b60043d036004823e80513d602482011167ffffffffffffffff82111715613baf575050613c02565b808201805167ffffffffffffffff811115613bcd5750505050613c02565b80602083010160043d038501811115613bea575050505050613c02565b613bf982602001850186612670565b82955050505050505b90565b7f455243313135353a207472616e7366657220746f206e6f6e2d455243313135355f8201527f526563656976657220696d706c656d656e746572000000000000000000000000602082015250565b5f613c5f603483612574565b9150613c6a82613c05565b604082019050919050565b5f6020820190508181035f830152613c8c81613c53565b9050919050565b7f455243313135353a204552433131353552656365697665722072656a656374655f8201527f6420746f6b656e73000000000000000000000000000000000000000000000000602082015250565b5f613ced602883612574565b9150613cf882613c93565b604082019050919050565b5f6020820190508181035f830152613d1a81613ce1565b9050919050565b5f60a082019050613d345f830188612bec565b613d416020830187612bec565b613d4e604083018661248f565b613d5b606083018561248f565b8181036080830152613d6d8184613a6e565b9050969550505050505056fea26469706673582212209a3642b0f3a670e13bb38b437abf313875675c3df764720c4f832e4432d8751164736f6c63430008140033",
  "immutableReferences": {},
  "source": "// SPDX-License-Identifier: MIT\npragma solidity >=0.8.0 <0.9.0;\n\nimport \"@openzeppelin/contracts/token/ERC1155/ERC1155.sol\";\nimport \"@openzeppelin/contracts/token/ERC1155/extensions/ERC1155URIStorage.sol\";\nimport \"@openzeppelin/contracts/access/Ownable.sol\";\nimport \"@openzeppelin/contracts/utils/Strings.sol\";\n\ncontract TOKENPLAY is ERC1155, ERC1155URIStorage, Ownable {\n    using Strings for uint256;\n\n    string public name = \"TOKENPLAY\";\n\n    string public symbol = \"TKP\";\n\n    uint256 public mintPrice = 10000000000000000; // 0.01 ETH\n\n    bool public mintIsActive = false;\n\n    uint256 public royaltyPercentage = 10; // % royalties\n\n    uint256 public supplyNFT = 10;\n\n    mapping(uint256 => address) public wineries;\n\n    mapping(uint256 => uint256) public _totalSupply;\n\n    mapping(uint256 => uint256) public royaltiesPendingWithdrawal;\n\n    event Minted(address indexed minter, uint256 indexed tokenId);\n\n    constructor (string memory _baseURI /*,uint256 supply*/) ERC1155(_baseURI) {\n        //supplyNFT = supply;\n        _setBaseURI(_baseURI);\n    }\n\n    function setRoyaltyPercentage(uint256 percentage) public onlyOwner {\n        royaltyPercentage = percentage;\n    }    \n\n    function _exists(uint256 tokenId) internal view virtual returns (bool) {\n        return wineries[tokenId] != address(0);\n    }\n\n    function _requireMinted(uint256 tokenId) internal view virtual {\n        require(_exists(tokenId), \"Invalid token ID\");\n    }\n\n    function setBaseURI(string memory baseURI) public onlyOwner {\n        _setBaseURI(baseURI);\n    }\n\n    function setMintPrice(uint256 _mintPrice) public onlyOwner {\n        mintPrice = _mintPrice;\n    }\n\n    function flipMintState() public onlyOwner {\n        mintIsActive = ! mintIsActive;\n    }\n\n    function withdraw() public onlyOwner {\n        uint balance = address(this).balance;\n\n        payable(msg.sender).transfer(balance);\n    }\n\n    function mint(uint256 tokenId) public payable {\n        require(mintIsActive, \"Mint must be active to mint\");\n        require(mintPrice == msg.value, \"Value sent is not correct\");\n        require(!_exists(tokenId), \"Game already minted\");\n        require(supplyNFT > 0, \"The supply must be higher than 0\");\n\n        wineries[tokenId] = msg.sender;\n\n        _mint(msg.sender, tokenId, supplyNFT, \"\");\n        _setURI(tokenId, string(abi.encodePacked(tokenId.toString(), \".json\")));\n\n        _totalSupply[tokenId] = supplyNFT;\n\n        emit Minted(msg.sender, tokenId);\n    }\n    /*\n    function safeTransferFrom(address from, address to, uint256 tokenId, uint256 amount, bytes memory data) public override {\n        _requireMinted(tokenId);\n\n        // Calcular el monto de royalties a pagar al propietario original\n        uint256 royaltyAmount = (amount * royaltyPercentage) / 100;\n        uint256 transferAmount = amount - royaltyAmount;\n\n        // Transferir el NFT al nuevo propietario\n        _safeTransferFrom(from, to, tokenId, transferAmount, data);\n\n        // Pagar los royalties al propietario original\n        //if (royaltyAmount > 0) {\n        //    payable(address(this)).transfer(royaltyAmount);\n        //}\n        // Guardar los royalties en el contrato para que el propietario pueda retirarlos ms tarde\n        royaltiesPendingWithdrawal[tokenId] += royaltyAmount;\n\n    }\n\n    function withdrawRoyalties(uint256 tokenId) public {\n        require(royaltiesPendingWithdrawal[tokenId] > 0, \"No royalties to withdraw\");\n        require(msg.sender == wineries[tokenId], \"Only the original owner can withdraw royalties\");\n\n        uint256 amount = royaltiesPendingWithdrawal[tokenId];\n        royaltiesPendingWithdrawal[tokenId] = 0; // Resetea el saldo pendiente\n\n        payable(msg.sender).transfer(amount);\n    }\n    */\n\n    function uri(uint256 tokenId) public view virtual override(ERC1155, ERC1155URIStorage) returns (string memory) {\n        _requireMinted(tokenId);\n\n        return super.uri(tokenId);\n    }\n\n    function totalSupply(uint256 tokenId) public view returns (uint256) {\n        return _totalSupply[tokenId];\n    }\n}\n",
  "sourcePath": "C:\\Users\\User\\Desktop\\PC\\2_Master\\BSM_Engineering\\TFM\\DAPP\\dapp\\contracts\\TOKENPLAY.sol",
  "compiler": {
    "name": "solc",
    "version": "0.8.20+commit.a1b79de6.Emscripten.clang"
  },
  "schemaVersion": "3.4.14",
  "updatedAt": "2023-08-08T10:40:05.979Z",
  "devdoc": {
    "events": {
      "ApprovalForAll(address,address,bool)": {
        "details": "Emitted when `account` grants or revokes permission to `operator` to transfer their tokens, according to `approved`."
      },
      "TransferBatch(address,address,address,uint256[],uint256[])": {
        "details": "Equivalent to multiple {TransferSingle} events, where `operator`, `from` and `to` are the same for all transfers."
      },
      "TransferSingle(address,address,address,uint256,uint256)": {
        "details": "Emitted when `value` tokens of token type `id` are transferred from `from` to `to` by `operator`."
      },
      "URI(string,uint256)": {
        "details": "Emitted when the URI for token type `id` changes to `value`, if it is a non-programmatic URI. If an {URI} event was emitted for `id`, the standard https://eips.ethereum.org/EIPS/eip-1155#metadata-extensions[guarantees] that `value` will equal the value returned by {IERC1155MetadataURI-uri}."
      }
    },
    "kind": "dev",
    "methods": {
      "balanceOf(address,uint256)": {
        "details": "See {IERC1155-balanceOf}. Requirements: - `account` cannot be the zero address."
      },
      "balanceOfBatch(address[],uint256[])": {
        "details": "See {IERC1155-balanceOfBatch}. Requirements: - `accounts` and `ids` must have the same length."
      },
      "isApprovedForAll(address,address)": {
        "details": "See {IERC1155-isApprovedForAll}."
      },
      "owner()": {
        "details": "Returns the address of the current owner."
      },
      "renounceOwnership()": {
        "details": "Leaves the contract without owner. It will not be possible to call `onlyOwner` functions. Can only be called by the current owner. NOTE: Renouncing ownership will leave the contract without an owner, thereby disabling any functionality that is only available to the owner."
      },
      "safeBatchTransferFrom(address,address,uint256[],uint256[],bytes)": {
        "details": "See {IERC1155-safeBatchTransferFrom}."
      },
      "safeTransferFrom(address,address,uint256,uint256,bytes)": {
        "details": "See {IERC1155-safeTransferFrom}."
      },
      "setApprovalForAll(address,bool)": {
        "details": "See {IERC1155-setApprovalForAll}."
      },
      "supportsInterface(bytes4)": {
        "details": "See {IERC165-supportsInterface}."
      },
      "transferOwnership(address)": {
        "details": "Transfers ownership of the contract to a new account (`newOwner`). Can only be called by the current owner."
      }
    },
    "version": 1
  },
  "userdoc": {
    "kind": "user",
    "methods": {},
    "version": 1
  }
}