{
  "contractName": "TOKENPLAY",
  "abi": [
    {
      "inputs": [
        {
          "internalType": "string",
          "name": "_baseURI",
          "type": "string"
        }
      ],
      "stateMutability": "nonpayable",
      "type": "constructor"
    },
    {
      "anonymous": false,
      "inputs": [
        {
          "indexed": true,
          "internalType": "address",
          "name": "account",
          "type": "address"
        },
        {
          "indexed": true,
          "internalType": "address",
          "name": "operator",
          "type": "address"
        },
        {
          "indexed": false,
          "internalType": "bool",
          "name": "approved",
          "type": "bool"
        }
      ],
      "name": "ApprovalForAll",
      "type": "event"
    },
    {
      "anonymous": false,
      "inputs": [
        {
          "indexed": false,
          "internalType": "string",
          "name": "newBaseURI",
          "type": "string"
        }
      ],
      "name": "BaseURISet",
      "type": "event"
    },
    {
      "anonymous": false,
      "inputs": [
        {
          "indexed": true,
          "internalType": "address",
          "name": "marketplace",
          "type": "address"
        }
      ],
      "name": "MarketplaceApproved",
      "type": "event"
    },
    {
      "anonymous": false,
      "inputs": [
        {
          "indexed": false,
          "internalType": "bool",
          "name": "newState",
          "type": "bool"
        }
      ],
      "name": "MintingStateToggled",
      "type": "event"
    },
    {
      "anonymous": false,
      "inputs": [
        {
          "indexed": true,
          "internalType": "uint256",
          "name": "tokenId",
          "type": "uint256"
        },
        {
          "indexed": false,
          "internalType": "uint256",
          "name": "price",
          "type": "uint256"
        },
        {
          "indexed": true,
          "internalType": "address",
          "name": "gameOwnerAddress",
          "type": "address"
        },
        {
          "indexed": false,
          "internalType": "uint256",
          "name": "supply",
          "type": "uint256"
        },
        {
          "indexed": false,
          "internalType": "uint256",
          "name": "tokenPlayRoyaltyPercentage",
          "type": "uint256"
        },
        {
          "indexed": false,
          "internalType": "uint256",
          "name": "gameRelease",
          "type": "uint256"
        }
      ],
      "name": "NFTAdded",
      "type": "event"
    },
    {
      "anonymous": false,
      "inputs": [
        {
          "indexed": true,
          "internalType": "uint256",
          "name": "tokenId",
          "type": "uint256"
        },
        {
          "indexed": false,
          "internalType": "uint256",
          "name": "newPrice",
          "type": "uint256"
        }
      ],
      "name": "NFTPriceChanged",
      "type": "event"
    },
    {
      "anonymous": false,
      "inputs": [
        {
          "indexed": true,
          "internalType": "address",
          "name": "previousOwner",
          "type": "address"
        },
        {
          "indexed": true,
          "internalType": "address",
          "name": "newOwner",
          "type": "address"
        }
      ],
      "name": "OwnershipTransferred",
      "type": "event"
    },
    {
      "anonymous": false,
      "inputs": [
        {
          "indexed": false,
          "internalType": "address",
          "name": "account",
          "type": "address"
        }
      ],
      "name": "Paused",
      "type": "event"
    },
    {
      "anonymous": false,
      "inputs": [
        {
          "indexed": true,
          "internalType": "address",
          "name": "minter",
          "type": "address"
        },
        {
          "indexed": true,
          "internalType": "uint256",
          "name": "tokenId",
          "type": "uint256"
        }
      ],
      "name": "Purchased",
      "type": "event"
    },
    {
      "anonymous": false,
      "inputs": [
        {
          "indexed": true,
          "internalType": "uint256",
          "name": "tokenId",
          "type": "uint256"
        },
        {
          "indexed": false,
          "internalType": "uint256",
          "name": "newRoyaltyPercentage",
          "type": "uint256"
        }
      ],
      "name": "RoyaltyPercentageChanged",
      "type": "event"
    },
    {
      "anonymous": false,
      "inputs": [
        {
          "indexed": true,
          "internalType": "address",
          "name": "operator",
          "type": "address"
        },
        {
          "indexed": true,
          "internalType": "address",
          "name": "from",
          "type": "address"
        },
        {
          "indexed": true,
          "internalType": "address",
          "name": "to",
          "type": "address"
        },
        {
          "indexed": false,
          "internalType": "uint256[]",
          "name": "ids",
          "type": "uint256[]"
        },
        {
          "indexed": false,
          "internalType": "uint256[]",
          "name": "values",
          "type": "uint256[]"
        }
      ],
      "name": "TransferBatch",
      "type": "event"
    },
    {
      "anonymous": false,
      "inputs": [
        {
          "indexed": true,
          "internalType": "address",
          "name": "operator",
          "type": "address"
        },
        {
          "indexed": true,
          "internalType": "address",
          "name": "from",
          "type": "address"
        },
        {
          "indexed": true,
          "internalType": "address",
          "name": "to",
          "type": "address"
        },
        {
          "indexed": false,
          "internalType": "uint256",
          "name": "id",
          "type": "uint256"
        },
        {
          "indexed": false,
          "internalType": "uint256",
          "name": "value",
          "type": "uint256"
        }
      ],
      "name": "TransferSingle",
      "type": "event"
    },
    {
      "anonymous": false,
      "inputs": [
        {
          "indexed": false,
          "internalType": "string",
          "name": "value",
          "type": "string"
        },
        {
          "indexed": true,
          "internalType": "uint256",
          "name": "id",
          "type": "uint256"
        }
      ],
      "name": "URI",
      "type": "event"
    },
    {
      "anonymous": false,
      "inputs": [
        {
          "indexed": false,
          "internalType": "address",
          "name": "account",
          "type": "address"
        }
      ],
      "name": "Unpaused",
      "type": "event"
    },
    {
      "inputs": [
        {
          "internalType": "uint256",
          "name": "",
          "type": "uint256"
        }
      ],
      "name": "_totalSupply",
      "outputs": [
        {
          "internalType": "uint256",
          "name": "",
          "type": "uint256"
        }
      ],
      "stateMutability": "view",
      "type": "function",
      "constant": true
    },
    {
      "inputs": [
        {
          "internalType": "address",
          "name": "account",
          "type": "address"
        },
        {
          "internalType": "uint256",
          "name": "id",
          "type": "uint256"
        }
      ],
      "name": "balanceOf",
      "outputs": [
        {
          "internalType": "uint256",
          "name": "",
          "type": "uint256"
        }
      ],
      "stateMutability": "view",
      "type": "function",
      "constant": true
    },
    {
      "inputs": [
        {
          "internalType": "address[]",
          "name": "accounts",
          "type": "address[]"
        },
        {
          "internalType": "uint256[]",
          "name": "ids",
          "type": "uint256[]"
        }
      ],
      "name": "balanceOfBatch",
      "outputs": [
        {
          "internalType": "uint256[]",
          "name": "",
          "type": "uint256[]"
        }
      ],
      "stateMutability": "view",
      "type": "function",
      "constant": true
    },
    {
      "inputs": [
        {
          "internalType": "uint256",
          "name": "",
          "type": "uint256"
        }
      ],
      "name": "gamesInfo",
      "outputs": [
        {
          "internalType": "uint256",
          "name": "tokenId",
          "type": "uint256"
        },
        {
          "internalType": "uint256",
          "name": "price",
          "type": "uint256"
        },
        {
          "internalType": "address",
          "name": "gameOwnerAddress",
          "type": "address"
        },
        {
          "internalType": "uint256",
          "name": "supply",
          "type": "uint256"
        },
        {
          "internalType": "uint256",
          "name": "tokenPlayRoyaltyPercentage",
          "type": "uint256"
        },
        {
          "internalType": "uint256",
          "name": "gameRelease",
          "type": "uint256"
        }
      ],
      "stateMutability": "view",
      "type": "function",
      "constant": true
    },
    {
      "inputs": [
        {
          "internalType": "address",
          "name": "account",
          "type": "address"
        },
        {
          "internalType": "address",
          "name": "operator",
          "type": "address"
        }
      ],
      "name": "isApprovedForAll",
      "outputs": [
        {
          "internalType": "bool",
          "name": "",
          "type": "bool"
        }
      ],
      "stateMutability": "view",
      "type": "function",
      "constant": true
    },
    {
      "inputs": [],
      "name": "mintIsActive",
      "outputs": [
        {
          "internalType": "bool",
          "name": "",
          "type": "bool"
        }
      ],
      "stateMutability": "view",
      "type": "function",
      "constant": true
    },
    {
      "inputs": [
        {
          "internalType": "uint256",
          "name": "",
          "type": "uint256"
        }
      ],
      "name": "nGames",
      "outputs": [
        {
          "internalType": "uint256",
          "name": "",
          "type": "uint256"
        }
      ],
      "stateMutability": "view",
      "type": "function",
      "constant": true
    },
    {
      "inputs": [],
      "name": "nextTokenId",
      "outputs": [
        {
          "internalType": "uint256",
          "name": "",
          "type": "uint256"
        }
      ],
      "stateMutability": "view",
      "type": "function",
      "constant": true
    },
    {
      "inputs": [],
      "name": "owner",
      "outputs": [
        {
          "internalType": "address",
          "name": "",
          "type": "address"
        }
      ],
      "stateMutability": "view",
      "type": "function",
      "constant": true
    },
    {
      "inputs": [],
      "name": "paused",
      "outputs": [
        {
          "internalType": "bool",
          "name": "",
          "type": "bool"
        }
      ],
      "stateMutability": "view",
      "type": "function",
      "constant": true
    },
    {
      "inputs": [],
      "name": "renounceOwnership",
      "outputs": [],
      "stateMutability": "nonpayable",
      "type": "function"
    },
    {
      "inputs": [
        {
          "internalType": "address",
          "name": "operator",
          "type": "address"
        },
        {
          "internalType": "bool",
          "name": "approved",
          "type": "bool"
        }
      ],
      "name": "setApprovalForAll",
      "outputs": [],
      "stateMutability": "nonpayable",
      "type": "function"
    },
    {
      "inputs": [
        {
          "internalType": "bytes4",
          "name": "interfaceId",
          "type": "bytes4"
        }
      ],
      "name": "supportsInterface",
      "outputs": [
        {
          "internalType": "bool",
          "name": "",
          "type": "bool"
        }
      ],
      "stateMutability": "view",
      "type": "function",
      "constant": true
    },
    {
      "inputs": [
        {
          "internalType": "address",
          "name": "newOwner",
          "type": "address"
        }
      ],
      "name": "transferOwnership",
      "outputs": [],
      "stateMutability": "nonpayable",
      "type": "function"
    },
    {
      "inputs": [
        {
          "internalType": "uint256",
          "name": "tokenId",
          "type": "uint256"
        },
        {
          "internalType": "uint256",
          "name": "price",
          "type": "uint256"
        },
        {
          "internalType": "address",
          "name": "gameOwnerAddress",
          "type": "address"
        },
        {
          "internalType": "uint256",
          "name": "supply",
          "type": "uint256"
        },
        {
          "internalType": "uint256",
          "name": "tokenPlayRoyaltyPercentage",
          "type": "uint256"
        },
        {
          "internalType": "uint256",
          "name": "gameRelease",
          "type": "uint256"
        }
      ],
      "name": "addNFT",
      "outputs": [],
      "stateMutability": "nonpayable",
      "type": "function"
    },
    {
      "inputs": [
        {
          "internalType": "uint256",
          "name": "tokenId",
          "type": "uint256"
        }
      ],
      "name": "purchaseNFT",
      "outputs": [],
      "stateMutability": "payable",
      "type": "function",
      "payable": true
    },
    {
      "inputs": [
        {
          "internalType": "address",
          "name": "account",
          "type": "address"
        }
      ],
      "name": "getPurchasedNFTs",
      "outputs": [
        {
          "components": [
            {
              "components": [
                {
                  "internalType": "uint256",
                  "name": "tokenId",
                  "type": "uint256"
                },
                {
                  "internalType": "uint256",
                  "name": "price",
                  "type": "uint256"
                },
                {
                  "internalType": "address",
                  "name": "gameOwnerAddress",
                  "type": "address"
                },
                {
                  "internalType": "uint256",
                  "name": "supply",
                  "type": "uint256"
                },
                {
                  "internalType": "uint256",
                  "name": "tokenPlayRoyaltyPercentage",
                  "type": "uint256"
                },
                {
                  "internalType": "uint256",
                  "name": "gameRelease",
                  "type": "uint256"
                }
              ],
              "internalType": "struct TOKENPLAY.NftGameInfo",
              "name": "game",
              "type": "tuple"
            },
            {
              "internalType": "uint256",
              "name": "qty",
              "type": "uint256"
            }
          ],
          "internalType": "struct TOKENPLAY.PurchasedNft[]",
          "name": "",
          "type": "tuple[]"
        }
      ],
      "stateMutability": "view",
      "type": "function",
      "constant": true
    },
    {
      "inputs": [],
      "name": "getNFTs",
      "outputs": [
        {
          "components": [
            {
              "internalType": "uint256",
              "name": "tokenId",
              "type": "uint256"
            },
            {
              "internalType": "uint256",
              "name": "price",
              "type": "uint256"
            },
            {
              "internalType": "address",
              "name": "gameOwnerAddress",
              "type": "address"
            },
            {
              "internalType": "uint256",
              "name": "supply",
              "type": "uint256"
            },
            {
              "internalType": "uint256",
              "name": "tokenPlayRoyaltyPercentage",
              "type": "uint256"
            },
            {
              "internalType": "uint256",
              "name": "gameRelease",
              "type": "uint256"
            }
          ],
          "internalType": "struct TOKENPLAY.NftGameInfo[]",
          "name": "",
          "type": "tuple[]"
        }
      ],
      "stateMutability": "view",
      "type": "function",
      "constant": true
    },
    {
      "inputs": [
        {
          "internalType": "uint256",
          "name": "tokenId",
          "type": "uint256"
        },
        {
          "internalType": "uint256",
          "name": "royaltyPercentage",
          "type": "uint256"
        }
      ],
      "name": "setRoyaltyPercentage",
      "outputs": [],
      "stateMutability": "nonpayable",
      "type": "function"
    },
    {
      "inputs": [
        {
          "internalType": "uint256",
          "name": "tokenId",
          "type": "uint256"
        },
        {
          "internalType": "uint256",
          "name": "_mintPrice",
          "type": "uint256"
        }
      ],
      "name": "setMintPrice",
      "outputs": [],
      "stateMutability": "nonpayable",
      "type": "function"
    },
    {
      "inputs": [
        {
          "internalType": "uint256",
          "name": "tokenId",
          "type": "uint256"
        }
      ],
      "name": "totalSupply",
      "outputs": [
        {
          "internalType": "uint256",
          "name": "",
          "type": "uint256"
        }
      ],
      "stateMutability": "view",
      "type": "function",
      "constant": true
    },
    {
      "inputs": [],
      "name": "flipMintState",
      "outputs": [],
      "stateMutability": "nonpayable",
      "type": "function"
    },
    {
      "inputs": [
        {
          "internalType": "uint256",
          "name": "tokenId",
          "type": "uint256"
        }
      ],
      "name": "uri",
      "outputs": [
        {
          "internalType": "string",
          "name": "",
          "type": "string"
        }
      ],
      "stateMutability": "view",
      "type": "function",
      "constant": true
    },
    {
      "inputs": [
        {
          "internalType": "string",
          "name": "baseURI",
          "type": "string"
        }
      ],
      "name": "setBaseURI",
      "outputs": [],
      "stateMutability": "nonpayable",
      "type": "function"
    },
    {
      "inputs": [
        {
          "internalType": "address",
          "name": "marketplace",
          "type": "address"
        }
      ],
      "name": "approveMarketplace",
      "outputs": [],
      "stateMutability": "nonpayable",
      "type": "function"
    },
    {
      "inputs": [
        {
          "internalType": "address",
          "name": "from",
          "type": "address"
        },
        {
          "internalType": "address",
          "name": "to",
          "type": "address"
        },
        {
          "internalType": "uint256",
          "name": "tokenId",
          "type": "uint256"
        },
        {
          "internalType": "uint256",
          "name": "amount",
          "type": "uint256"
        },
        {
          "internalType": "bytes",
          "name": "data",
          "type": "bytes"
        }
      ],
      "name": "safeTransferFrom",
      "outputs": [],
      "stateMutability": "nonpayable",
      "type": "function"
    },
    {
      "inputs": [
        {
          "internalType": "address",
          "name": "",
          "type": "address"
        },
        {
          "internalType": "address",
          "name": "",
          "type": "address"
        },
        {
          "internalType": "uint256[]",
          "name": "",
          "type": "uint256[]"
        },
        {
          "internalType": "uint256[]",
          "name": "",
          "type": "uint256[]"
        },
        {
          "internalType": "bytes",
          "name": "",
          "type": "bytes"
        }
      ],
      "name": "safeBatchTransferFrom",
      "outputs": [],
      "stateMutability": "pure",
      "type": "function",
      "constant": true
    }
  ],
  "bytecode": "0x6080604052604051806020016040528060008152506003908162000024919062000458565b506000600760016101000a81548160ff02191690831515021790555060006008553480156200005257600080fd5b506040516200612c3803806200612c8339818101604052810190620000789190620006a3565b806200008a81620000e660201b60201c565b50620000ab6200009f620000fb60201b60201c565b6200010360201b60201c565b60016006819055506000600760006101000a81548160ff021916908315150217905550620000df81620001c960201b60201c565b50620006f4565b8060029081620000f7919062000458565b5050565b600033905090565b6000600560009054906101000a900473ffffffffffffffffffffffffffffffffffffffff16905081600560006101000a81548173ffffffffffffffffffffffffffffffffffffffff021916908373ffffffffffffffffffffffffffffffffffffffff1602179055508173ffffffffffffffffffffffffffffffffffffffff168173ffffffffffffffffffffffffffffffffffffffff167f8be0079c531659141344cd1fd0a4f28419497f9722a3daafe3b4186f6b6457e060405160405180910390a35050565b8060039081620001da919062000458565b5050565b600081519050919050565b7f4e487b7100000000000000000000000000000000000000000000000000000000600052604160045260246000fd5b7f4e487b7100000000000000000000000000000000000000000000000000000000600052602260045260246000fd5b600060028204905060018216806200026057607f821691505b60208210810362000276576200027562000218565b5b50919050565b60008190508160005260206000209050919050565b60006020601f8301049050919050565b600082821b905092915050565b600060088302620002e07fffffffffffffffffffffffffffffffffffffffffffffffffffffffffffffffff82620002a1565b620002ec8683620002a1565b95508019841693508086168417925050509392505050565b6000819050919050565b6000819050919050565b600062000339620003336200032d8462000304565b6200030e565b62000304565b9050919050565b6000819050919050565b620003558362000318565b6200036d620003648262000340565b848454620002ae565b825550505050565b600090565b6200038462000375565b620003918184846200034a565b505050565b5b81811015620003b957620003ad6000826200037a565b60018101905062000397565b5050565b601f8211156200040857620003d2816200027c565b620003dd8462000291565b81016020851015620003ed578190505b62000405620003fc8562000291565b83018262000396565b50505b505050565b600082821c905092915050565b60006200042d600019846008026200040d565b1980831691505092915050565b60006200044883836200041a565b9150826002028217905092915050565b6200046382620001de565b67ffffffffffffffff8111156200047f576200047e620001e9565b5b6200048b825462000247565b62000498828285620003bd565b600060209050601f831160018114620004d05760008415620004bb578287015190505b620004c785826200043a565b86555062000537565b601f198416620004e0866200027c565b60005b828110156200050a57848901518255600182019150602085019450602081019050620004e3565b868310156200052a578489015162000526601f8916826200041a565b8355505b6001600288020188555050505b505050505050565b6000604051905090565b600080fd5b600080fd5b600080fd5b600080fd5b6000601f19601f8301169050919050565b62000579826200055d565b810181811067ffffffffffffffff821117156200059b576200059a620001e9565b5b80604052505050565b6000620005b06200053f565b9050620005be82826200056e565b919050565b600067ffffffffffffffff821115620005e157620005e0620001e9565b5b620005ec826200055d565b9050602081019050919050565b60005b8381101562000619578082015181840152602081019050620005fc565b60008484015250505050565b60006200063c6200063684620005c3565b620005a4565b9050828152602081018484840111156200065b576200065a62000558565b5b62000668848285620005f9565b509392505050565b600082601f83011262000688576200068762000553565b5b81516200069a84826020860162000625565b91505092915050565b600060208284031215620006bc57620006bb62000549565b5b600082015167ffffffffffffffff811115620006dd57620006dc6200054e565b5b620006eb8482850162000670565b91505092915050565b615a2880620007046000396000f3fe60806040526004361061019b5760003560e01c806355f804b3116100ec578063a22cb4651161008a578063e206dc2e11610064578063e206dc2e146105cd578063e985e9c51461060a578063f242432a14610647578063f2fde38b146106705761019b565b8063a22cb4651461052a578063b0cc532814610553578063bd85b039146105905761019b565b80635c975abb116100c65780635c975abb14610492578063715018a6146104bd57806375794a3c146104d45780638da5cb5b146104ff5761019b565b806355f804b3146104155780635977e82a1461043e57806359c74f291461047b5761019b565b80632eb2c2d61161015957806342fd245f1161013357806342fd245f1461035b578063471a4294146103845780634e1273f4146103af5780634f83489b146103ec5761019b565b80632eb2c2d6146102c757806340694256146102f057806341d6f9c2146103325761019b565b8062fdd58e146101a057806301ffc9a7146101dd5780630442bfa81461021a5780630e89341c14610243578063150bde0314610280578063227212f21461029c575b600080fd5b3480156101ac57600080fd5b506101c760048036038101906101c2919061344b565b610699565b6040516101d4919061349a565b60405180910390f35b3480156101e957600080fd5b5061020460048036038101906101ff919061350d565b610761565b6040516102119190613555565b60405180910390f35b34801561022657600080fd5b50610241600480360381019061023c9190613570565b610843565b005b34801561024f57600080fd5b5061026a600480360381019061026591906135b0565b610936565b604051610277919061366d565b60405180910390f35b61029a600480360381019061029591906135b0565b610990565b005b3480156102a857600080fd5b506102b1610ec8565b6040516102be91906137d7565b60405180910390f35b3480156102d357600080fd5b506102ee60048036038101906102e991906139f6565b61109f565b005b3480156102fc57600080fd5b50610317600480360381019061031291906135b0565b6110da565b60405161032996959493929190613ad4565b60405180910390f35b34801561033e57600080fd5b5061035960048036038101906103549190613570565b611136565b005b34801561036757600080fd5b50610382600480360381019061037d9190613b35565b6111ee565b005b34801561039057600080fd5b50610399611587565b6040516103a69190613555565b60405180910390f35b3480156103bb57600080fd5b506103d660048036038101906103d19190613c85565b61159a565b6040516103e39190613dac565b60405180910390f35b3480156103f857600080fd5b50610413600480360381019061040e9190613dce565b6116b3565b005b34801561042157600080fd5b5061043c60048036038101906104379190613e9c565b6117c5565b005b34801561044a57600080fd5b50610465600480360381019061046091906135b0565b6118af565b604051610472919061349a565b60405180910390f35b34801561048757600080fd5b506104906118c7565b005b34801561049e57600080fd5b506104a7611949565b6040516104b49190613555565b60405180910390f35b3480156104c957600080fd5b506104d2611960565b005b3480156104e057600080fd5b506104e9611974565b6040516104f6919061349a565b60405180910390f35b34801561050b57600080fd5b5061051461197a565b6040516105219190613ee5565b60405180910390f35b34801561053657600080fd5b50610551600480360381019061054c9190613f2c565b6119a4565b005b34801561055f57600080fd5b5061057a600480360381019061057591906135b0565b6119ba565b604051610587919061349a565b60405180910390f35b34801561059c57600080fd5b506105b760048036038101906105b291906135b0565b6119d2565b6040516105c4919061349a565b60405180910390f35b3480156105d957600080fd5b506105f460048036038101906105ef9190613dce565b611a37565b604051610601919061404a565b60405180910390f35b34801561061657600080fd5b50610631600480360381019061062c919061406c565b611d8e565b60405161063e9190613555565b60405180910390f35b34801561065357600080fd5b5061066e600480360381019061066991906140ac565b611e22565b005b34801561067c57600080fd5b5061069760048036038101906106929190613dce565b61207a565b005b60008073ffffffffffffffffffffffffffffffffffffffff168373ffffffffffffffffffffffffffffffffffffffff1603610709576040517f08c379a0000000000000000000000000000000000000000000000000000000008152600401610700906141b5565b60405180910390fd5b60008083815260200190815260200160002060008473ffffffffffffffffffffffffffffffffffffffff1673ffffffffffffffffffffffffffffffffffffffff16815260200190815260200160002054905092915050565b60007fd9b67a26000000000000000000000000000000000000000000000000000000007bffffffffffffffffffffffffffffffffffffffffffffffffffffffff1916827bffffffffffffffffffffffffffffffffffffffffffffffffffffffff1916148061082c57507f0e89341c000000000000000000000000000000000000000000000000000000007bffffffffffffffffffffffffffffffffffffffffffffffffffffffff1916827bffffffffffffffffffffffffffffffffffffffffffffffffffffffff1916145b8061083c575061083b826120fd565b5b9050919050565b61084b612167565b6108536121e5565b61085c8261222f565b61089b576040517f08c379a000000000000000000000000000000000000000000000000000000000815260040161089290614221565b60405180910390fd5b60008110156108df576040517f08c379a00000000000000000000000000000000000000000000000000000000081526004016108d69061428d565b60405180910390fd5b806009600084815260200190815260200160002060010181905550817f39c0d3343dcaca0906e186779c0e59726f88182c606a921871c82eac377229fd8260405161092a919061349a565b60405180910390a25050565b60606109418261222f565b610980576040517f08c379a000000000000000000000000000000000000000000000000000000000815260040161097790614221565b60405180910390fd5b61098982612251565b9050919050565b610998612336565b6109a06121e5565b600760019054906101000a900460ff166109ef576040517f08c379a00000000000000000000000000000000000000000000000000000000081526004016109e6906142f9565b60405180910390fd5b600060085411610a34576040517f08c379a0000000000000000000000000000000000000000000000000000000008152600401610a2b90614365565b60405180910390fd5b610a3d8161222f565b610a7c576040517f08c379a0000000000000000000000000000000000000000000000000000000008152600401610a7390614221565b60405180910390fd5b60006009600083815260200190815260200160002060010154905080341015610ada576040517f08c379a0000000000000000000000000000000000000000000000000000000008152600401610ad1906143d1565b60405180910390fd5b6000600960008481526020019081526020016000206003015411610b33576040517f08c379a0000000000000000000000000000000000000000000000000000000008152600401610b2a9061443d565b60405180910390fd5b4260096000848152602001908152602001600020600501541115610b8c576040517f08c379a0000000000000000000000000000000000000000000000000000000008152600401610b83906144a9565b60405180910390fd5b610ba83383600160405180602001604052806000815250612385565b610bf982600a60003373ffffffffffffffffffffffffffffffffffffffff1673ffffffffffffffffffffffffffffffffffffffff16815260200190815260200160002061253590919063ffffffff16565b610c5057610c4e82600a60003373ffffffffffffffffffffffffffffffffffffffff1673ffffffffffffffffffffffffffffffffffffffff16815260200190815260200160002061254f90919063ffffffff16565b505b610c8182610c5d84612569565b604051602001610c6d9190614551565b604051602081830303815290604052612637565b610cab6001600960008581526020019081526020016000206003015461269c90919063ffffffff16565b60096000848152602001908152602001600020600301819055506009600083815260200190815260200160002060030154600c60008481526020019081526020016000208190555060008190506000610d366064610d286009600088815260200190815260200160002060040154856126b290919063ffffffff16565b6126c890919063ffffffff16565b90506000610d4d828461269c90919063ffffffff16565b9050610d5761197a565b73ffffffffffffffffffffffffffffffffffffffff166108fc839081150290604051600060405180830381858888f19350505050158015610d9c573d6000803e3d6000fd5b506009600086815260200190815260200160002060020160009054906101000a900473ffffffffffffffffffffffffffffffffffffffff1673ffffffffffffffffffffffffffffffffffffffff166108fc829081150290604051600060405180830381858888f19350505050158015610e19573d6000803e3d6000fd5b5083341115610e75573373ffffffffffffffffffffffffffffffffffffffff166108fc8534610e4891906145a2565b9081150290604051600060405180830381858888f19350505050158015610e73573d6000803e3d6000fd5b505b843373ffffffffffffffffffffffffffffffffffffffff167fa512fb2532ca8587f236380171326ebb69670e86a2ba0c4412a3fcca4c3ada9b60405160405180910390a350505050610ec56126de565b50565b6060600060085411610f0f576040517f08c379a0000000000000000000000000000000000000000000000000000000008152600401610f0690614365565b60405180910390fd5b600060085467ffffffffffffffff811115610f2d57610f2c6137fe565b5b604051908082528060200260200182016040528015610f6657816020015b610f53613337565b815260200190600190039081610f4b5790505b50905060005b600854811015611097574260096000600b6000858152602001908152602001600020548152602001908152602001600020600501541161108457600060096000600b60008581526020019081526020016000205481526020019081526020016000209050806040518060c001604052908160008201548152602001600182015481526020016002820160009054906101000a900473ffffffffffffffffffffffffffffffffffffffff1673ffffffffffffffffffffffffffffffffffffffff1673ffffffffffffffffffffffffffffffffffffffff1681526020016003820154815260200160048201548152602001600582015481525050838381518110611077576110766145d6565b5b6020026020010181905250505b808061108f90614605565b915050610f6c565b508091505090565b6040517f08c379a00000000000000000000000000000000000000000000000000000000081526004016110d1906146bf565b60405180910390fd5b60096020528060005260406000206000915090508060000154908060010154908060020160009054906101000a900473ffffffffffffffffffffffffffffffffffffffff16908060030154908060040154908060050154905086565b61113e612167565b6111466121e5565b60008110158015611158575060648111155b611197576040517f08c379a000000000000000000000000000000000000000000000000000000000815260040161118e9061472b565b60405180910390fd5b806009600084815260200190815260200160002060040181905550817f53370c0001decf439b377b84b0a32c0753378f9d6acb4c2be8f6e9a0fccc13af826040516111e2919061349a565b60405180910390a25050565b6111f6612167565b6111ff8661222f565b1561123f576040517f08c379a000000000000000000000000000000000000000000000000000000000815260040161123690614797565b60405180910390fd5b60008511611282576040517f08c379a000000000000000000000000000000000000000000000000000000000815260040161127990614803565b60405180910390fd5b600073ffffffffffffffffffffffffffffffffffffffff168473ffffffffffffffffffffffffffffffffffffffff16036112f1576040517f08c379a00000000000000000000000000000000000000000000000000000000081526004016112e89061486f565b60405180910390fd5b3073ffffffffffffffffffffffffffffffffffffffff168473ffffffffffffffffffffffffffffffffffffffff160361132957600080fd5b6000831161136c576040517f08c379a0000000000000000000000000000000000000000000000000000000008152600401611363906148db565b60405180910390fd5b60008210156113b0576040517f08c379a00000000000000000000000000000000000000000000000000000000081526004016113a790614947565b60405180910390fd5b60008110156113f4576040517f08c379a00000000000000000000000000000000000000000000000000000000081526004016113eb906149b3565b60405180910390fd5b85600b600060085481526020019081526020016000208190555061142460016008546126e890919063ffffffff16565b6008819055506040518060c001604052808781526020018681526020018573ffffffffffffffffffffffffffffffffffffffff1681526020018481526020018381526020018281525060096000888152602001908152602001600020600082015181600001556020820151816001015560408201518160020160006101000a81548173ffffffffffffffffffffffffffffffffffffffff021916908373ffffffffffffffffffffffffffffffffffffffff160217905550606082015181600301556080820151816004015560a082015181600501559050506009600087815260200190815260200160002060030154600c6000888152602001908152602001600020819055508373ffffffffffffffffffffffffffffffffffffffff16867f9849f17e0bab8bb7f83a2f279801a16425c61790ed64d22bb579f7583ce4ac398786868660405161157794939291906149d3565b60405180910390a3505050505050565b600760019054906101000a900460ff1681565b606081518351146115e0576040517f08c379a00000000000000000000000000000000000000000000000000000000081526004016115d790614a8a565b60405180910390fd5b6000835167ffffffffffffffff8111156115fd576115fc6137fe565b5b60405190808252806020026020018201604052801561162b5781602001602082028036833780820191505090505b50905060005b84518110156116a8576116788582815181106116505761164f6145d6565b5b602002602001015185838151811061166b5761166a6145d6565b5b6020026020010151610699565b82828151811061168b5761168a6145d6565b5b602002602001018181525050806116a190614605565b9050611631565b508091505092915050565b6116bb6121e5565b600073ffffffffffffffffffffffffffffffffffffffff168173ffffffffffffffffffffffffffffffffffffffff160361172a576040517f08c379a000000000000000000000000000000000000000000000000000000000815260040161172190614b1c565b60405180910390fd5b6117343082611d8e565b15611774576040517f08c379a000000000000000000000000000000000000000000000000000000000815260040161176b90614bae565b60405180910390fd5b61177f8160016119a4565b8073ffffffffffffffffffffffffffffffffffffffff167f6079fa87a18fc2d8411649005d40e2a160bf3aa768b6da9f91ac358e1a9e331960405160405180910390a250565b6117cd612167565b6117d56121e5565b6117df6000610936565b6040516020016117ef9190614bce565b60405160208183030381529060405280519060200120816040516020016118169190614bce565b604051602081830303815290604052805190602001200361186c576040517f08c379a000000000000000000000000000000000000000000000000000000000815260040161186390614c31565b60405180910390fd5b611875816126fe565b7ff9c7803e94e0d3c02900d8a90893a6d5e90dd04d32a4cfe825520f82bf9f32f6816040516118a4919061366d565b60405180910390a150565b600c6020528060005260406000206000915090505481565b6118cf612167565b6118d76121e5565b600760019054906101000a900460ff1615600760016101000a81548160ff0219169083151502179055507fcd5585d6c08334c541a98e717d2d6c8b7b86922a325507446a0152f0beb279a0600760019054906101000a900460ff1660405161193f9190613555565b60405180910390a1565b6000600760009054906101000a900460ff16905090565b611968612167565b6119726000612711565b565b60085481565b6000600560009054906101000a900473ffffffffffffffffffffffffffffffffffffffff16905090565b6119b66119af6127d7565b83836127df565b5050565b600b6020528060005260406000206000915090505481565b60006119dd8261222f565b611a1c576040517f08c379a0000000000000000000000000000000000000000000000000000000008152600401611a1390614221565b60405180910390fd5b600c6000838152602001908152602001600020549050919050565b6060600073ffffffffffffffffffffffffffffffffffffffff168273ffffffffffffffffffffffffffffffffffffffff1603611aa8576040517f08c379a0000000000000000000000000000000000000000000000000000000008152600401611a9f9061486f565b60405180910390fd5b6000611af1600a60008573ffffffffffffffffffffffffffffffffffffffff1673ffffffffffffffffffffffffffffffffffffffff16815260200190815260200160002061294b565b905060008111611b36576040517f08c379a0000000000000000000000000000000000000000000000000000000008152600401611b2d90614cc3565b60405180910390fd5b6000611b7f600a60008673ffffffffffffffffffffffffffffffffffffffff1673ffffffffffffffffffffffffffffffffffffffff16815260200190815260200160002061294b565b67ffffffffffffffff811115611b9857611b976137fe565b5b604051908082528060200260200182016040528015611bd157816020015b611bbe613383565b815260200190600190039081611bb65790505b50905060005b611c1e600a60008773ffffffffffffffffffffffffffffffffffffffff1673ffffffffffffffffffffffffffffffffffffffff16815260200190815260200160002061294b565b811015611d83576000611c7882600a60008973ffffffffffffffffffffffffffffffffffffffff1673ffffffffffffffffffffffffffffffffffffffff16815260200190815260200160002061296090919063ffffffff16565b9050600960008281526020019081526020016000206040518060c001604052908160008201548152602001600182015481526020016002820160009054906101000a900473ffffffffffffffffffffffffffffffffffffffff1673ffffffffffffffffffffffffffffffffffffffff1673ffffffffffffffffffffffffffffffffffffffff1681526020016003820154815260200160048201548152602001600582015481525050838381518110611d3357611d326145d6565b5b602002602001015160000181905250611d4c8682610699565b838381518110611d5f57611d5e6145d6565b5b60200260200101516020018181525050508080611d7b90614605565b915050611bd7565b508092505050919050565b6000600160008473ffffffffffffffffffffffffffffffffffffffff1673ffffffffffffffffffffffffffffffffffffffff16815260200190815260200160002060008373ffffffffffffffffffffffffffffffffffffffff1673ffffffffffffffffffffffffffffffffffffffff16815260200190815260200160002060009054906101000a900460ff16905092915050565b611e2b3361297a565b611e6a576040517f08c379a0000000000000000000000000000000000000000000000000000000008152600401611e6190614d2f565b60405180910390fd5b3373ffffffffffffffffffffffffffffffffffffffff168573ffffffffffffffffffffffffffffffffffffffff161480611eaa5750611ea98533611d8e565b5b611ee9576040517f08c379a0000000000000000000000000000000000000000000000000000000008152600401611ee090614d9b565b60405180910390fd5b611f3a83600a60008873ffffffffffffffffffffffffffffffffffffffff1673ffffffffffffffffffffffffffffffffffffffff16815260200190815260200160002061253590919063ffffffff16565b8015611f4f57506001611f4d8685610699565b145b15611fa757611fa583600a60008873ffffffffffffffffffffffffffffffffffffffff1673ffffffffffffffffffffffffffffffffffffffff16815260200190815260200160002061299390919063ffffffff16565b505b611ff883600a60008773ffffffffffffffffffffffffffffffffffffffff1673ffffffffffffffffffffffffffffffffffffffff16815260200190815260200160002061253590919063ffffffff16565b15801561200e5750600061200c8585610699565b145b156120665761206483600a60008773ffffffffffffffffffffffffffffffffffffffff1673ffffffffffffffffffffffffffffffffffffffff16815260200190815260200160002061254f90919063ffffffff16565b505b61207385858585856129ad565b5050505050565b612082612167565b600073ffffffffffffffffffffffffffffffffffffffff168173ffffffffffffffffffffffffffffffffffffffff16036120f1576040517f08c379a00000000000000000000000000000000000000000000000000000000081526004016120e890614e2d565b60405180910390fd5b6120fa81612711565b50565b60007f01ffc9a7000000000000000000000000000000000000000000000000000000007bffffffffffffffffffffffffffffffffffffffffffffffffffffffff1916827bffffffffffffffffffffffffffffffffffffffffffffffffffffffff1916149050919050565b61216f6127d7565b73ffffffffffffffffffffffffffffffffffffffff1661218d61197a565b73ffffffffffffffffffffffffffffffffffffffff16146121e3576040517f08c379a00000000000000000000000000000000000000000000000000000000081526004016121da90614e99565b60405180910390fd5b565b6121ed611949565b1561222d576040517f08c379a000000000000000000000000000000000000000000000000000000000815260040161222490614f05565b60405180910390fd5b565b6000816009600084815260200190815260200160002060000154149050919050565b6060600060046000848152602001908152602001600020805461227390614f54565b80601f016020809104026020016040519081016040528092919081815260200182805461229f90614f54565b80156122ec5780601f106122c1576101008083540402835291602001916122ec565b820191906000526020600020905b8154815290600101906020018083116122cf57829003601f168201915b50505050509050600081511161230a5761230583612a4e565b61232e565b60038160405160200161231e92919061501d565b6040516020818303038152906040525b915050919050565b60026006540361237b576040517f08c379a00000000000000000000000000000000000000000000000000000000081526004016123729061508d565b60405180910390fd5b6002600681905550565b600073ffffffffffffffffffffffffffffffffffffffff168473ffffffffffffffffffffffffffffffffffffffff16036123f4576040517f08c379a00000000000000000000000000000000000000000000000000000000081526004016123eb9061511f565b60405180910390fd5b60006123fe6127d7565b9050600061240b85612ae2565b9050600061241885612ae2565b905061242983600089858589612b5c565b8460008088815260200190815260200160002060008973ffffffffffffffffffffffffffffffffffffffff1673ffffffffffffffffffffffffffffffffffffffff1681526020019081526020016000206000828254612488919061513f565b925050819055508673ffffffffffffffffffffffffffffffffffffffff16600073ffffffffffffffffffffffffffffffffffffffff168473ffffffffffffffffffffffffffffffffffffffff167fc3d58168c5ae7397731d063d5bbf3d657854427343f4c083240f7aacaa2d0f628989604051612506929190615173565b60405180910390a461251d83600089858589612b64565b61252c83600089898989612b6c565b50505050505050565b6000612547836000018360001b612d43565b905092915050565b6000612561836000018360001b612d66565b905092915050565b60606000600161257884612dd6565b01905060008167ffffffffffffffff811115612597576125966137fe565b5b6040519080825280601f01601f1916602001820160405280156125c95781602001600182028036833780820191505090505b509050600082602001820190505b60011561262c578080600190039150507f3031323334353637383961626364656600000000000000000000000000000000600a86061a8153600a85816126205761261f61519c565b5b049450600085036125d7575b819350505050919050565b806004600084815260200190815260200160002090816126579190615362565b50817f6bb7ff708619ba0610cba295a58592e0451dee2622938c8755667688daf3529b61268384610936565b604051612690919061366d565b60405180910390a25050565b600081836126aa91906145a2565b905092915050565b600081836126c09190615434565b905092915050565b600081836126d69190615476565b905092915050565b6001600681905550565b600081836126f6919061513f565b905092915050565b806003908161270d9190615362565b5050565b6000600560009054906101000a900473ffffffffffffffffffffffffffffffffffffffff16905081600560006101000a81548173ffffffffffffffffffffffffffffffffffffffff021916908373ffffffffffffffffffffffffffffffffffffffff1602179055508173ffffffffffffffffffffffffffffffffffffffff168173ffffffffffffffffffffffffffffffffffffffff167f8be0079c531659141344cd1fd0a4f28419497f9722a3daafe3b4186f6b6457e060405160405180910390a35050565b600033905090565b8173ffffffffffffffffffffffffffffffffffffffff168373ffffffffffffffffffffffffffffffffffffffff160361284d576040517f08c379a000000000000000000000000000000000000000000000000000000000815260040161284490615519565b60405180910390fd5b80600160008573ffffffffffffffffffffffffffffffffffffffff1673ffffffffffffffffffffffffffffffffffffffff16815260200190815260200160002060008473ffffffffffffffffffffffffffffffffffffffff1673ffffffffffffffffffffffffffffffffffffffff16815260200190815260200160002060006101000a81548160ff0219169083151502179055508173ffffffffffffffffffffffffffffffffffffffff168373ffffffffffffffffffffffffffffffffffffffff167f17307eab39ab6107e8899845ad3d59bd9653f200f220920489ca2b5937696c318360405161293e9190613555565b60405180910390a3505050565b600061295982600001612f29565b9050919050565b600061296f8360000183612f3a565b60001c905092915050565b600080823b905060008163ffffffff1611915050919050565b60006129a5836000018360001b612f65565b905092915050565b6129b56127d7565b73ffffffffffffffffffffffffffffffffffffffff168573ffffffffffffffffffffffffffffffffffffffff1614806129fb57506129fa856129f56127d7565b611d8e565b5b612a3a576040517f08c379a0000000000000000000000000000000000000000000000000000000008152600401612a31906155ab565b60405180910390fd5b612a478585858585613079565b5050505050565b606060028054612a5d90614f54565b80601f0160208091040260200160405190810160405280929190818152602001828054612a8990614f54565b8015612ad65780601f10612aab57610100808354040283529160200191612ad6565b820191906000526020600020905b815481529060010190602001808311612ab957829003601f168201915b50505050509050919050565b60606000600167ffffffffffffffff811115612b0157612b006137fe565b5b604051908082528060200260200182016040528015612b2f5781602001602082028036833780820191505090505b5090508281600081518110612b4757612b466145d6565b5b60200260200101818152505080915050919050565b505050505050565b505050505050565b612b8b8473ffffffffffffffffffffffffffffffffffffffff16613314565b15612d3b578373ffffffffffffffffffffffffffffffffffffffff1663f23a6e6187878686866040518663ffffffff1660e01b8152600401612bd1959493929190615620565b6020604051808303816000875af1925050508015612c0d57506040513d601f19601f82011682018060405250810190612c0a919061568f565b60015b612cb257612c196156c9565b806308c379a003612c755750612c2d6156eb565b80612c385750612c77565b806040517f08c379a0000000000000000000000000000000000000000000000000000000008152600401612c6c919061366d565b60405180910390fd5b505b6040517f08c379a0000000000000000000000000000000000000000000000000000000008152600401612ca9906157ed565b60405180910390fd5b63f23a6e6160e01b7bffffffffffffffffffffffffffffffffffffffffffffffffffffffff1916817bffffffffffffffffffffffffffffffffffffffffffffffffffffffff191614612d39576040517f08c379a0000000000000000000000000000000000000000000000000000000008152600401612d309061587f565b60405180910390fd5b505b505050505050565b600080836001016000848152602001908152602001600020541415905092915050565b6000612d728383612d43565b612dcb578260000182908060018154018082558091505060019003906000526020600020016000909190919091505582600001805490508360010160008481526020019081526020016000208190555060019050612dd0565b600090505b92915050565b600080600090507a184f03e93ff9f4daa797ed6e38ed64bf6a1f0100000000000000008310612e34577a184f03e93ff9f4daa797ed6e38ed64bf6a1f0100000000000000008381612e2a57612e2961519c565b5b0492506040810190505b6d04ee2d6d415b85acef81000000008310612e71576d04ee2d6d415b85acef81000000008381612e6757612e6661519c565b5b0492506020810190505b662386f26fc100008310612ea057662386f26fc100008381612e9657612e9561519c565b5b0492506010810190505b6305f5e1008310612ec9576305f5e1008381612ebf57612ebe61519c565b5b0492506008810190505b6127108310612eee576127108381612ee457612ee361519c565b5b0492506004810190505b60648310612f115760648381612f0757612f0661519c565b5b0492506002810190505b600a8310612f20576001810190505b80915050919050565b600081600001805490509050919050565b6000826000018281548110612f5257612f516145d6565b5b9060005260206000200154905092915050565b6000808360010160008481526020019081526020016000205490506000811461306d576000600182612f9791906145a2565b9050600060018660000180549050612faf91906145a2565b905081811461301e576000866000018281548110612fd057612fcf6145d6565b5b9060005260206000200154905080876000018481548110612ff457612ff36145d6565b5b90600052602060002001819055508387600101600083815260200190815260200160002081905550505b856000018054806130325761303161589f565b5b600190038181906000526020600020016000905590558560010160008681526020019081526020016000206000905560019350505050613073565b60009150505b92915050565b600073ffffffffffffffffffffffffffffffffffffffff168473ffffffffffffffffffffffffffffffffffffffff16036130e8576040517f08c379a00000000000000000000000000000000000000000000000000000000081526004016130df90615940565b60405180910390fd5b60006130f26127d7565b905060006130ff85612ae2565b9050600061310c85612ae2565b905061311c838989858589612b5c565b600080600088815260200190815260200160002060008a73ffffffffffffffffffffffffffffffffffffffff1673ffffffffffffffffffffffffffffffffffffffff168152602001908152602001600020549050858110156131b3576040517f08c379a00000000000000000000000000000000000000000000000000000000081526004016131aa906159d2565b60405180910390fd5b85810360008089815260200190815260200160002060008b73ffffffffffffffffffffffffffffffffffffffff1673ffffffffffffffffffffffffffffffffffffffff168152602001908152602001600020819055508560008089815260200190815260200160002060008a73ffffffffffffffffffffffffffffffffffffffff1673ffffffffffffffffffffffffffffffffffffffff1681526020019081526020016000206000828254613268919061513f565b925050819055508773ffffffffffffffffffffffffffffffffffffffff168973ffffffffffffffffffffffffffffffffffffffff168573ffffffffffffffffffffffffffffffffffffffff167fc3d58168c5ae7397731d063d5bbf3d657854427343f4c083240f7aacaa2d0f628a8a6040516132e5929190615173565b60405180910390a46132fb848a8a86868a612b64565b613309848a8a8a8a8a612b6c565b505050505050505050565b6000808273ffffffffffffffffffffffffffffffffffffffff163b119050919050565b6040518060c001604052806000815260200160008152602001600073ffffffffffffffffffffffffffffffffffffffff1681526020016000815260200160008152602001600081525090565b6040518060400160405280613396613337565b8152602001600081525090565b6000604051905090565b600080fd5b600080fd5b600073ffffffffffffffffffffffffffffffffffffffff82169050919050565b60006133e2826133b7565b9050919050565b6133f2816133d7565b81146133fd57600080fd5b50565b60008135905061340f816133e9565b92915050565b6000819050919050565b61342881613415565b811461343357600080fd5b50565b6000813590506134458161341f565b92915050565b60008060408385031215613462576134616133ad565b5b600061347085828601613400565b925050602061348185828601613436565b9150509250929050565b61349481613415565b82525050565b60006020820190506134af600083018461348b565b92915050565b60007fffffffff0000000000000000000000000000000000000000000000000000000082169050919050565b6134ea816134b5565b81146134f557600080fd5b50565b600081359050613507816134e1565b92915050565b600060208284031215613523576135226133ad565b5b6000613531848285016134f8565b91505092915050565b60008115159050919050565b61354f8161353a565b82525050565b600060208201905061356a6000830184613546565b92915050565b60008060408385031215613587576135866133ad565b5b600061359585828601613436565b92505060206135a685828601613436565b9150509250929050565b6000602082840312156135c6576135c56133ad565b5b60006135d484828501613436565b91505092915050565b600081519050919050565b600082825260208201905092915050565b60005b838110156136175780820151818401526020810190506135fc565b60008484015250505050565b6000601f19601f8301169050919050565b600061363f826135dd565b61364981856135e8565b93506136598185602086016135f9565b61366281613623565b840191505092915050565b600060208201905081810360008301526136878184613634565b905092915050565b600081519050919050565b600082825260208201905092915050565b6000819050602082019050919050565b6136c481613415565b82525050565b6136d3816133d7565b82525050565b60c0820160008201516136ef60008501826136bb565b50602082015161370260208501826136bb565b50604082015161371560408501826136ca565b50606082015161372860608501826136bb565b50608082015161373b60808501826136bb565b5060a082015161374e60a08501826136bb565b50505050565b600061376083836136d9565b60c08301905092915050565b6000602082019050919050565b60006137848261368f565b61378e818561369a565b9350613799836136ab565b8060005b838110156137ca5781516137b18882613754565b97506137bc8361376c565b92505060018101905061379d565b5085935050505092915050565b600060208201905081810360008301526137f18184613779565b905092915050565b600080fd5b7f4e487b7100000000000000000000000000000000000000000000000000000000600052604160045260246000fd5b61383682613623565b810181811067ffffffffffffffff82111715613855576138546137fe565b5b80604052505050565b60006138686133a3565b9050613874828261382d565b919050565b600067ffffffffffffffff821115613894576138936137fe565b5b602082029050602081019050919050565b600080fd5b60006138bd6138b884613879565b61385e565b905080838252602082019050602084028301858111156138e0576138df6138a5565b5b835b8181101561390957806138f58882613436565b8452602084019350506020810190506138e2565b5050509392505050565b600082601f830112613928576139276137f9565b5b81356139388482602086016138aa565b91505092915050565b600080fd5b600067ffffffffffffffff821115613961576139606137fe565b5b61396a82613623565b9050602081019050919050565b82818337600083830152505050565b600061399961399484613946565b61385e565b9050828152602081018484840111156139b5576139b4613941565b5b6139c0848285613977565b509392505050565b600082601f8301126139dd576139dc6137f9565b5b81356139ed848260208601613986565b91505092915050565b600080600080600060a08688031215613a1257613a116133ad565b5b6000613a2088828901613400565b9550506020613a3188828901613400565b945050604086013567ffffffffffffffff811115613a5257613a516133b2565b5b613a5e88828901613913565b935050606086013567ffffffffffffffff811115613a7f57613a7e6133b2565b5b613a8b88828901613913565b925050608086013567ffffffffffffffff811115613aac57613aab6133b2565b5b613ab8888289016139c8565b9150509295509295909350565b613ace816133d7565b82525050565b600060c082019050613ae9600083018961348b565b613af6602083018861348b565b613b036040830187613ac5565b613b10606083018661348b565b613b1d608083018561348b565b613b2a60a083018461348b565b979650505050505050565b60008060008060008060c08789031215613b5257613b516133ad565b5b6000613b6089828a01613436565b9650506020613b7189828a01613436565b9550506040613b8289828a01613400565b9450506060613b9389828a01613436565b9350506080613ba489828a01613436565b92505060a0613bb589828a01613436565b9150509295509295509295565b600067ffffffffffffffff821115613bdd57613bdc6137fe565b5b602082029050602081019050919050565b6000613c01613bfc84613bc2565b61385e565b90508083825260208201905060208402830185811115613c2457613c236138a5565b5b835b81811015613c4d5780613c398882613400565b845260208401935050602081019050613c26565b5050509392505050565b600082601f830112613c6c57613c6b6137f9565b5b8135613c7c848260208601613bee565b91505092915050565b60008060408385031215613c9c57613c9b6133ad565b5b600083013567ffffffffffffffff811115613cba57613cb96133b2565b5b613cc685828601613c57565b925050602083013567ffffffffffffffff811115613ce757613ce66133b2565b5b613cf385828601613913565b9150509250929050565b600081519050919050565b600082825260208201905092915050565b6000819050602082019050919050565b6000613d3583836136bb565b60208301905092915050565b6000602082019050919050565b6000613d5982613cfd565b613d638185613d08565b9350613d6e83613d19565b8060005b83811015613d9f578151613d868882613d29565b9750613d9183613d41565b925050600181019050613d72565b5085935050505092915050565b60006020820190508181036000830152613dc68184613d4e565b905092915050565b600060208284031215613de457613de36133ad565b5b6000613df284828501613400565b91505092915050565b600067ffffffffffffffff821115613e1657613e156137fe565b5b613e1f82613623565b9050602081019050919050565b6000613e3f613e3a84613dfb565b61385e565b905082815260208101848484011115613e5b57613e5a613941565b5b613e66848285613977565b509392505050565b600082601f830112613e8357613e826137f9565b5b8135613e93848260208601613e2c565b91505092915050565b600060208284031215613eb257613eb16133ad565b5b600082013567ffffffffffffffff811115613ed057613ecf6133b2565b5b613edc84828501613e6e565b91505092915050565b6000602082019050613efa6000830184613ac5565b92915050565b613f098161353a565b8114613f1457600080fd5b50565b600081359050613f2681613f00565b92915050565b60008060408385031215613f4357613f426133ad565b5b6000613f5185828601613400565b9250506020613f6285828601613f17565b9150509250929050565b600081519050919050565b600082825260208201905092915050565b6000819050602082019050919050565b60e082016000820151613fae60008501826136d9565b506020820151613fc160c08501826136bb565b50505050565b6000613fd38383613f98565b60e08301905092915050565b6000602082019050919050565b6000613ff782613f6c565b6140018185613f77565b935061400c83613f88565b8060005b8381101561403d5781516140248882613fc7565b975061402f83613fdf565b925050600181019050614010565b5085935050505092915050565b600060208201905081810360008301526140648184613fec565b905092915050565b60008060408385031215614083576140826133ad565b5b600061409185828601613400565b92505060206140a285828601613400565b9150509250929050565b600080600080600060a086880312156140c8576140c76133ad565b5b60006140d688828901613400565b95505060206140e788828901613400565b94505060406140f888828901613436565b935050606061410988828901613436565b925050608086013567ffffffffffffffff81111561412a576141296133b2565b5b614136888289016139c8565b9150509295509295909350565b7f455243313135353a2061646472657373207a65726f206973206e6f742061207660008201527f616c6964206f776e657200000000000000000000000000000000000000000000602082015250565b600061419f602a836135e8565b91506141aa82614143565b604082019050919050565b600060208201905081810360008301526141ce81614192565b9050919050565b7f47616d65204944206d7573742062652063726561746564000000000000000000600082015250565b600061420b6017836135e8565b9150614216826141d5565b602082019050919050565b6000602082019050818103600083015261423a816141fe565b9050919050565b7f546865207072696365206d75737420626520706f736974697665000000000000600082015250565b6000614277601a836135e8565b915061428282614241565b602082019050919050565b600060208201905081810360008301526142a68161426a565b9050919050565b7f4d696e74206d7573742062652061637469766520746f206d696e740000000000600082015250565b60006142e3601b836135e8565b91506142ee826142ad565b602082019050919050565b60006020820190508181036000830152614312816142d6565b9050919050565b7f4e6f2067616d6573206372656174656400000000000000000000000000000000600082015250565b600061434f6010836135e8565b915061435a82614319565b602082019050919050565b6000602082019050818103600083015261437e81614342565b9050919050565b7f496e73756666696369656e742066756e64730000000000000000000000000000600082015250565b60006143bb6012836135e8565b91506143c682614385565b602082019050919050565b600060208201905081810360008301526143ea816143ae565b9050919050565b7f496e73756666696369656e7420737570706c792e2049742773206f7665722e00600082015250565b6000614427601f836135e8565b9150614432826143f1565b602082019050919050565b600060208201905081810360008301526144568161441a565b9050919050565b7f47616d65206e6f742072656c6561736564207965740000000000000000000000600082015250565b60006144936015836135e8565b915061449e8261445d565b602082019050919050565b600060208201905081810360008301526144c281614486565b9050919050565b600081905092915050565b60006144df826135dd565b6144e981856144c9565b93506144f98185602086016135f9565b80840191505092915050565b7f2e6a736f6e000000000000000000000000000000000000000000000000000000600082015250565b600061453b6005836144c9565b915061454682614505565b600582019050919050565b600061455d82846144d4565b91506145688261452e565b915081905092915050565b7f4e487b7100000000000000000000000000000000000000000000000000000000600052601160045260246000fd5b60006145ad82613415565b91506145b883613415565b92508282039050818111156145d0576145cf614573565b5b92915050565b7f4e487b7100000000000000000000000000000000000000000000000000000000600052603260045260246000fd5b600061461082613415565b91507fffffffffffffffffffffffffffffffffffffffffffffffffffffffffffffffff820361464257614641614573565b5b600182019050919050565b7f5361666542617463685472616e7366657246726f6d2069732064697361626c6560008201527f6400000000000000000000000000000000000000000000000000000000000000602082015250565b60006146a96021836135e8565b91506146b48261464d565b604082019050919050565b600060208201905081810360008301526146d88161469c565b9050919050565b7f496e76616c696420636f6d6d697373696f6e2070657263656e74616765000000600082015250565b6000614715601d836135e8565b9150614720826146df565b602082019050919050565b6000602082019050818103600083015261474481614708565b9050919050565b7f546f6b656e20494420616c726561647920657869737473000000000000000000600082015250565b60006147816017836135e8565b915061478c8261474b565b602082019050919050565b600060208201905081810360008301526147b081614774565b9050919050565b7f496e76616c696420707269636500000000000000000000000000000000000000600082015250565b60006147ed600d836135e8565b91506147f8826147b7565b602082019050919050565b6000602082019050818103600083015261481c816147e0565b9050919050565b7f496e76616c696420616464726573730000000000000000000000000000000000600082015250565b6000614859600f836135e8565b915061486482614823565b602082019050919050565b600060208201905081810360008301526148888161484c565b9050919050565b7f496e76616c696420737570706c79000000000000000000000000000000000000600082015250565b60006148c5600e836135e8565b91506148d08261488f565b602082019050919050565b600060208201905081810360008301526148f4816148b8565b9050919050565b7f496e76616c69642070657263656e7461676520726f79616c7479000000000000600082015250565b6000614931601a836135e8565b915061493c826148fb565b602082019050919050565b6000602082019050818103600083015261496081614924565b9050919050565b7f54696d65206d75737420626520706f7369746976650000000000000000000000600082015250565b600061499d6015836135e8565b91506149a882614967565b602082019050919050565b600060208201905081810360008301526149cc81614990565b9050919050565b60006080820190506149e8600083018761348b565b6149f5602083018661348b565b614a02604083018561348b565b614a0f606083018461348b565b95945050505050565b7f455243313135353a206163636f756e747320616e6420696473206c656e67746860008201527f206d69736d617463680000000000000000000000000000000000000000000000602082015250565b6000614a746029836135e8565b9150614a7f82614a18565b604082019050919050565b60006020820190508181036000830152614aa381614a67565b9050919050565b7f546865206d61726b6574706c616365206164647265737320697320696e636f7260008201527f7265637400000000000000000000000000000000000000000000000000000000602082015250565b6000614b066024836135e8565b9150614b1182614aaa565b604082019050919050565b60006020820190508181036000830152614b3581614af9565b9050919050565b7f546865206d61726b6574706c61636520697320616c726561647920617070726f60008201527f7665640000000000000000000000000000000000000000000000000000000000602082015250565b6000614b986023836135e8565b9150614ba382614b3c565b604082019050919050565b60006020820190508181036000830152614bc781614b8b565b9050919050565b6000614bda82846144d4565b915081905092915050565b7f5468652070726f76696465642055524920697320616c7265616479207365742e600082015250565b6000614c1b6020836135e8565b9150614c2682614be5565b602082019050919050565b60006020820190508181036000830152614c4a81614c0e565b9050919050565b7f546865207573657220686173206e6f742070757263686173656420616e79204e60008201527f4654730000000000000000000000000000000000000000000000000000000000602082015250565b6000614cad6023836135e8565b9150614cb882614c51565b604082019050919050565b60006020820190508181036000830152614cdc81614ca0565b9050919050565b7f596f752063616e277420646f2061207472616e73666572000000000000000000600082015250565b6000614d196017836135e8565b9150614d2482614ce3565b602082019050919050565b60006020820190508181036000830152614d4881614d0c565b9050919050565b7f5472616e73666572206e6f7420616c6c6f776564000000000000000000000000600082015250565b6000614d856014836135e8565b9150614d9082614d4f565b602082019050919050565b60006020820190508181036000830152614db481614d78565b9050919050565b7f4f776e61626c653a206e6577206f776e657220697320746865207a65726f206160008201527f6464726573730000000000000000000000000000000000000000000000000000602082015250565b6000614e176026836135e8565b9150614e2282614dbb565b604082019050919050565b60006020820190508181036000830152614e4681614e0a565b9050919050565b7f4f776e61626c653a2063616c6c6572206973206e6f7420746865206f776e6572600082015250565b6000614e836020836135e8565b9150614e8e82614e4d565b602082019050919050565b60006020820190508181036000830152614eb281614e76565b9050919050565b7f5061757361626c653a2070617573656400000000000000000000000000000000600082015250565b6000614eef6010836135e8565b9150614efa82614eb9565b602082019050919050565b60006020820190508181036000830152614f1e81614ee2565b9050919050565b7f4e487b7100000000000000000000000000000000000000000000000000000000600052602260045260246000fd5b60006002820490506001821680614f6c57607f821691505b602082108103614f7f57614f7e614f25565b5b50919050565b60008190508160005260206000209050919050565b60008154614fa781614f54565b614fb181866144c9565b94506001821660008114614fcc5760018114614fe157615014565b60ff1983168652811515820286019350615014565b614fea85614f85565b60005b8381101561500c57815481890152600182019150602081019050614fed565b838801955050505b50505092915050565b60006150298285614f9a565b915061503582846144d4565b91508190509392505050565b7f5265656e7472616e637947756172643a207265656e7472616e742063616c6c00600082015250565b6000615077601f836135e8565b915061508282615041565b602082019050919050565b600060208201905081810360008301526150a68161506a565b9050919050565b7f455243313135353a206d696e7420746f20746865207a65726f2061646472657360008201527f7300000000000000000000000000000000000000000000000000000000000000602082015250565b60006151096021836135e8565b9150615114826150ad565b604082019050919050565b60006020820190508181036000830152615138816150fc565b9050919050565b600061514a82613415565b915061515583613415565b925082820190508082111561516d5761516c614573565b5b92915050565b6000604082019050615188600083018561348b565b615195602083018461348b565b9392505050565b7f4e487b7100000000000000000000000000000000000000000000000000000000600052601260045260246000fd5b60006020601f8301049050919050565b600082821b905092915050565b6000600883026152187fffffffffffffffffffffffffffffffffffffffffffffffffffffffffffffffff826151db565b61522286836151db565b95508019841693508086168417925050509392505050565b6000819050919050565b600061525f61525a61525584613415565b61523a565b613415565b9050919050565b6000819050919050565b61527983615244565b61528d61528582615266565b8484546151e8565b825550505050565b600090565b6152a2615295565b6152ad818484615270565b505050565b5b818110156152d1576152c660008261529a565b6001810190506152b3565b5050565b601f821115615316576152e781614f85565b6152f0846151cb565b810160208510156152ff578190505b61531361530b856151cb565b8301826152b2565b50505b505050565b600082821c905092915050565b60006153396000198460080261531b565b1980831691505092915050565b60006153528383615328565b9150826002028217905092915050565b61536b826135dd565b67ffffffffffffffff811115615384576153836137fe565b5b61538e8254614f54565b6153998282856152d5565b600060209050601f8311600181146153cc57600084156153ba578287015190505b6153c48582615346565b86555061542c565b601f1984166153da86614f85565b60005b82811015615402578489015182556001820191506020850194506020810190506153dd565b8683101561541f578489015161541b601f891682615328565b8355505b6001600288020188555050505b505050505050565b600061543f82613415565b915061544a83613415565b925082820261545881613415565b9150828204841483151761546f5761546e614573565b5b5092915050565b600061548182613415565b915061548c83613415565b92508261549c5761549b61519c565b5b828204905092915050565b7f455243313135353a2073657474696e6720617070726f76616c2073746174757360008201527f20666f722073656c660000000000000000000000000000000000000000000000602082015250565b60006155036029836135e8565b915061550e826154a7565b604082019050919050565b60006020820190508181036000830152615532816154f6565b9050919050565b7f455243313135353a2063616c6c6572206973206e6f7420746f6b656e206f776e60008201527f6572206f7220617070726f766564000000000000000000000000000000000000602082015250565b6000615595602e836135e8565b91506155a082615539565b604082019050919050565b600060208201905081810360008301526155c481615588565b9050919050565b600081519050919050565b600082825260208201905092915050565b60006155f2826155cb565b6155fc81856155d6565b935061560c8185602086016135f9565b61561581613623565b840191505092915050565b600060a0820190506156356000830188613ac5565b6156426020830187613ac5565b61564f604083018661348b565b61565c606083018561348b565b818103608083015261566e81846155e7565b90509695505050505050565b600081519050615689816134e1565b92915050565b6000602082840312156156a5576156a46133ad565b5b60006156b38482850161567a565b91505092915050565b60008160e01c9050919050565b600060033d11156156e85760046000803e6156e56000516156bc565b90505b90565b600060443d10615778576156fd6133a3565b60043d036004823e80513d602482011167ffffffffffffffff82111715615725575050615778565b808201805167ffffffffffffffff8111156157435750505050615778565b80602083010160043d038501811115615760575050505050615778565b61576f8260200185018661382d565b82955050505050505b90565b7f455243313135353a207472616e7366657220746f206e6f6e2d4552433131353560008201527f526563656976657220696d706c656d656e746572000000000000000000000000602082015250565b60006157d76034836135e8565b91506157e28261577b565b604082019050919050565b60006020820190508181036000830152615806816157ca565b9050919050565b7f455243313135353a204552433131353552656365697665722072656a6563746560008201527f6420746f6b656e73000000000000000000000000000000000000000000000000602082015250565b60006158696028836135e8565b91506158748261580d565b604082019050919050565b600060208201905081810360008301526158988161585c565b9050919050565b7f4e487b7100000000000000000000000000000000000000000000000000000000600052603160045260246000fd5b7f455243313135353a207472616e7366657220746f20746865207a65726f20616460008201527f6472657373000000000000000000000000000000000000000000000000000000602082015250565b600061592a6025836135e8565b9150615935826158ce565b604082019050919050565b600060208201905081810360008301526159598161591d565b9050919050565b7f455243313135353a20696e73756666696369656e742062616c616e636520666f60008201527f72207472616e7366657200000000000000000000000000000000000000000000602082015250565b60006159bc602a836135e8565b91506159c782615960565b604082019050919050565b600060208201905081810360008301526159eb816159af565b905091905056fea2646970667358221220dd74a4a97b166368cfa950640c096ab8af624451df434b793b3ce56aa307241664736f6c63430008130033",
  "immutableReferences": {},
  "source": "// SPDX-License-Identifier: MIT\r\npragma solidity >=0.8.0 <0.9.0;\r\n\r\nimport \"@openzeppelin/contracts/token/ERC1155/ERC1155.sol\";\r\nimport \"@openzeppelin/contracts/token/ERC1155/extensions/ERC1155URIStorage.sol\";\r\nimport \"@openzeppelin/contracts/access/Ownable.sol\";\r\nimport \"@openzeppelin/contracts/utils/structs/EnumerableSet.sol\";\r\nimport \"@openzeppelin/contracts/utils/math/SafeMath.sol\";\r\nimport \"@openzeppelin/contracts/utils/Strings.sol\";\r\nimport \"@openzeppelin/contracts/security/ReentrancyGuard.sol\";\r\nimport \"@openzeppelin/contracts/security/Pausable.sol\";\r\n\r\n\r\ncontract TOKENPLAY is ERC1155, ERC1155URIStorage, Ownable, ReentrancyGuard, Pausable {\r\n    using SafeMath for uint256;\r\n    using Strings for uint256;\r\n    using EnumerableSet for EnumerableSet.UintSet;\r\n\r\n    bool public mintIsActive = false;\r\n\r\n    // Estructura para guardar los datos relevantes del NFT\r\n    struct NftGameInfo {\r\n        uint256 tokenId;\r\n        uint256 price;\r\n        address gameOwnerAddress;\r\n        uint256 supply;\r\n        uint256 tokenPlayRoyaltyPercentage;\r\n        uint256 gameRelease;\r\n    }\r\n\r\n    // Estructura para devolver los juegos que ha comprado un usuario y la cantidad que tiene de cada juego\r\n    struct PurchasedNft {\r\n        NftGameInfo game;\r\n        uint256 qty;\r\n    }\r\n\r\n    constructor(string memory _baseURI) ERC1155(_baseURI) {\r\n        _setBaseURI(_baseURI);\r\n    }\r\n\r\n    // Contador autoincremental, cada nmero ser un juego (token)\r\n    uint256 public nextTokenId = 0;\r\n\r\n    // Estructura, donde por cada juego definiremos sus atributos\r\n    mapping(uint256 => NftGameInfo) public gamesInfo;\r\n\r\n    // Estructura donde registraremos los juegos vendidos\r\n    mapping(address => EnumerableSet.UintSet) private purchasedNFTs;\r\n\r\n    // Contador de juegos\r\n    mapping(uint256 => uint256) public nGames;\r\n\r\n    // Estructura para definir el supply de cada juego\r\n    mapping(uint256 => uint256) public _totalSupply;\r\n\r\n    // EVENTOS\r\n    // Notificar que se ha aadido un juego\r\n    event NFTAdded(uint256 indexed tokenId, uint256 price, address indexed gameOwnerAddress, uint256 supply, uint256 tokenPlayRoyaltyPercentage, uint256 gameRelease);\r\n    // Notificar que se ha realizado el mint\r\n    event Purchased(address indexed minter, uint256 indexed tokenId);\r\n    // Modificado el porcentaje de royalty\r\n    event RoyaltyPercentageChanged(uint256 indexed tokenId, uint256 newRoyaltyPercentage);\r\n    // Modificado el precio del juego\r\n    event NFTPriceChanged(uint256 indexed tokenId, uint256 newPrice);\r\n    // Aprobacin mercado secundario\r\n    event MarketplaceApproved(address indexed marketplace);\r\n    // Modificacin URI base\r\n    event BaseURISet(string newBaseURI);\r\n    // Modificar estado mint\r\n    event MintingStateToggled(bool newState);\r\n\r\n    // Funcin para comprobar que existe el token\r\n    function _exists(uint256 tokenTest) internal view virtual returns (bool) {\r\n        return gamesInfo[tokenTest].tokenId == tokenTest;\r\n    }\r\n\r\n    // Funcin para aadir un juego (crear un token)\r\n    function addNFT(uint256 tokenId,uint256 price, address gameOwnerAddress, uint256 supply, uint256 tokenPlayRoyaltyPercentage, uint256 gameRelease ) external onlyOwner {\r\n        require(!_exists(tokenId), \"Token ID already exists\");\r\n        require(price > 0, \"Invalid price\");\r\n        require( gameOwnerAddress != address(0), \"Invalid address\");\r\n        require(gameOwnerAddress != address(this));\r\n        require(supply > 0, \"Invalid supply\");\r\n        require(tokenPlayRoyaltyPercentage >= 0, \"Invalid percentage royalty\");\r\n        require(gameRelease >= 0, \"Time must be positive\");\r\n\r\n        // Contabilizamos el juego aadido\r\n        nGames[nextTokenId] = tokenId;\r\n        nextTokenId = nextTokenId.add(1);\r\n\r\n        gamesInfo[tokenId] = NftGameInfo(tokenId, price, gameOwnerAddress, supply, tokenPlayRoyaltyPercentage, gameRelease);\r\n\r\n        // Guardamos el supply del NFT\r\n        _totalSupply[tokenId] = gamesInfo[tokenId].supply;\r\n\r\n        emit NFTAdded(tokenId, price,gameOwnerAddress,supply, tokenPlayRoyaltyPercentage, gameRelease);\r\n    }\r\n\r\n    // Funcin para comprar un juego (un token)\r\n    function purchaseNFT(uint256 tokenId) external payable nonReentrant whenNotPaused {\r\n        require(mintIsActive, \"Mint must be active to mint\");\r\n        require(nextTokenId > 0, \"No games created\");\r\n        require(_exists(tokenId), \"Game ID must be created\");\r\n        uint256 price = gamesInfo[tokenId].price;\r\n        require(msg.value >= price, \"Insufficient funds\");\r\n        require(gamesInfo[tokenId].supply > 0, \"Insufficient supply. It's over.\");\r\n        require(gamesInfo[tokenId].gameRelease <= block.timestamp, \"Game not released yet\");\r\n\r\n        // Minteamos el NFT al comprador y registramos al array de juegos que tiene comprados (si el Id ya existe no lo registramos de nuevo)\r\n        _mint(msg.sender, tokenId, 1, \"\");\r\n        if (!purchasedNFTs[msg.sender].contains(tokenId)) {\r\n            purchasedNFTs[msg.sender].add(tokenId);\r\n        }\r\n\r\n        // Asignamos el URI al juego con el ID y la extensin\r\n        _setURI(tokenId, string(abi.encodePacked(tokenId.toString(), \".json\")));\r\n\r\n        // Restamos del supply total el juego comprado\r\n        gamesInfo[tokenId].supply = gamesInfo[tokenId].supply.sub(1);\r\n        // Guardamos el supply del NFT\r\n        _totalSupply[tokenId] = gamesInfo[tokenId].supply;\r\n\r\n\r\n        // Calculamos los porcentajes que se lleva cada parte y hacemos la transferencia de los tokens\r\n        uint256 paymentAmount = price;\r\n        uint256 tokenPlay = paymentAmount.mul(gamesInfo[tokenId].tokenPlayRoyaltyPercentage).div(100); // royaltypercentage para token play\r\n        uint256 gameOwner = paymentAmount.sub(tokenPlay);  // el restante para game owner\r\n\r\n        payable(owner()).transfer(tokenPlay);\r\n        payable(gamesInfo[tokenId].gameOwnerAddress).transfer(gameOwner);\r\n\r\n        // Si el usuario ha pagado de mas, le devolvemos el dinero\r\n        if (msg.value > price) {\r\n            payable(msg.sender).transfer(msg.value - price);\r\n        }\r\n\r\n        emit Purchased(msg.sender, tokenId);\r\n    }\r\n\r\n    // Funcion para obtener los juegos que ha comprado un usuario\r\n    function getPurchasedNFTs(address account) external view returns (PurchasedNft[] memory) {\r\n        require( account != address(0), \"Invalid address\");\r\n        uint256 purchasedCount = purchasedNFTs[account].length();\r\n        require(purchasedCount > 0, \"The user has not purchased any NFTs\");\r\n\r\n        PurchasedNft[] memory accountGames = new PurchasedNft[](purchasedNFTs[account].length());\r\n\r\n        for (uint256 i = 0; i < purchasedNFTs[account].length(); i++) {\r\n            uint256 id = purchasedNFTs[account].at(i);\r\n            accountGames[i].game = gamesInfo[id];\r\n            accountGames[i].qty = balanceOf(account, id);\r\n        }\r\n\r\n        return accountGames;\r\n    }\r\n\r\n    // Funcin para obtener todos los juegos disponibles\r\n    function getNFTs() external view returns (NftGameInfo[] memory) {\r\n        require(nextTokenId > 0, \"No games created\");\r\n\r\n        NftGameInfo[] memory allNFTs = new NftGameInfo[](nextTokenId);\r\n\r\n        for (uint256 i = 0; i < nextTokenId; i++) {\r\n            if (gamesInfo[nGames[i]].gameRelease <= block.timestamp) {\r\n                NftGameInfo storage nftInfo = gamesInfo[nGames[i]];\r\n                allNFTs[i] = nftInfo;\r\n            }\r\n        }\r\n\r\n        return allNFTs;\r\n    }\r\n\r\n    // Funcin para cambiar el porcentaje de royalty que nos llevamos\r\n    function setRoyaltyPercentage(uint256 tokenId, uint256 royaltyPercentage) public onlyOwner whenNotPaused {\r\n        require(royaltyPercentage >= 0 && royaltyPercentage <= 100, \"Invalid commission percentage\");\r\n        gamesInfo[tokenId].tokenPlayRoyaltyPercentage = royaltyPercentage;\r\n        emit RoyaltyPercentageChanged(tokenId, royaltyPercentage);\r\n    }\r\n\r\n    // Funcion para cambiar el precio del juego\r\n    function setMintPrice(uint256 tokenId, uint256 _mintPrice) public onlyOwner whenNotPaused {\r\n        require(_exists(tokenId), \"Game ID must be created\");\r\n        require(_mintPrice >= 0, \"The price must be positive\");\r\n        gamesInfo[tokenId].price = _mintPrice;\r\n        emit NFTPriceChanged(tokenId, _mintPrice);\r\n    }\r\n\r\n    // Funcion para saber el supply de un juego\r\n    function totalSupply(uint256 tokenId) public view returns (uint256) {\r\n        require(_exists(tokenId), \"Game ID must be created\");\r\n        return _totalSupply[tokenId];\r\n    }\r\n\r\n    // Funcin para activar o desactivar la compra de juegos (tokens)\r\n    function flipMintState() public onlyOwner whenNotPaused {\r\n        mintIsActive = ! mintIsActive;\r\n        emit MintingStateToggled(mintIsActive);\r\n    }\r\n\r\n    // Funcion para obtener el URI de un juego\r\n    function uri(uint256 tokenId) public view virtual override(ERC1155, ERC1155URIStorage) returns (string memory) {\r\n        require(_exists(tokenId), \"Game ID must be created\");\r\n\r\n        return super.uri(tokenId);\r\n    }\r\n\r\n    // Funcin para modificar el URI del juego\r\n    function setBaseURI(string memory baseURI) public onlyOwner whenNotPaused {\r\n        require(keccak256(abi.encodePacked(baseURI)) != keccak256(abi.encodePacked(uri(0))), \"The provided URI is already set.\");\r\n        _setBaseURI(baseURI);\r\n        emit BaseURISet(baseURI);\r\n    }\r\n\r\n    // Funcion para dar de alta el mercado secundario\r\n    function approveMarketplace(address marketplace) external  whenNotPaused {\r\n        require(marketplace != address(0), \"The marketplace address is incorrect\");\r\n        require(!isApprovedForAll(address(this), marketplace), \"The marketplace is already approved\");\r\n        setApprovalForAll(marketplace, true);\r\n        emit MarketplaceApproved(marketplace);\r\n    }\r\n\r\n    function safeTransferFrom(\r\n        address from,\r\n        address to,\r\n        uint256 tokenId,\r\n        uint256 amount,\r\n        bytes memory data\r\n    ) public override {\r\n        // Only contracts can do this action\r\n        require(isContract(msg.sender), \"You can't do a transfer\");\r\n        // Validate if the sender sends something from his address or if its different, then validat if its allow to do it\r\n        require(from == msg.sender || isApprovedForAll(from, msg.sender), \"Transfer not allowed\");\r\n\r\n        // Remove NFT from owner if is the last NFT of this tokenId it owns\r\n        if (purchasedNFTs[from].contains(tokenId) && balanceOf(from, tokenId) == 1) {\r\n            purchasedNFTs[from].remove(tokenId);\r\n        }\r\n\r\n        // Add NFT to receiver if is the first of this tokenId it owns\r\n        if (!purchasedNFTs[to].contains(tokenId) && balanceOf(to, tokenId) == 0) {\r\n            purchasedNFTs[to].add(tokenId);\r\n        }\r\n\r\n        // Call the original safeTransferFrom function\r\n        super.safeTransferFrom(from, to, tokenId, amount, data);\r\n    }\r\n\r\n    function safeBatchTransferFrom(address, address, uint256[] memory, uint256[] memory, bytes memory) public pure override {\r\n        revert(\"SafeBatchTransferFrom is disabled\");\r\n    }\r\n\r\n    function isContract(address _addr) internal view returns (bool) {\r\n        uint32 size;\r\n        assembly {\r\n            size := extcodesize(_addr)\r\n        }\r\n        return (size > 0);\r\n    }\r\n}\r\n",
  "sourcePath": "C:\\Users\\User\\Desktop\\PC\\2_Master\\BSM_Engineering\\TFM\\DAPP\\dapp\\contracts\\TOKENPLAY.sol",
  "compiler": {
    "name": "solc",
    "version": "0.8.19+commit.7dd6d404.Emscripten.clang"
  },
  "schemaVersion": "3.4.14",
  "updatedAt": "2023-08-29T16:17:24.226Z",
  "networkType": "ethereum",
  "devdoc": {
    "events": {
      "ApprovalForAll(address,address,bool)": {
        "details": "Emitted when `account` grants or revokes permission to `operator` to transfer their tokens, according to `approved`."
      },
      "Paused(address)": {
        "details": "Emitted when the pause is triggered by `account`."
      },
      "TransferBatch(address,address,address,uint256[],uint256[])": {
        "details": "Equivalent to multiple {TransferSingle} events, where `operator`, `from` and `to` are the same for all transfers."
      },
      "TransferSingle(address,address,address,uint256,uint256)": {
        "details": "Emitted when `value` tokens of token type `id` are transferred from `from` to `to` by `operator`."
      },
      "URI(string,uint256)": {
        "details": "Emitted when the URI for token type `id` changes to `value`, if it is a non-programmatic URI. If an {URI} event was emitted for `id`, the standard https://eips.ethereum.org/EIPS/eip-1155#metadata-extensions[guarantees] that `value` will equal the value returned by {IERC1155MetadataURI-uri}."
      },
      "Unpaused(address)": {
        "details": "Emitted when the pause is lifted by `account`."
      }
    },
    "kind": "dev",
    "methods": {
      "balanceOf(address,uint256)": {
        "details": "See {IERC1155-balanceOf}. Requirements: - `account` cannot be the zero address."
      },
      "balanceOfBatch(address[],uint256[])": {
        "details": "See {IERC1155-balanceOfBatch}. Requirements: - `accounts` and `ids` must have the same length."
      },
      "isApprovedForAll(address,address)": {
        "details": "See {IERC1155-isApprovedForAll}."
      },
      "owner()": {
        "details": "Returns the address of the current owner."
      },
      "paused()": {
        "details": "Returns true if the contract is paused, and false otherwise."
      },
      "renounceOwnership()": {
        "details": "Leaves the contract without owner. It will not be possible to call `onlyOwner` functions. Can only be called by the current owner. NOTE: Renouncing ownership will leave the contract without an owner, thereby disabling any functionality that is only available to the owner."
      },
      "setApprovalForAll(address,bool)": {
        "details": "See {IERC1155-setApprovalForAll}."
      },
      "supportsInterface(bytes4)": {
        "details": "See {IERC165-supportsInterface}."
      },
      "transferOwnership(address)": {
        "details": "Transfers ownership of the contract to a new account (`newOwner`). Can only be called by the current owner."
      }
    },
    "version": 1
  },
  "userdoc": {
    "kind": "user",
    "methods": {},
    "version": 1
  }
}