{
  "contractName": "TOKENPLAY",
  "abi": [
    {
      "inputs": [
        {
          "internalType": "string",
          "name": "_baseURI",
          "type": "string"
        }
      ],
      "stateMutability": "nonpayable",
      "type": "constructor"
    },
    {
      "anonymous": false,
      "inputs": [
        {
          "indexed": true,
          "internalType": "address",
          "name": "account",
          "type": "address"
        },
        {
          "indexed": true,
          "internalType": "address",
          "name": "operator",
          "type": "address"
        },
        {
          "indexed": false,
          "internalType": "bool",
          "name": "approved",
          "type": "bool"
        }
      ],
      "name": "ApprovalForAll",
      "type": "event"
    },
    {
      "anonymous": false,
      "inputs": [
        {
          "indexed": true,
          "internalType": "address",
          "name": "previousOwner",
          "type": "address"
        },
        {
          "indexed": true,
          "internalType": "address",
          "name": "newOwner",
          "type": "address"
        }
      ],
      "name": "OwnershipTransferred",
      "type": "event"
    },
    {
      "anonymous": false,
      "inputs": [
        {
          "indexed": true,
          "internalType": "address",
          "name": "minter",
          "type": "address"
        },
        {
          "indexed": true,
          "internalType": "uint256",
          "name": "tokenId",
          "type": "uint256"
        }
      ],
      "name": "Purchased",
      "type": "event"
    },
    {
      "anonymous": false,
      "inputs": [
        {
          "indexed": true,
          "internalType": "address",
          "name": "operator",
          "type": "address"
        },
        {
          "indexed": true,
          "internalType": "address",
          "name": "from",
          "type": "address"
        },
        {
          "indexed": true,
          "internalType": "address",
          "name": "to",
          "type": "address"
        },
        {
          "indexed": false,
          "internalType": "uint256[]",
          "name": "ids",
          "type": "uint256[]"
        },
        {
          "indexed": false,
          "internalType": "uint256[]",
          "name": "values",
          "type": "uint256[]"
        }
      ],
      "name": "TransferBatch",
      "type": "event"
    },
    {
      "anonymous": false,
      "inputs": [
        {
          "indexed": true,
          "internalType": "address",
          "name": "operator",
          "type": "address"
        },
        {
          "indexed": true,
          "internalType": "address",
          "name": "from",
          "type": "address"
        },
        {
          "indexed": true,
          "internalType": "address",
          "name": "to",
          "type": "address"
        },
        {
          "indexed": false,
          "internalType": "uint256",
          "name": "id",
          "type": "uint256"
        },
        {
          "indexed": false,
          "internalType": "uint256",
          "name": "value",
          "type": "uint256"
        }
      ],
      "name": "TransferSingle",
      "type": "event"
    },
    {
      "anonymous": false,
      "inputs": [
        {
          "indexed": false,
          "internalType": "string",
          "name": "value",
          "type": "string"
        },
        {
          "indexed": true,
          "internalType": "uint256",
          "name": "id",
          "type": "uint256"
        }
      ],
      "name": "URI",
      "type": "event"
    },
    {
      "inputs": [
        {
          "internalType": "uint256",
          "name": "",
          "type": "uint256"
        }
      ],
      "name": "_totalSupply",
      "outputs": [
        {
          "internalType": "uint256",
          "name": "",
          "type": "uint256"
        }
      ],
      "stateMutability": "view",
      "type": "function",
      "constant": true
    },
    {
      "inputs": [
        {
          "internalType": "address",
          "name": "account",
          "type": "address"
        },
        {
          "internalType": "uint256",
          "name": "id",
          "type": "uint256"
        }
      ],
      "name": "balanceOf",
      "outputs": [
        {
          "internalType": "uint256",
          "name": "",
          "type": "uint256"
        }
      ],
      "stateMutability": "view",
      "type": "function",
      "constant": true
    },
    {
      "inputs": [
        {
          "internalType": "address[]",
          "name": "accounts",
          "type": "address[]"
        },
        {
          "internalType": "uint256[]",
          "name": "ids",
          "type": "uint256[]"
        }
      ],
      "name": "balanceOfBatch",
      "outputs": [
        {
          "internalType": "uint256[]",
          "name": "",
          "type": "uint256[]"
        }
      ],
      "stateMutability": "view",
      "type": "function",
      "constant": true
    },
    {
      "inputs": [
        {
          "internalType": "uint256",
          "name": "",
          "type": "uint256"
        }
      ],
      "name": "gamesInfo",
      "outputs": [
        {
          "internalType": "uint256",
          "name": "tokenId",
          "type": "uint256"
        },
        {
          "internalType": "uint256",
          "name": "price",
          "type": "uint256"
        },
        {
          "internalType": "address",
          "name": "gameOwnerAddress",
          "type": "address"
        },
        {
          "internalType": "uint256",
          "name": "supply",
          "type": "uint256"
        }
      ],
      "stateMutability": "view",
      "type": "function",
      "constant": true
    },
    {
      "inputs": [
        {
          "internalType": "address",
          "name": "account",
          "type": "address"
        },
        {
          "internalType": "address",
          "name": "operator",
          "type": "address"
        }
      ],
      "name": "isApprovedForAll",
      "outputs": [
        {
          "internalType": "bool",
          "name": "",
          "type": "bool"
        }
      ],
      "stateMutability": "view",
      "type": "function",
      "constant": true
    },
    {
      "inputs": [],
      "name": "mintIsActive",
      "outputs": [
        {
          "internalType": "bool",
          "name": "",
          "type": "bool"
        }
      ],
      "stateMutability": "view",
      "type": "function",
      "constant": true
    },
    {
      "inputs": [
        {
          "internalType": "uint256",
          "name": "",
          "type": "uint256"
        }
      ],
      "name": "nGames",
      "outputs": [
        {
          "internalType": "uint256",
          "name": "",
          "type": "uint256"
        }
      ],
      "stateMutability": "view",
      "type": "function",
      "constant": true
    },
    {
      "inputs": [],
      "name": "nextTokenId",
      "outputs": [
        {
          "internalType": "uint256",
          "name": "",
          "type": "uint256"
        }
      ],
      "stateMutability": "view",
      "type": "function",
      "constant": true
    },
    {
      "inputs": [],
      "name": "owner",
      "outputs": [
        {
          "internalType": "address",
          "name": "",
          "type": "address"
        }
      ],
      "stateMutability": "view",
      "type": "function",
      "constant": true
    },
    {
      "inputs": [],
      "name": "renounceOwnership",
      "outputs": [],
      "stateMutability": "nonpayable",
      "type": "function"
    },
    {
      "inputs": [],
      "name": "royaltyPercentage",
      "outputs": [
        {
          "internalType": "uint256",
          "name": "",
          "type": "uint256"
        }
      ],
      "stateMutability": "view",
      "type": "function",
      "constant": true
    },
    {
      "inputs": [
        {
          "internalType": "address",
          "name": "from",
          "type": "address"
        },
        {
          "internalType": "address",
          "name": "to",
          "type": "address"
        },
        {
          "internalType": "uint256[]",
          "name": "ids",
          "type": "uint256[]"
        },
        {
          "internalType": "uint256[]",
          "name": "amounts",
          "type": "uint256[]"
        },
        {
          "internalType": "bytes",
          "name": "data",
          "type": "bytes"
        }
      ],
      "name": "safeBatchTransferFrom",
      "outputs": [],
      "stateMutability": "nonpayable",
      "type": "function"
    },
    {
      "inputs": [
        {
          "internalType": "address",
          "name": "from",
          "type": "address"
        },
        {
          "internalType": "address",
          "name": "to",
          "type": "address"
        },
        {
          "internalType": "uint256",
          "name": "id",
          "type": "uint256"
        },
        {
          "internalType": "uint256",
          "name": "amount",
          "type": "uint256"
        },
        {
          "internalType": "bytes",
          "name": "data",
          "type": "bytes"
        }
      ],
      "name": "safeTransferFrom",
      "outputs": [],
      "stateMutability": "nonpayable",
      "type": "function"
    },
    {
      "inputs": [
        {
          "internalType": "address",
          "name": "operator",
          "type": "address"
        },
        {
          "internalType": "bool",
          "name": "approved",
          "type": "bool"
        }
      ],
      "name": "setApprovalForAll",
      "outputs": [],
      "stateMutability": "nonpayable",
      "type": "function"
    },
    {
      "inputs": [
        {
          "internalType": "bytes4",
          "name": "interfaceId",
          "type": "bytes4"
        }
      ],
      "name": "supportsInterface",
      "outputs": [
        {
          "internalType": "bool",
          "name": "",
          "type": "bool"
        }
      ],
      "stateMutability": "view",
      "type": "function",
      "constant": true
    },
    {
      "inputs": [
        {
          "internalType": "address",
          "name": "newOwner",
          "type": "address"
        }
      ],
      "name": "transferOwnership",
      "outputs": [],
      "stateMutability": "nonpayable",
      "type": "function"
    },
    {
      "inputs": [
        {
          "internalType": "uint256",
          "name": "tokenId",
          "type": "uint256"
        },
        {
          "internalType": "uint256",
          "name": "price",
          "type": "uint256"
        },
        {
          "internalType": "address",
          "name": "gameOwnerAddress",
          "type": "address"
        },
        {
          "internalType": "uint256",
          "name": "supply",
          "type": "uint256"
        }
      ],
      "name": "addNFT",
      "outputs": [],
      "stateMutability": "nonpayable",
      "type": "function"
    },
    {
      "inputs": [
        {
          "internalType": "uint256",
          "name": "tokenId",
          "type": "uint256"
        }
      ],
      "name": "purchaseNFT",
      "outputs": [],
      "stateMutability": "payable",
      "type": "function",
      "payable": true
    },
    {
      "inputs": [
        {
          "internalType": "address",
          "name": "account",
          "type": "address"
        }
      ],
      "name": "getPurchasedNFTs",
      "outputs": [
        {
          "components": [
            {
              "components": [
                {
                  "internalType": "uint256",
                  "name": "tokenId",
                  "type": "uint256"
                },
                {
                  "internalType": "uint256",
                  "name": "price",
                  "type": "uint256"
                },
                {
                  "internalType": "address",
                  "name": "gameOwnerAddress",
                  "type": "address"
                },
                {
                  "internalType": "uint256",
                  "name": "supply",
                  "type": "uint256"
                }
              ],
              "internalType": "struct TOKENPLAY.NftGameInfo",
              "name": "game",
              "type": "tuple"
            },
            {
              "internalType": "uint256",
              "name": "qty",
              "type": "uint256"
            }
          ],
          "internalType": "struct TOKENPLAY.PurchasedNft[]",
          "name": "",
          "type": "tuple[]"
        }
      ],
      "stateMutability": "view",
      "type": "function",
      "constant": true
    },
    {
      "inputs": [],
      "name": "getNFTs",
      "outputs": [
        {
          "components": [
            {
              "internalType": "uint256",
              "name": "tokenId",
              "type": "uint256"
            },
            {
              "internalType": "uint256",
              "name": "price",
              "type": "uint256"
            },
            {
              "internalType": "address",
              "name": "gameOwnerAddress",
              "type": "address"
            },
            {
              "internalType": "uint256",
              "name": "supply",
              "type": "uint256"
            }
          ],
          "internalType": "struct TOKENPLAY.NftGameInfo[]",
          "name": "",
          "type": "tuple[]"
        }
      ],
      "stateMutability": "view",
      "type": "function",
      "constant": true
    },
    {
      "inputs": [],
      "name": "withdrawBalance",
      "outputs": [],
      "stateMutability": "nonpayable",
      "type": "function"
    },
    {
      "inputs": [
        {
          "internalType": "uint256",
          "name": "percentage",
          "type": "uint256"
        }
      ],
      "name": "setRoyaltyPercentage",
      "outputs": [],
      "stateMutability": "nonpayable",
      "type": "function"
    },
    {
      "inputs": [
        {
          "internalType": "uint256",
          "name": "tokenId",
          "type": "uint256"
        },
        {
          "internalType": "uint256",
          "name": "_mintPrice",
          "type": "uint256"
        }
      ],
      "name": "setMintPrice",
      "outputs": [],
      "stateMutability": "nonpayable",
      "type": "function"
    },
    {
      "inputs": [
        {
          "internalType": "uint256",
          "name": "tokenId",
          "type": "uint256"
        }
      ],
      "name": "totalSupply",
      "outputs": [
        {
          "internalType": "uint256",
          "name": "",
          "type": "uint256"
        }
      ],
      "stateMutability": "view",
      "type": "function",
      "constant": true
    },
    {
      "inputs": [],
      "name": "flipMintState",
      "outputs": [],
      "stateMutability": "nonpayable",
      "type": "function"
    },
    {
      "inputs": [
        {
          "internalType": "uint256",
          "name": "tokenId",
          "type": "uint256"
        }
      ],
      "name": "uri",
      "outputs": [
        {
          "internalType": "string",
          "name": "",
          "type": "string"
        }
      ],
      "stateMutability": "view",
      "type": "function",
      "constant": true
    },
    {
      "inputs": [
        {
          "internalType": "string",
          "name": "baseURI",
          "type": "string"
        }
      ],
      "name": "setBaseURI",
      "outputs": [],
      "stateMutability": "nonpayable",
      "type": "function"
    },
    {
      "inputs": [
        {
          "internalType": "address",
          "name": "marketplace",
          "type": "address"
        }
      ],
      "name": "approveMarketplace",
      "outputs": [],
      "stateMutability": "nonpayable",
      "type": "function"
    }
  ],
  "bytecode": "0x608060405260405180602001604052806000815250600390816200002491906200043a565b50600a6006556000600760006101000a81548160ff02191690831515021790555060006008553480156200005757600080fd5b506040516200588a3803806200588a83398181016040528101906200007d919062000685565b806200008f81620000c860201b60201c565b50620000b0620000a4620000dd60201b60201c565b620000e560201b60201c565b620000c181620001ab60201b60201c565b50620006d6565b8060029081620000d991906200043a565b5050565b600033905090565b6000600560009054906101000a900473ffffffffffffffffffffffffffffffffffffffff16905081600560006101000a81548173ffffffffffffffffffffffffffffffffffffffff021916908373ffffffffffffffffffffffffffffffffffffffff1602179055508173ffffffffffffffffffffffffffffffffffffffff168173ffffffffffffffffffffffffffffffffffffffff167f8be0079c531659141344cd1fd0a4f28419497f9722a3daafe3b4186f6b6457e060405160405180910390a35050565b8060039081620001bc91906200043a565b5050565b600081519050919050565b7f4e487b7100000000000000000000000000000000000000000000000000000000600052604160045260246000fd5b7f4e487b7100000000000000000000000000000000000000000000000000000000600052602260045260246000fd5b600060028204905060018216806200024257607f821691505b602082108103620002585762000257620001fa565b5b50919050565b60008190508160005260206000209050919050565b60006020601f8301049050919050565b600082821b905092915050565b600060088302620002c27fffffffffffffffffffffffffffffffffffffffffffffffffffffffffffffffff8262000283565b620002ce868362000283565b95508019841693508086168417925050509392505050565b6000819050919050565b6000819050919050565b60006200031b620003156200030f84620002e6565b620002f0565b620002e6565b9050919050565b6000819050919050565b6200033783620002fa565b6200034f620003468262000322565b84845462000290565b825550505050565b600090565b6200036662000357565b620003738184846200032c565b505050565b5b818110156200039b576200038f6000826200035c565b60018101905062000379565b5050565b601f821115620003ea57620003b4816200025e565b620003bf8462000273565b81016020851015620003cf578190505b620003e7620003de8562000273565b83018262000378565b50505b505050565b600082821c905092915050565b60006200040f60001984600802620003ef565b1980831691505092915050565b60006200042a8383620003fc565b9150826002028217905092915050565b6200044582620001c0565b67ffffffffffffffff811115620004615762000460620001cb565b5b6200046d825462000229565b6200047a8282856200039f565b600060209050601f831160018114620004b257600084156200049d578287015190505b620004a985826200041c565b86555062000519565b601f198416620004c2866200025e565b60005b82811015620004ec57848901518255600182019150602085019450602081019050620004c5565b868310156200050c578489015162000508601f891682620003fc565b8355505b6001600288020188555050505b505050505050565b6000604051905090565b600080fd5b600080fd5b600080fd5b600080fd5b6000601f19601f8301169050919050565b6200055b826200053f565b810181811067ffffffffffffffff821117156200057d576200057c620001cb565b5b80604052505050565b60006200059262000521565b9050620005a0828262000550565b919050565b600067ffffffffffffffff821115620005c357620005c2620001cb565b5b620005ce826200053f565b9050602081019050919050565b60005b83811015620005fb578082015181840152602081019050620005de565b60008484015250505050565b60006200061e6200061884620005a5565b62000586565b9050828152602081018484840111156200063d576200063c6200053a565b5b6200064a848285620005db565b509392505050565b600082601f8301126200066a576200066962000535565b5b81516200067c84826020860162000607565b91505092915050565b6000602082840312156200069e576200069d6200052b565b5b600082015167ffffffffffffffff811115620006bf57620006be62000530565b5b620006cd8482850162000652565b91505092915050565b6151a480620006e66000396000f3fe6080604052600436106101b65760003560e01c806359c74f29116100ec578063a22cb4651161008a578063e206dc2e11610064578063e206dc2e146105fd578063e985e9c51461063a578063f242432a14610677578063f2fde38b146106a0576101b6565b8063a22cb4651461055a578063b0cc532814610583578063bd85b039146105c0576101b6565b8063715018a6116100c6578063715018a6146104c257806375794a3c146104d95780638a71bb2d146105045780638da5cb5b1461052f576101b6565b806359c74f291461046b5780635fd8c7101461048257806361ba27da14610499576101b6565b80632eb2c2d6116101595780634e1273f4116101335780634e1273f41461039f5780634f83489b146103dc57806355f804b3146104055780635977e82a1461042e576101b6565b80632eb2c2d61461030b5780634069425614610334578063471a429414610374576101b6565b80630e89341c116101955780630e89341c1461025e578063150bde031461029b578063227212f2146102b757806326a95b19146102e2576101b6565b8062fdd58e146101bb57806301ffc9a7146101f85780630442bfa814610235575b600080fd5b3480156101c757600080fd5b506101e260048036038101906101dd919061309f565b6106c9565b6040516101ef91906130ee565b60405180910390f35b34801561020457600080fd5b5061021f600480360381019061021a9190613161565b610791565b60405161022c91906131a9565b60405180910390f35b34801561024157600080fd5b5061025c600480360381019061025791906131c4565b610873565b005b34801561026a57600080fd5b5061028560048036038101906102809190613204565b610926565b60405161029291906132c1565b60405180910390f35b6102b560048036038101906102b09190613204565b610980565b005b3480156102c357600080fd5b506102cc610e33565b6040516102d99190613405565b60405180910390f35b3480156102ee57600080fd5b5061030960048036038101906103049190613427565b610fc5565b005b34801561031757600080fd5b50610332600480360381019061032d919061368b565b6111f9565b005b34801561034057600080fd5b5061035b60048036038101906103569190613204565b61129a565b60405161036b9493929190613769565b60405180910390f35b34801561038057600080fd5b506103896112ea565b60405161039691906131a9565b60405180910390f35b3480156103ab57600080fd5b506103c660048036038101906103c19190613871565b6112fd565b6040516103d39190613998565b60405180910390f35b3480156103e857600080fd5b5061040360048036038101906103fe91906139ba565b611416565b005b34801561041157600080fd5b5061042c60048036038101906104279190613a88565b61149b565b005b34801561043a57600080fd5b5061045560048036038101906104509190613204565b6114af565b60405161046291906130ee565b60405180910390f35b34801561047757600080fd5b506104806114c7565b005b34801561048e57600080fd5b506104976114fb565b005b3480156104a557600080fd5b506104c060048036038101906104bb9190613204565b611553565b005b3480156104ce57600080fd5b506104d76115a9565b005b3480156104e557600080fd5b506104ee6115bd565b6040516104fb91906130ee565b60405180910390f35b34801561051057600080fd5b506105196115c3565b60405161052691906130ee565b60405180910390f35b34801561053b57600080fd5b506105446115c9565b6040516105519190613ad1565b60405180910390f35b34801561056657600080fd5b50610581600480360381019061057c9190613b18565b6115f3565b005b34801561058f57600080fd5b506105aa60048036038101906105a59190613204565b611609565b6040516105b791906130ee565b60405180910390f35b3480156105cc57600080fd5b506105e760048036038101906105e29190613204565b611621565b6040516105f491906130ee565b60405180910390f35b34801561060957600080fd5b50610624600480360381019061061f91906139ba565b611686565b6040516106319190613c36565b60405180910390f35b34801561064657600080fd5b50610661600480360381019061065c9190613c58565b61193a565b60405161066e91906131a9565b60405180910390f35b34801561068357600080fd5b5061069e60048036038101906106999190613c98565b6119ce565b005b3480156106ac57600080fd5b506106c760048036038101906106c291906139ba565b611a6f565b005b60008073ffffffffffffffffffffffffffffffffffffffff168373ffffffffffffffffffffffffffffffffffffffff1603610739576040517f08c379a000000000000000000000000000000000000000000000000000000000815260040161073090613da1565b60405180910390fd5b60008083815260200190815260200160002060008473ffffffffffffffffffffffffffffffffffffffff1673ffffffffffffffffffffffffffffffffffffffff16815260200190815260200160002054905092915050565b60007fd9b67a26000000000000000000000000000000000000000000000000000000007bffffffffffffffffffffffffffffffffffffffffffffffffffffffff1916827bffffffffffffffffffffffffffffffffffffffffffffffffffffffff1916148061085c57507f0e89341c000000000000000000000000000000000000000000000000000000007bffffffffffffffffffffffffffffffffffffffffffffffffffffffff1916827bffffffffffffffffffffffffffffffffffffffffffffffffffffffff1916145b8061086c575061086b82611af2565b5b9050919050565b61087b611b5c565b61088482611bda565b6108c3576040517f08c379a00000000000000000000000000000000000000000000000000000000081526004016108ba90613e0d565b60405180910390fd5b6000811015610907576040517f08c379a00000000000000000000000000000000000000000000000000000000081526004016108fe90613e79565b60405180910390fd5b8060096000848152602001908152602001600020600101819055505050565b606061093182611bda565b610970576040517f08c379a000000000000000000000000000000000000000000000000000000000815260040161096790613e0d565b60405180910390fd5b61097982611bfc565b9050919050565b600760009054906101000a900460ff166109cf576040517f08c379a00000000000000000000000000000000000000000000000000000000081526004016109c690613ee5565b60405180910390fd5b600060085411610a14576040517f08c379a0000000000000000000000000000000000000000000000000000000008152600401610a0b90613f51565b60405180910390fd5b610a1d81611bda565b610a5c576040517f08c379a0000000000000000000000000000000000000000000000000000000008152600401610a5390613e0d565b60405180910390fd5b60006009600083815260200190815260200160002060010154905080341015610aba576040517f08c379a0000000000000000000000000000000000000000000000000000000008152600401610ab190613fbd565b60405180910390fd5b6000600960008481526020019081526020016000206003015411610b13576040517f08c379a0000000000000000000000000000000000000000000000000000000008152600401610b0a90614029565b60405180910390fd5b610b2f3383600160405180602001604052806000815250611ce1565b610b8082600a60003373ffffffffffffffffffffffffffffffffffffffff1673ffffffffffffffffffffffffffffffffffffffff168152602001908152602001600020611e9190919063ffffffff16565b610bd757610bd582600a60003373ffffffffffffffffffffffffffffffffffffffff1673ffffffffffffffffffffffffffffffffffffffff168152602001908152602001600020611eab90919063ffffffff16565b505b610c0882610be484611ec5565b604051602001610bf491906140d1565b604051602081830303815290604052611f93565b610c3260016009600085815260200190815260200160002060030154611ff890919063ffffffff16565b60096000848152602001908152602001600020600301819055506009600083815260200190815260200160002060030154600c60008481526020019081526020016000208190555060008190506000610ca96064610c9b6006548561200e90919063ffffffff16565b61202490919063ffffffff16565b90506000610cc08284611ff890919063ffffffff16565b9050610cca6115c9565b73ffffffffffffffffffffffffffffffffffffffff166108fc839081150290604051600060405180830381858888f19350505050158015610d0f573d6000803e3d6000fd5b506009600086815260200190815260200160002060020160009054906101000a900473ffffffffffffffffffffffffffffffffffffffff1673ffffffffffffffffffffffffffffffffffffffff166108fc829081150290604051600060405180830381858888f19350505050158015610d8c573d6000803e3d6000fd5b5083341115610de8573373ffffffffffffffffffffffffffffffffffffffff166108fc8534610dbb9190614122565b9081150290604051600060405180830381858888f19350505050158015610de6573d6000803e3d6000fd5b505b843373ffffffffffffffffffffffffffffffffffffffff167fa512fb2532ca8587f236380171326ebb69670e86a2ba0c4412a3fcca4c3ada9b60405160405180910390a35050505050565b6060600060085411610e7a576040517f08c379a0000000000000000000000000000000000000000000000000000000008152600401610e7190613f51565b60405180910390fd5b600060085467ffffffffffffffff811115610e9857610e97613493565b5b604051908082528060200260200182016040528015610ed157816020015b610ebe612f99565b815260200190600190039081610eb65790505b50905060005b600854811015610fbd57600060096000600b600085815260200190815260200160002054815260200190815260200160002090508060405180608001604052908160008201548152602001600182015481526020016002820160009054906101000a900473ffffffffffffffffffffffffffffffffffffffff1673ffffffffffffffffffffffffffffffffffffffff1673ffffffffffffffffffffffffffffffffffffffff168152602001600382015481525050838381518110610f9e57610f9d614156565b5b6020026020010181905250508080610fb590614185565b915050610ed7565b508091505090565b610fcd611b5c565b610fd684611bda565b15611016576040517f08c379a000000000000000000000000000000000000000000000000000000000815260040161100d90614219565b60405180910390fd5b60008311611059576040517f08c379a000000000000000000000000000000000000000000000000000000000815260040161105090614285565b60405180910390fd5b600073ffffffffffffffffffffffffffffffffffffffff168273ffffffffffffffffffffffffffffffffffffffff16036110c8576040517f08c379a00000000000000000000000000000000000000000000000000000000081526004016110bf906142f1565b60405180910390fd5b6000811161110b576040517f08c379a00000000000000000000000000000000000000000000000000000000081526004016111029061435d565b60405180910390fd5b83600b600060085481526020019081526020016000208190555061113b600160085461203a90919063ffffffff16565b60088190555060405180608001604052808581526020018481526020018373ffffffffffffffffffffffffffffffffffffffff1681526020018281525060096000868152602001908152602001600020600082015181600001556020820151816001015560408201518160020160006101000a81548173ffffffffffffffffffffffffffffffffffffffff021916908373ffffffffffffffffffffffffffffffffffffffff1602179055506060820151816003015590505050505050565b611201612050565b73ffffffffffffffffffffffffffffffffffffffff168573ffffffffffffffffffffffffffffffffffffffff161480611247575061124685611241612050565b61193a565b5b611286576040517f08c379a000000000000000000000000000000000000000000000000000000000815260040161127d906143ef565b60405180910390fd5b6112938585858585612058565b5050505050565b60096020528060005260406000206000915090508060000154908060010154908060020160009054906101000a900473ffffffffffffffffffffffffffffffffffffffff16908060030154905084565b600760009054906101000a900460ff1681565b60608151835114611343576040517f08c379a000000000000000000000000000000000000000000000000000000000815260040161133a90614481565b60405180910390fd5b6000835167ffffffffffffffff8111156113605761135f613493565b5b60405190808252806020026020018201604052801561138e5781602001602082028036833780820191505090505b50905060005b845181101561140b576113db8582815181106113b3576113b2614156565b5b60200260200101518583815181106113ce576113cd614156565b5b60200260200101516106c9565b8282815181106113ee576113ed614156565b5b6020026020010181815250508061140490614185565b9050611394565b508091505092915050565b61141e611b5c565b600073ffffffffffffffffffffffffffffffffffffffff168173ffffffffffffffffffffffffffffffffffffffff160361148d576040517f08c379a000000000000000000000000000000000000000000000000000000000815260040161148490614513565b60405180910390fd5b6114988160016115f3565b50565b6114a3611b5c565b6114ac81612379565b50565b600c6020528060005260406000206000915090505481565b6114cf611b5c565b600760009054906101000a900460ff1615600760006101000a81548160ff021916908315150217905550565b611503611b5c565b61150b6115c9565b73ffffffffffffffffffffffffffffffffffffffff166108fc479081150290604051600060405180830381858888f19350505050158015611550573d6000803e3d6000fd5b50565b61155b611b5c565b600081101561159f576040517f08c379a00000000000000000000000000000000000000000000000000000000081526004016115969061457f565b60405180910390fd5b8060068190555050565b6115b1611b5c565b6115bb600061238c565b565b60085481565b60065481565b6000600560009054906101000a900473ffffffffffffffffffffffffffffffffffffffff16905090565b6116056115fe612050565b8383612452565b5050565b600b6020528060005260406000206000915090505481565b600061162c82611bda565b61166b576040517f08c379a000000000000000000000000000000000000000000000000000000000815260040161166290613e0d565b60405180910390fd5b600c6000838152602001908152602001600020549050919050565b6060600073ffffffffffffffffffffffffffffffffffffffff168273ffffffffffffffffffffffffffffffffffffffff16036116f7576040517f08c379a00000000000000000000000000000000000000000000000000000000081526004016116ee906142f1565b60405180910390fd5b6000611740600a60008573ffffffffffffffffffffffffffffffffffffffff1673ffffffffffffffffffffffffffffffffffffffff1681526020019081526020016000206125be565b67ffffffffffffffff81111561175957611758613493565b5b60405190808252806020026020018201604052801561179257816020015b61177f612fd7565b8152602001906001900390816117775790505b50905060005b6117df600a60008673ffffffffffffffffffffffffffffffffffffffff1673ffffffffffffffffffffffffffffffffffffffff1681526020019081526020016000206125be565b81101561193057600061183982600a60008873ffffffffffffffffffffffffffffffffffffffff1673ffffffffffffffffffffffffffffffffffffffff1681526020019081526020016000206125d390919063ffffffff16565b90506009600082815260200190815260200160002060405180608001604052908160008201548152602001600182015481526020016002820160009054906101000a900473ffffffffffffffffffffffffffffffffffffffff1673ffffffffffffffffffffffffffffffffffffffff1673ffffffffffffffffffffffffffffffffffffffff1681526020016003820154815250508383815181106118e0576118df614156565b5b6020026020010151600001819052506118f985826106c9565b83838151811061190c5761190b614156565b5b6020026020010151602001818152505050808061192890614185565b915050611798565b5080915050919050565b6000600160008473ffffffffffffffffffffffffffffffffffffffff1673ffffffffffffffffffffffffffffffffffffffff16815260200190815260200160002060008373ffffffffffffffffffffffffffffffffffffffff1673ffffffffffffffffffffffffffffffffffffffff16815260200190815260200160002060009054906101000a900460ff16905092915050565b6119d6612050565b73ffffffffffffffffffffffffffffffffffffffff168573ffffffffffffffffffffffffffffffffffffffff161480611a1c5750611a1b85611a16612050565b61193a565b5b611a5b576040517f08c379a0000000000000000000000000000000000000000000000000000000008152600401611a52906143ef565b60405180910390fd5b611a6885858585856125ed565b5050505050565b611a77611b5c565b600073ffffffffffffffffffffffffffffffffffffffff168173ffffffffffffffffffffffffffffffffffffffff1603611ae6576040517f08c379a0000000000000000000000000000000000000000000000000000000008152600401611add90614611565b60405180910390fd5b611aef8161238c565b50565b60007f01ffc9a7000000000000000000000000000000000000000000000000000000007bffffffffffffffffffffffffffffffffffffffffffffffffffffffff1916827bffffffffffffffffffffffffffffffffffffffffffffffffffffffff1916149050919050565b611b64612050565b73ffffffffffffffffffffffffffffffffffffffff16611b826115c9565b73ffffffffffffffffffffffffffffffffffffffff1614611bd8576040517f08c379a0000000000000000000000000000000000000000000000000000000008152600401611bcf9061467d565b60405180910390fd5b565b6000816009600084815260200190815260200160002060000154149050919050565b60606000600460008481526020019081526020016000208054611c1e906146cc565b80601f0160208091040260200160405190810160405280929190818152602001828054611c4a906146cc565b8015611c975780601f10611c6c57610100808354040283529160200191611c97565b820191906000526020600020905b815481529060010190602001808311611c7a57829003601f168201915b505050505090506000815111611cb557611cb083612888565b611cd9565b600381604051602001611cc9929190614795565b6040516020818303038152906040525b915050919050565b600073ffffffffffffffffffffffffffffffffffffffff168473ffffffffffffffffffffffffffffffffffffffff1603611d50576040517f08c379a0000000000000000000000000000000000000000000000000000000008152600401611d479061482b565b60405180910390fd5b6000611d5a612050565b90506000611d678561291c565b90506000611d748561291c565b9050611d8583600089858589612996565b8460008088815260200190815260200160002060008973ffffffffffffffffffffffffffffffffffffffff1673ffffffffffffffffffffffffffffffffffffffff1681526020019081526020016000206000828254611de4919061484b565b925050819055508673ffffffffffffffffffffffffffffffffffffffff16600073ffffffffffffffffffffffffffffffffffffffff168473ffffffffffffffffffffffffffffffffffffffff167fc3d58168c5ae7397731d063d5bbf3d657854427343f4c083240f7aacaa2d0f628989604051611e6292919061487f565b60405180910390a4611e798360008985858961299e565b611e88836000898989896129a6565b50505050505050565b6000611ea3836000018360001b612b7d565b905092915050565b6000611ebd836000018360001b612ba0565b905092915050565b606060006001611ed484612c10565b01905060008167ffffffffffffffff811115611ef357611ef2613493565b5b6040519080825280601f01601f191660200182016040528015611f255781602001600182028036833780820191505090505b509050600082602001820190505b600115611f88578080600190039150507f3031323334353637383961626364656600000000000000000000000000000000600a86061a8153600a8581611f7c57611f7b6148a8565b5b04945060008503611f33575b819350505050919050565b80600460008481526020019081526020016000209081611fb39190614a6e565b50817f6bb7ff708619ba0610cba295a58592e0451dee2622938c8755667688daf3529b611fdf84610926565b604051611fec91906132c1565b60405180910390a25050565b600081836120069190614122565b905092915050565b6000818361201c9190614b40565b905092915050565b600081836120329190614b82565b905092915050565b60008183612048919061484b565b905092915050565b600033905090565b815183511461209c576040517f08c379a000000000000000000000000000000000000000000000000000000000815260040161209390614c25565b60405180910390fd5b600073ffffffffffffffffffffffffffffffffffffffff168473ffffffffffffffffffffffffffffffffffffffff160361210b576040517f08c379a000000000000000000000000000000000000000000000000000000000815260040161210290614cb7565b60405180910390fd5b6000612115612050565b9050612125818787878787612996565b60005b84518110156122d657600085828151811061214657612145614156565b5b60200260200101519050600085838151811061216557612164614156565b5b60200260200101519050600080600084815260200190815260200160002060008b73ffffffffffffffffffffffffffffffffffffffff1673ffffffffffffffffffffffffffffffffffffffff16815260200190815260200160002054905081811015612206576040517f08c379a00000000000000000000000000000000000000000000000000000000081526004016121fd90614d49565b60405180910390fd5b81810360008085815260200190815260200160002060008c73ffffffffffffffffffffffffffffffffffffffff1673ffffffffffffffffffffffffffffffffffffffff168152602001908152602001600020819055508160008085815260200190815260200160002060008b73ffffffffffffffffffffffffffffffffffffffff1673ffffffffffffffffffffffffffffffffffffffff16815260200190815260200160002060008282546122bb919061484b565b92505081905550505050806122cf90614185565b9050612128565b508473ffffffffffffffffffffffffffffffffffffffff168673ffffffffffffffffffffffffffffffffffffffff168273ffffffffffffffffffffffffffffffffffffffff167f4a39dc06d4c0dbc64b70af90fd698a233a518aa5d07e595d983b8c0526c8f7fb878760405161234d929190614d69565b60405180910390a461236381878787878761299e565b612371818787878787612d63565b505050505050565b80600390816123889190614a6e565b5050565b6000600560009054906101000a900473ffffffffffffffffffffffffffffffffffffffff16905081600560006101000a81548173ffffffffffffffffffffffffffffffffffffffff021916908373ffffffffffffffffffffffffffffffffffffffff1602179055508173ffffffffffffffffffffffffffffffffffffffff168173ffffffffffffffffffffffffffffffffffffffff167f8be0079c531659141344cd1fd0a4f28419497f9722a3daafe3b4186f6b6457e060405160405180910390a35050565b8173ffffffffffffffffffffffffffffffffffffffff168373ffffffffffffffffffffffffffffffffffffffff16036124c0576040517f08c379a00000000000000000000000000000000000000000000000000000000081526004016124b790614e12565b60405180910390fd5b80600160008573ffffffffffffffffffffffffffffffffffffffff1673ffffffffffffffffffffffffffffffffffffffff16815260200190815260200160002060008473ffffffffffffffffffffffffffffffffffffffff1673ffffffffffffffffffffffffffffffffffffffff16815260200190815260200160002060006101000a81548160ff0219169083151502179055508173ffffffffffffffffffffffffffffffffffffffff168373ffffffffffffffffffffffffffffffffffffffff167f17307eab39ab6107e8899845ad3d59bd9653f200f220920489ca2b5937696c31836040516125b191906131a9565b60405180910390a3505050565b60006125cc82600001612f3a565b9050919050565b60006125e28360000183612f4b565b60001c905092915050565b600073ffffffffffffffffffffffffffffffffffffffff168473ffffffffffffffffffffffffffffffffffffffff160361265c576040517f08c379a000000000000000000000000000000000000000000000000000000000815260040161265390614cb7565b60405180910390fd5b6000612666612050565b905060006126738561291c565b905060006126808561291c565b9050612690838989858589612996565b600080600088815260200190815260200160002060008a73ffffffffffffffffffffffffffffffffffffffff1673ffffffffffffffffffffffffffffffffffffffff16815260200190815260200160002054905085811015612727576040517f08c379a000000000000000000000000000000000000000000000000000000000815260040161271e90614d49565b60405180910390fd5b85810360008089815260200190815260200160002060008b73ffffffffffffffffffffffffffffffffffffffff1673ffffffffffffffffffffffffffffffffffffffff168152602001908152602001600020819055508560008089815260200190815260200160002060008a73ffffffffffffffffffffffffffffffffffffffff1673ffffffffffffffffffffffffffffffffffffffff16815260200190815260200160002060008282546127dc919061484b565b925050819055508773ffffffffffffffffffffffffffffffffffffffff168973ffffffffffffffffffffffffffffffffffffffff168573ffffffffffffffffffffffffffffffffffffffff167fc3d58168c5ae7397731d063d5bbf3d657854427343f4c083240f7aacaa2d0f628a8a60405161285992919061487f565b60405180910390a461286f848a8a86868a61299e565b61287d848a8a8a8a8a6129a6565b505050505050505050565b606060028054612897906146cc565b80601f01602080910402602001604051908101604052809291908181526020018280546128c3906146cc565b80156129105780601f106128e557610100808354040283529160200191612910565b820191906000526020600020905b8154815290600101906020018083116128f357829003601f168201915b50505050509050919050565b60606000600167ffffffffffffffff81111561293b5761293a613493565b5b6040519080825280602002602001820160405280156129695781602001602082028036833780820191505090505b509050828160008151811061298157612980614156565b5b60200260200101818152505080915050919050565b505050505050565b505050505050565b6129c58473ffffffffffffffffffffffffffffffffffffffff16612f76565b15612b75578373ffffffffffffffffffffffffffffffffffffffff1663f23a6e6187878686866040518663ffffffff1660e01b8152600401612a0b959493929190614e87565b6020604051808303816000875af1925050508015612a4757506040513d601f19601f82011682018060405250810190612a449190614ef6565b60015b612aec57612a53614f30565b806308c379a003612aaf5750612a67614f52565b80612a725750612ab1565b806040517f08c379a0000000000000000000000000000000000000000000000000000000008152600401612aa691906132c1565b60405180910390fd5b505b6040517f08c379a0000000000000000000000000000000000000000000000000000000008152600401612ae390615054565b60405180910390fd5b63f23a6e6160e01b7bffffffffffffffffffffffffffffffffffffffffffffffffffffffff1916817bffffffffffffffffffffffffffffffffffffffffffffffffffffffff191614612b73576040517f08c379a0000000000000000000000000000000000000000000000000000000008152600401612b6a906150e6565b60405180910390fd5b505b505050505050565b600080836001016000848152602001908152602001600020541415905092915050565b6000612bac8383612b7d565b612c05578260000182908060018154018082558091505060019003906000526020600020016000909190919091505582600001805490508360010160008481526020019081526020016000208190555060019050612c0a565b600090505b92915050565b600080600090507a184f03e93ff9f4daa797ed6e38ed64bf6a1f0100000000000000008310612c6e577a184f03e93ff9f4daa797ed6e38ed64bf6a1f0100000000000000008381612c6457612c636148a8565b5b0492506040810190505b6d04ee2d6d415b85acef81000000008310612cab576d04ee2d6d415b85acef81000000008381612ca157612ca06148a8565b5b0492506020810190505b662386f26fc100008310612cda57662386f26fc100008381612cd057612ccf6148a8565b5b0492506010810190505b6305f5e1008310612d03576305f5e1008381612cf957612cf86148a8565b5b0492506008810190505b6127108310612d28576127108381612d1e57612d1d6148a8565b5b0492506004810190505b60648310612d4b5760648381612d4157612d406148a8565b5b0492506002810190505b600a8310612d5a576001810190505b80915050919050565b612d828473ffffffffffffffffffffffffffffffffffffffff16612f76565b15612f32578373ffffffffffffffffffffffffffffffffffffffff1663bc197c8187878686866040518663ffffffff1660e01b8152600401612dc8959493929190615106565b6020604051808303816000875af1925050508015612e0457506040513d601f19601f82011682018060405250810190612e019190614ef6565b60015b612ea957612e10614f30565b806308c379a003612e6c5750612e24614f52565b80612e2f5750612e6e565b806040517f08c379a0000000000000000000000000000000000000000000000000000000008152600401612e6391906132c1565b60405180910390fd5b505b6040517f08c379a0000000000000000000000000000000000000000000000000000000008152600401612ea090615054565b60405180910390fd5b63bc197c8160e01b7bffffffffffffffffffffffffffffffffffffffffffffffffffffffff1916817bffffffffffffffffffffffffffffffffffffffffffffffffffffffff191614612f30576040517f08c379a0000000000000000000000000000000000000000000000000000000008152600401612f27906150e6565b60405180910390fd5b505b505050505050565b600081600001805490509050919050565b6000826000018281548110612f6357612f62614156565b5b9060005260206000200154905092915050565b6000808273ffffffffffffffffffffffffffffffffffffffff163b119050919050565b60405180608001604052806000815260200160008152602001600073ffffffffffffffffffffffffffffffffffffffff168152602001600081525090565b6040518060400160405280612fea612f99565b8152602001600081525090565b6000604051905090565b600080fd5b600080fd5b600073ffffffffffffffffffffffffffffffffffffffff82169050919050565b60006130368261300b565b9050919050565b6130468161302b565b811461305157600080fd5b50565b6000813590506130638161303d565b92915050565b6000819050919050565b61307c81613069565b811461308757600080fd5b50565b60008135905061309981613073565b92915050565b600080604083850312156130b6576130b5613001565b5b60006130c485828601613054565b92505060206130d58582860161308a565b9150509250929050565b6130e881613069565b82525050565b600060208201905061310360008301846130df565b92915050565b60007fffffffff0000000000000000000000000000000000000000000000000000000082169050919050565b61313e81613109565b811461314957600080fd5b50565b60008135905061315b81613135565b92915050565b60006020828403121561317757613176613001565b5b60006131858482850161314c565b91505092915050565b60008115159050919050565b6131a38161318e565b82525050565b60006020820190506131be600083018461319a565b92915050565b600080604083850312156131db576131da613001565b5b60006131e98582860161308a565b92505060206131fa8582860161308a565b9150509250929050565b60006020828403121561321a57613219613001565b5b60006132288482850161308a565b91505092915050565b600081519050919050565b600082825260208201905092915050565b60005b8381101561326b578082015181840152602081019050613250565b60008484015250505050565b6000601f19601f8301169050919050565b600061329382613231565b61329d818561323c565b93506132ad81856020860161324d565b6132b681613277565b840191505092915050565b600060208201905081810360008301526132db8184613288565b905092915050565b600081519050919050565b600082825260208201905092915050565b6000819050602082019050919050565b61331881613069565b82525050565b6133278161302b565b82525050565b608082016000820151613343600085018261330f565b506020820151613356602085018261330f565b506040820151613369604085018261331e565b50606082015161337c606085018261330f565b50505050565b600061338e838361332d565b60808301905092915050565b6000602082019050919050565b60006133b2826132e3565b6133bc81856132ee565b93506133c7836132ff565b8060005b838110156133f85781516133df8882613382565b97506133ea8361339a565b9250506001810190506133cb565b5085935050505092915050565b6000602082019050818103600083015261341f81846133a7565b905092915050565b6000806000806080858703121561344157613440613001565b5b600061344f8782880161308a565b94505060206134608782880161308a565b935050604061347187828801613054565b92505060606134828782880161308a565b91505092959194509250565b600080fd5b7f4e487b7100000000000000000000000000000000000000000000000000000000600052604160045260246000fd5b6134cb82613277565b810181811067ffffffffffffffff821117156134ea576134e9613493565b5b80604052505050565b60006134fd612ff7565b905061350982826134c2565b919050565b600067ffffffffffffffff82111561352957613528613493565b5b602082029050602081019050919050565b600080fd5b600061355261354d8461350e565b6134f3565b905080838252602082019050602084028301858111156135755761357461353a565b5b835b8181101561359e578061358a888261308a565b845260208401935050602081019050613577565b5050509392505050565b600082601f8301126135bd576135bc61348e565b5b81356135cd84826020860161353f565b91505092915050565b600080fd5b600067ffffffffffffffff8211156135f6576135f5613493565b5b6135ff82613277565b9050602081019050919050565b82818337600083830152505050565b600061362e613629846135db565b6134f3565b90508281526020810184848401111561364a576136496135d6565b5b61365584828561360c565b509392505050565b600082601f8301126136725761367161348e565b5b813561368284826020860161361b565b91505092915050565b600080600080600060a086880312156136a7576136a6613001565b5b60006136b588828901613054565b95505060206136c688828901613054565b945050604086013567ffffffffffffffff8111156136e7576136e6613006565b5b6136f3888289016135a8565b935050606086013567ffffffffffffffff81111561371457613713613006565b5b613720888289016135a8565b925050608086013567ffffffffffffffff81111561374157613740613006565b5b61374d8882890161365d565b9150509295509295909350565b6137638161302b565b82525050565b600060808201905061377e60008301876130df565b61378b60208301866130df565b613798604083018561375a565b6137a560608301846130df565b95945050505050565b600067ffffffffffffffff8211156137c9576137c8613493565b5b602082029050602081019050919050565b60006137ed6137e8846137ae565b6134f3565b905080838252602082019050602084028301858111156138105761380f61353a565b5b835b8181101561383957806138258882613054565b845260208401935050602081019050613812565b5050509392505050565b600082601f8301126138585761385761348e565b5b81356138688482602086016137da565b91505092915050565b6000806040838503121561388857613887613001565b5b600083013567ffffffffffffffff8111156138a6576138a5613006565b5b6138b285828601613843565b925050602083013567ffffffffffffffff8111156138d3576138d2613006565b5b6138df858286016135a8565b9150509250929050565b600081519050919050565b600082825260208201905092915050565b6000819050602082019050919050565b6000613921838361330f565b60208301905092915050565b6000602082019050919050565b6000613945826138e9565b61394f81856138f4565b935061395a83613905565b8060005b8381101561398b5781516139728882613915565b975061397d8361392d565b92505060018101905061395e565b5085935050505092915050565b600060208201905081810360008301526139b2818461393a565b905092915050565b6000602082840312156139d0576139cf613001565b5b60006139de84828501613054565b91505092915050565b600067ffffffffffffffff821115613a0257613a01613493565b5b613a0b82613277565b9050602081019050919050565b6000613a2b613a26846139e7565b6134f3565b905082815260208101848484011115613a4757613a466135d6565b5b613a5284828561360c565b509392505050565b600082601f830112613a6f57613a6e61348e565b5b8135613a7f848260208601613a18565b91505092915050565b600060208284031215613a9e57613a9d613001565b5b600082013567ffffffffffffffff811115613abc57613abb613006565b5b613ac884828501613a5a565b91505092915050565b6000602082019050613ae6600083018461375a565b92915050565b613af58161318e565b8114613b0057600080fd5b50565b600081359050613b1281613aec565b92915050565b60008060408385031215613b2f57613b2e613001565b5b6000613b3d85828601613054565b9250506020613b4e85828601613b03565b9150509250929050565b600081519050919050565b600082825260208201905092915050565b6000819050602082019050919050565b60a082016000820151613b9a600085018261332d565b506020820151613bad608085018261330f565b50505050565b6000613bbf8383613b84565b60a08301905092915050565b6000602082019050919050565b6000613be382613b58565b613bed8185613b63565b9350613bf883613b74565b8060005b83811015613c29578151613c108882613bb3565b9750613c1b83613bcb565b925050600181019050613bfc565b5085935050505092915050565b60006020820190508181036000830152613c508184613bd8565b905092915050565b60008060408385031215613c6f57613c6e613001565b5b6000613c7d85828601613054565b9250506020613c8e85828601613054565b9150509250929050565b600080600080600060a08688031215613cb457613cb3613001565b5b6000613cc288828901613054565b9550506020613cd388828901613054565b9450506040613ce48882890161308a565b9350506060613cf58882890161308a565b925050608086013567ffffffffffffffff811115613d1657613d15613006565b5b613d228882890161365d565b9150509295509295909350565b7f455243313135353a2061646472657373207a65726f206973206e6f742061207660008201527f616c6964206f776e657200000000000000000000000000000000000000000000602082015250565b6000613d8b602a8361323c565b9150613d9682613d2f565b604082019050919050565b60006020820190508181036000830152613dba81613d7e565b9050919050565b7f47616d65204944206d7573742062652063726561746564000000000000000000600082015250565b6000613df760178361323c565b9150613e0282613dc1565b602082019050919050565b60006020820190508181036000830152613e2681613dea565b9050919050565b7f546865207072696365206d75737420626520706f736974697665000000000000600082015250565b6000613e63601a8361323c565b9150613e6e82613e2d565b602082019050919050565b60006020820190508181036000830152613e9281613e56565b9050919050565b7f4d696e74206d7573742062652061637469766520746f206d696e740000000000600082015250565b6000613ecf601b8361323c565b9150613eda82613e99565b602082019050919050565b60006020820190508181036000830152613efe81613ec2565b9050919050565b7f4e6f2067616d6573206372656174656400000000000000000000000000000000600082015250565b6000613f3b60108361323c565b9150613f4682613f05565b602082019050919050565b60006020820190508181036000830152613f6a81613f2e565b9050919050565b7f496e73756666696369656e742066756e64730000000000000000000000000000600082015250565b6000613fa760128361323c565b9150613fb282613f71565b602082019050919050565b60006020820190508181036000830152613fd681613f9a565b9050919050565b7f496e73756666696369656e7420737570706c792e2049742773206f7665722e00600082015250565b6000614013601f8361323c565b915061401e82613fdd565b602082019050919050565b6000602082019050818103600083015261404281614006565b9050919050565b600081905092915050565b600061405f82613231565b6140698185614049565b935061407981856020860161324d565b80840191505092915050565b7f2e6a736f6e000000000000000000000000000000000000000000000000000000600082015250565b60006140bb600583614049565b91506140c682614085565b600582019050919050565b60006140dd8284614054565b91506140e8826140ae565b915081905092915050565b7f4e487b7100000000000000000000000000000000000000000000000000000000600052601160045260246000fd5b600061412d82613069565b915061413883613069565b92508282039050818111156141505761414f6140f3565b5b92915050565b7f4e487b7100000000000000000000000000000000000000000000000000000000600052603260045260246000fd5b600061419082613069565b91507fffffffffffffffffffffffffffffffffffffffffffffffffffffffffffffffff82036141c2576141c16140f3565b5b600182019050919050565b7f546f6b656e20494420616c726561647920657869737473000000000000000000600082015250565b600061420360178361323c565b915061420e826141cd565b602082019050919050565b60006020820190508181036000830152614232816141f6565b9050919050565b7f496e76616c696420707269636500000000000000000000000000000000000000600082015250565b600061426f600d8361323c565b915061427a82614239565b602082019050919050565b6000602082019050818103600083015261429e81614262565b9050919050565b7f496e76616c696420616464726573730000000000000000000000000000000000600082015250565b60006142db600f8361323c565b91506142e6826142a5565b602082019050919050565b6000602082019050818103600083015261430a816142ce565b9050919050565b7f496e76616c696420737570706c79000000000000000000000000000000000000600082015250565b6000614347600e8361323c565b915061435282614311565b602082019050919050565b600060208201905081810360008301526143768161433a565b9050919050565b7f455243313135353a2063616c6c6572206973206e6f7420746f6b656e206f776e60008201527f6572206f7220617070726f766564000000000000000000000000000000000000602082015250565b60006143d9602e8361323c565b91506143e48261437d565b604082019050919050565b60006020820190508181036000830152614408816143cc565b9050919050565b7f455243313135353a206163636f756e747320616e6420696473206c656e67746860008201527f206d69736d617463680000000000000000000000000000000000000000000000602082015250565b600061446b60298361323c565b91506144768261440f565b604082019050919050565b6000602082019050818103600083015261449a8161445e565b9050919050565b7f546865206d61726b6574706c616365206164647265737320697320696e636f7260008201527f7265637400000000000000000000000000000000000000000000000000000000602082015250565b60006144fd60248361323c565b9150614508826144a1565b604082019050919050565b6000602082019050818103600083015261452c816144f0565b9050919050565b7f4d757374206265206120706f736974697665206e756d62657200000000000000600082015250565b600061456960198361323c565b915061457482614533565b602082019050919050565b600060208201905081810360008301526145988161455c565b9050919050565b7f4f776e61626c653a206e6577206f776e657220697320746865207a65726f206160008201527f6464726573730000000000000000000000000000000000000000000000000000602082015250565b60006145fb60268361323c565b91506146068261459f565b604082019050919050565b6000602082019050818103600083015261462a816145ee565b9050919050565b7f4f776e61626c653a2063616c6c6572206973206e6f7420746865206f776e6572600082015250565b600061466760208361323c565b915061467282614631565b602082019050919050565b600060208201905081810360008301526146968161465a565b9050919050565b7f4e487b7100000000000000000000000000000000000000000000000000000000600052602260045260246000fd5b600060028204905060018216806146e457607f821691505b6020821081036146f7576146f661469d565b5b50919050565b60008190508160005260206000209050919050565b6000815461471f816146cc565b6147298186614049565b9450600182166000811461474457600181146147595761478c565b60ff198316865281151582028601935061478c565b614762856146fd565b60005b8381101561478457815481890152600182019150602081019050614765565b838801955050505b50505092915050565b60006147a18285614712565b91506147ad8284614054565b91508190509392505050565b7f455243313135353a206d696e7420746f20746865207a65726f2061646472657360008201527f7300000000000000000000000000000000000000000000000000000000000000602082015250565b600061481560218361323c565b9150614820826147b9565b604082019050919050565b6000602082019050818103600083015261484481614808565b9050919050565b600061485682613069565b915061486183613069565b9250828201905080821115614879576148786140f3565b5b92915050565b600060408201905061489460008301856130df565b6148a160208301846130df565b9392505050565b7f4e487b7100000000000000000000000000000000000000000000000000000000600052601260045260246000fd5b60006020601f8301049050919050565b600082821b905092915050565b6000600883026149247fffffffffffffffffffffffffffffffffffffffffffffffffffffffffffffffff826148e7565b61492e86836148e7565b95508019841693508086168417925050509392505050565b6000819050919050565b600061496b61496661496184613069565b614946565b613069565b9050919050565b6000819050919050565b61498583614950565b61499961499182614972565b8484546148f4565b825550505050565b600090565b6149ae6149a1565b6149b981848461497c565b505050565b5b818110156149dd576149d26000826149a6565b6001810190506149bf565b5050565b601f821115614a22576149f3816146fd565b6149fc846148d7565b81016020851015614a0b578190505b614a1f614a17856148d7565b8301826149be565b50505b505050565b600082821c905092915050565b6000614a4560001984600802614a27565b1980831691505092915050565b6000614a5e8383614a34565b9150826002028217905092915050565b614a7782613231565b67ffffffffffffffff811115614a9057614a8f613493565b5b614a9a82546146cc565b614aa58282856149e1565b600060209050601f831160018114614ad85760008415614ac6578287015190505b614ad08582614a52565b865550614b38565b601f198416614ae6866146fd565b60005b82811015614b0e57848901518255600182019150602085019450602081019050614ae9565b86831015614b2b5784890151614b27601f891682614a34565b8355505b6001600288020188555050505b505050505050565b6000614b4b82613069565b9150614b5683613069565b9250828202614b6481613069565b91508282048414831517614b7b57614b7a6140f3565b5b5092915050565b6000614b8d82613069565b9150614b9883613069565b925082614ba857614ba76148a8565b5b828204905092915050565b7f455243313135353a2069647320616e6420616d6f756e7473206c656e6774682060008201527f6d69736d61746368000000000000000000000000000000000000000000000000602082015250565b6000614c0f60288361323c565b9150614c1a82614bb3565b604082019050919050565b60006020820190508181036000830152614c3e81614c02565b9050919050565b7f455243313135353a207472616e7366657220746f20746865207a65726f20616460008201527f6472657373000000000000000000000000000000000000000000000000000000602082015250565b6000614ca160258361323c565b9150614cac82614c45565b604082019050919050565b60006020820190508181036000830152614cd081614c94565b9050919050565b7f455243313135353a20696e73756666696369656e742062616c616e636520666f60008201527f72207472616e7366657200000000000000000000000000000000000000000000602082015250565b6000614d33602a8361323c565b9150614d3e82614cd7565b604082019050919050565b60006020820190508181036000830152614d6281614d26565b9050919050565b60006040820190508181036000830152614d83818561393a565b90508181036020830152614d97818461393a565b90509392505050565b7f455243313135353a2073657474696e6720617070726f76616c2073746174757360008201527f20666f722073656c660000000000000000000000000000000000000000000000602082015250565b6000614dfc60298361323c565b9150614e0782614da0565b604082019050919050565b60006020820190508181036000830152614e2b81614def565b9050919050565b600081519050919050565b600082825260208201905092915050565b6000614e5982614e32565b614e638185614e3d565b9350614e7381856020860161324d565b614e7c81613277565b840191505092915050565b600060a082019050614e9c600083018861375a565b614ea9602083018761375a565b614eb660408301866130df565b614ec360608301856130df565b8181036080830152614ed58184614e4e565b90509695505050505050565b600081519050614ef081613135565b92915050565b600060208284031215614f0c57614f0b613001565b5b6000614f1a84828501614ee1565b91505092915050565b60008160e01c9050919050565b600060033d1115614f4f5760046000803e614f4c600051614f23565b90505b90565b600060443d10614fdf57614f64612ff7565b60043d036004823e80513d602482011167ffffffffffffffff82111715614f8c575050614fdf565b808201805167ffffffffffffffff811115614faa5750505050614fdf565b80602083010160043d038501811115614fc7575050505050614fdf565b614fd6826020018501866134c2565b82955050505050505b90565b7f455243313135353a207472616e7366657220746f206e6f6e2d4552433131353560008201527f526563656976657220696d706c656d656e746572000000000000000000000000602082015250565b600061503e60348361323c565b915061504982614fe2565b604082019050919050565b6000602082019050818103600083015261506d81615031565b9050919050565b7f455243313135353a204552433131353552656365697665722072656a6563746560008201527f6420746f6b656e73000000000000000000000000000000000000000000000000602082015250565b60006150d060288361323c565b91506150db82615074565b604082019050919050565b600060208201905081810360008301526150ff816150c3565b9050919050565b600060a08201905061511b600083018861375a565b615128602083018761375a565b818103604083015261513a818661393a565b9050818103606083015261514e818561393a565b905081810360808301526151628184614e4e565b9050969550505050505056fea2646970667358221220081e5afd3646313c2b7d54942cb2f74a1f157eab6745b359c29e3b2e9013677064736f6c63430008130033",
  "immutableReferences": {},
  "source": "// SPDX-License-Identifier: MIT\npragma solidity >=0.8.0 <0.9.0;\n\nimport \"@openzeppelin/contracts/token/ERC1155/ERC1155.sol\";\nimport \"@openzeppelin/contracts/token/ERC1155/extensions/ERC1155URIStorage.sol\";\nimport \"@openzeppelin/contracts/access/Ownable.sol\";\nimport \"@openzeppelin/contracts/utils/structs/EnumerableSet.sol\";\nimport \"@openzeppelin/contracts/utils/math/SafeMath.sol\";\nimport \"@openzeppelin/contracts/utils/Strings.sol\";\n\n\ncontract TOKENPLAY is ERC1155, ERC1155URIStorage, Ownable {\n    using SafeMath for uint256;\n    using Strings for uint256;\n    using EnumerableSet for EnumerableSet.UintSet;\n\n    uint256 public royaltyPercentage = 10; // % royalties\n    bool public mintIsActive = false;\n\n    // Estructura para guardar los datos relevantes del NFT\n    struct NftGameInfo {\n        uint256 tokenId;\n        uint256 price;\n        address gameOwnerAddress;\n        uint256 supply;\n    }\n\n    // Estructura para devolver los juegos que ha comprado un usuario y la cantidad que tiene de cada juego\n    struct PurchasedNft {\n        NftGameInfo game;\n        uint256 qty;\n    }\n\n    constructor(string memory _baseURI) ERC1155(_baseURI) {\n        _setBaseURI(_baseURI);\n    }\n\n    // Contador autoincremental, cada nmero ser un juego (token)\n    uint256 public nextTokenId = 0;\n\n    // Estructura, donde por cada juego definiremos el precio\n    mapping(uint256 => NftGameInfo) public gamesInfo;\n    mapping(address => EnumerableSet.UintSet) private purchasedNFTs;\n\n    // Contador de juegos\n    mapping(uint256 => uint256) public nGames;\n\n    // Estructura para definir el supply de cada juego\n    mapping(uint256 => uint256) public _totalSupply;\n\n    // Evento para notificar que se ha realizado el mint\n    event Purchased(address indexed minter, uint256 indexed tokenId);\n\n    // Funcin para comprobar que existe el token\n    function _exists(uint256 tokenTest) internal view virtual returns (bool) {\n        return gamesInfo[tokenTest].tokenId == tokenTest;\n    }\n\n    // Funcin para aadir un juego (crear un token)\n    function addNFT(uint256 tokenId,uint256 price, address gameOwnerAddress, uint256 supply ) external onlyOwner {\n        require(!_exists(tokenId), \"Token ID already exists\");\n        require(price > 0, \"Invalid price\");\n        require( gameOwnerAddress != address(0), \"Invalid address\");\n        require(supply > 0, \"Invalid supply\");\n\n        // Contabilizamos el juego aadido\n        nGames[nextTokenId] = tokenId;\n        nextTokenId = nextTokenId.add(1);\n\n        gamesInfo[tokenId] = NftGameInfo(tokenId, price, gameOwnerAddress, supply);\n\n    }\n\n    // Funcin para comprar un juego (un token)\n    function purchaseNFT(uint256 tokenId) external payable {\n        require(mintIsActive, \"Mint must be active to mint\");\n        require(nextTokenId > 0, \"No games created\");\n        require(_exists(tokenId), \"Game ID must be created\");\n        uint256 price = gamesInfo[tokenId].price;\n        require(msg.value >= price, \"Insufficient funds\"); \n        require(gamesInfo[tokenId].supply > 0, \"Insufficient supply. It's over.\");\n\n        // Minteamos el NFT al comprador y registramos al array de juegos que tiene comprados (si el Id ya existe no lo registramos de nuevo)\n        _mint(msg.sender, tokenId, 1, \"\");\n        if (!purchasedNFTs[msg.sender].contains(tokenId)) {\n            purchasedNFTs[msg.sender].add(tokenId);\n        }\n\n        // Asignamos el URI al juego con el ID y la extensin\n        _setURI(tokenId, string(abi.encodePacked(tokenId.toString(), \".json\")));\n\n        // Restamos del supply total el juego comprado\n        gamesInfo[tokenId].supply = gamesInfo[tokenId].supply.sub(1);\n        // Guardamos el supply del NFT\n        _totalSupply[tokenId] = gamesInfo[tokenId].supply;\n\n\n        // Calculamos los porcentajes que se lleva cada parte y hacemos la transferencia de los tokens\n        uint256 paymentAmount = price;\n        uint256 tokenPlay = paymentAmount.mul(royaltyPercentage).div(100); // royaltypercentage para token play\n        uint256 gameOwner = paymentAmount.sub(tokenPlay);  // el restante para game owner\n\n        payable(owner()).transfer(tokenPlay);\n        payable(gamesInfo[tokenId].gameOwnerAddress).transfer(gameOwner);\n\n        // Si el usuario ha pagado de mas, le devolvemos el dinero\n        if (msg.value > price) {\n            payable(msg.sender).transfer(msg.value - price);\n        }\n\n        emit Purchased(msg.sender, tokenId);\n    }\n    \n    // Funcion para obtener los juegos que ha comprado un usuario\n    function getPurchasedNFTs(address account) external view returns (PurchasedNft[] memory) {\n        require( account != address(0), \"Invalid address\");\n\n        PurchasedNft[] memory accountGames = new PurchasedNft[](purchasedNFTs[account].length());\n\n        for (uint256 i = 0; i < purchasedNFTs[account].length(); i++) {\n            uint256 id = purchasedNFTs[account].at(i);\n            accountGames[i].game = gamesInfo[id];\n            accountGames[i].qty = balanceOf(account, id);\n        }\n\n        return accountGames;\n    }\n    \n    // Funcin para obtener todos los juegos disponibles\n    function getNFTs() external view returns (NftGameInfo[] memory) {\n        require(nextTokenId > 0, \"No games created\");\n\n        NftGameInfo[] memory allNFTs = new NftGameInfo[](nextTokenId);\n\n        for (uint256 i = 0; i < nextTokenId; i++) {\n            NftGameInfo storage nftInfo = gamesInfo[nGames[i]]; \n            allNFTs[i] = nftInfo;\n        }\n\n        return allNFTs;\n    }\n    \n    // Funcin para que el propietario retire los fondos acumulados\n    function withdrawBalance() external onlyOwner {\n        payable(owner()).transfer(address(this).balance);\n    }\n\n    // Funcin para cambiar el porcentaje de royalty que nos llevamos\n    function setRoyaltyPercentage(uint256 percentage) public onlyOwner {\n        require(percentage >= 0, \"Must be a positive number\");\n        royaltyPercentage = percentage;\n    }\n\n    // Funcion para cambiar el precio del juego\n    function setMintPrice(uint256 tokenId, uint256 _mintPrice) public onlyOwner {\n        require(_exists(tokenId), \"Game ID must be created\");\n        require(_mintPrice >= 0, \"The price must be positive\");\n        gamesInfo[tokenId].price = _mintPrice;\n    }\n\n    // Funcion para saber el supply de un juego\n    function totalSupply(uint256 tokenId) public view returns (uint256) {\n        require(_exists(tokenId), \"Game ID must be created\");\n        return _totalSupply[tokenId];\n    }\n\n    // Funcin para activar o desactivar la compra de juegos (tokens)\n    function flipMintState() public onlyOwner {\n        mintIsActive = ! mintIsActive;\n    }\n\n    // Funcion para obtener el URI de un juego\n    function uri(uint256 tokenId) public view virtual override(ERC1155, ERC1155URIStorage) returns (string memory) {\n        require(_exists(tokenId), \"Game ID must be created\");\n\n        return super.uri(tokenId);\n    }\n\n    // Funcin para modificar el URI del juego\n    function setBaseURI(string memory baseURI) public onlyOwner {\n        _setBaseURI(baseURI);\n    }\n\n    // Funcion para dar de alta el mercado secundario\n    function approveMarketplace(address marketplace) external onlyOwner{\n        require(marketplace != address(0), \"The marketplace address is incorrect\");\n        setApprovalForAll(marketplace, true);\n    }\n\n}\n",
  "sourcePath": "C:\\Users\\User\\Desktop\\PC\\2_Master\\BSM_Engineering\\TFM\\DAPP\\dapp\\contracts\\TOKENPLAY.sol",
  "compiler": {
    "name": "solc",
    "version": "0.8.19+commit.7dd6d404.Emscripten.clang"
  },
  "schemaVersion": "3.4.14",
  "updatedAt": "2023-08-22T11:32:43.378Z",
  "networkType": "ethereum",
  "devdoc": {
    "events": {
      "ApprovalForAll(address,address,bool)": {
        "details": "Emitted when `account` grants or revokes permission to `operator` to transfer their tokens, according to `approved`."
      },
      "TransferBatch(address,address,address,uint256[],uint256[])": {
        "details": "Equivalent to multiple {TransferSingle} events, where `operator`, `from` and `to` are the same for all transfers."
      },
      "TransferSingle(address,address,address,uint256,uint256)": {
        "details": "Emitted when `value` tokens of token type `id` are transferred from `from` to `to` by `operator`."
      },
      "URI(string,uint256)": {
        "details": "Emitted when the URI for token type `id` changes to `value`, if it is a non-programmatic URI. If an {URI} event was emitted for `id`, the standard https://eips.ethereum.org/EIPS/eip-1155#metadata-extensions[guarantees] that `value` will equal the value returned by {IERC1155MetadataURI-uri}."
      }
    },
    "kind": "dev",
    "methods": {
      "balanceOf(address,uint256)": {
        "details": "See {IERC1155-balanceOf}. Requirements: - `account` cannot be the zero address."
      },
      "balanceOfBatch(address[],uint256[])": {
        "details": "See {IERC1155-balanceOfBatch}. Requirements: - `accounts` and `ids` must have the same length."
      },
      "isApprovedForAll(address,address)": {
        "details": "See {IERC1155-isApprovedForAll}."
      },
      "owner()": {
        "details": "Returns the address of the current owner."
      },
      "renounceOwnership()": {
        "details": "Leaves the contract without owner. It will not be possible to call `onlyOwner` functions. Can only be called by the current owner. NOTE: Renouncing ownership will leave the contract without an owner, thereby disabling any functionality that is only available to the owner."
      },
      "safeBatchTransferFrom(address,address,uint256[],uint256[],bytes)": {
        "details": "See {IERC1155-safeBatchTransferFrom}."
      },
      "safeTransferFrom(address,address,uint256,uint256,bytes)": {
        "details": "See {IERC1155-safeTransferFrom}."
      },
      "setApprovalForAll(address,bool)": {
        "details": "See {IERC1155-setApprovalForAll}."
      },
      "supportsInterface(bytes4)": {
        "details": "See {IERC165-supportsInterface}."
      },
      "transferOwnership(address)": {
        "details": "Transfers ownership of the contract to a new account (`newOwner`). Can only be called by the current owner."
      }
    },
    "version": 1
  },
  "userdoc": {
    "kind": "user",
    "methods": {},
    "version": 1
  }
}