{
  "contractName": "TOKENPLAY",
  "abi": [
    {
      "inputs": [
        {
          "internalType": "string",
          "name": "_baseURI",
          "type": "string"
        }
      ],
      "stateMutability": "nonpayable",
      "type": "constructor"
    },
    {
      "anonymous": false,
      "inputs": [
        {
          "indexed": true,
          "internalType": "address",
          "name": "account",
          "type": "address"
        },
        {
          "indexed": true,
          "internalType": "address",
          "name": "operator",
          "type": "address"
        },
        {
          "indexed": false,
          "internalType": "bool",
          "name": "approved",
          "type": "bool"
        }
      ],
      "name": "ApprovalForAll",
      "type": "event"
    },
    {
      "anonymous": false,
      "inputs": [
        {
          "indexed": true,
          "internalType": "address",
          "name": "previousOwner",
          "type": "address"
        },
        {
          "indexed": true,
          "internalType": "address",
          "name": "newOwner",
          "type": "address"
        }
      ],
      "name": "OwnershipTransferred",
      "type": "event"
    },
    {
      "anonymous": false,
      "inputs": [
        {
          "indexed": true,
          "internalType": "address",
          "name": "minter",
          "type": "address"
        },
        {
          "indexed": true,
          "internalType": "uint256",
          "name": "tokenId",
          "type": "uint256"
        }
      ],
      "name": "Purchased",
      "type": "event"
    },
    {
      "anonymous": false,
      "inputs": [
        {
          "indexed": true,
          "internalType": "address",
          "name": "operator",
          "type": "address"
        },
        {
          "indexed": true,
          "internalType": "address",
          "name": "from",
          "type": "address"
        },
        {
          "indexed": true,
          "internalType": "address",
          "name": "to",
          "type": "address"
        },
        {
          "indexed": false,
          "internalType": "uint256[]",
          "name": "ids",
          "type": "uint256[]"
        },
        {
          "indexed": false,
          "internalType": "uint256[]",
          "name": "values",
          "type": "uint256[]"
        }
      ],
      "name": "TransferBatch",
      "type": "event"
    },
    {
      "anonymous": false,
      "inputs": [
        {
          "indexed": true,
          "internalType": "address",
          "name": "operator",
          "type": "address"
        },
        {
          "indexed": true,
          "internalType": "address",
          "name": "from",
          "type": "address"
        },
        {
          "indexed": true,
          "internalType": "address",
          "name": "to",
          "type": "address"
        },
        {
          "indexed": false,
          "internalType": "uint256",
          "name": "id",
          "type": "uint256"
        },
        {
          "indexed": false,
          "internalType": "uint256",
          "name": "value",
          "type": "uint256"
        }
      ],
      "name": "TransferSingle",
      "type": "event"
    },
    {
      "anonymous": false,
      "inputs": [
        {
          "indexed": false,
          "internalType": "string",
          "name": "value",
          "type": "string"
        },
        {
          "indexed": true,
          "internalType": "uint256",
          "name": "id",
          "type": "uint256"
        }
      ],
      "name": "URI",
      "type": "event"
    },
    {
      "inputs": [
        {
          "internalType": "uint256",
          "name": "",
          "type": "uint256"
        }
      ],
      "name": "_totalSupply",
      "outputs": [
        {
          "internalType": "uint256",
          "name": "",
          "type": "uint256"
        }
      ],
      "stateMutability": "view",
      "type": "function",
      "constant": true
    },
    {
      "inputs": [
        {
          "internalType": "address",
          "name": "account",
          "type": "address"
        },
        {
          "internalType": "uint256",
          "name": "id",
          "type": "uint256"
        }
      ],
      "name": "balanceOf",
      "outputs": [
        {
          "internalType": "uint256",
          "name": "",
          "type": "uint256"
        }
      ],
      "stateMutability": "view",
      "type": "function",
      "constant": true
    },
    {
      "inputs": [
        {
          "internalType": "address[]",
          "name": "accounts",
          "type": "address[]"
        },
        {
          "internalType": "uint256[]",
          "name": "ids",
          "type": "uint256[]"
        }
      ],
      "name": "balanceOfBatch",
      "outputs": [
        {
          "internalType": "uint256[]",
          "name": "",
          "type": "uint256[]"
        }
      ],
      "stateMutability": "view",
      "type": "function",
      "constant": true
    },
    {
      "inputs": [
        {
          "internalType": "uint256",
          "name": "",
          "type": "uint256"
        }
      ],
      "name": "gamesInfo",
      "outputs": [
        {
          "internalType": "uint256",
          "name": "tokenId",
          "type": "uint256"
        },
        {
          "internalType": "uint256",
          "name": "price",
          "type": "uint256"
        },
        {
          "internalType": "address",
          "name": "gameOwnerAddress",
          "type": "address"
        },
        {
          "internalType": "uint256",
          "name": "supply",
          "type": "uint256"
        },
        {
          "internalType": "uint256",
          "name": "tokenPlayRoyaltyPercentage",
          "type": "uint256"
        },
        {
          "internalType": "uint256",
          "name": "gameRelease",
          "type": "uint256"
        }
      ],
      "stateMutability": "view",
      "type": "function",
      "constant": true
    },
    {
      "inputs": [
        {
          "internalType": "address",
          "name": "account",
          "type": "address"
        },
        {
          "internalType": "address",
          "name": "operator",
          "type": "address"
        }
      ],
      "name": "isApprovedForAll",
      "outputs": [
        {
          "internalType": "bool",
          "name": "",
          "type": "bool"
        }
      ],
      "stateMutability": "view",
      "type": "function",
      "constant": true
    },
    {
      "inputs": [],
      "name": "mintIsActive",
      "outputs": [
        {
          "internalType": "bool",
          "name": "",
          "type": "bool"
        }
      ],
      "stateMutability": "view",
      "type": "function",
      "constant": true
    },
    {
      "inputs": [
        {
          "internalType": "uint256",
          "name": "",
          "type": "uint256"
        }
      ],
      "name": "nGames",
      "outputs": [
        {
          "internalType": "uint256",
          "name": "",
          "type": "uint256"
        }
      ],
      "stateMutability": "view",
      "type": "function",
      "constant": true
    },
    {
      "inputs": [],
      "name": "nextTokenId",
      "outputs": [
        {
          "internalType": "uint256",
          "name": "",
          "type": "uint256"
        }
      ],
      "stateMutability": "view",
      "type": "function",
      "constant": true
    },
    {
      "inputs": [],
      "name": "owner",
      "outputs": [
        {
          "internalType": "address",
          "name": "",
          "type": "address"
        }
      ],
      "stateMutability": "view",
      "type": "function",
      "constant": true
    },
    {
      "inputs": [],
      "name": "renounceOwnership",
      "outputs": [],
      "stateMutability": "nonpayable",
      "type": "function"
    },
    {
      "inputs": [
        {
          "internalType": "address",
          "name": "from",
          "type": "address"
        },
        {
          "internalType": "address",
          "name": "to",
          "type": "address"
        },
        {
          "internalType": "uint256[]",
          "name": "ids",
          "type": "uint256[]"
        },
        {
          "internalType": "uint256[]",
          "name": "amounts",
          "type": "uint256[]"
        },
        {
          "internalType": "bytes",
          "name": "data",
          "type": "bytes"
        }
      ],
      "name": "safeBatchTransferFrom",
      "outputs": [],
      "stateMutability": "nonpayable",
      "type": "function"
    },
    {
      "inputs": [
        {
          "internalType": "address",
          "name": "from",
          "type": "address"
        },
        {
          "internalType": "address",
          "name": "to",
          "type": "address"
        },
        {
          "internalType": "uint256",
          "name": "id",
          "type": "uint256"
        },
        {
          "internalType": "uint256",
          "name": "amount",
          "type": "uint256"
        },
        {
          "internalType": "bytes",
          "name": "data",
          "type": "bytes"
        }
      ],
      "name": "safeTransferFrom",
      "outputs": [],
      "stateMutability": "nonpayable",
      "type": "function"
    },
    {
      "inputs": [
        {
          "internalType": "address",
          "name": "operator",
          "type": "address"
        },
        {
          "internalType": "bool",
          "name": "approved",
          "type": "bool"
        }
      ],
      "name": "setApprovalForAll",
      "outputs": [],
      "stateMutability": "nonpayable",
      "type": "function"
    },
    {
      "inputs": [
        {
          "internalType": "bytes4",
          "name": "interfaceId",
          "type": "bytes4"
        }
      ],
      "name": "supportsInterface",
      "outputs": [
        {
          "internalType": "bool",
          "name": "",
          "type": "bool"
        }
      ],
      "stateMutability": "view",
      "type": "function",
      "constant": true
    },
    {
      "inputs": [
        {
          "internalType": "address",
          "name": "newOwner",
          "type": "address"
        }
      ],
      "name": "transferOwnership",
      "outputs": [],
      "stateMutability": "nonpayable",
      "type": "function"
    },
    {
      "inputs": [
        {
          "internalType": "uint256",
          "name": "tokenId",
          "type": "uint256"
        },
        {
          "internalType": "uint256",
          "name": "price",
          "type": "uint256"
        },
        {
          "internalType": "address",
          "name": "gameOwnerAddress",
          "type": "address"
        },
        {
          "internalType": "uint256",
          "name": "supply",
          "type": "uint256"
        },
        {
          "internalType": "uint256",
          "name": "tokenPlayRoyaltyPercentage",
          "type": "uint256"
        },
        {
          "internalType": "uint256",
          "name": "gameRelease",
          "type": "uint256"
        }
      ],
      "name": "addNFT",
      "outputs": [],
      "stateMutability": "nonpayable",
      "type": "function"
    },
    {
      "inputs": [
        {
          "internalType": "uint256",
          "name": "tokenId",
          "type": "uint256"
        }
      ],
      "name": "purchaseNFT",
      "outputs": [],
      "stateMutability": "payable",
      "type": "function",
      "payable": true
    },
    {
      "inputs": [
        {
          "internalType": "address",
          "name": "account",
          "type": "address"
        }
      ],
      "name": "getPurchasedNFTs",
      "outputs": [
        {
          "components": [
            {
              "components": [
                {
                  "internalType": "uint256",
                  "name": "tokenId",
                  "type": "uint256"
                },
                {
                  "internalType": "uint256",
                  "name": "price",
                  "type": "uint256"
                },
                {
                  "internalType": "address",
                  "name": "gameOwnerAddress",
                  "type": "address"
                },
                {
                  "internalType": "uint256",
                  "name": "supply",
                  "type": "uint256"
                },
                {
                  "internalType": "uint256",
                  "name": "tokenPlayRoyaltyPercentage",
                  "type": "uint256"
                },
                {
                  "internalType": "uint256",
                  "name": "gameRelease",
                  "type": "uint256"
                }
              ],
              "internalType": "struct TOKENPLAY.NftGameInfo",
              "name": "game",
              "type": "tuple"
            },
            {
              "internalType": "uint256",
              "name": "qty",
              "type": "uint256"
            }
          ],
          "internalType": "struct TOKENPLAY.PurchasedNft[]",
          "name": "",
          "type": "tuple[]"
        }
      ],
      "stateMutability": "view",
      "type": "function",
      "constant": true
    },
    {
      "inputs": [],
      "name": "getNFTs",
      "outputs": [
        {
          "components": [
            {
              "internalType": "uint256",
              "name": "tokenId",
              "type": "uint256"
            },
            {
              "internalType": "uint256",
              "name": "price",
              "type": "uint256"
            },
            {
              "internalType": "address",
              "name": "gameOwnerAddress",
              "type": "address"
            },
            {
              "internalType": "uint256",
              "name": "supply",
              "type": "uint256"
            },
            {
              "internalType": "uint256",
              "name": "tokenPlayRoyaltyPercentage",
              "type": "uint256"
            },
            {
              "internalType": "uint256",
              "name": "gameRelease",
              "type": "uint256"
            }
          ],
          "internalType": "struct TOKENPLAY.NftGameInfo[]",
          "name": "",
          "type": "tuple[]"
        }
      ],
      "stateMutability": "view",
      "type": "function",
      "constant": true
    },
    {
      "inputs": [
        {
          "internalType": "uint256",
          "name": "tokenId",
          "type": "uint256"
        },
        {
          "internalType": "uint256",
          "name": "royaltyPercentage",
          "type": "uint256"
        }
      ],
      "name": "setRoyaltyPercentage",
      "outputs": [],
      "stateMutability": "nonpayable",
      "type": "function"
    },
    {
      "inputs": [
        {
          "internalType": "uint256",
          "name": "tokenId",
          "type": "uint256"
        },
        {
          "internalType": "uint256",
          "name": "_mintPrice",
          "type": "uint256"
        }
      ],
      "name": "setMintPrice",
      "outputs": [],
      "stateMutability": "nonpayable",
      "type": "function"
    },
    {
      "inputs": [
        {
          "internalType": "uint256",
          "name": "tokenId",
          "type": "uint256"
        }
      ],
      "name": "totalSupply",
      "outputs": [
        {
          "internalType": "uint256",
          "name": "",
          "type": "uint256"
        }
      ],
      "stateMutability": "view",
      "type": "function",
      "constant": true
    },
    {
      "inputs": [],
      "name": "flipMintState",
      "outputs": [],
      "stateMutability": "nonpayable",
      "type": "function"
    },
    {
      "inputs": [
        {
          "internalType": "uint256",
          "name": "tokenId",
          "type": "uint256"
        }
      ],
      "name": "uri",
      "outputs": [
        {
          "internalType": "string",
          "name": "",
          "type": "string"
        }
      ],
      "stateMutability": "view",
      "type": "function",
      "constant": true
    },
    {
      "inputs": [
        {
          "internalType": "string",
          "name": "baseURI",
          "type": "string"
        }
      ],
      "name": "setBaseURI",
      "outputs": [],
      "stateMutability": "nonpayable",
      "type": "function"
    },
    {
      "inputs": [
        {
          "internalType": "address",
          "name": "marketplace",
          "type": "address"
        }
      ],
      "name": "approveMarketplace",
      "outputs": [],
      "stateMutability": "nonpayable",
      "type": "function"
    }
  ],
  "bytecode": "0x6080604052604051806020016040528060008152506003908162000024919062000435565b506000600560146101000a81548160ff02191690831515021790555060006006553480156200005257600080fd5b5060405162005c1d38038062005c1d833981810160405281019062000078919062000680565b806200008a81620000c360201b60201c565b50620000ab6200009f620000d860201b60201c565b620000e060201b60201c565b620000bc81620001a660201b60201c565b50620006d1565b8060029081620000d4919062000435565b5050565b600033905090565b6000600560009054906101000a900473ffffffffffffffffffffffffffffffffffffffff16905081600560006101000a81548173ffffffffffffffffffffffffffffffffffffffff021916908373ffffffffffffffffffffffffffffffffffffffff1602179055508173ffffffffffffffffffffffffffffffffffffffff168173ffffffffffffffffffffffffffffffffffffffff167f8be0079c531659141344cd1fd0a4f28419497f9722a3daafe3b4186f6b6457e060405160405180910390a35050565b8060039081620001b7919062000435565b5050565b600081519050919050565b7f4e487b7100000000000000000000000000000000000000000000000000000000600052604160045260246000fd5b7f4e487b7100000000000000000000000000000000000000000000000000000000600052602260045260246000fd5b600060028204905060018216806200023d57607f821691505b602082108103620002535762000252620001f5565b5b50919050565b60008190508160005260206000209050919050565b60006020601f8301049050919050565b600082821b905092915050565b600060088302620002bd7fffffffffffffffffffffffffffffffffffffffffffffffffffffffffffffffff826200027e565b620002c986836200027e565b95508019841693508086168417925050509392505050565b6000819050919050565b6000819050919050565b600062000316620003106200030a84620002e1565b620002eb565b620002e1565b9050919050565b6000819050919050565b6200033283620002f5565b6200034a62000341826200031d565b8484546200028b565b825550505050565b600090565b6200036162000352565b6200036e81848462000327565b505050565b5b8181101562000396576200038a60008262000357565b60018101905062000374565b5050565b601f821115620003e557620003af8162000259565b620003ba846200026e565b81016020851015620003ca578190505b620003e2620003d9856200026e565b83018262000373565b50505b505050565b600082821c905092915050565b60006200040a60001984600802620003ea565b1980831691505092915050565b6000620004258383620003f7565b9150826002028217905092915050565b6200044082620001bb565b67ffffffffffffffff8111156200045c576200045b620001c6565b5b62000468825462000224565b620004758282856200039a565b600060209050601f831160018114620004ad576000841562000498578287015190505b620004a4858262000417565b86555062000514565b601f198416620004bd8662000259565b60005b82811015620004e757848901518255600182019150602085019450602081019050620004c0565b8683101562000507578489015162000503601f891682620003f7565b8355505b6001600288020188555050505b505050505050565b6000604051905090565b600080fd5b600080fd5b600080fd5b600080fd5b6000601f19601f8301169050919050565b62000556826200053a565b810181811067ffffffffffffffff82111715620005785762000577620001c6565b5b80604052505050565b60006200058d6200051c565b90506200059b82826200054b565b919050565b600067ffffffffffffffff821115620005be57620005bd620001c6565b5b620005c9826200053a565b9050602081019050919050565b60005b83811015620005f6578082015181840152602081019050620005d9565b60008484015250505050565b6000620006196200061384620005a0565b62000581565b90508281526020810184848401111562000638576200063762000535565b5b62000645848285620005d6565b509392505050565b600082601f83011262000665576200066462000530565b5b81516200067784826020860162000602565b91505092915050565b60006020828403121562000699576200069862000526565b5b600082015167ffffffffffffffff811115620006ba57620006b96200052b565b5b620006c8848285016200064d565b91505092915050565b61553c80620006e16000396000f3fe6080604052600436106101805760003560e01c806355f804b3116100d1578063a22cb4651161008a578063e206dc2e11610064578063e206dc2e14610587578063e985e9c5146105c4578063f242432a14610601578063f2fde38b1461062a57610180565b8063a22cb465146104e4578063b0cc53281461050d578063bd85b0391461054a57610180565b806355f804b3146103fa5780635977e82a1461042357806359c74f2914610460578063715018a61461047757806375794a3c1461048e5780638da5cb5b146104b957610180565b80632eb2c2d61161013e57806342fd245f1161011857806342fd245f14610340578063471a4294146103695780634e1273f4146103945780634f83489b146103d157610180565b80632eb2c2d6146102ac57806340694256146102d557806341d6f9c21461031757610180565b8062fdd58e1461018557806301ffc9a7146101c25780630442bfa8146101ff5780630e89341c14610228578063150bde0314610265578063227212f214610281575b600080fd5b34801561019157600080fd5b506101ac60048036038101906101a791906131f9565b610653565b6040516101b99190613248565b60405180910390f35b3480156101ce57600080fd5b506101e960048036038101906101e491906132bb565b61071b565b6040516101f69190613303565b60405180910390f35b34801561020b57600080fd5b506102266004803603810190610221919061331e565b6107fd565b005b34801561023457600080fd5b5061024f600480360381019061024a919061335e565b6108b0565b60405161025c919061341b565b60405180910390f35b61027f600480360381019061027a919061335e565b61090a565b005b34801561028d57600080fd5b50610296610e2a565b6040516102a39190613585565b60405180910390f35b3480156102b857600080fd5b506102d360048036038101906102ce91906137a4565b611001565b005b3480156102e157600080fd5b506102fc60048036038101906102f7919061335e565b6110a2565b60405161030e96959493929190613882565b60405180910390f35b34801561032357600080fd5b5061033e6004803603810190610339919061331e565b6110fe565b005b34801561034c57600080fd5b50610367600480360381019061036291906138e3565b611169565b005b34801561037557600080fd5b5061037e611447565b60405161038b9190613303565b60405180910390f35b3480156103a057600080fd5b506103bb60048036038101906103b69190613a33565b61145a565b6040516103c89190613b5a565b60405180910390f35b3480156103dd57600080fd5b506103f860048036038101906103f39190613b7c565b611573565b005b34801561040657600080fd5b50610421600480360381019061041c9190613c4a565b6115f8565b005b34801561042f57600080fd5b5061044a6004803603810190610445919061335e565b61160c565b6040516104579190613248565b60405180910390f35b34801561046c57600080fd5b50610475611624565b005b34801561048357600080fd5b5061048c611658565b005b34801561049a57600080fd5b506104a361166c565b6040516104b09190613248565b60405180910390f35b3480156104c557600080fd5b506104ce611672565b6040516104db9190613c93565b60405180910390f35b3480156104f057600080fd5b5061050b60048036038101906105069190613cda565b61169c565b005b34801561051957600080fd5b50610534600480360381019061052f919061335e565b6116b2565b6040516105419190613248565b60405180910390f35b34801561055657600080fd5b50610571600480360381019061056c919061335e565b6116ca565b60405161057e9190613248565b60405180910390f35b34801561059357600080fd5b506105ae60048036038101906105a99190613b7c565b61172f565b6040516105bb9190613df8565b60405180910390f35b3480156105d057600080fd5b506105eb60048036038101906105e69190613e1a565b611a86565b6040516105f89190613303565b60405180910390f35b34801561060d57600080fd5b5061062860048036038101906106239190613e5a565b611b1a565b005b34801561063657600080fd5b50610651600480360381019061064c9190613b7c565b611bbb565b005b60008073ffffffffffffffffffffffffffffffffffffffff168373ffffffffffffffffffffffffffffffffffffffff16036106c3576040517f08c379a00000000000000000000000000000000000000000000000000000000081526004016106ba90613f63565b60405180910390fd5b60008083815260200190815260200160002060008473ffffffffffffffffffffffffffffffffffffffff1673ffffffffffffffffffffffffffffffffffffffff16815260200190815260200160002054905092915050565b60007fd9b67a26000000000000000000000000000000000000000000000000000000007bffffffffffffffffffffffffffffffffffffffffffffffffffffffff1916827bffffffffffffffffffffffffffffffffffffffffffffffffffffffff191614806107e657507f0e89341c000000000000000000000000000000000000000000000000000000007bffffffffffffffffffffffffffffffffffffffffffffffffffffffff1916827bffffffffffffffffffffffffffffffffffffffffffffffffffffffff1916145b806107f657506107f582611c3e565b5b9050919050565b610805611ca8565b61080e82611d26565b61084d576040517f08c379a000000000000000000000000000000000000000000000000000000000815260040161084490613fcf565b60405180910390fd5b6000811015610891576040517f08c379a00000000000000000000000000000000000000000000000000000000081526004016108889061403b565b60405180910390fd5b8060076000848152602001908152602001600020600101819055505050565b60606108bb82611d26565b6108fa576040517f08c379a00000000000000000000000000000000000000000000000000000000081526004016108f190613fcf565b60405180910390fd5b61090382611d48565b9050919050565b600560149054906101000a900460ff16610959576040517f08c379a0000000000000000000000000000000000000000000000000000000008152600401610950906140a7565b60405180910390fd5b60006006541161099e576040517f08c379a000000000000000000000000000000000000000000000000000000000815260040161099590614113565b60405180910390fd5b6109a781611d26565b6109e6576040517f08c379a00000000000000000000000000000000000000000000000000000000081526004016109dd90613fcf565b60405180910390fd5b60006007600083815260200190815260200160002060010154905080341015610a44576040517f08c379a0000000000000000000000000000000000000000000000000000000008152600401610a3b9061417f565b60405180910390fd5b6000600760008481526020019081526020016000206003015411610a9d576040517f08c379a0000000000000000000000000000000000000000000000000000000008152600401610a94906141eb565b60405180910390fd5b4260076000848152602001908152602001600020600501541115610af6576040517f08c379a0000000000000000000000000000000000000000000000000000000008152600401610aed90614257565b60405180910390fd5b610b123383600160405180602001604052806000815250611e2d565b610b6382600860003373ffffffffffffffffffffffffffffffffffffffff1673ffffffffffffffffffffffffffffffffffffffff168152602001908152602001600020611fdd90919063ffffffff16565b610bba57610bb882600860003373ffffffffffffffffffffffffffffffffffffffff1673ffffffffffffffffffffffffffffffffffffffff168152602001908152602001600020611ff790919063ffffffff16565b505b610beb82610bc784612011565b604051602001610bd791906142ff565b6040516020818303038152906040526120df565b610c156001600760008581526020019081526020016000206003015461214490919063ffffffff16565b60076000848152602001908152602001600020600301819055506007600083815260200190815260200160002060030154600a60008481526020019081526020016000208190555060008190506000610ca06064610c9260076000888152602001908152602001600020600401548561215a90919063ffffffff16565b61217090919063ffffffff16565b90506000610cb7828461214490919063ffffffff16565b9050610cc1611672565b73ffffffffffffffffffffffffffffffffffffffff166108fc839081150290604051600060405180830381858888f19350505050158015610d06573d6000803e3d6000fd5b506007600086815260200190815260200160002060020160009054906101000a900473ffffffffffffffffffffffffffffffffffffffff1673ffffffffffffffffffffffffffffffffffffffff166108fc829081150290604051600060405180830381858888f19350505050158015610d83573d6000803e3d6000fd5b5083341115610ddf573373ffffffffffffffffffffffffffffffffffffffff166108fc8534610db29190614350565b9081150290604051600060405180830381858888f19350505050158015610ddd573d6000803e3d6000fd5b505b843373ffffffffffffffffffffffffffffffffffffffff167fa512fb2532ca8587f236380171326ebb69670e86a2ba0c4412a3fcca4c3ada9b60405160405180910390a35050505050565b6060600060065411610e71576040517f08c379a0000000000000000000000000000000000000000000000000000000008152600401610e6890614113565b60405180910390fd5b600060065467ffffffffffffffff811115610e8f57610e8e6135ac565b5b604051908082528060200260200182016040528015610ec857816020015b610eb56130e5565b815260200190600190039081610ead5790505b50905060005b600654811015610ff9574260076000600960008581526020019081526020016000205481526020019081526020016000206005015411610fe657600060076000600960008581526020019081526020016000205481526020019081526020016000209050806040518060c001604052908160008201548152602001600182015481526020016002820160009054906101000a900473ffffffffffffffffffffffffffffffffffffffff1673ffffffffffffffffffffffffffffffffffffffff1673ffffffffffffffffffffffffffffffffffffffff1681526020016003820154815260200160048201548152602001600582015481525050838381518110610fd957610fd8614384565b5b6020026020010181905250505b8080610ff1906143b3565b915050610ece565b508091505090565b611009612186565b73ffffffffffffffffffffffffffffffffffffffff168573ffffffffffffffffffffffffffffffffffffffff16148061104f575061104e85611049612186565b611a86565b5b61108e576040517f08c379a00000000000000000000000000000000000000000000000000000000081526004016110859061446d565b60405180910390fd5b61109b858585858561218e565b5050505050565b60076020528060005260406000206000915090508060000154908060010154908060020160009054906101000a900473ffffffffffffffffffffffffffffffffffffffff16908060030154908060040154908060050154905086565b611106611ca8565b600081101561114a576040517f08c379a0000000000000000000000000000000000000000000000000000000008152600401611141906144d9565b60405180910390fd5b8060076000848152602001908152602001600020600401819055505050565b611171611ca8565b61117a86611d26565b156111ba576040517f08c379a00000000000000000000000000000000000000000000000000000000081526004016111b190614545565b60405180910390fd5b600085116111fd576040517f08c379a00000000000000000000000000000000000000000000000000000000081526004016111f4906145b1565b60405180910390fd5b600073ffffffffffffffffffffffffffffffffffffffff168473ffffffffffffffffffffffffffffffffffffffff160361126c576040517f08c379a00000000000000000000000000000000000000000000000000000000081526004016112639061461d565b60405180910390fd5b600083116112af576040517f08c379a00000000000000000000000000000000000000000000000000000000081526004016112a690614689565b60405180910390fd5b60008210156112f3576040517f08c379a00000000000000000000000000000000000000000000000000000000081526004016112ea906146f5565b60405180910390fd5b6000811015611337576040517f08c379a000000000000000000000000000000000000000000000000000000000815260040161132e90614761565b60405180910390fd5b856009600060065481526020019081526020016000208190555061136760016006546124af90919063ffffffff16565b6006819055506040518060c001604052808781526020018681526020018573ffffffffffffffffffffffffffffffffffffffff1681526020018481526020018381526020018281525060076000888152602001908152602001600020600082015181600001556020820151816001015560408201518160020160006101000a81548173ffffffffffffffffffffffffffffffffffffffff021916908373ffffffffffffffffffffffffffffffffffffffff160217905550606082015181600301556080820151816004015560a08201518160050155905050505050505050565b600560149054906101000a900460ff1681565b606081518351146114a0576040517f08c379a0000000000000000000000000000000000000000000000000000000008152600401611497906147f3565b60405180910390fd5b6000835167ffffffffffffffff8111156114bd576114bc6135ac565b5b6040519080825280602002602001820160405280156114eb5781602001602082028036833780820191505090505b50905060005b8451811015611568576115388582815181106115105761150f614384565b5b602002602001015185838151811061152b5761152a614384565b5b6020026020010151610653565b82828151811061154b5761154a614384565b5b60200260200101818152505080611561906143b3565b90506114f1565b508091505092915050565b61157b611ca8565b600073ffffffffffffffffffffffffffffffffffffffff168173ffffffffffffffffffffffffffffffffffffffff16036115ea576040517f08c379a00000000000000000000000000000000000000000000000000000000081526004016115e190614885565b60405180910390fd5b6115f581600161169c565b50565b611600611ca8565b611609816124c5565b50565b600a6020528060005260406000206000915090505481565b61162c611ca8565b600560149054906101000a900460ff1615600560146101000a81548160ff021916908315150217905550565b611660611ca8565b61166a60006124d8565b565b60065481565b6000600560009054906101000a900473ffffffffffffffffffffffffffffffffffffffff16905090565b6116ae6116a7612186565b838361259e565b5050565b60096020528060005260406000206000915090505481565b60006116d582611d26565b611714576040517f08c379a000000000000000000000000000000000000000000000000000000000815260040161170b90613fcf565b60405180910390fd5b600a6000838152602001908152602001600020549050919050565b6060600073ffffffffffffffffffffffffffffffffffffffff168273ffffffffffffffffffffffffffffffffffffffff16036117a0576040517f08c379a00000000000000000000000000000000000000000000000000000000081526004016117979061461d565b60405180910390fd5b60006117e9600860008573ffffffffffffffffffffffffffffffffffffffff1673ffffffffffffffffffffffffffffffffffffffff16815260200190815260200160002061270a565b90506000811161182e576040517f08c379a000000000000000000000000000000000000000000000000000000000815260040161182590614917565b60405180910390fd5b6000611877600860008673ffffffffffffffffffffffffffffffffffffffff1673ffffffffffffffffffffffffffffffffffffffff16815260200190815260200160002061270a565b67ffffffffffffffff8111156118905761188f6135ac565b5b6040519080825280602002602001820160405280156118c957816020015b6118b6613131565b8152602001906001900390816118ae5790505b50905060005b611916600860008773ffffffffffffffffffffffffffffffffffffffff1673ffffffffffffffffffffffffffffffffffffffff16815260200190815260200160002061270a565b811015611a7b57600061197082600860008973ffffffffffffffffffffffffffffffffffffffff1673ffffffffffffffffffffffffffffffffffffffff16815260200190815260200160002061271f90919063ffffffff16565b9050600760008281526020019081526020016000206040518060c001604052908160008201548152602001600182015481526020016002820160009054906101000a900473ffffffffffffffffffffffffffffffffffffffff1673ffffffffffffffffffffffffffffffffffffffff1673ffffffffffffffffffffffffffffffffffffffff1681526020016003820154815260200160048201548152602001600582015481525050838381518110611a2b57611a2a614384565b5b602002602001015160000181905250611a448682610653565b838381518110611a5757611a56614384565b5b60200260200101516020018181525050508080611a73906143b3565b9150506118cf565b508092505050919050565b6000600160008473ffffffffffffffffffffffffffffffffffffffff1673ffffffffffffffffffffffffffffffffffffffff16815260200190815260200160002060008373ffffffffffffffffffffffffffffffffffffffff1673ffffffffffffffffffffffffffffffffffffffff16815260200190815260200160002060009054906101000a900460ff16905092915050565b611b22612186565b73ffffffffffffffffffffffffffffffffffffffff168573ffffffffffffffffffffffffffffffffffffffff161480611b685750611b6785611b62612186565b611a86565b5b611ba7576040517f08c379a0000000000000000000000000000000000000000000000000000000008152600401611b9e9061446d565b60405180910390fd5b611bb48585858585612739565b5050505050565b611bc3611ca8565b600073ffffffffffffffffffffffffffffffffffffffff168173ffffffffffffffffffffffffffffffffffffffff1603611c32576040517f08c379a0000000000000000000000000000000000000000000000000000000008152600401611c29906149a9565b60405180910390fd5b611c3b816124d8565b50565b60007f01ffc9a7000000000000000000000000000000000000000000000000000000007bffffffffffffffffffffffffffffffffffffffffffffffffffffffff1916827bffffffffffffffffffffffffffffffffffffffffffffffffffffffff1916149050919050565b611cb0612186565b73ffffffffffffffffffffffffffffffffffffffff16611cce611672565b73ffffffffffffffffffffffffffffffffffffffff1614611d24576040517f08c379a0000000000000000000000000000000000000000000000000000000008152600401611d1b90614a15565b60405180910390fd5b565b6000816007600084815260200190815260200160002060000154149050919050565b60606000600460008481526020019081526020016000208054611d6a90614a64565b80601f0160208091040260200160405190810160405280929190818152602001828054611d9690614a64565b8015611de35780601f10611db857610100808354040283529160200191611de3565b820191906000526020600020905b815481529060010190602001808311611dc657829003601f168201915b505050505090506000815111611e0157611dfc836129d4565b611e25565b600381604051602001611e15929190614b2d565b6040516020818303038152906040525b915050919050565b600073ffffffffffffffffffffffffffffffffffffffff168473ffffffffffffffffffffffffffffffffffffffff1603611e9c576040517f08c379a0000000000000000000000000000000000000000000000000000000008152600401611e9390614bc3565b60405180910390fd5b6000611ea6612186565b90506000611eb385612a68565b90506000611ec085612a68565b9050611ed183600089858589612ae2565b8460008088815260200190815260200160002060008973ffffffffffffffffffffffffffffffffffffffff1673ffffffffffffffffffffffffffffffffffffffff1681526020019081526020016000206000828254611f309190614be3565b925050819055508673ffffffffffffffffffffffffffffffffffffffff16600073ffffffffffffffffffffffffffffffffffffffff168473ffffffffffffffffffffffffffffffffffffffff167fc3d58168c5ae7397731d063d5bbf3d657854427343f4c083240f7aacaa2d0f628989604051611fae929190614c17565b60405180910390a4611fc583600089858589612aea565b611fd483600089898989612af2565b50505050505050565b6000611fef836000018360001b612cc9565b905092915050565b6000612009836000018360001b612cec565b905092915050565b60606000600161202084612d5c565b01905060008167ffffffffffffffff81111561203f5761203e6135ac565b5b6040519080825280601f01601f1916602001820160405280156120715781602001600182028036833780820191505090505b509050600082602001820190505b6001156120d4578080600190039150507f3031323334353637383961626364656600000000000000000000000000000000600a86061a8153600a85816120c8576120c7614c40565b5b0494506000850361207f575b819350505050919050565b806004600084815260200190815260200160002090816120ff9190614e06565b50817f6bb7ff708619ba0610cba295a58592e0451dee2622938c8755667688daf3529b61212b846108b0565b604051612138919061341b565b60405180910390a25050565b600081836121529190614350565b905092915050565b600081836121689190614ed8565b905092915050565b6000818361217e9190614f1a565b905092915050565b600033905090565b81518351146121d2576040517f08c379a00000000000000000000000000000000000000000000000000000000081526004016121c990614fbd565b60405180910390fd5b600073ffffffffffffffffffffffffffffffffffffffff168473ffffffffffffffffffffffffffffffffffffffff1603612241576040517f08c379a00000000000000000000000000000000000000000000000000000000081526004016122389061504f565b60405180910390fd5b600061224b612186565b905061225b818787878787612ae2565b60005b845181101561240c57600085828151811061227c5761227b614384565b5b60200260200101519050600085838151811061229b5761229a614384565b5b60200260200101519050600080600084815260200190815260200160002060008b73ffffffffffffffffffffffffffffffffffffffff1673ffffffffffffffffffffffffffffffffffffffff1681526020019081526020016000205490508181101561233c576040517f08c379a0000000000000000000000000000000000000000000000000000000008152600401612333906150e1565b60405180910390fd5b81810360008085815260200190815260200160002060008c73ffffffffffffffffffffffffffffffffffffffff1673ffffffffffffffffffffffffffffffffffffffff168152602001908152602001600020819055508160008085815260200190815260200160002060008b73ffffffffffffffffffffffffffffffffffffffff1673ffffffffffffffffffffffffffffffffffffffff16815260200190815260200160002060008282546123f19190614be3565b9250508190555050505080612405906143b3565b905061225e565b508473ffffffffffffffffffffffffffffffffffffffff168673ffffffffffffffffffffffffffffffffffffffff168273ffffffffffffffffffffffffffffffffffffffff167f4a39dc06d4c0dbc64b70af90fd698a233a518aa5d07e595d983b8c0526c8f7fb8787604051612483929190615101565b60405180910390a4612499818787878787612aea565b6124a7818787878787612eaf565b505050505050565b600081836124bd9190614be3565b905092915050565b80600390816124d49190614e06565b5050565b6000600560009054906101000a900473ffffffffffffffffffffffffffffffffffffffff16905081600560006101000a81548173ffffffffffffffffffffffffffffffffffffffff021916908373ffffffffffffffffffffffffffffffffffffffff1602179055508173ffffffffffffffffffffffffffffffffffffffff168173ffffffffffffffffffffffffffffffffffffffff167f8be0079c531659141344cd1fd0a4f28419497f9722a3daafe3b4186f6b6457e060405160405180910390a35050565b8173ffffffffffffffffffffffffffffffffffffffff168373ffffffffffffffffffffffffffffffffffffffff160361260c576040517f08c379a0000000000000000000000000000000000000000000000000000000008152600401612603906151aa565b60405180910390fd5b80600160008573ffffffffffffffffffffffffffffffffffffffff1673ffffffffffffffffffffffffffffffffffffffff16815260200190815260200160002060008473ffffffffffffffffffffffffffffffffffffffff1673ffffffffffffffffffffffffffffffffffffffff16815260200190815260200160002060006101000a81548160ff0219169083151502179055508173ffffffffffffffffffffffffffffffffffffffff168373ffffffffffffffffffffffffffffffffffffffff167f17307eab39ab6107e8899845ad3d59bd9653f200f220920489ca2b5937696c31836040516126fd9190613303565b60405180910390a3505050565b600061271882600001613086565b9050919050565b600061272e8360000183613097565b60001c905092915050565b600073ffffffffffffffffffffffffffffffffffffffff168473ffffffffffffffffffffffffffffffffffffffff16036127a8576040517f08c379a000000000000000000000000000000000000000000000000000000000815260040161279f9061504f565b60405180910390fd5b60006127b2612186565b905060006127bf85612a68565b905060006127cc85612a68565b90506127dc838989858589612ae2565b600080600088815260200190815260200160002060008a73ffffffffffffffffffffffffffffffffffffffff1673ffffffffffffffffffffffffffffffffffffffff16815260200190815260200160002054905085811015612873576040517f08c379a000000000000000000000000000000000000000000000000000000000815260040161286a906150e1565b60405180910390fd5b85810360008089815260200190815260200160002060008b73ffffffffffffffffffffffffffffffffffffffff1673ffffffffffffffffffffffffffffffffffffffff168152602001908152602001600020819055508560008089815260200190815260200160002060008a73ffffffffffffffffffffffffffffffffffffffff1673ffffffffffffffffffffffffffffffffffffffff16815260200190815260200160002060008282546129289190614be3565b925050819055508773ffffffffffffffffffffffffffffffffffffffff168973ffffffffffffffffffffffffffffffffffffffff168573ffffffffffffffffffffffffffffffffffffffff167fc3d58168c5ae7397731d063d5bbf3d657854427343f4c083240f7aacaa2d0f628a8a6040516129a5929190614c17565b60405180910390a46129bb848a8a86868a612aea565b6129c9848a8a8a8a8a612af2565b505050505050505050565b6060600280546129e390614a64565b80601f0160208091040260200160405190810160405280929190818152602001828054612a0f90614a64565b8015612a5c5780601f10612a3157610100808354040283529160200191612a5c565b820191906000526020600020905b815481529060010190602001808311612a3f57829003601f168201915b50505050509050919050565b60606000600167ffffffffffffffff811115612a8757612a866135ac565b5b604051908082528060200260200182016040528015612ab55781602001602082028036833780820191505090505b5090508281600081518110612acd57612acc614384565b5b60200260200101818152505080915050919050565b505050505050565b505050505050565b612b118473ffffffffffffffffffffffffffffffffffffffff166130c2565b15612cc1578373ffffffffffffffffffffffffffffffffffffffff1663f23a6e6187878686866040518663ffffffff1660e01b8152600401612b5795949392919061521f565b6020604051808303816000875af1925050508015612b9357506040513d601f19601f82011682018060405250810190612b90919061528e565b60015b612c3857612b9f6152c8565b806308c379a003612bfb5750612bb36152ea565b80612bbe5750612bfd565b806040517f08c379a0000000000000000000000000000000000000000000000000000000008152600401612bf2919061341b565b60405180910390fd5b505b6040517f08c379a0000000000000000000000000000000000000000000000000000000008152600401612c2f906153ec565b60405180910390fd5b63f23a6e6160e01b7bffffffffffffffffffffffffffffffffffffffffffffffffffffffff1916817bffffffffffffffffffffffffffffffffffffffffffffffffffffffff191614612cbf576040517f08c379a0000000000000000000000000000000000000000000000000000000008152600401612cb69061547e565b60405180910390fd5b505b505050505050565b600080836001016000848152602001908152602001600020541415905092915050565b6000612cf88383612cc9565b612d51578260000182908060018154018082558091505060019003906000526020600020016000909190919091505582600001805490508360010160008481526020019081526020016000208190555060019050612d56565b600090505b92915050565b600080600090507a184f03e93ff9f4daa797ed6e38ed64bf6a1f0100000000000000008310612dba577a184f03e93ff9f4daa797ed6e38ed64bf6a1f0100000000000000008381612db057612daf614c40565b5b0492506040810190505b6d04ee2d6d415b85acef81000000008310612df7576d04ee2d6d415b85acef81000000008381612ded57612dec614c40565b5b0492506020810190505b662386f26fc100008310612e2657662386f26fc100008381612e1c57612e1b614c40565b5b0492506010810190505b6305f5e1008310612e4f576305f5e1008381612e4557612e44614c40565b5b0492506008810190505b6127108310612e74576127108381612e6a57612e69614c40565b5b0492506004810190505b60648310612e975760648381612e8d57612e8c614c40565b5b0492506002810190505b600a8310612ea6576001810190505b80915050919050565b612ece8473ffffffffffffffffffffffffffffffffffffffff166130c2565b1561307e578373ffffffffffffffffffffffffffffffffffffffff1663bc197c8187878686866040518663ffffffff1660e01b8152600401612f1495949392919061549e565b6020604051808303816000875af1925050508015612f5057506040513d601f19601f82011682018060405250810190612f4d919061528e565b60015b612ff557612f5c6152c8565b806308c379a003612fb85750612f706152ea565b80612f7b5750612fba565b806040517f08c379a0000000000000000000000000000000000000000000000000000000008152600401612faf919061341b565b60405180910390fd5b505b6040517f08c379a0000000000000000000000000000000000000000000000000000000008152600401612fec906153ec565b60405180910390fd5b63bc197c8160e01b7bffffffffffffffffffffffffffffffffffffffffffffffffffffffff1916817bffffffffffffffffffffffffffffffffffffffffffffffffffffffff19161461307c576040517f08c379a00000000000000000000000000000000000000000000000000000000081526004016130739061547e565b60405180910390fd5b505b505050505050565b600081600001805490509050919050565b60008260000182815481106130af576130ae614384565b5b9060005260206000200154905092915050565b6000808273ffffffffffffffffffffffffffffffffffffffff163b119050919050565b6040518060c001604052806000815260200160008152602001600073ffffffffffffffffffffffffffffffffffffffff1681526020016000815260200160008152602001600081525090565b60405180604001604052806131446130e5565b8152602001600081525090565b6000604051905090565b600080fd5b600080fd5b600073ffffffffffffffffffffffffffffffffffffffff82169050919050565b600061319082613165565b9050919050565b6131a081613185565b81146131ab57600080fd5b50565b6000813590506131bd81613197565b92915050565b6000819050919050565b6131d6816131c3565b81146131e157600080fd5b50565b6000813590506131f3816131cd565b92915050565b600080604083850312156132105761320f61315b565b5b600061321e858286016131ae565b925050602061322f858286016131e4565b9150509250929050565b613242816131c3565b82525050565b600060208201905061325d6000830184613239565b92915050565b60007fffffffff0000000000000000000000000000000000000000000000000000000082169050919050565b61329881613263565b81146132a357600080fd5b50565b6000813590506132b58161328f565b92915050565b6000602082840312156132d1576132d061315b565b5b60006132df848285016132a6565b91505092915050565b60008115159050919050565b6132fd816132e8565b82525050565b600060208201905061331860008301846132f4565b92915050565b600080604083850312156133355761333461315b565b5b6000613343858286016131e4565b9250506020613354858286016131e4565b9150509250929050565b6000602082840312156133745761337361315b565b5b6000613382848285016131e4565b91505092915050565b600081519050919050565b600082825260208201905092915050565b60005b838110156133c55780820151818401526020810190506133aa565b60008484015250505050565b6000601f19601f8301169050919050565b60006133ed8261338b565b6133f78185613396565b93506134078185602086016133a7565b613410816133d1565b840191505092915050565b6000602082019050818103600083015261343581846133e2565b905092915050565b600081519050919050565b600082825260208201905092915050565b6000819050602082019050919050565b613472816131c3565b82525050565b61348181613185565b82525050565b60c08201600082015161349d6000850182613469565b5060208201516134b06020850182613469565b5060408201516134c36040850182613478565b5060608201516134d66060850182613469565b5060808201516134e96080850182613469565b5060a08201516134fc60a0850182613469565b50505050565b600061350e8383613487565b60c08301905092915050565b6000602082019050919050565b60006135328261343d565b61353c8185613448565b935061354783613459565b8060005b8381101561357857815161355f8882613502565b975061356a8361351a565b92505060018101905061354b565b5085935050505092915050565b6000602082019050818103600083015261359f8184613527565b905092915050565b600080fd5b7f4e487b7100000000000000000000000000000000000000000000000000000000600052604160045260246000fd5b6135e4826133d1565b810181811067ffffffffffffffff82111715613603576136026135ac565b5b80604052505050565b6000613616613151565b905061362282826135db565b919050565b600067ffffffffffffffff821115613642576136416135ac565b5b602082029050602081019050919050565b600080fd5b600061366b61366684613627565b61360c565b9050808382526020820190506020840283018581111561368e5761368d613653565b5b835b818110156136b757806136a388826131e4565b845260208401935050602081019050613690565b5050509392505050565b600082601f8301126136d6576136d56135a7565b5b81356136e6848260208601613658565b91505092915050565b600080fd5b600067ffffffffffffffff82111561370f5761370e6135ac565b5b613718826133d1565b9050602081019050919050565b82818337600083830152505050565b6000613747613742846136f4565b61360c565b905082815260208101848484011115613763576137626136ef565b5b61376e848285613725565b509392505050565b600082601f83011261378b5761378a6135a7565b5b813561379b848260208601613734565b91505092915050565b600080600080600060a086880312156137c0576137bf61315b565b5b60006137ce888289016131ae565b95505060206137df888289016131ae565b945050604086013567ffffffffffffffff811115613800576137ff613160565b5b61380c888289016136c1565b935050606086013567ffffffffffffffff81111561382d5761382c613160565b5b613839888289016136c1565b925050608086013567ffffffffffffffff81111561385a57613859613160565b5b61386688828901613776565b9150509295509295909350565b61387c81613185565b82525050565b600060c0820190506138976000830189613239565b6138a46020830188613239565b6138b16040830187613873565b6138be6060830186613239565b6138cb6080830185613239565b6138d860a0830184613239565b979650505050505050565b60008060008060008060c08789031215613900576138ff61315b565b5b600061390e89828a016131e4565b965050602061391f89828a016131e4565b955050604061393089828a016131ae565b945050606061394189828a016131e4565b935050608061395289828a016131e4565b92505060a061396389828a016131e4565b9150509295509295509295565b600067ffffffffffffffff82111561398b5761398a6135ac565b5b602082029050602081019050919050565b60006139af6139aa84613970565b61360c565b905080838252602082019050602084028301858111156139d2576139d1613653565b5b835b818110156139fb57806139e788826131ae565b8452602084019350506020810190506139d4565b5050509392505050565b600082601f830112613a1a57613a196135a7565b5b8135613a2a84826020860161399c565b91505092915050565b60008060408385031215613a4a57613a4961315b565b5b600083013567ffffffffffffffff811115613a6857613a67613160565b5b613a7485828601613a05565b925050602083013567ffffffffffffffff811115613a9557613a94613160565b5b613aa1858286016136c1565b9150509250929050565b600081519050919050565b600082825260208201905092915050565b6000819050602082019050919050565b6000613ae38383613469565b60208301905092915050565b6000602082019050919050565b6000613b0782613aab565b613b118185613ab6565b9350613b1c83613ac7565b8060005b83811015613b4d578151613b348882613ad7565b9750613b3f83613aef565b925050600181019050613b20565b5085935050505092915050565b60006020820190508181036000830152613b748184613afc565b905092915050565b600060208284031215613b9257613b9161315b565b5b6000613ba0848285016131ae565b91505092915050565b600067ffffffffffffffff821115613bc457613bc36135ac565b5b613bcd826133d1565b9050602081019050919050565b6000613bed613be884613ba9565b61360c565b905082815260208101848484011115613c0957613c086136ef565b5b613c14848285613725565b509392505050565b600082601f830112613c3157613c306135a7565b5b8135613c41848260208601613bda565b91505092915050565b600060208284031215613c6057613c5f61315b565b5b600082013567ffffffffffffffff811115613c7e57613c7d613160565b5b613c8a84828501613c1c565b91505092915050565b6000602082019050613ca86000830184613873565b92915050565b613cb7816132e8565b8114613cc257600080fd5b50565b600081359050613cd481613cae565b92915050565b60008060408385031215613cf157613cf061315b565b5b6000613cff858286016131ae565b9250506020613d1085828601613cc5565b9150509250929050565b600081519050919050565b600082825260208201905092915050565b6000819050602082019050919050565b60e082016000820151613d5c6000850182613487565b506020820151613d6f60c0850182613469565b50505050565b6000613d818383613d46565b60e08301905092915050565b6000602082019050919050565b6000613da582613d1a565b613daf8185613d25565b9350613dba83613d36565b8060005b83811015613deb578151613dd28882613d75565b9750613ddd83613d8d565b925050600181019050613dbe565b5085935050505092915050565b60006020820190508181036000830152613e128184613d9a565b905092915050565b60008060408385031215613e3157613e3061315b565b5b6000613e3f858286016131ae565b9250506020613e50858286016131ae565b9150509250929050565b600080600080600060a08688031215613e7657613e7561315b565b5b6000613e84888289016131ae565b9550506020613e95888289016131ae565b9450506040613ea6888289016131e4565b9350506060613eb7888289016131e4565b925050608086013567ffffffffffffffff811115613ed857613ed7613160565b5b613ee488828901613776565b9150509295509295909350565b7f455243313135353a2061646472657373207a65726f206973206e6f742061207660008201527f616c6964206f776e657200000000000000000000000000000000000000000000602082015250565b6000613f4d602a83613396565b9150613f5882613ef1565b604082019050919050565b60006020820190508181036000830152613f7c81613f40565b9050919050565b7f47616d65204944206d7573742062652063726561746564000000000000000000600082015250565b6000613fb9601783613396565b9150613fc482613f83565b602082019050919050565b60006020820190508181036000830152613fe881613fac565b9050919050565b7f546865207072696365206d75737420626520706f736974697665000000000000600082015250565b6000614025601a83613396565b915061403082613fef565b602082019050919050565b6000602082019050818103600083015261405481614018565b9050919050565b7f4d696e74206d7573742062652061637469766520746f206d696e740000000000600082015250565b6000614091601b83613396565b915061409c8261405b565b602082019050919050565b600060208201905081810360008301526140c081614084565b9050919050565b7f4e6f2067616d6573206372656174656400000000000000000000000000000000600082015250565b60006140fd601083613396565b9150614108826140c7565b602082019050919050565b6000602082019050818103600083015261412c816140f0565b9050919050565b7f496e73756666696369656e742066756e64730000000000000000000000000000600082015250565b6000614169601283613396565b915061417482614133565b602082019050919050565b600060208201905081810360008301526141988161415c565b9050919050565b7f496e73756666696369656e7420737570706c792e2049742773206f7665722e00600082015250565b60006141d5601f83613396565b91506141e08261419f565b602082019050919050565b60006020820190508181036000830152614204816141c8565b9050919050565b7f47616d65206e6f742072656c6561736564207965740000000000000000000000600082015250565b6000614241601583613396565b915061424c8261420b565b602082019050919050565b6000602082019050818103600083015261427081614234565b9050919050565b600081905092915050565b600061428d8261338b565b6142978185614277565b93506142a78185602086016133a7565b80840191505092915050565b7f2e6a736f6e000000000000000000000000000000000000000000000000000000600082015250565b60006142e9600583614277565b91506142f4826142b3565b600582019050919050565b600061430b8284614282565b9150614316826142dc565b915081905092915050565b7f4e487b7100000000000000000000000000000000000000000000000000000000600052601160045260246000fd5b600061435b826131c3565b9150614366836131c3565b925082820390508181111561437e5761437d614321565b5b92915050565b7f4e487b7100000000000000000000000000000000000000000000000000000000600052603260045260246000fd5b60006143be826131c3565b91507fffffffffffffffffffffffffffffffffffffffffffffffffffffffffffffffff82036143f0576143ef614321565b5b600182019050919050565b7f455243313135353a2063616c6c6572206973206e6f7420746f6b656e206f776e60008201527f6572206f7220617070726f766564000000000000000000000000000000000000602082015250565b6000614457602e83613396565b9150614462826143fb565b604082019050919050565b600060208201905081810360008301526144868161444a565b9050919050565b7f4d757374206265206120706f736974697665206e756d62657200000000000000600082015250565b60006144c3601983613396565b91506144ce8261448d565b602082019050919050565b600060208201905081810360008301526144f2816144b6565b9050919050565b7f546f6b656e20494420616c726561647920657869737473000000000000000000600082015250565b600061452f601783613396565b915061453a826144f9565b602082019050919050565b6000602082019050818103600083015261455e81614522565b9050919050565b7f496e76616c696420707269636500000000000000000000000000000000000000600082015250565b600061459b600d83613396565b91506145a682614565565b602082019050919050565b600060208201905081810360008301526145ca8161458e565b9050919050565b7f496e76616c696420616464726573730000000000000000000000000000000000600082015250565b6000614607600f83613396565b9150614612826145d1565b602082019050919050565b60006020820190508181036000830152614636816145fa565b9050919050565b7f496e76616c696420737570706c79000000000000000000000000000000000000600082015250565b6000614673600e83613396565b915061467e8261463d565b602082019050919050565b600060208201905081810360008301526146a281614666565b9050919050565b7f496e76616c69642070657263656e7461676520726f79616c7479000000000000600082015250565b60006146df601a83613396565b91506146ea826146a9565b602082019050919050565b6000602082019050818103600083015261470e816146d2565b9050919050565b7f54696d65206d75737420626520706f7369746976650000000000000000000000600082015250565b600061474b601583613396565b915061475682614715565b602082019050919050565b6000602082019050818103600083015261477a8161473e565b9050919050565b7f455243313135353a206163636f756e747320616e6420696473206c656e67746860008201527f206d69736d617463680000000000000000000000000000000000000000000000602082015250565b60006147dd602983613396565b91506147e882614781565b604082019050919050565b6000602082019050818103600083015261480c816147d0565b9050919050565b7f546865206d61726b6574706c616365206164647265737320697320696e636f7260008201527f7265637400000000000000000000000000000000000000000000000000000000602082015250565b600061486f602483613396565b915061487a82614813565b604082019050919050565b6000602082019050818103600083015261489e81614862565b9050919050565b7f546865207573657220686173206e6f742070757263686173656420616e79204e60008201527f4654730000000000000000000000000000000000000000000000000000000000602082015250565b6000614901602383613396565b915061490c826148a5565b604082019050919050565b60006020820190508181036000830152614930816148f4565b9050919050565b7f4f776e61626c653a206e6577206f776e657220697320746865207a65726f206160008201527f6464726573730000000000000000000000000000000000000000000000000000602082015250565b6000614993602683613396565b915061499e82614937565b604082019050919050565b600060208201905081810360008301526149c281614986565b9050919050565b7f4f776e61626c653a2063616c6c6572206973206e6f7420746865206f776e6572600082015250565b60006149ff602083613396565b9150614a0a826149c9565b602082019050919050565b60006020820190508181036000830152614a2e816149f2565b9050919050565b7f4e487b7100000000000000000000000000000000000000000000000000000000600052602260045260246000fd5b60006002820490506001821680614a7c57607f821691505b602082108103614a8f57614a8e614a35565b5b50919050565b60008190508160005260206000209050919050565b60008154614ab781614a64565b614ac18186614277565b94506001821660008114614adc5760018114614af157614b24565b60ff1983168652811515820286019350614b24565b614afa85614a95565b60005b83811015614b1c57815481890152600182019150602081019050614afd565b838801955050505b50505092915050565b6000614b398285614aaa565b9150614b458284614282565b91508190509392505050565b7f455243313135353a206d696e7420746f20746865207a65726f2061646472657360008201527f7300000000000000000000000000000000000000000000000000000000000000602082015250565b6000614bad602183613396565b9150614bb882614b51565b604082019050919050565b60006020820190508181036000830152614bdc81614ba0565b9050919050565b6000614bee826131c3565b9150614bf9836131c3565b9250828201905080821115614c1157614c10614321565b5b92915050565b6000604082019050614c2c6000830185613239565b614c396020830184613239565b9392505050565b7f4e487b7100000000000000000000000000000000000000000000000000000000600052601260045260246000fd5b60006020601f8301049050919050565b600082821b905092915050565b600060088302614cbc7fffffffffffffffffffffffffffffffffffffffffffffffffffffffffffffffff82614c7f565b614cc68683614c7f565b95508019841693508086168417925050509392505050565b6000819050919050565b6000614d03614cfe614cf9846131c3565b614cde565b6131c3565b9050919050565b6000819050919050565b614d1d83614ce8565b614d31614d2982614d0a565b848454614c8c565b825550505050565b600090565b614d46614d39565b614d51818484614d14565b505050565b5b81811015614d7557614d6a600082614d3e565b600181019050614d57565b5050565b601f821115614dba57614d8b81614a95565b614d9484614c6f565b81016020851015614da3578190505b614db7614daf85614c6f565b830182614d56565b50505b505050565b600082821c905092915050565b6000614ddd60001984600802614dbf565b1980831691505092915050565b6000614df68383614dcc565b9150826002028217905092915050565b614e0f8261338b565b67ffffffffffffffff811115614e2857614e276135ac565b5b614e328254614a64565b614e3d828285614d79565b600060209050601f831160018114614e705760008415614e5e578287015190505b614e688582614dea565b865550614ed0565b601f198416614e7e86614a95565b60005b82811015614ea657848901518255600182019150602085019450602081019050614e81565b86831015614ec35784890151614ebf601f891682614dcc565b8355505b6001600288020188555050505b505050505050565b6000614ee3826131c3565b9150614eee836131c3565b9250828202614efc816131c3565b91508282048414831517614f1357614f12614321565b5b5092915050565b6000614f25826131c3565b9150614f30836131c3565b925082614f4057614f3f614c40565b5b828204905092915050565b7f455243313135353a2069647320616e6420616d6f756e7473206c656e6774682060008201527f6d69736d61746368000000000000000000000000000000000000000000000000602082015250565b6000614fa7602883613396565b9150614fb282614f4b565b604082019050919050565b60006020820190508181036000830152614fd681614f9a565b9050919050565b7f455243313135353a207472616e7366657220746f20746865207a65726f20616460008201527f6472657373000000000000000000000000000000000000000000000000000000602082015250565b6000615039602583613396565b915061504482614fdd565b604082019050919050565b600060208201905081810360008301526150688161502c565b9050919050565b7f455243313135353a20696e73756666696369656e742062616c616e636520666f60008201527f72207472616e7366657200000000000000000000000000000000000000000000602082015250565b60006150cb602a83613396565b91506150d68261506f565b604082019050919050565b600060208201905081810360008301526150fa816150be565b9050919050565b6000604082019050818103600083015261511b8185613afc565b9050818103602083015261512f8184613afc565b90509392505050565b7f455243313135353a2073657474696e6720617070726f76616c2073746174757360008201527f20666f722073656c660000000000000000000000000000000000000000000000602082015250565b6000615194602983613396565b915061519f82615138565b604082019050919050565b600060208201905081810360008301526151c381615187565b9050919050565b600081519050919050565b600082825260208201905092915050565b60006151f1826151ca565b6151fb81856151d5565b935061520b8185602086016133a7565b615214816133d1565b840191505092915050565b600060a0820190506152346000830188613873565b6152416020830187613873565b61524e6040830186613239565b61525b6060830185613239565b818103608083015261526d81846151e6565b90509695505050505050565b6000815190506152888161328f565b92915050565b6000602082840312156152a4576152a361315b565b5b60006152b284828501615279565b91505092915050565b60008160e01c9050919050565b600060033d11156152e75760046000803e6152e46000516152bb565b90505b90565b600060443d10615377576152fc613151565b60043d036004823e80513d602482011167ffffffffffffffff82111715615324575050615377565b808201805167ffffffffffffffff8111156153425750505050615377565b80602083010160043d03850181111561535f575050505050615377565b61536e826020018501866135db565b82955050505050505b90565b7f455243313135353a207472616e7366657220746f206e6f6e2d4552433131353560008201527f526563656976657220696d706c656d656e746572000000000000000000000000602082015250565b60006153d6603483613396565b91506153e18261537a565b604082019050919050565b60006020820190508181036000830152615405816153c9565b9050919050565b7f455243313135353a204552433131353552656365697665722072656a6563746560008201527f6420746f6b656e73000000000000000000000000000000000000000000000000602082015250565b6000615468602883613396565b91506154738261540c565b604082019050919050565b600060208201905081810360008301526154978161545b565b9050919050565b600060a0820190506154b36000830188613873565b6154c06020830187613873565b81810360408301526154d28186613afc565b905081810360608301526154e68185613afc565b905081810360808301526154fa81846151e6565b9050969550505050505056fea26469706673582212206d48e363ef25d6c93e2d8cb67a8ce2c6bbb197c10b9fc31aeb9055725c49410e64736f6c63430008130033",
  "immutableReferences": {},
  "source": "// SPDX-License-Identifier: MIT\npragma solidity >=0.8.0 <0.9.0;\n\nimport \"@openzeppelin/contracts/token/ERC1155/ERC1155.sol\";\nimport \"@openzeppelin/contracts/token/ERC1155/extensions/ERC1155URIStorage.sol\";\nimport \"@openzeppelin/contracts/access/Ownable.sol\";\nimport \"@openzeppelin/contracts/utils/structs/EnumerableSet.sol\";\nimport \"@openzeppelin/contracts/utils/math/SafeMath.sol\";\nimport \"@openzeppelin/contracts/utils/Strings.sol\";\n\n\ncontract TOKENPLAY is ERC1155, ERC1155URIStorage, Ownable {\n    using SafeMath for uint256;\n    using Strings for uint256;\n    using EnumerableSet for EnumerableSet.UintSet;\n\n    bool public mintIsActive = false;\n\n    // Estructura para guardar los datos relevantes del NFT\n    struct NftGameInfo {\n        uint256 tokenId;\n        uint256 price;\n        address gameOwnerAddress;\n        uint256 supply;\n        uint256 tokenPlayRoyaltyPercentage;\n        uint256 gameRelease;\n    }\n\n    // Estructura para devolver los juegos que ha comprado un usuario y la cantidad que tiene de cada juego\n    struct PurchasedNft {\n        NftGameInfo game;\n        uint256 qty;\n    }\n\n    constructor(string memory _baseURI) ERC1155(_baseURI) {\n        _setBaseURI(_baseURI);\n    }\n\n    // Contador autoincremental, cada nmero ser un juego (token)\n    uint256 public nextTokenId = 0;\n\n    // Estructura, donde por cada juego definiremos el precio\n    mapping(uint256 => NftGameInfo) public gamesInfo;\n    mapping(address => EnumerableSet.UintSet) private purchasedNFTs;\n\n    // Contador de juegos\n    mapping(uint256 => uint256) public nGames;\n\n    // Estructura para definir el supply de cada juego\n    mapping(uint256 => uint256) public _totalSupply;\n\n    // Evento para notificar que se ha realizado el mint\n    event Purchased(address indexed minter, uint256 indexed tokenId);\n\n    // Funcin para comprobar que existe el token\n    function _exists(uint256 tokenTest) internal view virtual returns (bool) {\n        return gamesInfo[tokenTest].tokenId == tokenTest;\n    }\n\n    // Funcin para aadir un juego (crear un token)\n    function addNFT(uint256 tokenId,uint256 price, address gameOwnerAddress, uint256 supply, uint256 tokenPlayRoyaltyPercentage, uint256 gameRelease ) external onlyOwner {\n        require(!_exists(tokenId), \"Token ID already exists\");\n        require(price > 0, \"Invalid price\");\n        require( gameOwnerAddress != address(0), \"Invalid address\");\n        require(supply > 0, \"Invalid supply\");\n        require(tokenPlayRoyaltyPercentage >= 0, \"Invalid percentage royalty\");\n        require(gameRelease >= 0, \"Time must be positive\");\n\n        // Contabilizamos el juego aadido\n        nGames[nextTokenId] = tokenId;\n        nextTokenId = nextTokenId.add(1);\n\n        gamesInfo[tokenId] = NftGameInfo(tokenId, price, gameOwnerAddress, supply, tokenPlayRoyaltyPercentage, gameRelease);\n\n    }\n\n    // Funcin para comprar un juego (un token)\n    function purchaseNFT(uint256 tokenId) external payable {\n        require(mintIsActive, \"Mint must be active to mint\");\n        require(nextTokenId > 0, \"No games created\");\n        require(_exists(tokenId), \"Game ID must be created\");\n        uint256 price = gamesInfo[tokenId].price;\n        require(msg.value >= price, \"Insufficient funds\"); \n        require(gamesInfo[tokenId].supply > 0, \"Insufficient supply. It's over.\");\n        require(gamesInfo[tokenId].gameRelease <= block.timestamp, \"Game not released yet\");\n        \n        // Minteamos el NFT al comprador y registramos al array de juegos que tiene comprados (si el Id ya existe no lo registramos de nuevo)\n        _mint(msg.sender, tokenId, 1, \"\");\n        if (!purchasedNFTs[msg.sender].contains(tokenId)) {\n            purchasedNFTs[msg.sender].add(tokenId);\n        }\n\n        // Asignamos el URI al juego con el ID y la extensin\n        _setURI(tokenId, string(abi.encodePacked(tokenId.toString(), \".json\")));\n\n        // Restamos del supply total el juego comprado\n        gamesInfo[tokenId].supply = gamesInfo[tokenId].supply.sub(1);\n        // Guardamos el supply del NFT\n        _totalSupply[tokenId] = gamesInfo[tokenId].supply;\n\n\n        // Calculamos los porcentajes que se lleva cada parte y hacemos la transferencia de los tokens\n        uint256 paymentAmount = price;\n        uint256 tokenPlay = paymentAmount.mul(gamesInfo[tokenId].tokenPlayRoyaltyPercentage).div(100); // royaltypercentage para token play\n        uint256 gameOwner = paymentAmount.sub(tokenPlay);  // el restante para game owner\n\n        payable(owner()).transfer(tokenPlay);\n        payable(gamesInfo[tokenId].gameOwnerAddress).transfer(gameOwner);\n\n        // Si el usuario ha pagado de mas, le devolvemos el dinero\n        if (msg.value > price) {\n            payable(msg.sender).transfer(msg.value - price);\n        }\n\n        emit Purchased(msg.sender, tokenId);\n    }\n    \n    // Funcion para obtener los juegos que ha comprado un usuario\n    function getPurchasedNFTs(address account) external view returns (PurchasedNft[] memory) {\n        require( account != address(0), \"Invalid address\");\n        uint256 purchasedCount = purchasedNFTs[account].length();\n        require(purchasedCount > 0, \"The user has not purchased any NFTs\");\n\n        PurchasedNft[] memory accountGames = new PurchasedNft[](purchasedNFTs[account].length());\n\n        for (uint256 i = 0; i < purchasedNFTs[account].length(); i++) {\n            uint256 id = purchasedNFTs[account].at(i);\n            accountGames[i].game = gamesInfo[id];\n            accountGames[i].qty = balanceOf(account, id);\n        }\n\n        return accountGames;\n    }\n    \n    // Funcin para obtener todos los juegos disponibles\n    function getNFTs() external view returns (NftGameInfo[] memory) {\n        require(nextTokenId > 0, \"No games created\");\n\n        NftGameInfo[] memory allNFTs = new NftGameInfo[](nextTokenId);\n\n        for (uint256 i = 0; i < nextTokenId; i++) {\n            if (gamesInfo[nGames[i]].gameRelease <= block.timestamp) {\n                NftGameInfo storage nftInfo = gamesInfo[nGames[i]]; \n                allNFTs[i] = nftInfo;\n            }\n        }\n\n        return allNFTs;\n    }\n\n    // Funcin para cambiar el porcentaje de royalty que nos llevamos\n    function setRoyaltyPercentage(uint256 tokenId, uint256 royaltyPercentage) public onlyOwner {\n        require(royaltyPercentage >= 0, \"Must be a positive number\");\n        gamesInfo[tokenId].tokenPlayRoyaltyPercentage = royaltyPercentage;\n    }\n\n    // Funcion para cambiar el precio del juego\n    function setMintPrice(uint256 tokenId, uint256 _mintPrice) public onlyOwner {\n        require(_exists(tokenId), \"Game ID must be created\");\n        require(_mintPrice >= 0, \"The price must be positive\");\n        gamesInfo[tokenId].price = _mintPrice;\n    }\n\n    // Funcion para saber el supply de un juego\n    function totalSupply(uint256 tokenId) public view returns (uint256) {\n        require(_exists(tokenId), \"Game ID must be created\");\n        return _totalSupply[tokenId];\n    }\n\n    // Funcin para activar o desactivar la compra de juegos (tokens)\n    function flipMintState() public onlyOwner {\n        mintIsActive = ! mintIsActive;\n    }\n\n    // Funcion para obtener el URI de un juego\n    function uri(uint256 tokenId) public view virtual override(ERC1155, ERC1155URIStorage) returns (string memory) {\n        require(_exists(tokenId), \"Game ID must be created\");\n\n        return super.uri(tokenId);\n    }\n\n    // Funcin para modificar el URI del juego\n    function setBaseURI(string memory baseURI) public onlyOwner {\n        _setBaseURI(baseURI);\n    }\n\n    // Funcion para dar de alta el mercado secundario\n    function approveMarketplace(address marketplace) external onlyOwner{\n        require(marketplace != address(0), \"The marketplace address is incorrect\");\n        setApprovalForAll(marketplace, true);\n    }\n    /*\n    // Funcin para obtener los juegos de una categoria\n    function getCategoryNFTs(string memory category) external view returns (NftGameInfo[] memory) {\n        NftGameInfo[] memory matchingNFTs;\n        uint256 matchingCount = 0;\n\n        for (uint256 i = 0; i < nextTokenId; i++) {\n            NftGameInfo storage nftInfo = gamesInfo[i]; // habra que cambiar la i\n            if(gamesInfo[i].gameRelease <= block.timestamp && keccak256(abi.encodePacked(nftInfo.category)) == keccak256(abi.encodePacked(category))){\n                matchingCount++;\n            }\n        }\n\n        matchingNFTs = new NftGameInfo[](matchingCount);\n        uint256 currentIndex = 0;\n\n        for (uint256 i = 0; i < nextTokenId; i++) {\n            NftGameInfo storage nftInfo = gamesInfo[i]; // habra que cambiar la i\n            if(gamesInfo[i].gameRelease <= block.timestamp && keccak256(abi.encodePacked(nftInfo.category)) == keccak256(abi.encodePacked(category))){\n                matchingNFTs[currentIndex] = nftInfo;\n                currentIndex++;\n            }\n        }\n\n        return matchingNFTs;\n    }\n    */\n}\n",
  "sourcePath": "C:\\Users\\User\\Desktop\\PC\\2_Master\\BSM_Engineering\\TFM\\DAPP\\dapp\\contracts\\TOKENPLAY.sol",
  "compiler": {
    "name": "solc",
    "version": "0.8.19+commit.7dd6d404.Emscripten.clang"
  },
  "schemaVersion": "3.4.14",
  "updatedAt": "2023-08-22T17:39:40.736Z",
  "networkType": "ethereum",
  "devdoc": {
    "events": {
      "ApprovalForAll(address,address,bool)": {
        "details": "Emitted when `account` grants or revokes permission to `operator` to transfer their tokens, according to `approved`."
      },
      "TransferBatch(address,address,address,uint256[],uint256[])": {
        "details": "Equivalent to multiple {TransferSingle} events, where `operator`, `from` and `to` are the same for all transfers."
      },
      "TransferSingle(address,address,address,uint256,uint256)": {
        "details": "Emitted when `value` tokens of token type `id` are transferred from `from` to `to` by `operator`."
      },
      "URI(string,uint256)": {
        "details": "Emitted when the URI for token type `id` changes to `value`, if it is a non-programmatic URI. If an {URI} event was emitted for `id`, the standard https://eips.ethereum.org/EIPS/eip-1155#metadata-extensions[guarantees] that `value` will equal the value returned by {IERC1155MetadataURI-uri}."
      }
    },
    "kind": "dev",
    "methods": {
      "balanceOf(address,uint256)": {
        "details": "See {IERC1155-balanceOf}. Requirements: - `account` cannot be the zero address."
      },
      "balanceOfBatch(address[],uint256[])": {
        "details": "See {IERC1155-balanceOfBatch}. Requirements: - `accounts` and `ids` must have the same length."
      },
      "isApprovedForAll(address,address)": {
        "details": "See {IERC1155-isApprovedForAll}."
      },
      "owner()": {
        "details": "Returns the address of the current owner."
      },
      "renounceOwnership()": {
        "details": "Leaves the contract without owner. It will not be possible to call `onlyOwner` functions. Can only be called by the current owner. NOTE: Renouncing ownership will leave the contract without an owner, thereby disabling any functionality that is only available to the owner."
      },
      "safeBatchTransferFrom(address,address,uint256[],uint256[],bytes)": {
        "details": "See {IERC1155-safeBatchTransferFrom}."
      },
      "safeTransferFrom(address,address,uint256,uint256,bytes)": {
        "details": "See {IERC1155-safeTransferFrom}."
      },
      "setApprovalForAll(address,bool)": {
        "details": "See {IERC1155-setApprovalForAll}."
      },
      "supportsInterface(bytes4)": {
        "details": "See {IERC165-supportsInterface}."
      },
      "transferOwnership(address)": {
        "details": "Transfers ownership of the contract to a new account (`newOwner`). Can only be called by the current owner."
      }
    },
    "version": 1
  },
  "userdoc": {
    "kind": "user",
    "methods": {},
    "version": 1
  }
}